:020000040800F2
:1000000038CE012059020008177C00084961000819
:10001000137C0008092B00081B9700080000000053
:10002000000000000000000000000000A101000826
:100030008B42000800000000F50100089D8B0008BD
:1000400073020008730200087302000873020008BC
:1000500073020008730200087302000873020008AC
:10006000730200087302000873020008730200089C
:10007000730200087302000873020008730200088C
:10008000730200087302000873020008730200087C
:100090000D2B0008730200087302000873020008A9
:1000A000730200087302000873020008730200085C
:1000B00073020008158C0008A98C00087302000860
:1000C000730200087302000873020008730200083C
:1000D000730200083191000895910008730200082E
:1000E000730200087302000873020008730200081C
:1000F000730200087302000873020008730200080C
:1001000073020008730200087302000873020008FB
:1001100073020008730200087302000873020008EB
:1001200073020008730200087302000873020008DB
:1001300073020008730200087302000873020008CB
:1001400073020008C12E0008730200087302000841
:100150007302000873020008730200089D920008F1
:10016000730200087302000873020008730200089B
:10017000730200087302000873020008730200088B
:100180007302000873020008DFF810D001F040F895
:1001900000480047F9EB0008AFF3008038CE01209B
:1001A0002A4B19680868B0E8F04F80F30988BFF35C
:1001B0006F8F4FF0000080F311887047000000003F
:1001C00006480068006880F3088862B661B6BFF32D
:1001D0004F8FBFF36F8F00DF00BF00BF08ED00E05F
:1001E000DFF80C00016841F470010160704700BF46
:1001F00088ED00E0EFF30980BFF36F8F134B1A68AF
:100200001EF0100F08BF20ED108A20E9F04F10609B
:1002100008B44FF0500080F31188BFF34F8FBFF345
:100220006F8F12F0C1FC4FF0000080F3118808BC02
:1002300019680868B0E8F04F1EF0100F08BFB0EC66
:10024000108A80F30988BFF36F8F70475C06002027
:10025000EFF30580704700000648804706480047D6
:10026000FEE7FEE7FEE7FEE7FEE7FEE7FEE7FEE766
:10027000FEE7FEE7AD8B0008890100089FED1A1A22
:10028000F5EE000A40EE010ABDEEE00AF5EEC00A06
:1002900010EE100AF1EE10FA38BF401E00EE100A00
:1002A0001349F7EE001AB8EEC00A30EEC00ADFEDCF
:1002B0000F0A20EE200AFCEEC00A10EE900AC0F3EE
:1002C000080000EE900A01EB8000F8EE600A90ED65
:1002D000011A70EE600A90ED000A71EEE01A21EE4C
:1002E000800A00EE810A704783F9223E0000004434
:1002F000A03F0108DFED190AB5EEC00A60EE200A42
:10030000BDEEE01A11EE100AF1EE10FA38BF401EF1
:1003100000EE100A1349F7EE001AB8EEC00A30EEEC
:10032000C00ADFED0F0A60EE200ABCEEE00A10EE14
:10033000100AC0F3080000EE100A01EB8000B8EECE
:10034000400A90ED011A70EEC00A90ED000A71EEBD
:10035000E01A21EE800A00EE810A704783F9223EFE
:1003600000000044A03F01080180428043607047C4
:100370002DE9F34F84B004984068009048680190DC
:100380000498B0F800E04588DFEDFE0A00200290F6
:10039000B0EE600AAE4506D108884988884204BF9D
:1003A0007146864504D06FF0020006B0BDE8F08FBC
:1003B00001985FEA010C18BFB7EE001A3DD000BFEC
:1003C000BEEB0C0117D0B1F1004F80F01F82002965
:1003D00011DD021F11F0010F1CBFC2ED010A121D39
:1003E0004B1006D0C2ED010AC2ED020A08325B1EB4
:1003F000F8D100EB8100BCF10102A0EC011A19D088
:10040000B2F1004F80F00882002A13DD031F12F0C2
:10041000010F1CBFC3ED010A1B1D511008D000BF06
:10042000C3ED010AC3ED020A491E03F10803F7D127
:1004300000EB8200BCF1010CC2D14FF00008039523
:10044000002D14BFB0EE602A002000F0BF8100BF75
:10045000009908FB05F001EB800B0199DBED002A08
:1004600001EB80000346F0EE421AC64552D9AEEBCE
:100470000802ABEB850112F0010F17D001EB8501EB
:1004800091ED000AB5EEC00AF1EE10FA07DDB4EE08
:10049000E10AF1EE10FA09DDF0EE401A06E0B1EEE5
:1004A000400AF4EEC01AF1EE10FAF5D3521031D032
:1004B00001EB850C9CED000AB5EEC00AF1EE10FAD6
:1004C00005DDB4EEE10AF1EE10FA09DD06E0B1EE69
:1004D000400AF4EEC01AF1EE10FA01D2F0EE401A22
:1004E00001EBC50191ED000AB5EEC00AF1EE10FA7C
:1004F00005DDB4EEE10AF1EE10FA09DD06E0B1EE39
:10050000400AF4EEC01AF1EE10FA01D2F0EE401AF1
:10051000521ECDD1F5EEC01AF1EE10FA00F0738143
:10052000F5EEC02A0126F1EE10FA0099D4BFB1EE23
:10053000620AB0EE620AB4EE610AF1EE10FA1CBF74
:10054000AEEB0802B2F1010C47D005FB08F201EB5B
:10055000820292ED001A00BFB0EE410A05FB06F4DC
:10056000B5EEC00A00EB8404F1EE10FACCBFF0EE59
:10057000400AF1EE400AF4EE610AF1EE10FA28D1D9
:10058000B5EB080C11D0BCF1004F7DD2BCF1000FCF
:100590000BDD00BF92ED000AD1ED000ABCF1010CA9
:1005A000E2EC010AA1EC010AF4D129000ED0B1F16C
:1005B000004F6AD2002909DD94ED000AD0ED000A4F
:1005C000491EE4EC010AA0EC010AF5D101200290D9
:1005D0000BE0761CBCF1010CBED10298012804D0BE
:1005E000F5EEC02AF1EE10FA7ED09BED000AB5EBD5
:1005F00008009A465946064622D0B0F1004F74D200
:1006000000281DDD091F10F0010F06D0F0EE400A92
:1006100080EEA01A81ED011A091D401010D000BF14
:10062000D1ED010A401E80EE801A81ED011A91ED94
:10063000021AC1EE000AC1ED020A01F10801EFD170
:10064000280026D0B0F1004F7ED2002821DDAAF18B
:10065000040110F0010F06D0D1ED010A80EE801ADE
:1006600081ED011A091D401013D000BFD1ED010A20
:10067000401E80EE801A81ED011AD1ED020A80EE53
:10068000801A81ED021A01E0CBE0D6E001F1080109
:10069000ECD1DDE900124FF000095FEA0E0773D0DC
:1006A000C14504BF01EB860102EB850274D091EDD8
:1006B000000ADC465046330035D01C46B6F1004FE8
:1006C0007ED2002C2FDD0B1FABF1040C16F0010FB6
:1006D0000FD0F0EE400ADCED011AB0EE601A00EE29
:1006E000E11A83ED011A01E08DE0B1E01B1D0CF170
:1006F000040C741015D000BFD3ED010A9CED011A53
:1007000040EE410AC3ED010AD3ED020A9CED021A44
:100710000CF1080C40EE410AC3ED020A0833641ED6
:10072000EAD101EB86012B0036D0B3F1004F72D233
:10073000002B31DDA2F1040CAAF1040013F0010F2B
:100740000CD0DCED010A00E08BE090ED011A001DF9
:1007500040EE410ACCED010A0CF1040C5C1019D0FA
:10076000DCED010A90ED011A40EE410ACCED010AE0
:10077000DCED020A90ED021A083040EE410ACCEDA1
:10078000020A03E0000000000DE005E0641E0CF129
:10079000080CE5D102EB830201EB88017F1E09F111
:1007A00001097FF47DAF009808F10108001D009059
:1007B0000398401E03907FF44BAE0299012900E09C
:1007C00058E004BF06B0BDE8F08F00BFB5EEC00A28
:1007D000F1EE10FA7FF4E9AD04990EFB05F3002B5E
:1007E0004A684FF000010BD902EB810C9CED000A26
:1007F000B5EEC00AF1EE10FA02D1491C8B42F3D8D3
:100800008B427FF4D2AD6FF00400CEE5E0EC010A3C
:10081000491EFBD1EFE538E0E0EC010A521EFBD1A6
:1008200008E692ED000AD1ED000ABCF1010CE2EC01
:10083000010AA1EC010AF4D1B7E694ED000AD0ED6B
:10084000000A491EE4EC010AA0EC010AF5D1BDE65C
:10085000D1ED000A401E80EE801AA1EC011AF7D1FA
:10086000EEE6D3ED000A401E80EE801AA3EC011ADA
:10087000F7D10EE7BCEC011AD1ED000A5B1E40EE89
:10088000410AE1EC010AF5D14DE7B0EC011AD2EDD5
:10089000000A5B1E40EE410AE2EC010AF5D17BE75B
:1008A0002DE9F04F82B04668536801930588478868
:1008B0004B88002000900888874201BFB2F800C032
:1008C0006545528893421EBF6FF0020002B0BDE83A
:1008D000F08F9FED412A4FEA970EC7F3400B00BF00
:1008E000DDE9000202EB800A4A6898464FF00009F1
:1008F000B0EE420AB4465FEA0E0025D092ED001A2F
:10090000DCED001A02EB8302DCED010A01EE810A44
:1009100092ED001A02EB8302401ED2ED001A02EBA8
:10092000830200EE810A9CED021ADCED030A00044A
:100930000CF1100C000C01EE210A92ED001A02EBF2
:10094000830200EE810AD9D117F0030026D0ACF162
:100950000404A2EB830210F0010F08D002EB830223
:10096000D4ED010A92ED001A241D00EE810A5FEA1F
:100970000B0013D002EB830CD4ED010A9CED001A9E
:1009800002EBC302401E00EE810AD4ED020A92ED92
:10099000001A04F1080400EE810AEBD109F101000C
:1009A000AAEC010A1FFA80F9486800EB8902A8F155
:1009B00001001FFA80F8B8F1000F99D1009806EBFA
:1009C0008706184480B20090681E05042D0C87D15C
:1009D00002B00020BDE8F08F000000002DE9F04FCC
:1009E00002884768B0F802804888D1F8049082B045
:1009F0004FF0000A1646824207BF098888456FF00B
:100A0000020002B018BFBDE8F08F4FEA980B02EB6E
:100A100042000190C8F34000CDF8000009EB8A01C4
:100A2000BBF1000F33D0019801EB820C01EB800485
:100A30003B46E64601EBC2054FEA0B0093ED000A88
:100A4000401E81ED000A93ED010A01EB02118CEDCD
:100A5000000A93ED020A0CEB021C85ED000A93EDEF
:100A6000030A05EB021584ED000A04EB021403F1FE
:100A70001003E3D10EEB820000EB820000EB820159
:100A8000ABF10100504307EB0B1701EB001118F01D
:100A9000030C21D03B1FA1EB82011CF0010F06D0FB
:100AA00093ED010A01EB82011B1D81ED000A009804
:100AB00080B100BF93ED010A01EB820401EBC2019A
:100AC00084ED000A93ED020A401E81ED000A03F155
:100AD0000803EFD107EB8C070AF101001FFA80FA37
:100AE000701E0604360C99D102B00020BDE8F08FCC
:100AF00040EA01039B0703D009E008C9121F08C0A0
:100B0000042AFAD203E011F8013B00F8013B521E1F
:100B1000F9D27047D2B201E000F8012B491EFBD296
:100B200070470022F6E710B513460A4604461946F8
:100B3000FFF7F0FF204610BD2DE9FE4F804681EA09
:100B40000300C00F0C46009021F0004123F0004547
:100B5000B8EB0200A94105D24046214690461C460A
:100B60000B46024623F00040104347D0270DC7F341
:100B70000A00C3F30A510290401A019040286BDA30
:100B8000C3F3130040F4801B0098924620B1002369
:100B9000D2EB030A63EB0B0B01985946C0F14002FC
:100BA000504600F016FA06460D4650465946019A40
:100BB00000F01EFA10EB08006141002487EA115290
:100BC00084EAE7731A4340D0009A62B3019A012A7B
:100BD0004FEA075215DC001B61EB02014FF00042A7
:100BE00002EA0752CDE90042001C41F5801132466D
:100BF0002B4600F055FA03B0BDE8F08F4046214681
:100C0000F9E7001B61EB0201001C41F5801300189D
:100C10005B412018A2F5001747EB030140EAD570AD
:100C2000B6196D4111E06D084FEA360645EAC07508
:100C30004FEA0752001B61EB0201001C41F58011D5
:100C400049084FEA30000019514132462B4603B0A3
:100C5000BDE8F04F00F015BA0098012240000023D3
:100C6000D0EB020263EBE073009821464FEAE07498
:100C7000B8EB000061EB0401E9E783F000435BE7B8
:100C800081F0004158E72DE9FE4F81EA030404F0AA
:100C9000004421F0004100944FF0000B23F000438A
:100CA00050EA01045ED052EA03045BD0C3F30A5455
:100CB000C1F30A552C44A4F2F3340194A0FB02546E
:100CC000C1F3130141F48011C3F3130343F4801300
:100CD00001FB024400FB034E840A970A44EA815454
:100CE00047EA8357A4FB076802958D0A05FB078531
:100CF0004FEA932C04FB0C542705029D4FEA06583B
:100D000047EA1637B5EB08056EEB070C870E920E17
:100D100047EA811742EA8312A7FB0201B6EB0B01F7
:100D200064EB00042B0D43EA0C335E1844EB1C50BB
:100D3000DA465146E7FB0201C5F313044FEA0B33D1
:100D400043EA14534FEA0432019C43EA0603A4F138
:100D50000C040294009CCDE900B400F0A1F903B0AA
:100D6000BDE8F08F00200146F9E72DE9F04D81EA5A
:100D7000030404F0004B21F0004514464FF0000A34
:100D800023F0004150EA050220D054EA01021DD0B0
:100D9000C5F30A570246C5F31303C1F31300C1F3A9
:100DA0000A5640F4801543F48013A7EB0608101B85
:100DB000D64608F2FD3873EB050002D308F10108AE
:100DC00001E092185B41B8F1000F03DA0020014600
:100DD000BDE8F08D00204FF48011064684460EE0F9
:100DE000171B73EB050705D3121B63EB05030643C3
:100DF0004CEA010C49084FEA300092185B4150EA76
:100E00000107EDD152EA030012D082EA040083EA1E
:100E10000501084305D0101BAB4106D20122002377
:100E200006E000224FF0004302E06FF00102531091
:100E30001AEB06004CEB085110EB0A0041EB0B01DA
:100E4000BDE8F04D00F01DB90EB5C10F80EAE070AD
:100E50000844CA07002140F233438DE80E000A46D9
:100E60000B4600F01DF903B000BD0EB540F2334152
:100E700002910021CDE900110A460B4600F010F95D
:100E800003B000BD00F0004230F000400AD0C10DB8
:100E900001F56071C0F3160042EA0151C208400733
:100EA00011437047002001467047000030B5041E12
:100EB00071F1000404DB4FF00044404264EB010197
:100EC000141E73F1000405DB1C464FF00043524230
:100ED00063EB04038B4208BF824230BD30B5041E71
:100EE00071F1000404DB4FF00044404264EB010167
:100EF000141E73F1000405DB1C464FF00043524200
:100F000063EB0403994208BF904230BD01F00043F7
:100F100030B421F0004150EA010206D00A0DA2F5DA
:100F20006072C1F31301002A02DC30BC002070475C
:100F3000440F44EAC104C100E01830BC00EBC250C9
:100F400000F068B830B50B4601460020202201248D
:100F500009E021FA02F59D4205D303FA02F5491B87
:100F600004FA02F52844151EA2F10102F1DC30BD9D
:100F70002DE9F05F0546002092469B4688460646CE
:100F8000814640241BE0284641464746224600F061
:100F900051F953465A46C01A914110D3114618468A
:100FA000224600F016F82D1A67EB01084F4622463C
:100FB0000120002100F00DF817EB00094E41201E22
:100FC000A4F10104DFDC484631462A464346BDE829
:100FD000F09F202A04DB203A00FA02F1002070473B
:100FE0009140C2F1200320FA03F319439040704767
:100FF000202A06DBCB17203A41FA02F043EAE073DD
:1010000006E041FA02F3D040C2F1200291400843C9
:10101000194670470029A8BF7047401C490008BF07
:1010200020F00100704710B4B0FA80FC00FA0CF018
:1010300050EA010404BF10BC704749B1CCF1200450
:1010400021FA04F411FA0CF118BF012121430843DD
:10105000A3EB0C01CB1D4FEA00614FEA102042BF09
:10106000002010BC704700EBC35010440029A4BFFF
:1010700010BC7047401C490008BF20F0010010BCA4
:10108000704710B5141E73F1000408DA401C41F1DA
:10109000000192185B411A4301D120F0010010BDFC
:1010A0002DE9F04D92469B4611B1B1FA81F202E072
:1010B000B0FA80F220329046FFF78BFF04460F46CD
:1010C00040EA0A0041EA0B0153465A46084313D04E
:1010D000114653EA010019D0C8F14002504600F011
:1010E000A9F805460E46504659464246FFF771FF9D
:1010F000084305D0012004E020463946BDE8F08DC4
:101100000020054346EAE0762C4337430A986305FE
:10111000E40AA0EB08000022FD0A44EA47540A3022
:1011200002D500200146E9E7010510196941DDE912
:10113000084500196941BDE8F04DA2E72DE9F04DE1
:1011400000231A461B1A8A4103DB00200146BDE832
:10115000F08DC1F30A52C1F3130141F480154FF031
:10116000000BD10702D100186D41521E0027044622
:1011700040F2FF11384601EB620A3E4680460246C5
:1011800000204FF4801100F055F8C2197141BB18CE
:1011900046EB0100B4EB030C75EB000C04D3E41A2E
:1011A00065EB000517460E46241908F101006D4154
:1011B00080463428E3DDF91946EB0600091BA841F7
:1011C00003D24FF0FF32134601E0002213461BEB1F
:1011D000070046EB0A51BDE8F04DFFF752BFC1F3DF
:1011E0000A52C1F3130140F2FF3341F480119A42D5
:1011F00002DA00200146704740F233439A42A2F2DD
:10120000334202DC524200F015B8FFF7E2BE0000A4
:10121000064C074D06E0E06840F0010394E8070043
:1012200098471034AC42F6D3FEF7B2FFB849010834
:10123000D8490108202A04DB203A21FA02F00021D3
:10124000704721FA02F3D040C2F1200291400843D6
:101250001946704770B5C1F30A5201F000450024E9
:10126000C1F3130140F2FF3341F480119A4201DAD5
:10127000002070BD40F233439A42A2F2334203DCB5
:101280005242FFF7D7FF00E090402C43F1D040429C
:1012900070BD70B58C1810F8015B15F0070301D113
:1012A00010F8013B2A1106D110F8012B03E010F8C9
:1012B000016B01F8016B5B1EF9D12B0705D40023EC
:1012C000521E0DD401F8013BFAE710F8013BCB1A8E
:1012D000921C03E013F8015B01F8015B521EF9D583
:1012E000A142D8D3002070BD30B52DED0C8BD9B004
:1012F0009FEDA90AF0EE408A9FEDA70AB0EE409A52
:101300009FEDA50AF0EE409A002462E0A34A911EE8
:10131000881E05F030FBA148001FB0F9000000EE68
:10132000100AB8EEC00ADFED9E0A80EE201AB0EE79
:10133000000A21EE000ADFED9B0A20EE200A8DED67
:10134000250A9648001FB0F9020000EE100AF8EED8
:10135000C00A9FED931A80EE810AF0EE000A20EE9B
:10136000200ADFED900A20EE200A8DED240A8B483A
:10137000001FB0F9040000EE100AF8EEC00A9FED5D
:10138000881A80EE810AF0EE000A20EE200ADFEDD6
:10139000850A20EE200A8DED230A23AA24A925A878
:1013A0000AF0D8F89DED250A38EE800AF0EE408A62
:1013B0009DED240A39EE000AB0EE409A9DED230A15
:1013C00039EE800AF0EE409A03200DF087FD601C94
:1013D000C4B2642C9ADB9FED740AC8EE800ACDED8E
:1013E000250A9FED710AC9EE000ACDED240A9FED92
:1013F0006E0AC9EE800ACDED230ADDED250A60EE06
:10140000A00A9DED241ADDED241A41EE210A9DED7E
:10141000231ADDED231A41EE210AB0EE600A0DF029
:101420006BFDB0EE408A9DED250AC0EE080A10EE75
:10143000905A2846FFF726FD41EC1B0BB0EE4B0AF5
:10144000F0EE6B0A08F0A8F9B0EE40AAF0EE60AA40
:101450009FED560B53EC102B51EC1A0BFFF713FCBE
:10146000559154909DED230AB1EE400A10EE100AFA
:10147000FFF708FD41EC1C0B9DED240AB1EE400A7C
:1014800010EE100AFFF7FEFC41EC1D0BB0EE4C1AFB
:10149000F0EE6C1AB0EE4D0AF0EE6D0A08F098FC12
:1014A000B0EE40BAF0EE60BA9FED400B53EC102B5B
:1014B00051EC1B0BFFF7E7FB41EC1A0B9FED3D0BCB
:1014C00053EC102BFFF7D9FB539152909FED3B0B40
:1014D0008DED560B9DED562B9DED541B9DED520B46
:1014E00010A801F0E3F8482210A940A8FFF700FB7C
:1014F000402242A96846FFF7FBFA10A8419B409A98
:1015000006F056FB482210A92EA8FFF7F1FA382260
:1015100032A96846FFF7ECFA2EA80FC805F02EFC9A
:101520008DED260B8DED281B8DED2A2B8DED2C3BA3
:101530009DED261BB0EE410AF0EE610A51EC100B56
:10154000FFF7E4FC1F4908609DED281BB0EE410A3F
:10155000F0EE610A51EC100BFFF7D8FC1A49086055
:101560009DED2A1BB0EE410AF0EE610A51EC100B22
:10157000FFF7CCFC154908609DED2C1BB0EE410A2D
:10158000F0EE610A51EC100BFFF7C0FC1049086047
:1015900059B0BDEC0C8B30BD00000000D42C0020F5
:1015A000000000470AE81C410000C842000000009B
:1015B000DCA54C40000000000080664000000000F8
:1015C00000000000F4050020F8050020FC050020C4
:1015D000000600200EB52A4A911E881E05F0CBF9A0
:1015E0002748001FB0F9000000EE100AB8EEC00A4C
:1015F000DFED240A80EE201AB0EE000A21EE000A88
:10160000DFED210A20EE200A8DED020A1C48001FA2
:10161000B0F9020000EE100AB8EEC00A9FED191AE8
:10162000C0EE010AB0EE000A20EE800ADFED160AD5
:1016300020EE200A8DED010A1148001FB0F90400C8
:1016400000EE100AB8EEC00A9FED0E1AC0EE010AB5
:10165000B0EE000A20EE800ADFED0B0A20EE200A31
:101660008DED000A6A4601A902A809F073FF9DEDFD
:10167000001ADDED010A9DED020A00F043FF0EBDE8
:10168000D42C0020000000470AE81C4121B18268E8
:1016900042F00102826003E0826822F0010282606F
:1016A000704700000021084A1168084A1140D0E93B
:1016B00000231A4383681A43C3681A431143044A38
:1016C000C2F804137047000004230140E030FCFF1F
:1016D0000020014030B50246002000235068104C25
:1016E00020400D790C6844EA05242043506090683E
:1016F0000C4C2040D1E903542C438D682C434D7988
:1017000044EA450420439060D06A20F470000C7DC8
:10171000641EE4B2234340EA0350D06230BD0000AF
:10172000FFFEFFFCFDF7FFC000B5B5B0FE4890ED31
:10173000000A20EE000A8DED1F0A90ED000AFB481A
:10174000D0ED000A20EE200A8DED1E0AF64890ED3D
:10175000000AF748D0ED000A20EE200A8DED1D0AA0
:10176000F14890ED000AF348D0ED000A20EE200A7F
:101770008DED1C0AED4890ED000A20EE000A8DED7B
:101780001B0A90ED000AEA48D0ED000A20EE200A7C
:101790008DED1A0AE54890ED000AE648D0ED000A02
:1017A00020EE200A8DED190AE14890ED000A20EEA6
:1017B000000A8DED180A90ED000ADE48D0ED000A0F
:1017C00020EE200A8DED170A90ED000A20EE000AA7
:1017D0008DED160AD84890ED040A8DED150A90EDAE
:1017E000050A8DED140A90ED060A8DED130A90EDB1
:1017F000000A8DED120A90ED010A8DED110A90EDAF
:10180000020A8DED100A90ED070A8DED0F0A90ED9A
:10181000080A8DED0E0A90ED090A8DED0D0A04F00F
:1018200023FCC64880ED000BC54890ED000B53EC3F
:10183000102BC24890ED000B51EC100BFFF71DFA76
:10184000CDE90A019DED0A0B51EC100BFFF75EFB91
:1018500000EE100A9FEDBB1AC0EE010ACDED0C0A96
:101860000C98FFF70FFBCDE92401B44890ED000B75
:10187000B34880ED000B9DED120A20EE000ADDED6D
:10188000110A00EEA00ADDED100A00EEA00A8DEDAF
:101890000C0A9DED0C0A0DF081F88DED340A9DEDDA
:1018A000120ADDED340A20EE200A8DED120A9DEDBC
:1018B000110ADDED340A20EE200A8DED110A9DEDAE
:1018C000100ADDED340A20EE200A8DED100A9DEDA0
:1018D0000F0A20EE000ADDED0E0A00EEA00ADDED93
:1018E0000D0A00EEA00A8DED0C0A9DED0C0A0DF01C
:1018F00055F88DED340A9DED0F0ADDED340A20EE2A
:10190000200A8DED0F0A9DED0E0ADDED340A20EE62
:10191000200A8DED0E0A9DED0D0ADDED340A20EE54
:10192000200A8DED0D0A9DED150ADFED870A20EEE8
:10193000200A8DED150A9DED140ADFED830A20EED5
:10194000200A8DED140A9DED130ADFED7F0A20EECB
:10195000200A8DED130A9DED150ADFED7C0A20EEBD
:10196000200A8DED150A9DED140ADFED780A20EEB0
:10197000200A8DED140A9DED130ADFED740A20EEA6
:10198000200A8DED130A1598FFF77CFACDE90801BE
:101990009DED080B08F080FB8DED0A0B9FED6C0BA5
:1019A00053EC102B9DED0A0B51EC100BFFF77EFA58
:1019B00003D29FED690A8DED150A1498FFF762FABC
:1019C000CDE908019DED080B08F066FB8DED0A0BD3
:1019D0009FED5F0B53EC102B9DED0A0B51EC100BA0
:1019E000FFF764FA03D29FED5C0A8DED140A139899
:1019F000FFF748FACDE908019DED080B08F04CFB14
:101A00008DED0A0B9FED520B53EC102B9DED0A0B45
:101A100051EC100BFFF74AFA03D29FED4F0A8DED00
:101A2000130A9DED0F0AF0EE000A60EE200A9DED0C
:101A3000180AB6EE001A31EE401A9DED160A31EE84
:101A4000400A60EE800A9DED0E0AB0EE001A60EECC
:101A5000011A9DED1A0A9DED1C1A30EE411AB0EEE6
:101A6000600A01EE810ADDED0D0AB0EE001A60EEAB
:101A7000811ADDED190A9DED1D1A70EE810A01EE45
:101A8000A00A8DED330A9DED0F0AF0EE000A20EE5C
:101A9000201A9DED1A0ADDED1C0A30EE200A21EE17
:101AA000000ADDED0E0AB0EE001A20EE811ADDED1F
:101AB0001B0AF6EE001A71EEE01ADDED160A71EE61
:101AC000E00A01EE200ADDED0D0AB0EE001A60EE2C
:101AD000811ADDED170A9DED1E1A70EEC10A01EEA6
:101AE000A00A8DED320A9DED0F0AF0EE000A20EEFD
:101AF000201A9DED190ADDED1D0A30EE600A21EE77
:101B0000000ADDED0E0AB0EE001A60EE811ADDED7E
:101B1000170A9DED1E1A70EE810A01EEA00ADDED96
:101B20000D0AB0EE001A19E0F4050020F8050020B7
:101B3000FC05002000060020A82C00204006002004
:101B4000380600200000FA44F8C1F93C35FA8E3C12
:101B5000FA7E6ABC7493683F0000000020EE811A90
:101B6000DDED1B0AF6EE001A71EEE01ADDED180A43
:101B700071EEE00A01EE200A8DED310A9DED330A87
:101B800060EE000A9DED320A40EE000ACDED070A34
:101B90000798FFF777F9CDE908019DED080B08F0EC
:101BA000EBFA8DED0A0B9DED0A0B51EC100BFFF7D4
:101BB000ADF930909DED310A8DED2F0A9DED190A9A
:101BC000DDED1D0A30EE600AF0EE000A20EE200A7C
:101BD0008DED2E0A9DED1E0ADDED170A30EE200A6E
:101BE000F0EE000A20EE200A8DED2D0A9DED1F0A71
:101BF000DDED1B0A70EE600A9DED180A70EEC00A5A
:101C00009DED160A30EE800A8DED2C0A9DED300A0E
:101C1000F0EE000A60EE200A9DED180AB6EE001AFA
:101C200031EE401A9DED160A31EE400A60EE800A50
:101C30009DED2F0AB0EE001A60EE011A9DED190A13
:101C40009DED1D1A30EE411AB0EE600A01EE810AD8
:101C50008DED2B0A9DED300AF0EE000A20EE201AE1
:101C60009DED1A0ADDED1C0A30EE600A61EE000AF5
:101C70009DED2F0AB0EE001A60EE011A9DED1E0ACE
:101C80009DED171A30EE011AB0EE600A01EE810ADE
:101C90008DED2A0A9DED300AF0EE000A20EE201AA2
:101CA0009DED1D0ADDED190A30EE200A61EE000AF5
:101CB0009DED2F0AB0EE001A20EE011A9DED1B0AD1
:101CC000F6EE001A71EEC01A9DED180A71EEC01AF8
:101CD000B0EE600A01EE210A8DED290ADDED110A50
:101CE0009DED2C0A60EE800A9DED101A9DED2D0AE7
:101CF00041EE400A9DED0E1A9DED290A21EE001AD3
:101D0000DDED0D1A9DED2A0A01EEC01A30EE810AB2
:101D10008DED280ADDED100A9DED2E0A60EE800A99
:101D20009DED121A9DED2C0A41EE400A9DED0D1A13
:101D30009DED2B0A21EE001ADDED0F1A9DED290A0B
:101D400001EEC01A30EE810A8DED270ADDED120A90
:101D50009DED2D0A60EE800A9DED111A9DED2E0A73
:101D600041EE400A9DED0F1A9DED2A0A61EE001A20
:101D70009DED0E1A9DED2B0A41EE401A30EEA10AA0
:101D80008DED260A9DED150A20EE000ADDED140A00
:101D900000EEA00ADDED130A00EEA00A8DED070AA1
:101DA0000798FFF76FF8CDE908019DED080B08F0E3
:101DB000E3F98DED0A0B9DED0A0B51EC100BFFF7CB
:101DC000A5F834909DED340ADFEDFE0AB4EEE00A8A
:101DD000F1EE10FA7DD29DED280A5FEDA10A20EE0A
:101DE000200A8DED030A0398FFF74CF8CDE90401B2
:101DF0009DED240B53EC102B9DED040B51EC100BBF
:101E0000FEF741FFCDE90801EF480068FFF73AF817
:101E1000CDE906019DED080B53EC102B9DED060B53
:101E200051EC100BFEF788FECDE90A019DED0A0B7F
:101E300051EC100BFFF76AF8E34908609DED270AA3
:101E40005FEDBB0A20EE200A8DED030A0398FFF731
:101E500019F8CDE904019DED240B53EC102B9DEDF9
:101E6000040B51EC100BFEF70EFFCDE90801D7482B
:101E70000068FFF707F8CDE906019DED080B53EC6C
:101E8000102B9DED060B51EC100BFEF755FECDE926
:101E90000A019DED0A0B51EC100BFFF737F8CB4907
:101EA00008609DED260A5FEDD40A20EE200A8DED34
:101EB000030A0398FEF7E6FFCDE904019DED240B2C
:101EC00053EC102B9DED040B51EC100BFEF7DBFED9
:101ED00000E049E0CDE90801BD480068FEF7D2FF07
:101EE000CDE906019DED080B53EC102B9DED060B83
:101EF00051EC100BFEF720FECDE90A019DED0A0B17
:101F000051EC100BFFF702F8B14908609DED150A7E
:101F1000DDED280AB0EE001A01EE200AAA48D0ED45
:101F2000000A30EE200A8DED150A9DED140ADDED54
:101F3000270AB0EE001A01EE200AA448D0ED000AEC
:101F400030EE200A8DED140A9DED130ADDED260A10
:101F5000B0EE001A01EE200A0846D0ED000A30EE7D
:101F6000200A8DED130A1DE09DED150ADDED280A0E
:101F7000B7EE001A01EE200A8DED150A9DED140A48
:101F8000DDED270AB7EE001A01EE200A8DED140AE6
:101F90009DED130ADDED260AB7EE001A01EE200AC8
:101FA0008DED130A8B4890ED000AF1EE400A9DED8D
:101FB000150A20EE800A884890ED001ADDED140A1B
:101FC00001EE600A854890ED001ADDED130A01EE7E
:101FD000600A8DED030A0398FEF754FFCDE9040172
:101FE0009DED240B53EC102B9DED040B51EC100BCD
:101FF000FEF749FECDE9080179480068FEF742FF87
:10200000CDE906019DED080B53EC102B9DED060B61
:1020100051EC100BFEF790FDCDE90A019DED0A0B86
:1020200051EC100BFEF772FF23906D48D0ED000AC3
:102030009DED150A20EE800A674890ED001ADDED4F
:10204000130A01EE200A654890ED001ADDED140A2E
:1020500001EE600A8DED030A0398FEF713FFCDE948
:1020600004019DED240B53EC102B9DED040B51EC62
:10207000100BFEF708FECDE9080156480068FEF790
:1020800001FFCDE906019DED080B53EC102B9DEDF2
:10209000060B51EC100BFEF74FFDCDE90A019DED4B
:1020A0000A0B51EC100BFEF731FF22904C48D0ED9B
:1020B000000A9DED140A20EE800A464890ED001AB1
:1020C000DDED130A01EE600A444890ED001ADDEDE3
:1020D000150A01EE200A8DED030A0398FEF7D2FEE1
:1020E000CDE904019DED240B53EC102B9DED040B69
:1020F00051EC100BFEF7C7FDCDE90801364800682A
:10210000FEF7C0FECDE906019DED080B53EC102B48
:102110009DED060B51EC100BFEF70EFDCDE90A010B
:102120009DED0A0B51EC100BFEF7F0FE21902C48B0
:10213000D0ED000A9DED130A20EE800A254890EDAF
:10214000001ADDED140A01EE200A234890ED001A72
:10215000DDED150A01EE600A8DED030A0398FEF726
:1021600091FECDE904019DED240B53EC102B9DED68
:10217000040B51EC100BFEF786FDCDE90801174862
:102180000068FEF77FFECDE906019DED080B53ECDC
:10219000102B9DED060B51EC100BFEF7CDFCCDE99D
:1021A0000A019DED0A0B51EC100BFEF7AFFE2090DB
:1021B0009DED230A60EE000A9DED220A40EE000A22
:1021C00010E000009CC4A03EE8050020EC050020C3
:1021D000F0050020F8050020FC0500200006002086
:1021E000F40500209DED210A40EE000A9DED200A35
:1021F00040EE000ACDED0C0A9DED0C0A0CF0CEFB72
:102200008DED340A9DED230ADDED340A20EE200A1F
:10221000B04880ED000A9DED220ADDED340A20EE83
:10222000200AAD4880ED000A9DED210ADDED340A5B
:1022300020EE200AA94880ED000A9DED200ADDED80
:10224000340A20EE200AA64880ED000AA54890ED49
:10225000000AA54880ED000AA04890ED000AF8EEBB
:10226000000A20EE200AD0ED000A20EE200A9C4849
:10227000D0ED000AB0EE001A60EE810A90ED001A6F
:1022800000EEC10AF7EE000A30EE200A8DED010AD9
:102290000198FEF7F7FDCDE904018F4890ED000AA3
:1022A000F0EE000A20EE200A8C48D0ED000A20EE65
:1022B000200A8848D0ED000AB0EE001A60EE810ACC
:1022C000874890ED001A00EE810A8DED010A019811
:1022D000FEF7D8FDCDE902019DED041B9DED020B3B
:1022E00007F076FD8DED060B9DED060B51EC100B06
:1022F00081F000419FED7D0B53EC102BCDE90801DF
:102300009DED080B51EC100BFEF7BDFCCDE90A0169
:102310009DED0A0B51EC100BFEF7F8FD71490860BA
:102320006D4890ED000AF8EE000A20EE200A6C4895
:10233000D0ED000A20EE200A6648D0ED000AB0EE8B
:10234000001A60EE810A654890ED001A00EE810ADD
:102350008DED030A0398FEF795FDCDE904019DED8F
:10236000040B07F019FA8DED060B9DED060B51ECF1
:10237000100B81F000419FED5D0B53EC102BCDE96C
:1023800008019DED080B51EC100BFEF77CFCCDE92C
:102390000A019DED0A0B51EC100BFEF7B7FD5549F4
:1023A00088604D4890ED000AF8EE000A20EE200A01
:1023B000D0ED000A20EE200A4848D0ED000AB0EE29
:1023C000001A60EE810A90ED001A00EEC10AF7EEE5
:1023D000000A30EE200A8DED030A0398FEF752FD45
:1023E000CDE906013D4890ED000AF0EE000A20EE2E
:1023F000200A3B48D0ED000A20EE200A3548D0EDF7
:10240000000AB0EE001A60EE810A334890ED001A1F
:1024100000EE810A8DED030A0398FEF733FDCDE946
:1024200004019DED061B9DED040B07F0D1FC8DED25
:10243000080B9FED2E0B53EC102B9DED080B51EC70
:10244000100BFEF720FCCDE90A019DED0A0B51ECC3
:10245000100BFEF75BFD2749C860224890ED000A8B
:102460002148D0ED000A30EE600ADFED230AB4EE19
:10247000E00AF1EE10FA05DB20480068401E1F4913
:10248000086013E0174890ED000A1748D0ED000AE5
:1024900030EE600ADFED1A0AB4EEE00AF1EE10FA4F
:1024A00004D816480068401C1449086013480068A6
:1024B0004FF4B471484300EE100AB8EEC00A094860
:1024C000D0ED000A30EE200A0A4880ED040A35B04B
:1024D00000BD0000F4050020F8050020FC050020E8
:1024E000000600200806002004060020000000006E
:1024F000DCA54C40302D00200000A5430C06002038
:102500000000A5C3034880ED000AC0ED010A80ED7C
:10251000021A7047A82C002010B52DED048B9FEDFA
:102520003C0AB0EE408A9FED3A0AF0EE408A9FEDF9
:10253000380AB0EE409A002451E0364A911E881EB7
:1025400004F019FA3348001FB0F9000000EE100A39
:10255000B8EEC00ADFED300A80EE201AB0EE000AB5
:1025600061EE000A9FED2D1AB0EE480A00EE810AD6
:10257000B0EE408A2748001FB0F9020000EE100AB2
:10258000B8EEC00A9FED241AC0EE010AB0EE000AB0
:1025900060EE800A9FED211AB0EE680A00EE810A13
:1025A000F0EE408A1B48001FB0F9040000EE100A4C
:1025B000B8EEC00A9FED181AC0EE010AB0EE000A8C
:1025C00060EE800A9FED151AB0EE490A00EE810A0E
:1025D000B0EE409A03200CF081FC601CC4B2C82C01
:1025E000ABDB9FED0F0AC8EE000A0E48C0ED000AF3
:1025F0009FED0B0AC8EE800AC0ED010A9FED080AA4
:10260000C9EE000AC0ED020ABDEC048B10BD00004B
:1026100000000000D42C0020000000470AE81C4104
:102620000000C842F82C002000B58DB00121042024
:1026300005F028FE0121080205F054FE02200B904F
:1026400003208DF8300000208DF833000BA91548C9
:1026500003F04AFC0121080205F054FE00214FF46A
:10266000807005F04FFE002007900A9009904FF40B
:102670008030089007A8FFF715F8002001908DF82A
:1026800008008DF809000390059001208DF81800CE
:1026900001A90548FFF71EF801210348FEF7F6FFE0
:1026A0000DB000BD000802400020014031B52DED05
:1026B000060B2DED108B94B004469DED281BB0EE5B
:1026C000410AF0EE610A9FEDED1B53EC112B51EC2A
:1026D000100BFEF7D8FA41EC180B9DED261BB0EE5F
:1026E000410AF0EE610A9FEDE51B53EC112B51EC12
:1026F000100BFEF7C8FACDE900019DED241BB0EEEA
:10270000410AF0EE610A9FEDDD1B53EC112B51ECF9
:10271000100BFEF7B8FA41EC190BB0EE480AF0EED8
:10272000680A07F055FCB0EE40AAF0EE60AA9DEDF5
:10273000000B07F04DFCB0EE40BAF0EE60BA53EC7F
:102740001A2B51EC1B0BFEF79EFACDE90201B0EEFD
:10275000480AF0EE680A07F0ABFCB0EE40CAF0EEB3
:1027600060CAB0EE490AF0EE690A07F031FCB0EE3B
:1027700040DAF0EE60DA53EC1C2B51EC1D0BFEF747
:1027800082FA41EC1A0BB0EE480AF0EE680A07F044
:102790001FFCB0EE40CAF0EE60CA9DED000B07F0E2
:1027A00087FCB0EE40EAF0EE60EAB0EE490AF0EEE7
:1027B000690A07F07DFCB0EE40FAF0EE60FA53ECE7
:1027C0001E2B51EC1F0BFEF75EFA41EC1D0B53EC78
:1027D0001C2BFEF758FA41EC1B0B53EC1A2BFEF79F
:1027E0004CFACDE90401B0EE480AF0EE680A07F0B1
:1027F0005FFCB0EE40CAF0EE60CAB0EE490AF0EEFF
:10280000690A07F055FCB0EE40DAF0EE60DA53ECFE
:102810001C2B51EC1D0BFEF736FA41EC1A0BB0EEF7
:10282000480AF0EE680A07F0D3FBB0EE40CAF0EEBB
:1028300060CA9DED000B07F03BFCB0EE40EAF0EE05
:1028400060EAB0EE490AF0EE690A07F0C1FBB0EEAB
:1028500040FAF0EE60FA53EC1E2B51EC1F0BFEF722
:1028600012FA41EC1D0B53EC1C2BFEF70CFA41EC59
:102870001B0B53EC1A2BFEF75FF9CDE90601B0EE06
:10288000480AF0EE680A07F013FCB0EE40AAF0EE3A
:1028900060AA9DED000B07F09BFBB0EE40BAF0EE96
:1028A00060BA53EC1A2B51EC1B0BFEF7ECF9CDE997
:1028B0000801B0EE480AF0EE680A07F089FBB0EEB6
:1028C00040CAF0EE60CAB0EE490AF0EE690A07F0BD
:1028D0007FFBB0EE40DAF0EE60DA53EC1C2B51ECEB
:1028E0001D0BFEF7D0F941EC1A0BB0EE480AF0EEE2
:1028F000680A07F0DDFBB0EE40CAF0EE60CA9DED5D
:10290000000B07F0D5FBB0EE40EAF0EE60EAB0EE67
:10291000490AF0EE690A07F0CBFBB0EE40FAF0EEA0
:1029200060FA53EC1E2B51EC1F0BFEF7ACF941EC97
:102930001D0B53EC1C2BFEF7A6F941EC1B0B53ECC3
:102940001A2BFEF7F9F8CDE90A01B0EE480AF0EECD
:10295000680A07F03DFBB0EE40CAF0EE60CAB0EE88
:10296000490AF0EE690A07F0A3FBB0EE40DAF0EE98
:1029700060DA53EC1C2B51EC1D0BFEF784F941EC93
:102980001A0BB0EE480AF0EE680A07F091FBB0EEC1
:1029900040CAF0EE60CA9DED000B07F089FBB0EE77
:1029A00040EAF0EE60EAB0EE490AF0EE690A07F09C
:1029B0000FFBB0EE40FAF0EE60FA53EC1E2B51EC38
:1029C0001F0BFEF760F941EC1D0B53EC1C2BFEF7BF
:1029D0005AF941EC1B0B53EC1A2BFEF74EF9CDE9DB
:1029E0000C019DED000B07F063FBB0EE40AAF0EE8A
:1029F00060AA51EC1A0B81F00041CDE90E019DED6A
:102A0000000B07F0E5FAB0EE40AAF0EE60AAB0EED7
:102A1000490AF0EE690A07F04BFBB0EE40BAF0EE5F
:102A200060BA53EC1A2B51EC1B0BFEF72CF9CDE9D5
:102A300010019DED000B07F0CBFAB0EE40AAF0EECE
:102A400060AAB0EE490AF0EE690A07F0C1FAB0EEEA
:102A500040BAF0EE60BA53EC1A2B51EC1B0BFEF7A8
:102A600012F9CDE91201482202A92046FEF740F8EA
:102A700014B0BDEC108B07B030BD0000000000A00A
:102A800046DF913F08B54FF4407005F001F9A820EA
:102A900009F040FDC82009F05FFD1B2142F20F70D4
:102AA00006F01AF94FF4E13001F034FE4FF46120E2
:102AB00001F0A6FE03F094FD03F074FD0DF0EAF8BA
:102AC0000020032308221946009000F067F9002037
:102AD000032308221946009000F01CFBFFF7A4FD19
:102AE00042F2CF0147F22F5006F0B0F800BF03F0DA
:102AF00035FF0028FBD103F043FB08F055FCFEF73F
:102B0000F3FB04F0CBF808BD00BFFEE710B50221CF
:102B1000064800F0C5FC38B1054A0021034800F022
:102B2000E2FD034800F006F810BD0000006400401C
:102B30009409002010B504462068B0F5017F14D038
:102B400007DCA0F2012068B101280CD002287DD159
:102B50000AE0A0F20520002879D0032878D0FB28CD
:102B6000F5D1F9E000BF00BF00BF2078401E8549C5
:102B700008700846007800EB8000834931F8200097
:102B80008049097801EB81017F4A02EB8101B1F9AB
:102B90000810401AB0F5805F10DD7A48007800EB2D
:102BA0008000114601EB8000C068401E754909781D
:102BB00001EB810102EB8101C86023E071480078DC
:102BC00000EB8000704931F820006E49097801EB74
:102BD00081016D4A02EB8101B1F90810401A10F52C
:102BE000805F0FDA6748007800EB8000114601EB48
:102BF0008000C068401C6349097801EB810102EB49
:102C00008101C8605F48007800EB80005E4931F8C0
:102C1000200000B25B49097801EB81015A4A02EBBE
:102C200081010881207BE17A40EA01205549097839
:102C300001EB810122F82100A17B607B41EA0020A9
:102C400000B25049097801EB810102E097E064E0AD
:102C500044E002EB81014880217CE07B41EA0020D6
:102C600000B24849097801EB810102EB81018880BB
:102C7000607C4449097801EB810102EB8101887194
:102C80004048007800EB8000114631F820103D48A4
:102C9000007800EB800002EB8000C06801EB403060
:102CA0003849097801EB810102EB81010861354A5D
:102CB000127802EB8202344B03EB8201314A127824
:102CC00002EB8202314B03EBC20001F097FE2D496B
:102CD0000978891DC8B201F0CBFB51E02C4800886F
:102CE00000B22B490881207BE17A40EA0120284983
:102CF0000880A17B607B41EA002000B22449488023
:102D0000217CE07B41EA002000B221498880607C80
:102D10008871032001F0ACFB32E01E48008800B24D
:102D20001C490881207BE17A40EA0120194908808A
:102D3000A17B607B41EA002000B216494880217CDB
:102D4000E07B41EA002000B212498880607C8871F3
:102D5000042001F08DFB13E0E17A207B41EA0020A2
:102D60000D490880617BA07B41EA00200A49488028
:102D7000E17B207C41EA00200749888000BF00BF3A
:102D800000BF10BD63000020C807002068080020B5
:102D90006407002078070020560000202DE9F0414C
:102DA0008AB004460D4616461F46DDF840800121D4
:102DB000084605F067FA0121480605F073FA01217B
:102DC000480605F07FFA00214FF0007005F07AFA0E
:102DD0004FF4C050089002208DF8240000208DF898
:102DE000260003208DF8250001208DF8270008A972
:102DF000314803F079F809220B212F4803F0BCF881
:102E000009220C212C4803F0B7F800208DF81A0095
:102E100001208DF81B0000208DF81C0001208DF88A
:102E20001D0000208DF81E008DF81F008DF8168003
:102E30008DF817408DF818608DF81950ADF81470A2
:102E400005A91E4800F0C5FB00208DF80E008DF886
:102E50000F0001208DF810000020ADF80400ADF83F
:102E60000600ADF80800ADF80A00ADF80C0001202E
:102E70008DF8110001A800F08FFA012202210F48FD
:102E800000F09EFB00224FF400410C4800F098FB3C
:102E900014208DF8000004208DF8010000208DF82A
:102EA000020001208DF80300684604F0B5FE002002
:102EB0000AB0BDE8F081000000000240006400405C
:102EC00010B51021064800F0EBFA38B1054A01218F
:102ED000034800F008FC034800F006F810BD0000AD
:102EE00000680040A809002010B504462068A0F240
:102EF000012020B1012848D0022870D146E0804846
:102F000000887F49B1F90810401AB0F5805F05DDEF
:102F10007B48C068401E7A49C8600DE07848008848
:102F20007749B1F90810401A10F5805F04DA744847
:102F3000C068401C7249C8607148008800B270497E
:102F40000881207BE17A40EA01206D490880A17B5D
:102F5000607B41EA002000B269494880217CE07B27
:102F600041EA002000B266498880607C887108468A
:102F70000188C06801EB403061490861614801F097
:102F80003DFD052001F074FAB7E000BF2078801EF7
:102F90005D4908700846007800EB80005B4931F815
:102FA00020005949097801EB8101584A02EB81015F
:102FB000B1F90810401AB0F5805F11DD5248007871
:102FC00000EB8000114601EB8000C068401E4E49B6
:102FD000097801EB810102EB8101C86024E08BE0FC
:102FE0004948007800EB8000484931F82000464904
:102FF000097801EB8101454A02EB8101B1F9081022
:10300000401A10F5805F0FDA3F48007800EB80002F
:10301000114601EB8000C068401C3B49097801EB78
:10302000810102EB8101C8603748007800EB800025
:10303000364931F8200000B23349097801EB8101AB
:10304000324A02EB81010881207BE17A40EA0120CB
:103050002D49097801EB810122F82100A17B607BD9
:1030600041EA002000B22849097801EB810102EB16
:1030700081014880217CE07B41EA002000B22249A6
:10308000097801EB810102EB81018880607C1E4997
:10309000097801EB810102EB810188711A480078FF
:1030A00000EB8000114631F820101748007800EB43
:1030B000800002EB8000C06801EB403012490978C3
:1030C00001EB810102EB810108610F4A127802EBEA
:1030D00082020E4B03EB82010B4A127802EB820252
:1030E0000B4B03EBC20001F089FC074909780A3158
:1030F000C8B201F0BDF900E000BF00BF10BD000084
:103100008C0700205809002062000020A007002042
:10311000180800202DE9F0418AB004460D461646F5
:103120001F46DDF840800121022005F0ABF80121A7
:10313000880605F0B7F80121880605F0C3F80021DC
:103140004FF0806005F0BEF86020089002208DF8F6
:10315000240000208DF8260003208DF82500012092
:103160008DF8270008A9324802F0BEFE0922052189
:103170002F4802F001FF092206212D4802F0FCFE33
:1031800000208DF81A0001208DF81B0000208DF81A
:103190001C0001208DF81D0000208DF81E008DF808
:1031A0001F008DF816808DF817408DF818608DF887
:1031B0001950ADF8147005A91E4800F00AFA0E2047
:1031C0008DF80E0000208DF80F0001208DF8100002
:1031D0000020ADF80400ADF80600ADF80800ADF829
:1031E0000A000120ADF80C008DF8110001A800F0D4
:1031F000D3F8012210210F4800F0E2F900224FF429
:1032000000410D4800F0DCF941208DF8000003205A
:103210008DF8010000208DF8020001208DF80300D8
:10322000684604F0F9FC00200AB0BDE8F081000017
:10323000000402400068004000640040F0B585B022
:1032400004460D4616461F464FF4007000900020BD
:103250008DF808008DF8090008208DF80A00200A72
:103260008DF80B00E1B28DF80C10290A8DF80D10C5
:10327000E9B28DF80E10310A8DF80F10F1B28DF809
:103280001010390A8DF81110F9B28DF81210694634
:10329000024800F0A0FA05B0F0BD00000064004054
:1032A0002DE9F04104460D4616461F4640F2FF1038
:1032B0000C49086000200872487208208872200AB1
:1032C000C87208460473290A41738573310AC173B1
:1032D0000674390A417487740146034800F07BFA8A
:1032E000BDE8F081800900200064004070B586B020
:1032F00004460D46164610490C804D8008468680CF
:1033000040F22220019000208DF80C008DF80D0075
:1033100008208DF80E00002005E007490A5C0DF139
:103320000F010A54401C0628F7D301A9034800F0F6
:1033300052FA06B070BD00005C000020006400403E
:1033400070B586B004460D4616464FF400700190E5
:1033500000208DF80C008DF80D0008208DF80E006F
:10336000200A8DF80F008DF81040290A8DF81110F1
:103370008DF81250310A8DF813108DF81460002169
:103380008DF815108DF8161001A9024800F023FAE7
:1033900006B070BD0068004010B50021837A01229C
:1033A00002FA03F13D4A126842F001023B4B1A60F7
:1033B0003A4A1C3212688A43384B1C331A60027B2B
:1033C000CAB9364A0C3212688A43344B0C331A603D
:1033D0004288C38842EA0343304A4032847A42F842
:1033E00034300288838842EA03432C4A4032847A8C
:1033F00002EBC4025360027B012A19D1274A0C3226
:1034000012680A43254B0C331A604288038842EA4B
:103410000343224A4032847A42F83430C288838897
:1034200042EA03431D4A4032847A02EBC4025360ED
:10343000C27A3AB9194A121D12688A43174B1B1DEA
:103440001A6006E0154A121D12680A43134B1B1D31
:103450001A60028932B9114A143212688A430F4B3A
:1034600014331A600289012A06D10C4A14321268F8
:103470000A430A4B14331A60427B012A06D1074AD9
:103480001C3212680A43054B1C331A60034A126847
:1034900022F00102014B1A6010BD000000660040DE
:1034A00070B504460D46002660692840002871D09A
:1034B000B5F5807F5CD010DC082D35D006DC012D01
:1034C00020D0022D24D0042D72D127E0102D31D030
:1034D000202D35D0402D6BD138E0B5F5004F60D0B0
:1034E00009DCB5F5007F49D0B5F5806F4CD0B5F556
:1034F000006F5DD14FE0B5F5803F2DD0B5F5003FB1
:1035000056D12FE0A0682D4900F064FD064651E039
:10351000E068032100F05EFD06464BE0E06808210C
:1035200000F058FD064645E0E068102100F052FD2D
:1035300006463FE02069032100F04CFD064639E0D5
:103540002069082100F046FD064633E0206910217D
:1035500000F040FD06462DE06068082100F03AFDCD
:10356000064627E06068102100F034FD064621E0A1
:10357000A069012100F02EFD06461BE0A069022192
:1035800000F028FD064615E0A069042100F022FDA8
:1035900006460FE00FE0A069702100F01BFD064613
:1035A00008E06068042100F015FD064602E0FFE730
:1035B000002600BF00E00026304670BD010101007A
:1035C0001AB143690B43436102E043698B43436192
:1035D000704730B5024600200023146824F002042E
:1035E0001460146844F00104146000E05B1C54682B
:1035F00004F001041CB94FF6FF74A342F6D15468DD
:1036000004F001040CB900206CE08C79012C04D189
:10361000146844F08004146003E0146824F080040B
:103620001460CC79012C04D1146844F04004146077
:1036300003E0146824F0400414600C7A012C04D1D7
:10364000146844F02004146003E0146824F020049B
:1036500014604C7A012C04D1146844F010041460F6
:1036600003E0146824F0100414608C7A012C04D157
:10367000146844F00804146003E0146824F008049B
:103680001460CC7A012C04D1146844F00404146052
:1036900003E0146824F0040414608C78A407CD7847
:1036A00044EA05640D7944EA05444D7944EA055439
:1036B0000D886D1E2C43D461146824F0010414603D
:1036C000002300E05B1C546804F001041CB14FF6B9
:1036D000FF74A342F6D1546804F001040CB1002039
:1036E00000E0012030BD10B500F5D87303EB0113E5
:1036F0001B6803F004031372137A53B900F5D873EF
:1037000003EB01131B6840F2FF7404EA5353136088
:1037100009E000F5D87303EB01131B686FF06044F8
:1037200004EAD303536000F5D87303EB01131B685D
:1037300003F00203537200F5D87303EB01135B68C7
:1037400003F00F03937200F5D87303EB01135B686A
:103750001B0AD37400F5D87303EB01139B68D37273
:1037600000F5D87303EB01139B681C0A147300F572
:10377000D87303EB01139B681C0C547300F5D873CA
:1037800003EB01139B681B0E937300F5D87303EBD7
:103790000113DB68D37300F5D87303EB0113DB6807
:1037A0001C0A147400F5D87303EB0113DB681C0CBE
:1037B000547400F5D87303EB0113DB681B0E93748C
:1037C00021B9C36843F02003C36003E0036943F0F9
:1037D0002003036110BD10B502460020936803F07A
:1037E0008063B3F1806F00D110E0936803F0006351
:1037F000B3F1006F01D1012008E0936803F080531A
:10380000B3F1805F01D1022000E00420042874D0CD
:1038100002F5C07303EB00131B6803F0010402F50B
:10382000C07303EB00131C600B7A7BB94B7A0C88D6
:1038300043EA445302F5C07404EB001424682343A4
:1038400002F5C07404EB0014236010E00B7A4C689E
:1038500043EAC4034C7A234302F5C07404EB00141A
:103860002468234302F5C07404EB001423608B7AB0
:1038700003F00F038B7202F5C07303EB00135B6858
:1038800023F00F0402F5C07303EB00135C6002F534
:10389000C07303EB00135B688C7A234302F5C0749A
:1038A00004EB001463608B7B1C064B7B44EA0344EF
:1038B0000B7B44EA0323CC7A234302F5C07404EB68
:1038C0000014A3608B7C1C064B7C44EA03440B7CF5
:1038D00044EA0323CC7B234302F5C07404EB0014B9
:1038E000E36002F5C07303EB00131B6843F00104AF
:1038F00002F5C07303EB00131C6010BD2DE9F04FFF
:10390000DDE90DC8DDF83C90DDE90B47DDE909563E
:103910004FF0000A07E011F80AB0CAF1020E00F8F1
:103920000EB00AF1010ABAF1030F04DA11F80AB075
:10393000BBF1000FEFD190F803B02BF0380B0BF177
:10394000380B80F803B090F803B062F3020B80F8F4
:1039500003B0B0F803B063F3891BA0F803B090F88C
:1039600004B065F3850B80F804B0B0F807B067F3D6
:10397000090BA0F807B0B0F808B06CF38C0BA0F8F6
:1039800008B0B0F809B068F34F1BA0F809B0B0F860
:1039900004B066F38E1BA0F804B0B0F805B064F371
:1039A000CF1BA0F805B04FF0000A09E099F800B06D
:1039B00000F10F0E0EF80AB009F101090AF1010A2F
:1039C000A245F3D3BDE8F08F0FB430B591B04FF6F8
:1039D000FF700490302214A905A8FDF789F802AC05
:1039E000A5208DF808003320ADF809003348007891
:1039F0008DF80B00FF220421204608F0FBFF8DF814
:103A00000C0040F20130ADF80D004FF48870ADF8B5
:103A100000002B48008880B2ADF8020029480088D9
:103A200080B2ADF8040000BFBDF810200721204689
:103A300008F0C6FF04906C46BDF810200621204611
:103A400008F0BEFF049005ACBDF810202D212046E3
:103A500008F0B6FF049002AC002504E0207805F0E1
:103A600057FB641C6D1C072DF8D36C46002504E041
:103A7000207805F04DFB641C6D1C062DF8D305ACB9
:103A8000002504E0207805F043FB641C6D1C2D2DFF
:103A9000F8D304AC002504E0207805F039FB641C61
:103AA0006D1C022DF8D305480078401C03490870AE
:103AB000002011B030BC5DF814FB0000960400201B
:103AC000980400209C04002070B59FEDE22AB0EE1F
:103AD000421A9FEDE02AF0EE421A9FEDDE2AF0EE48
:103AE000420A8168098902EE101AB8EE422AF0EE05
:103AF000420A002113E000F52E7202EB810292EDE2
:103B0000002A00F5327202EB8102D2ED002A32EE79
:103B1000622AD14A02EB810282ED002A491C042963
:103B2000E9DBCD4D95ED002ABDEEC22A12EE105A0A
:103B30002CB2002C01DB254600E06542C64E96ED16
:103B4000012ABDEEC22A12EE106A33B2002B01DB4D
:103B50001E4600E05E422E44BF4D95ED022ABDEEAA
:103B6000C22A12EE105A2AB2002A01DB154600E0E2
:103B700055422E44B84D95ED032ABDEEC22A12EEF1
:103B8000105A29B2002901DB0D4600E04D423544B0
:103B900002EE105AB8EEC22AB04D85ED002A90ED23
:103BA000302ABDEEC22A12EE105A2CB2002C01DBD4
:103BB000264600E0664290ED492ABDEEC22A12EE8A
:103BC000105A2AB2002A01DB154600E055422E4465
:103BD00090ED622ABDEEC22A12EE105A29B20029D7
:103BE00001DB0D4600E04D422E4490ED7B2ABDEEF8
:103BF000C22A12EE105A2BB2002B01DB1D4600E048
:103C00005D42354402EE105AB8EEC22AF0EE421A76
:103C10004169C97CC1F34011F1B391490988491C3C
:103C200009B28F4A11801146B1F90010642942DDB2
:103C300000213EE001EBC10202EB011300F1A00202
:103C400002EB830292ED082ADFED862AB4EEE22A27
:103C5000F1EE10FA0CD89FED832A01EBC10202EBC2
:103C6000011300F1A00202EB830282ED082A1EE09C
:103C700001EBC10202EB011300F1A00202EB83028F
:103C800092ED082ADFED782AB4EEE22AF1EE10FA7E
:103C90000DDB9FED752A00E00DE001EBC10202EBA8
:103CA000011300F1A00202EB830282ED082A4A1CF4
:103CB000D1B20429BEDB4169C97CC1F3401100299E
:103CC0007AD1674A1180694909780422B2EB111F41
:103CD00010D167490978891C654A11701146097825
:103CE0001E2901DD1E2111706049097821F0F001C3
:103CF0005E4A11705E49097802EE101AB8EE422A47
:103D0000F4EEC20AF1EE10FA10D89FED5A2AC0EE76
:103D1000822A22EEA22AB0EE421A9FED572A21EE05
:103D2000022AF1EE002A22EE220A48E050490978E0
:103D300002EE101AB8EE422AB4EEE02AF1EE10FAC2
:103D40003BD29FED4C2AF4EEC20AF1EE10FA34D2C7
:103D50004A49097881B94A49097869B949490978CC
:103D600051B94949097839B9D0F89812098819B96F
:103D7000D0F89812498871B19FED3E2AC0EE822A90
:103D8000B0EE621A9FED3C2A21EE022AF1EE002AE3
:103D900022EE220A13E09FED372AC0EE822A22EE9D
:103DA000A22AB0EE421A9FED342A21EE022AF1EE49
:103DB000002A22EE220A02E04AE09FED340AF4EEE5
:103DC000C01AF1EE10FA2FDD2349D1ED002A234964
:103DD00091ED003A82EE832A22EE002A80ED302A0D
:103DE0001D49D1ED012A1D4991ED003A82EE832A49
:103DF00022EE002A80ED492A1749D1ED022A1749FF
:103E000091ED003A82EE832A22EE002A80ED622AAA
:103E10001149D1ED032A114991ED003A82EE832A2E
:103E200022EE002A80ED7B2A00210FE001EBC10287
:103E300002EB011300F1A00202EB830292ED082ACB
:103E4000134A02EB810282ED002A491C0429EDDBB2
:103E500070BD00000000000008C40120D006002052
:103E6000E80600200000FAC40000FA449E03002087
:103E7000D40600200000704200401C464D00002087
:103E80004E000020500000205100002000401C4740
:103E900018C4012070B52DED068B0446122518E0DC
:103EA000681E04F5947101EBC00090ED000B08460C
:103EB00000EBC50080ED000B681E04F1080101EB6A
:103EC000C00090ED000B084600EBC50080ED000B34
:103ED0006D1E002DE4DC94ED000B84ED020B94EDDF
:103EE000022BB0EE420AF0EE620A384890ED002B49
:103EF000B0EE421AF0EE621A53EC102B51EC110B9B
:103F0000FCF7C1FE04F5947203C2012549E004F5F3
:103F1000947000EBC50090ED002BB0EE420AF0EE7D
:103F2000620A2B4800EBC50090ED002BB0EE421A60
:103F3000F0EE621A53EC102B51EC110BFCF7A3FEC0
:103F400041EC180B04F1080000EBC50090ED002BCC
:103F5000B0EE420AF0EE620A1C4800EBC50090ED9C
:103F6000002BB0EE421AF0EE621A53EC102B51EC1B
:103F7000110BFCF788FE41EC1A0B94ED4A1BB0EED6
:103F8000410AF0EE610A53EC102BFCF7D5FD41EC31
:103F9000190B53EC182BFCF770FE04F5947203C256
:103FA0006D1C132DB3DB94ED4A0B84ED920B94ED55
:103FB000921BB0EE410AF0EE610A51EC100BFCF7D7
:103FC000A5FF00EE100ABDEC068B70BD683E01082F
:103FD000083F01080246002002EA01030BB101205C
:103FE00000E00020704700000246094B9A4201D2CF
:103FF000084801E00648103801F000531BB1064B99
:104000000B40C36002E0044B0B408360704700002C
:1040100010640240006002407D0F7D0F0246094B94
:104020009A4201D2084801E00648103801F00053D6
:104030001BB1064B0B40C36002E0044B0B40836096
:104040007047000010640240006002407D0F7D0F49
:1040500021B1026842F00102026003E0026822F02E
:104060000102026070470000016821F00101016057
:104070000021016041608160C160016121214161D5
:104080004A49884204D13D21484A103A91608CE067
:1040900046491831884205D14FF47461434A103AB9
:1040A000916082E041493031884205D14FF474116A
:1040B0003E4A103A916078E03C494831884205D147
:1040C0004FF07461394A103A91606EE037496031BF
:1040D000884204D13649354A103AD16065E0334907
:1040E0007831884204D13349304A103AD1605CE0DB
:1040F0002E499031884204D12F492C4A103AD16080
:1041000053E02A49A831884205D14FF03D51274A52
:10411000103AD16049E02949884204D13D21274A1B
:10412000083A116041E025491831884205D14FF421
:104130007461224A083A116037E0204930318842E0
:1041400005D14FF474111D4A083A11602DE01B4946
:104150004831884205D14FF07461184A083A11601D
:1041600023E016496031884204D11149134A121FD5
:1041700011601AE011497831884204D10D490F4A83
:10418000121F116011E00D499031884204D10A4993
:104190000A4A121F116008E00849A831884204D178
:1041A0004FF03D51054A121F1160704710600240E8
:1041B0003D000020400F002000003D201064024020
:1041C00021B1026842F48022026003E0026822F416
:1041D00080220260704722B1036843F40023036029
:1041E00003E0036823F40023036001617047014684
:1041F000486880B27047014600200A6802F4002235
:104200000AB1012000E000207047000010B5002234
:104210000268134B1A40CC680B6823434C69234354
:104220008C692343CC6923430C6A23434C6A2343A0
:104230008C6A23434C6B23438C6B23431A430260E9
:10424000426922F00702D1E90B3423431A43426149
:104250000B6943604B6883608B68C36010BD0000CE
:104260003F801CF041607047002101604160816027
:10427000C160016141618161C1610162416281622C
:10428000C1620163416381637047704710B518E0F4
:1042900069480078401C684908700846007800EBBF
:1042A000C000664901EB8000C07CC0F3401040B103
:1042B000634890ED000AF7EE000A30EE200A80ED28
:1042C000000A5D4800780B28E2DD5C4890F8370072
:1042D000C0F3401028B14FF480515A4801F071FEEC
:1042E00004E04FF48051574801F069FE5348C07C08
:1042F000C0F3401028B14FF40061524801F061FE54
:1043000004E04FF480514F4801F059FE4E480068D8
:10431000401C4D49086008460068B0F5807F0CDD00
:104320004FF48061474801F04AFE48480078C01CBD
:10433000464908700020444908604448007806282F
:1043400007D14FF480613F4801F03BFE00203F4918
:1043500008703F4890ED000AB5EEC00AF1EE10FA81
:104360003ED13C4890ED000AF7EE000A30EE200AFC
:1043700080ED000A90ED000ADFED370AB4EEE00AA6
:10438000F1EE10FA11DD0421344801F018FE344832
:1043900090ED000AF7EE000A30EE200A80ED000AE8
:1043A0009FED300A2B4880ED000A2D4890ED000A61
:1043B000F0EE000AB4EE600AF1EE10FA10D19FEDB3
:1043C000290A80ED000A0421244801F0FAFD26485C
:1043D00090ED000AF7EE000A30EE200A80ED000AA8
:1043E000214890ED000A1648D0ED000AB4EE600AAC
:1043F000F1EE10FA1ED10421184801F0E0FD144836
:1044000090ED000AF7EE000A30EE200A80ED000A77
:1044100090ED000ADFED150AB4EEE00AF1EE10FAB5
:1044200008DB9FED100A80ED000A9FED0E0A0E4892
:1044300080ED000A10BD0000750300203C1500202F
:104440005C03002000080240780300207C03002069
:104450006C030020600300200000C842000C0240F2
:1044600064030020000000006803002000004843AF
:1044700010B5044604EBC400454901EB8000006818
:1044800004EBC401424A02EB810148600FF050F88E
:1044900004EBC4013E4A02EB8101086004EBC40056
:1044A000114601EB8000C07CC0F38010B0B104EB7A
:1044B000C40001EB8000C07C20F0400004EBC4018C
:1044C00002EB8101C87404EBC400114601EB8000CB
:1044D000006804EBC40102EB8101C86004EBC40076
:1044E0002B4901EB8000806990B304EBC401284A9A
:1044F00002EB81018869804758B304EBC40024496A
:1045000001EB8000C07C20F02000203004EBC401CF
:104510001F4A02EB8101C87404EBC400114601EB91
:104520008000C07C20F08000803004EBC40102EBEE
:104530008101C87404EBC400114601EB8000006ADD
:1045400028B304EBC40102EB8101086A80471EE036
:104550000FE0FFE704EBC4000D4901EB8000C07CD5
:1045600020F0800004EBC401094A02EB8101C87409
:104570000DE004EBC400064901EB8000C07C20F094
:10458000800004EBC401024A02EB8101C87410BD33
:104590003C15002010B592B00446482258496846A0
:1045A000FCF7A6FA00209EE000EB40013DF8112048
:1045B00000EBC001534B03EB8101098A62F30B014D
:1045C00000EBC00203EB8202118200EB40016A465D
:1045D00002EB41014A8800EBC00103EB8101B1F815
:1045E000111062F30F1100EBC00203EB8202A2F87C
:1045F000111000EB40016A4602EB4101097900EB22
:10460000C00203EB8202D27C61F3440200EBC001E2
:1046100003EB8101CA74002100EBC00203EB8202AC
:10462000916100EBC00203EB8202D16100EBC0029A
:1046300003EB8202116200EBC0011A4602EB81011A
:10464000C97C21F00101491C00EBC00203EB82028E
:10465000D17400EBC0011A4602EB8101C97C21F044
:104660002001203100EBC00203EB8202D17400EB89
:10467000C0011A4602EB8101C97C21F040014031A2
:1046800000EBC00203EB8202D17400EBC0011A46BA
:1046900002EB8101C97C21F08001803100EBC00276
:1046A00003EB8202D1749FED180A10EE101A00EB92
:1046B000C00203EB8202516100EBC0011A4602EB1B
:1046C00081010C6000EBC00102EB81014C6000EB4A
:1046D000C00102EB81018C6000EBC00102EB8101A3
:1046E000CC60411CC8B20C28FFF65EAF07490548F4
:1046F0000166002141660649816612B010BD0000C6
:10470000103B01083C150020000000002186000835
:10471000890B010810B588B004460121084603F052
:10472000B1FD0121102003F0DDFD072209213048F1
:1047300001F022FC07220A212D4801F01DFC4FF454
:104740000070029002208DF80C0000208DF80E0001
:1047500003208DF80D0001208DF80F0002A92448D8
:1047600001F0C2FB4FF48060029002A9204801F0E2
:10477000BBFB04940020ADF81400ADF81600ADF8B2
:1047800018000C20ADF81A000020ADF81C0004A998
:10479000184804F043FF0121164804F055FE012299
:1047A00040F22551134804F014FF002201212D206E
:1047B0000EF04EFB10490860002201212D200EF062
:1047C00047FB0E49086001210A4804F03DFE252000
:1047D0008DF8040009208DF8050000208DF80600F2
:1047E00001208DF8070001A803F016FA08B010BDEB
:1047F0000000024000100140A4040020A804002092
:1048000010B598B0044612A804F07BFF10A804F07D
:1048100015FE0121202003F065FD0121042003F095
:1048200031FD0121202003F05DFD0121042003F072
:1048300029FD0121880503F025FD0822062168488D
:1048400001F09AFB08220721654801F095FBC02082
:10485000169002208DF85C0000208DF85D008DF828
:104860005E0001208DF85F0016A95D4801F03CFB59
:1048700012940020ADF84C00ADF84E00ADF8500099
:10488000ADF854000C20ADF8520012A9554804F0C0
:10489000C5FE0121880503F0F5FC012240215148A5
:1048A00004F0DEFD012280214E4804F0D9FD4E487F
:1048B000FFF7DAFB01A8FFF7D7FC4FF0206001906B
:1048C0004848001D029049480390002004901E2093
:1048D0000590002006904FF480600790002008901B
:1048E00009900A904FF480300B9000200C900D90AE
:1048F0000E900F9001A93C48FFF788FC3A48903091
:10490000FFF7B2FB01A8FFF7AFFC4FF0206001906A
:104910003448001D02903648039040200490012046
:104920000590002006904FF48060079000200890CA
:1049300009904FF480700A9040020B9000200C9078
:104940000D900E900F9001A927489030FFF75EFC64
:10495000002226491E312448FFF73DFC0121224850
:10496000FFF72EFC012240F224411E4804F031FEE4
:104970000020ADF84000ADF842004FF40070ADF8F3
:1049800044000020ADF8460010A9164804F046FD8A
:1049900047208DF8000008208DF8010000208DF8D8
:1049A000020001208DF80300684603F035F900226B
:1049B000342132200EF04CFA0E49086000223421D6
:1049C00032200EF045FA0C4908600121054804F038
:1049D0003BFD01210448FFF73BFB18B010BD000070
:1049E0000008024000140140286402404D1C0020D1
:1049F000431C0020B0040020B404002030B5002384
:104A00000A88B1F90840121B02601E4C0268A242DB
:104A100007DA4268521C4260026802F50052826066
:104A20000EE041F664140268A24207DD4268521E9D
:104A300042600268A2F50052826001E00268826072
:104A400050F8084F057E6A1C0276083800F10C0207
:104A500042F8254090F82020052A02D1002280F853
:104A60002020002206E000F10C0454F822402344E8
:104A7000541CE2B2052AF6DB052293FBF2F24262F5
:104A800030BD00009CE6FFFF014908607047000050
:104A90000C3C024070B504460A460026092502B9BE
:104AA00009E0012A01D1160205E0022A01D116020D
:104AB00001E04FF4407600F09DF80546092D28D11D
:104AC0001548006820F440701349086008460068E3
:104AD000304308600846006820F0F8000860084687
:104AE000006844F0020108430B490860084600686A
:104AF00040F48030086000F07DF805460648006804
:104B000020F00200044908600846006820F0F80020
:104B10000860284670BD0000103C0240092013497F
:104B2000096801F48031B1F5803F01D101201CE01A
:104B30000E49096801F0100109B1062015E00B4982
:104B4000096801F4807109B102200EE00749096883
:104B500001F0EF0109B1072007E00449096801F0FD
:104B6000020109B1082000E0092070470C3C024016
:104B70000348006840F000400149086070470000A9
:104B8000103C024030B502460C46092500F032F8D0
:104B90000546092D17D10D48006820F440700B49D7
:104BA00008600846006808600846006840F0010098
:104BB0000860147000F01EF805460448006820F0F4
:104BC000010002490860284630BD0000103C024048
:104BD0000548006800F0004028B1044802490C393B
:104BE0000860034808607047103C02402301674595
:104BF000AB89EFCD08B509200090FFF78FFF00903B
:104C000002E0FFF78BFF00909DF800000128F8D02C
:104C10009DF8000008BD10B5FFF7DAFFF120FFF79F
:104C200033FF01215820FFF735FFFFF7A1FF10BD2B
:104C30000246054B002103E0585C5054481CC1B2A9
:104C40003029F9DB0020704700000E0870B50546DA
:104C50000A4EFFF7E0FFFFF7BBFF002408E0E1206A
:104C6000FFF712FF295D3019FFF78CFF601CC4B2FB
:104C7000302CF4DBFFF77CFF002070BD00000E0835
:104C800010B5044694F8D0030D282CD2DFE800F0CC
:104C9000070B0F2B13171B2B2B2B1F232700204633
:104CA00009F066FE23E0204607F02AFF1FE02046B9
:104CB00008F0CAF91BE0204608F000FE17E0204685
:104CC00008F0E6FA13E0204609F03CFC0FE020462D
:104CD00009F022F90BE0204608F03AF907E02046F7
:104CE00009F08CFD03E0204607F00AFF00BF00BF7B
:104CF00094F8D00304280BD094F8D003052807D0EB
:104D000094F8D0030A2803D00421024801F059F98D
:104D100010BD00000000024070B52DED028B04466E
:104D20000025F748D0F8C0010088642190FBF1F01D
:104D3000C0F117050D2D00DD0D25012D00DA002530
:104D400014B9BDEC028B70BDEE48007890B194EDC3
:104D50005B0AF2EE0E0A30EE600AEB4880ED000AC4
:104D600094ED5B0AF2EE0E0A30EE200AE74880ED81
:104D7000000A11E094ED5A0AF2EE0E0A30EE600AD3
:104D8000E14880ED000A94ED5A0AF2EE0E0A30EE88
:104D9000200ADE4880ED000A2168B1F90C002D22BE
:104DA000514209F0F3FD2168B1F90E002D22514264
:104DB00009F0ECFD606890ED030AFFEE000A20EEBA
:104DC000200A84EDC60A6068B0F90000404200EE97
:104DD000100AB8EEC00A84EDC70AB4F8102311B265
:104DE000D4F8C021128810B207F022FE00EE100A9B
:104DF000B8EEC00AC648D0ED000A20EE200A84EDC5
:104E0000C50A94EDC50AC34880ED000A606890EDBC
:104E1000040AB1EE400A84ED5B0A6068B0F9040050
:104E200000EE100AB8EEC00A84ED5C0A94ED5A0A4E
:104E3000B94880ED000AB4F8642111B262691288A1
:104E400010B207F0F5FD00EE100AB8EEC00AB34844
:104E5000D0ED000A20EE200A84ED5A0AB048007E08
:104E6000022836D194ED5A0AAB48D0ED000A30EE54
:104E7000C00ADFEDAC0AB4EEE00AF1EE10FA05DB91
:104E8000A9480068401CA849086012E094ED5A0A3D
:104E9000A148D0ED000A30EEC00ADFEDA40AB4EE5E
:104EA000E00AF1EE10FA04D89F480068401E9E49BF
:104EB0000860D4ED5A0A9C4800684FF4B471484326
:104EC00000EE100AB8EEC00A30EE800A984880ED75
:104ED000000A94ED5B0AD4ED5B0AB3EE0E1A70EE95
:104EE000C10AB4EEE00AF1EE10FA08D894ED5B0ABC
:104EF000F3EE0E0A30EE600A84ED5B0A14E094EDE6
:104F00005B0AD4ED5B0AB3EE0E1A70EE810AB4EEC2
:104F1000E00AF1EE10FA07DB94ED5B0AF3EE0E0AFD
:104F200030EE200A84ED5B0A94ED5B0A814880ED47
:104F3000000AA068D0F80100C4F8DC03A068D0F82B
:104F40000500C4F8E00394EDB80ADFED7B0AB4EE87
:104F5000E00AF1EE10FA11DD784890ED000ADFED7D
:104F6000780AB4EEE00AF1EE10FA07D890ED000AE4
:104F7000DFED740A30EE200A80ED000A94EDB80AE5
:104F8000DFED710AB4EEE00AF1EE10FA0FD26B48D1
:104F900090ED000AB5EEC00AF1EE10FA07DB90EDD5
:104FA000000ADFED680A30EE600A80ED000A63480F
:104FB00090ED000AF7EE000A30EEC00A634800EBFD
:104FC0008500D0ED000A20EE200A614800EB850044
:104FD000D0ED000A594890ED001A01EE200A5D4814
:104FE00080ED000A2068B0F90E0000EE900AF8EE9D
:104FF000E00AB0EE600A584801F090FAB0EE408A3C
:105000009FED561ADFED560A07F02CFC2068B0F928
:10501000060000EE900AF8EEE00A9FED521A60EEEC
:10502000810A9FED511A40EE410A94EDF50ABFEE58
:10503000001A01EE200A84EDF50A2068B0F90C0090
:1050400000EE900AF8EEE00AB0EE600A474801F080
:1050500065FAB0EE408A9FED411ADFED410A07F094
:1050600001FCDFED430A20EE200A2068B0F90400BD
:1050700000EE900AF8EEE00A9FED3E1A00EE810A7B
:10508000D4EDF60A30EEC00A84EDF60A94EDF50A86
:10509000DFED390AB4EEE00AF1EE10FA04D89FED24
:1050A000360A84EDF50A0CE094EDF50AF3EE070AF2
:1050B000B4EEE00AF1EE10FA03DBB3EE070A84ED7A
:1050C000F50A94EDF60A1048D0ED000AB4EEE00AB5
:1050D000F1EE10FA04D890ED000A84EDF60A0DE026
:1050E00094EDF60A0948D0ED000AB4EEE00AF1EEBC
:1050F00010FA03DB90ED000A84EDF60A00BF20E60B
:10510000BC090020F8000020B4020020B8020020F2
:10511000C0020020E0000020E4000020BC020020CB
:105120001C0F002000003443EC000020000034C3BA
:10513000E8000020DC0000209A99193EB00200200F
:105140006666A63F0AD7233C9A9919BE68000020DC
:10515000A0000020D8000020700E00200000344283
:10516000000034C252499D398FC2753C400E002068
:105170000AD7A33CA69BC43A000000C210B504465F
:1051800007F006FC606007F017FC606107F008FCA0
:10519000C4F8C001F3EE040A9FED750A04F54F70E0
:1051A00001F09CF9F2EE0E0A9FED710A04F5C87049
:1051B00001F094F9DFED6F0AB7EE000A6E4801F0D6
:1051C0008DF9DFED6C0AB7EE000A6C4801F086F944
:1051D0006B4B022211466B48FBF7C6F8684B103345
:1051E0000222114667480830FBF7BEF8644994393B
:1051F00064484C3809F090FCDFED5D0AB7EE000A18
:10520000614801F06BF9DFED5A0AB7EE000A5F481A
:1052100001F064F907F02AFC206007F0BDFBA060F4
:1052200007F082FBE06007F0F7FB2061002084F8C4
:10523000D00341F67C215648A0F8101341F64C519A
:10524000A0F86411DFED534A9FED524ADFED513A69
:10525000B6EE003ADFED502A9FED4E2ADFED4D1AF3
:10526000B3EE001ADFED4D0A9FED4C0A04F1E400A5
:1052700000F050FD9FED473ADFED462A9FED452AAD
:10528000DFED441A9FED431ADFED450A9FED450A15
:10529000454A002104F11C0002F07EFFDFED3D4A8B
:1052A0009FED3C4ADFED3B3A9FED3A3ADFED392A7C
:1052B0009FED382ADFED3D1AB2EE0E1ADFED370A08
:1052C0009FED360A04F5247000F024FD9FED313A7D
:1052D000DFED302A9FED2F2ADFED351A9FED2D1AD5
:1052E000DFED2F0A9FED2F0A324A002104F5E4700A
:1052F00002F052FF9FED273ADFED262A9FED252A87
:10530000DFED241A9FED231ADFED2B0A9FED2B0A08
:105310002B4A002104F1800002F03EFF9FED1D3A70
:10532000DFED1C2A9FED1B2ADFED1A1A9FED191ADB
:10533000DFED210A9FED200A224A002104F18000BE
:1053400002F02AFF9FED133ADFED122A9FED112A9A
:10535000DFED101AB7EE001ADFED170A9FED170AFE
:10536000194A002104F55B7002F016FF10BD000021
:105370000000484200007042400E0020700E0020E5
:105380009C010020EC0E0020B00D0020E00D00205C
:10539000BC090020000000006F12833A00007A442C
:1053A00000A08C46005EEA46803A01080AD7233CFA
:1053B0009A99193F743A010800803B4500401C4609
:1053C0008C3A0108A43A0108983A010810B52DED6D
:1053D000048B044614B9BDEC048B10BD94F8D103C2
:1053E00040B194F8D00328B90021A4F88C11A4F896
:1053F00038131AE394F8D10301286DD094F8D00340
:10540000012869D1DFEDFD3A9FEDFC3ADFEDFB2A83
:105410009FEDFA2ADFEDF91A9FEDF81ADFEDF70A92
:10542000F74890ED000AB8EEC00A04F1E40007F076
:10543000C5FEDFEDF23A9FEDF13ADFEDF02A9FED88
:10544000EF2ADFEDEE1A9FEDED1ADFEDEC0AED48E5
:1054500090ED000AB8EEC00A04F11C0009F09EFDB0
:10546000DFEDE63A9FEDE53ADFEDE42A9FEDE32A32
:10547000DFEDE21A9FEDE11AE348D0ED000AE348C0
:1054800090ED000AB8EEC00A04F5247007F096FE0D
:10549000DFEDDA3A9FEDD93ADFEDD82A9FEDD72A32
:1054A000DFEDD61A9FEDD51ADFEDD40AD84890ED7E
:1054B000000AB8EEC00A04F5E47009F06FFD94ED3F
:1054C000C60A84EDF50A94ED5B0A84EDF60A9FEDB9
:1054D000CB0A84ED5F0AA8E294F8D10302287DD0BC
:1054E00094F8D003022879D1CA4890ED000B51EC12
:1054F000100BFBF70BFD08EE100AC74890ED000BF0
:1055000051EC100BFBF702FD08EE900AC34890ED3A
:10551000000B51EC100BFBF7F9FC09EE100ADFED64
:10552000B73A9FEDB63ADFEDB52A9FEDB42ADFED2D
:10553000B31AB0EE481AF0EE680AB0EE490A04F168
:10554000E40007F03BFEB64890ED000B51EC100B69
:10555000FBF7DCFC08EE100ADFEDA83A9FEDA73A56
:10556000DFEDA62A9FEDA52ADFEDA41A9FEDA31A71
:10557000DFEDA20AB0EE480A04F11C0009F00EFDAE
:10558000A84890ED000B51EC100BFBF7BFFC08EEA8
:10559000100AA54890ED000B51EC100BFBF7B6FC80
:1055A00008EE900AA14890ED000B51EC100BFBF7B0
:1055B000ADFC09EE100AF0EE003A9FED903ADFEDF7
:1055C0008F2A9FED8E2ADFED8D1AB0EE481AF0EE8D
:1055D000680AB0EE490A04F5247000E02BE007F0F9
:1055E000EDFD934890ED000B51EC100BFBF78EFC9A
:1055F00008EE100ADFED813A9FED803ADFED7F2A59
:105600009FED7E2ADFED7D1AB2EE041ADFED7B0AF4
:10561000B0EE480A04F5E47009F0C0FC94EDC60A47
:1056200084EDF50A94ED5B0A84EDF60A9FED730AAA
:1056300084ED5F0AF9E194F8D103042864D094F86A
:10564000D003042860D1DFED6D3A9FED6C3ADFEDB9
:105650006B2A9FED6A2ADFED691A764890ED001AF1
:105660007548D0ED000A754890ED000A04F1E40099
:1056700007F0A4FDDFED613A9FED603ADFED5F2AB0
:105680009FED5E2ADFED5D1A9FED5C1ADFED5B0A90
:105690006B4890ED000A04F11C0009F07FFCDFED7F
:1056A000573A9FED563ADFED552A9FED542ADFED2C
:1056B000531A644890ED001A6348D0ED000A63481D
:1056C00090ED000A04F5247007F078FDDFED4B3A09
:1056D0009FED4A3ADFED492A9FED482ADFED471A50
:1056E000B2EE041ADFED450A594890ED000A04F5C0
:1056F000E47009F053FC94EDC60A84EDF50A94EDCC
:105700005B0A84EDF60A90E194F8D1030A2864D08C
:1057100094F8D0030A2860D1DFED383A9FED373A8C
:10572000DFED362A9FED352ADFED341A494890ED3A
:10573000001A4948D0ED000A484890ED000A04F1EB
:10574000E40007F03BFDDFED2D3A9FED2C3ADFED55
:105750002B2A9FED2A2ADFED291A9FED281ADFED6B
:10576000270A3F4890ED000A04F11C0009F016FCDE
:10577000DFED223A9FED213ADFED202A9FED1F2A2F
:10578000DFED1E1A374890ED001A3748D0ED000AB9
:10579000364890ED000A04F5247007F00FFDDFEDA8
:1057A000173A9FED163ADFED152A9FED312ADFED0E
:1057B000131AB2EE041ADFED110A2E4890ED000A1A
:1057C00004F5E47009F0EAFB94EDC60A84EDF50AED
:1057D00094ED5B0A84EDF60A27E194F8D1030528DD
:1057E0007BD094F8D003052877D19FED040A84ED8F
:1057F0005F0ADFED023A9FED013A3DE00000000054
:10580000BC010020C0010020CC010020C401002008
:10581000C801002040020020380200203002002091
:1058200048020020600200205802002050020020A0
:10583000680200200C020020080200200402002060
:10584000100200201C020020180200201402002078
:105850002002002078020020740200207002002044
:105860007C020020880200208402002080020020A8
:105870009A99193F8C0200205FED202A1FED212A02
:105880005FED221A6C4890ED001A6C48D0ED000ACA
:105890006B4890ED000A04F1E40007F08FFC5FED27
:1058A000293A1FED2A3A5FED2B2A1FED2C2A5FEDD6
:1058B0002D1A1FED2E1A5FED2F0A624890ED000A97
:1058C00004F11C0009F06AFB5FED343A1FED353A34
:1058D0005FED362A1FED372A00E02CE05FED391A24
:1058E000594890ED001A5948D0ED000A584890EDFB
:1058F000000A04F5247007F061FC5FED403A1FEDEB
:10590000413A5FED422A1FED432A5FED441A1FED35
:10591000451A5FED460A4F4890ED000A04F5E47021
:1059200009F03CFB94EDC60A84EDF50A94ED5B0AA0
:1059300084EDF60A79E094F8D10306284CD094F867
:10594000D003062848D10421434800F038FB1FED5E
:10595000550A84ED5F0A414890ED001A4048D0EDA9
:10596000000A404890ED000A04F1E40007F006FC4C
:105970001FED5E1A5FED5F0A3B4890ED000A04F1EF
:105980001C0009F0F1FA394890ED001A3848D0EDC2
:10599000000A384890ED000A04F5247007F0EEFB89
:1059A0001FED6A1A5FED6B0A334890ED000A04F5AB
:1059B000E47009F0D9FAB7EE080A84EDA70AB7EE49
:1059C000080A84ED3C0A94EDC60A84EDF50A94EDCC
:1059D0005B0A84EDF60A28E094F8D1030B2810D076
:1059E00094F8D0030B280CD11FED7C0A84ED5F0ADC
:1059F00094EDC50A84EDF50A94ED5B0A84EDF60A90
:105A000013E094F8D1030C280FD094F8D0030C289D
:105A10000BD11FED860A84ED5F0A94EDC60A84ED72
:105A2000F50A94ED5B0A84EDF60A94F8D00384F845
:105A3000D10300BFCFE400009802002094020020B0
:105A4000900200209C020020A8020020A402002056
:105A5000A0020020AC020020000002400C02002046
:105A60000802002004020020100200201C02002076
:105A70001802002014020020200200200FB42DED97
:105A8000040B10B52DED0C8B0446F0EE408AB0EE01
:105A9000609AB0EE418A9FED9D0AB0EE40AA34B9FB
:105AA0009FED9B0ABDEC0C8B10BC5DF824FBC4ED94
:105AB000068A84ED059A94ED090A84ED0A0A94EDAC
:105AC000080A84ED090A39EE680AF0EE409AB0EE51
:105AD000690A13A800F022FDF0EE409AC4ED089A7E
