:020000040800F2
:1000000038C7012059020008F363000805490008B9
:10001000EF630008912B0008CF800008000000006B
:10002000000000000000000000000000A101000826
:100030009544000800000000F5010008796B0008F5
:1000400073020008730200087302000873020008BC
:1000500073020008730200087302000873020008AC
:100060007302000873020008974400087302000836
:10007000730200087302000873020008730200088C
:10008000730200087302000873020008730200087C
:10009000A52C000873020008730200087302000810
:1000A000730200087302000873020008730200085C
:1000B00073020008F16B0008730200087302000865
:1000C000730200087302000873020008730200083C
:1000D0007302000873020008D56D0008730200085F
:1000E000730200087302000873020008730200081C
:1000F000730200087302000873020008730200080C
:100100007302000873020008096C000873020008FB
:1001100073020008756D000873020008730200087E
:1001200073020008730200087302000873020008DB
:1001300073020008730200087302000873020008CB
:1001400073020008DD2F00087302000881640008B4
:1001500073020008730200087302000873020008AB
:10016000730200087302000873020008730200089B
:10017000730200087302000873020008730200088B
:100180007302000873020008DFF810D001F056F97E
:100190000048004749C30008AFF3008038C701207A
:1001A0002A4B19680868B0E8F04F80F30988BFF35C
:1001B0006F8F4FF0000080F311887047000000003F
:1001C00006480068006880F3088862B661B6BFF32D
:1001D0004F8FBFF36F8F00DF00BF00BF08ED00E05F
:1001E000DFF80C00016841F470010160704700BF46
:1001F00088ED00E0EFF30980BFF36F8F134B1A68AF
:100200001EF0100F08BF20ED108A20E9F04F10609B
:1002100008B44FF0500080F31188BFF34F8FBFF345
:100220006F8F0DF095FC4FF0000080F3118808BC33
:1002300019680868B0E8F04F1EF0100F08BFB0EC66
:10024000108A80F30988BFF36F8F7047B0000020D9
:10025000EFF30580704700000648804706480047D6
:10026000FEE7FEE7FEE7FEE7FEE7FEE7FEE7FEE766
:10027000FEE7FEE7896B0008890100089FED1A1A66
:10028000F5EE000A40EE010ABDEEE00AF5EEC00A06
:1002900010EE100AF1EE10FA38BF401E00EE100A00
:1002A0001349F7EE001AB8EEC00A30EEC00ADFEDCF
:1002B0000F0A20EE200AFCEEC00A10EE900AC0F3EE
:1002C000080000EE900A01EB8000F8EE600A90ED65
:1002D000011A70EE600A90ED000A71EEE01A21EE4C
:1002E000800A00EE810A704783F9223E0000004434
:1002F000F0EA0008DFED190AB5EEC00A60EE200A48
:10030000BDEEE01A11EE100AF1EE10FA38BF401EF1
:1003100000EE100A1349F7EE001AB8EEC00A30EEEC
:10032000C00ADFED0F0A60EE200ABCEEE00A10EE14
:10033000100AC0F3080000EE100A01EB8000B8EECE
:10034000400A90ED011A70EEC00A90ED000A71EEBD
:10035000E01A21EE800A00EE810A704783F9223EFE
:1003600000000044F0EA000870B405880E88446874
:10037000D1F804C05368B54208D140884988884202
:1003800001BF11888D425188884203D070BC6FF044
:100390000200704705FB00F1880827D094ED001A91
:1003A000DCED000A94ED010ADCED011A31EE201AB1
:1003B000D4ED020A70EE211A9CED020A83ED001AB8
:1003C000C3ED011A94ED031ADCED031A30EE800A36
:1003D000401E71EE210A83ED020A04F11004C3ED00
:1003E000030A03F110030CF1100CD7D111F0030034
:1003F00030D0B0F1004F30D200282BDD211F1B1F61
:10040000ACF1040210F0010F0AD091ED010AD2ED17
:10041000010A091D121D30EE200A83ED010A1B1D81
:10042000400817D091ED010AD2ED010A401E30EECE
:10043000200A83ED010A91ED020AD2ED020A01F1D0
:10044000080102F1080230EE200A83ED020A03F1EE
:100450000803E7D170BC00207047B4EC010A401ECD
:10046000FCEC010A30EE200AA3EC010AF5D1F1E719
:1004700001804280436070472DE9F34F84B00498B7
:1004800040680090486801900498B0F800E0458802
:10049000DFEDFE0A00200290B0EE600AAE4506D104
:1004A00008884988884204BF7146864504D06FF0A9
:1004B000020006B0BDE8F08F01985FEA010C18BF9A
:1004C000B7EE001A3DD000BFBEEB0C0117D0B1F162
:1004D000004F80F01F82002911DD021F11F0010F73
:1004E0001CBFC2ED010A121D4B1006D0C2ED010A5D
:1004F000C2ED020A08325B1EF8D100EB8100BCF1AC
:100500000102A0EC011A19D0B2F1004F80F008826C
:10051000002A13DD031F12F0010F1CBFC3ED010AF7
:100520001B1D511008D000BFC3ED010AC3ED020A24
:10053000491E03F10803F7D100EB8200BCF1010C66
:10054000C2D14FF000080395002D14BFB0EE602A11
:10055000002000F0BF8100BF009908FB05F001EB0F
:10056000800B0199DBED002A01EB80000346F0EEE1
:10057000421AC64552D9AEEB0802ABEB850112F028
:10058000010F17D001EB850191ED000AB5EEC00A0D
:10059000F1EE10FA07DDB4EEE10AF1EE10FA09DD32
:1005A000F0EE401A06E0B1EE400AF4EEC01AF1EEA9
:1005B00010FAF5D3521031D001EB850C9CED000AF6
:1005C000B5EEC00AF1EE10FA05DDB4EEE10AF1EE87
:1005D00010FA09DD06E0B1EE400AF4EEC01AF1EEC1
:1005E00010FA01D2F0EE401A01EBC50191ED000ABC
:1005F000B5EEC00AF1EE10FA05DDB4EEE10AF1EE57
:1006000010FA09DD06E0B1EE400AF4EEC01AF1EE90
:1006100010FA01D2F0EE401A521ECDD1F5EEC01AFA
:10062000F1EE10FA00F07381F5EEC02A0126F1EE2A
:1006300010FA0099D4BFB1EE620AB0EE620AB4EECD
:10064000610AF1EE10FA1CBFAEEB0802B2F1010C28
:1006500047D005FB08F201EB820292ED001A00BFC1
:10066000B0EE410A05FB06F4B5EEC00A00EB8404C7
:10067000F1EE10FACCBFF0EE400AF1EE400AF4EED3
:10068000610AF1EE10FA28D1B5EB080C11D0BCF1DB
:10069000004F7DD2BCF1000F0BDD00BF92ED000AD0
:1006A000D1ED000ABCF1010CE2EC010AA1EC010A57
:1006B000F4D129000ED0B1F1004F6AD2002909DD32
:1006C00094ED000AD0ED000A491EE4EC010AA0EC0A
:1006D000010AF5D1012002900BE0761CBCF1010C5F
:1006E000BED10298012804D0F5EEC02AF1EE10FA2E
:1006F0007ED09BED000AB5EB08009A4659460646A7
:1007000022D0B0F1004F74D200281DDD091F10F077
:10071000010F06D0F0EE400A80EEA01A81ED011A1A
:10072000091D401010D000BFD1ED010A401E80EE1F
:10073000801A81ED011A91ED021AC1EE000AC1ED95
:10074000020A01F10801EFD1280026D0B0F1004FD4
:100750007ED2002821DDAAF1040110F0010F06D09D
:10076000D1ED010A80EE801A81ED011A091D4010B9
:1007700013D000BFD1ED010A401E80EE801A81ED3A
:10078000011AD1ED020A80EE801A81ED021A01E011
:10079000CBE0D6E001F10801ECD1DDE900124FF029
:1007A00000095FEA0E0773D0C14504BF01EB860163
:1007B00002EB850274D091ED000ADC46504633000E
:1007C00035D01C46B6F1004F7ED2002C2FDD0B1F1A
:1007D000ABF1040C16F0010F0FD0F0EE400ADCED87
:1007E000011AB0EE601A00EEE11A83ED011A01E081
:1007F0008DE0B1E01B1D0CF1040C741015D000BF8E
:10080000D3ED010A9CED011A40EE410AC3ED010A45
:10081000D3ED020A9CED021A0CF1080C40EE410ADD
:10082000C3ED020A0833641EEAD101EB86012B00F6
:1008300036D0B3F1004F72D2002B31DDA2F1040C9F
:10084000AAF1040013F0010F0CD0DCED010A00E066
:100850008BE090ED011A001D40EE410ACCED010A3B
:100860000CF1040C5C1019D0DCED010A90ED011ABA
:1008700040EE410ACCED010ADCED020A90ED021ACD
:10088000083040EE410ACCED020A03E0000000000F
:100890000DE005E0641E0CF1080CE5D102EB8302CB
:1008A00001EB88017F1E09F101097FF47DAF0098FB
:1008B00008F10108001D00900398401E03907FF48A
:1008C0004BAE0299012900E058E004BF06B0BDE834
:1008D000F08F00BFB5EEC00AF1EE10FA7FF4E9AD7B
:1008E00004990EFB05F3002B4A684FF000010BD969
:1008F00002EB810C9CED000AB5EEC00AF1EE10FA95
:1009000002D1491C8B42F3D88B427FF4D2AD6FF0F9
:100910000400CEE5E0EC010A491EFBD1EFE538E02A
:10092000E0EC010A521EFBD108E692ED000AD1ED7F
:10093000000ABCF1010CE2EC010AA1EC010AF4D1BD
:10094000B7E694ED000AD0ED000A491EE4EC010A76
:10095000A0EC010AF5D1BDE6D1ED000A401E80EE03
:10096000801AA1EC011AF7D1EEE6D3ED000A401E81
:1009700080EE801AA3EC011AF7D10EE7BCEC011A45
:10098000D1ED000A5B1E40EE410AE1EC010AF5D10F
:100990004DE7B0EC011AD2ED000A5B1E40EE410AB1
:1009A000E2EC010AF5D17BE72DE9F04F82B0466811
:1009B00053680193058847884B8800200090088879
:1009C000874201BFB2F800C06545528893421EBFFE
:1009D0006FF0020002B0BDE8F08F9FED412A4FEAB0
:1009E000970EC7F3400B00BFDDE9000202EB800A5F
:1009F0004A6898464FF00009B0EE420AB4465FEAF2
:100A00000E0025D092ED001ADCED001A02EB8302F5
:100A1000DCED010A01EE810A92ED001A02EB83027D
:100A2000401ED2ED001A02EB830200EE810A9CED1B
:100A3000021ADCED030A00040CF1100C000C01EEAC
:100A4000210A92ED001A02EB830200EE810AD9D14D
:100A500017F0030026D0ACF10404A2EB830210F0DF
:100A6000010F08D002EB8302D4ED010A92ED001AC7
:100A7000241D00EE810A5FEA0B0013D002EB830C09
:100A8000D4ED010A9CED001A02EBC302401E00EEF9
:100A9000810AD4ED020A92ED001A04F1080400EE76
:100AA000810AEBD109F10100AAEC010A1FFA80F9D1
:100AB000486800EB8902A8F101001FFA80F8B8F13C
:100AC000000F99D1009806EB8706184480B2009079
:100AD000681E05042D0C87D102B00020BDE8F08F00
:100AE0000000000070B405880E884468D1F804C086
:100AF0005368B54208D140884988884201BF1188AF
:100B00008D425188884203D070BC6FF0020070475C
:100B100005FB00F1880827D094ED001ADCED000AEF
:100B200094ED010ADCED011A31EE601AD4ED020AEF
:100B300070EE611A9CED020A83ED001AC3ED011AF2
:100B400094ED031ADCED031A30EEC00A401E71EE7C
:100B5000610A83ED020A04F11004C3ED030A03F1F4
:100B600010030CF1100CD7D111F0030030D0B0F10C
:100B7000004F30D200282BDD211F1B1FACF10402D7
:100B800010F0010F0AD091ED010AD2ED010A091D02
:100B9000121D30EE600A83ED010A1B1D400817D0BC
:100BA00091ED010AD2ED010A401E30EE600A83ED9C
:100BB000010A91ED020AD2ED020A01F1080102F1E7
:100BC000080230EE600A83ED020A03F10803E7D160
:100BD00070BC00207047B4EC010A401EFCEC010A16
:100BE00030EE600AA3EC010AF5D1F1E72DE9F04FF0
:100BF00002884768B0F802804888D1F8049082B033
:100C00004FF0000A1646824207BF098888456FF0F8
:100C1000020002B018BFBDE8F08F4FEA980B02EB5C
:100C200042000190C8F34000CDF8000009EB8A01B2
:100C3000BBF1000F33D0019801EB820C01EB800473
:100C40003B46E64601EBC2054FEA0B0093ED000A76
:100C5000401E81ED000A93ED010A01EB02118CEDBB
:100C6000000A93ED020A0CEB021C85ED000A93EDDD
:100C7000030A05EB021584ED000A04EB021403F1EC
:100C80001003E3D10EEB820000EB820000EB820147
:100C9000ABF10100504307EB0B1701EB001118F00B
:100CA000030C21D03B1FA1EB82011CF0010F06D0E9
:100CB00093ED010A01EB82011B1D81ED000A0098F2
:100CC00080B100BF93ED010A01EB820401EBC20188
:100CD00084ED000A93ED020A401E81ED000A03F143
:100CE0000803EFD107EB8C070AF101001FFA80FA25
:100CF000701E0604360C99D102B00020BDE8F08FBA
:100D000040EA01039B0703D009E008C9121F08C08D
:100D1000042AFAD203E011F8013B00F8013B521E0D
:100D2000F9D27047D2B201E000F8012B491EFBD284
:100D300070470022F6E710B513460A4604461946E6
:100D4000FFF7F0FF204610BD2DE9FE4F804681EAF7
:100D50000300C00F0C46009021F0004123F0004535
:100D6000B8EB0200A94105D24046214690461C46F8
:100D70000B46024623F00040104347D0270DC7F32F
:100D80000A00C3F30A510290401A019040286BDA1E
:100D9000C3F3130040F4801B0098924620B1002357
:100DA000D2EB030A63EB0B0B01985946C0F14002EA
:100DB000504600F024FA06460D4650465946019A20
:100DC00000F02CFA10EB08006141002487EA115270
:100DD00084EAE7731A4340D0009A62B3019A012A69
:100DE0004FEA075215DC001B61EB02014FF0004295
:100DF00002EA0752CDE90042001C41F5801132465B
:100E00002B4600F063FA03B0BDE8F08F4046214660
:100E1000F9E7001B61EB0201001C41F5801300188B
:100E20005B412018A2F5001747EB030140EAD5709B
:100E3000B6196D4111E06D084FEA360645EAC075F6
:100E40004FEA0752001B61EB0201001C41F58011C3
:100E500049084FEA30000019514132462B4603B091
:100E6000BDE8F04F00F023BA0098012240000023B3
:100E7000D0EB020263EBE073009821464FEAE07486
:100E8000B8EB000061EB0401E9E783F000435BE7A6
:100E900081F0004158E72DE9FE4F81EA030404F098
:100EA000004421F0004100944FF0000B23F0004378
:100EB00050EA01045ED052EA03045BD0C3F30A5443
:100EC000C1F30A552C44A4F2F3340194A0FB02545C
:100ED000C1F3130141F48011C3F3130343F48013EE
:100EE00001FB024400FB034E840A970A44EA815442
:100EF00047EA8357A4FB076802958D0A05FB07851F
:100F00004FEA932C04FB0C542705029D4FEA065828
:100F100047EA1637B5EB08056EEB070C870E920E05
:100F200047EA811742EA8312A7FB0201B6EB0B01E5
:100F300064EB00042B0D43EA0C335E1844EB1C50A9
:100F4000DA465146E7FB0201C5F313044FEA0B33BF
:100F500043EA14534FEA0432019C43EA0603A4F126
:100F60000C040294009CCDE900B400F0AFF903B08A
:100F7000BDE8F08F00200146F9E72DE9F04D81EA48
:100F8000030404F0004B21F0004514464FF0000A22
:100F900023F0004150EA050220D054EA01021DD09E
:100FA000C5F30A570246C5F31303C1F31300C1F397
:100FB0000A5640F4801543F48013A7EB0608101B73
:100FC000D64608F2FD3873EB050002D308F101089C
:100FD00001E092185B41B8F1000F03DA00200146EE
:100FE000BDE8F08D00204FF48011064684460EE0E7
:100FF000171B73EB050705D3121B63EB05030643B1
:101000004CEA010C49084FEA300092185B4150EA63
:101010000107EDD152EA030012D082EA040083EA0C
:101020000501084305D0101BAB4106D20122002365
:1010300006E000224FF0004302E06FF0010253107F
:101040001AEB06004CEB085110EB0A0041EB0B01C8
:10105000BDE8F04D00F02BB930B4044696230800EB
:10106000214604D0B62330BC002200F0F2B820465E
:101070000021F8E70EB5C10F80EAE0700844CA0706
:10108000002140F233438DE80E000A460B4600F083
:101090001DF903B000BD0EB540F2334102910021AD
:1010A000CDE900110A460B4600F010F903B000BD6F
:1010B00000F0004230F000400AD0C10D01F560712F
:1010C000C0F3160042EA0151C208400711437047BD
:1010D000002001467047000030B5041E71F1000485
:1010E00004DB4FF00044404264EB0101141E73F135
:1010F000000405DB1C464FF00043524263EB04033F
:101100008B4208BF824230BD30B5041E71F100042D
:1011100004DB4FF00044404264EB0101141E73F104
:10112000000405DB1C464FF00043524263EB04030E
:10113000994208BF904230BD01F0004330B421F025
:10114000004150EA010206D00A0DA2F56072C1F317
:101150001301002A02DC30BC00207047440F44EA2F
:10116000C104C100E01830BC00EBC25000F068B808
:1011700030B50B46014600202022012409E021FA67
:1011800002F59D4205D303FA02F5491B04FA02F564
:101190002844151EA2F10102F1DC30BD2DE9F05FFB
:1011A0000546002092469B468846064681464024D6
:1011B0001BE0284641464746224600F051F9534677
:1011C0005A46C01A914110D311461846224600F0E3
:1011D00016F82D1A67EB01084F4622460120002120
:1011E00000F00DF817EB00094E41201EA4F1010498
:1011F000DFDC484631462A464346BDE8F09F202AB8
:1012000004DB203A00FA02F1002070479140C2F15D
:10121000200320FA03F3194390407047202A06DB8D
:10122000CB17203A41FA02F043EAE07306E041FAB4
:1012300002F3D040C2F120029140084319467047A2
:101240000029A8BF7047401C490008BF20F00100DA
:10125000704710B4B0FA80FC00FA0CF050EA0104B8
:1012600004BF10BC704749B1CCF1200421FA04F44A
:1012700011FA0CF118BF012121430843A3EB0C0123
:10128000CB1D4FEA00614FEA102042BF002010BC86
:10129000704700EBC35010440029A4BF10BC704736
:1012A000401C490008BF20F0010010BC704710B579
:1012B000141E73F1000408DA401C41F10001921879
:1012C0005B411A4301D120F0010010BD2DE9F04D22
:1012D00092469B4611B1B1FA81F202E0B0FA80F277
:1012E00020329046FFF78BFF04460F4640EA0A0083
:1012F00041EA0B0153465A46084313D0114653EABC
:10130000010019D0C8F14002504600F0A9F8054686
:101310000E46504659464246FFF771FF084305D036
:10132000012004E020463946BDE8F08D0020054349
:1013300046EAE0762C4337430A986305E40AA0EBBB
:1013400008000022FD0A44EA47540A3002D5002072
:101350000146E9E7010510196941DDE90845001971
:101360006941BDE8F04DA2E72DE9F04D00231A4692
:101370001B1A8A4103DB00200146BDE8F08DC1F352
:101380000A52C1F3130141F480154FF0000BD1074D
:1013900002D100186D41521E0027044640F2FF1191
:1013A000384601EB620A3E468046024600204FF472
:1013B000801100F055F8C2197141BB1846EB0100CD
:1013C000B4EB030C75EB000C04D3E41A65EB0005D9
:1013D00017460E46241908F101006D418046342855
:1013E000E3DDF91946EB0600091BA84103D24FF0D3
:1013F000FF32134601E0002213461BEB070046EBC9
:101400000A51BDE8F04DFFF752BFC1F30A52C1F3D4
:10141000130140F2FF3341F480119A4202DA0020B6
:101420000146704740F233439A42A2F2334202DC53
:10143000524200F015B8FFF7E2BE0000064C074D1F
:1014400006E0E06840F0010394E807009847103494
:10145000AC42F6D3FEF79CFE08F5000828F500081C
:10146000202A04DB203A21FA02F00021704721FAF9
:1014700002F3D040C2F12002914008431946704760
:1014800070B5C1F30A5201F000450024C1F3130105
:1014900040F2FF3341F480119A4201DA002070BD1E
:1014A00040F233439A42A2F2334203DC5242FFF746
:1014B000D7FF00E090402C43F1D0404270BD70B5A2
:1014C0008C1810F8015B15F0070301D110F8013BEF
:1014D0002A1106D110F8012B03E010F8016B01F876
:1014E000016B5B1EF9D12B0705D40023521E0DD4CE
:1014F00001F8013BFAE710F8013BCB1A921C03E01C
:1015000013F8015B01F8015B521EF9D5A142D8D353
:10151000002070BD30B52DED0C8BD9B09FEDA90A20
:10152000F0EE408A9FEDA70AB0EE409A9FEDA50A23
:10153000F0EE409A002462E0A34A911E881E03F058
:1015400007FEA148001FB0F9000000EE100AB8EE37
:10155000C00ADFED9E0A80EE201AB0EE000A21EEEE
:10156000000ADFED9B0A20EE200A8DED250A964841
:10157000001FB0F9020000EE100AF8EEC00A9FED5D
:10158000931A80EE810AF0EE000A20EE200ADFEDC9
:10159000900A20EE200A8DED240A8B48001FB0F936
:1015A000040000EE100AF8EEC00A9FED881A80EEE3
:1015B000810AF0EE000A20EE200ADFED850A20EE17
:1015C000200A8DED230A23AA24A925A808F0E6FD08
:1015D0009DED250A38EE800AF0EE408A9DED240A42
:1015E00039EE000AB0EE409A9DED230A39EE800AEA
:1015F000F0EE409A03200AF0F7FE601CC4B2642C9F
:101600009ADB9FED740AC8EE800ACDED250A9FEDA6
:10161000710AC9EE000ACDED240A9FED6E0AC9EEEB
:10162000800ACDED230ADDED250A60EEA00A9DEDCE
:10163000241ADDED241A41EE210A9DED231ADDED79
:10164000231A41EE210AB0EE600A0AF0DBFEB0EE8A
:10165000408A9DED250AC0EE080A10EE905A2846F1
:10166000FFF726FD41EC1B0BB0EE4B0AF0EE6B0AC8
:1016700006F06EFDB0EE40AAF0EE60AA9FED560BAC
:1016800053EC102B51EC1A0BFFF705FC55915490BD
:101690009DED230AB1EE400A10EE100AFFF708FD97
:1016A00041EC1C0B9DED240AB1EE400A10EE100A2D
:1016B000FFF7FEFC41EC1D0BB0EE4C1AF0EE6C1A7D
:1016C000B0EE4D0AF0EE6D0A07F05EF8B0EE40BAEB
:1016D000F0EE60BA9FED400B53EC102B51EC1B0B5E
:1016E000FFF7D9FB41EC1A0B9FED3D0B53EC102B90
:1016F000FFF7CBFB539152909FED3B0B8DED560BBB
:101700009DED562B9DED541B9DED520B10A801F045
:1017100053F8482210A940A8FFF7F2FA402242A944
:101720006846FFF7EDFA10A8419B409A04F02EFEA0
:10173000482210A92EA8FFF7E3FA382232A96846FA
:10174000FFF7DEFA2EA80FC803F006FF8DED260B7B
:101750008DED281B8DED2A2B8DED2C3B9DED261B51
:10176000B0EE410AF0EE610A51EC100BFFF7E4FC19
:101770001F4908609DED281BB0EE410AF0EE610A9A
:1017800051EC100BFFF7D8FC1A4908609DED2A1B9D
:10179000B0EE410AF0EE610A51EC100BFFF7CCFC01
:1017A000154908609DED2C1BB0EE410AF0EE610A70
:1017B00051EC100BFFF7C0FC1049086059B0BDECAC
:1017C0000C8B30BD0000000064AF0120000000471A
:1017D0000AE81C410000C84200000000DCA54C40A3
:1017E00000000000008066400000000000000000D3
:1017F0005C020020600200206402002068020020D9
:101800000EB52A4A911E881E03F0A2FC2748001F2D
:10181000B0F9000000EE100AB8EEC00ADFED240AAD
:1018200080EE201AB0EE000A21EE000ADFED210A58
:1018300020EE200A8DED020A1C48001FB0F90200BC
:1018400000EE100AB8EEC00A9FED191AC0EE010AA8
:10185000B0EE000A20EE800ADFED160A20EE200A24
:101860008DED010A1148001FB0F9040000EE100AC6
:10187000B8EEC00A9FED0E1AC0EE010AB0EE000AE3
:1018800020EE800ADFED0B0A20EE200A8DED000A23
:101890006A4601A902A808F081FC9DED001ADDED61
:1018A000010A9DED020A00F0F5FE0EBD64AF0120B5
:1018B000000000470AE81C4100B5B5B0FE4890EDB5
:1018C000000A20EE000A8DED1F0A90ED000AFB4889
:1018D000D0ED000A20EE200A8DED1E0AF64890EDAC
:1018E000000AF748D0ED000A20EE200A8DED1D0A0F
:1018F000F14890ED000AF348D0ED000A20EE200AEE
:101900008DED1C0AED4890ED000A20EE000A8DEDE9
:101910001B0A90ED000AEA48D0ED000A20EE200AEA
:101920008DED1A0AE54890ED000AE648D0ED000A70
:1019300020EE200A8DED190AE14890ED000A20EE14
:10194000000A8DED180A90ED000ADE48D0ED000A7D
:1019500020EE200A8DED170A90ED000A20EE000A15
:101960008DED160AD84890ED040A8DED150A90ED1C
:10197000050A8DED140A90ED060A8DED130A90ED1F
:10198000000A8DED120A90ED010A8DED110A90ED1D
:10199000020A8DED100A90ED070A8DED0F0A90ED09
:1019A000080A8DED0E0A90ED090A8DED0D0A02F080
:1019B00039FFC64880ED000BC54890ED000B53EC95
:1019C000102BC24890ED000B51EC100BFFF75DFAA5
:1019D000CDE90A019DED0A0B51EC100BFFF7ACFBB2
:1019E00000EE100A9FEDBB1AC0EE010ACDED0C0A05
:1019F0000C98FFF75DFBCDE92401B44890ED000B96
:101A0000B34880ED000B9DED120A20EE000ADDEDDB
:101A1000110A00EEA00ADDED100A00EEA00A8DED1D
:101A20000C0A9DED0C0A0AF089FB8DED340A9DED40
:101A3000120ADDED340A20EE200A8DED120A9DED2A
:101A4000110ADDED340A20EE200A8DED110A9DED1C
:101A5000100ADDED340A20EE200A8DED100A9DED0E
:101A60000F0A20EE000ADDED0E0A00EEA00ADDED01
:101A70000D0A00EEA00A8DED0C0A9DED0C0A0AF08D
:101A80005DFB8DED340A9DED0F0ADDED340A20EE8D
:101A9000200A8DED0F0A9DED0E0ADDED340A20EED1
:101AA000200A8DED0E0A9DED0D0ADDED340A20EEC3
:101AB000200A8DED0D0A9DED150ADFED870A20EE57
:101AC000200A8DED150A9DED140ADFED830A20EE44
:101AD000200A8DED140A9DED130ADFED7F0A20EE3A
:101AE000200A8DED130A9DED150ADFED7C0A20EE2C
:101AF000200A8DED150A9DED140ADFED780A20EE1F
:101B0000200A8DED140A9DED130ADFED740A20EE14
:101B1000200A8DED130A1598FFF7CAFACDE90801DE
:101B20009DED080B07F0ECF88DED0A0B9FED6C0BAB
:101B300053EC102B9DED0A0B51EC100BFFF7CCFA78
:101B400003D29FED690A8DED150A1498FFF7B0FADC
:101B5000CDE908019DED080B07F0D2F88DED0A0BD9
:101B60009FED5F0B53EC102B9DED0A0B51EC100B0E
:101B7000FFF7B2FA03D29FED5C0A8DED140A1398B9
:101B8000FFF796FACDE908019DED080B07F0B8F8CC
:101B90008DED0A0B9FED520B53EC102B9DED0A0BB4
:101BA00051EC100BFFF798FA03D29FED4F0A8DED21
:101BB000130A9DED0F0AF0EE000A60EE200A9DED7B
:101BC000180AB6EE001A31EE401A9DED160A31EEF3
:101BD000400A60EE800A9DED0E0AB0EE001A60EE3B
:101BE000011A9DED1A0A9DED1C1A30EE411AB0EE55
:101BF000600A01EE810ADDED0D0AB0EE001A60EE1A
:101C0000811ADDED190A9DED1D1A70EE810A01EEB3
:101C1000A00A8DED330A9DED0F0AF0EE000A20EECA
:101C2000201A9DED1A0ADDED1C0A30EE200A21EE85
:101C3000000ADDED0E0AB0EE001A20EE811ADDED8D
:101C40001B0AF6EE001A71EEE01ADDED160A71EECF
:101C5000E00A01EE200ADDED0D0AB0EE001A60EE9A
:101C6000811ADDED170A9DED1E1A70EEC10A01EE14
:101C7000A00A8DED320A9DED0F0AF0EE000A20EE6B
:101C8000201A9DED190ADDED1D0A30EE600A21EEE5
:101C9000000ADDED0E0AB0EE001A60EE811ADDEDED
:101CA000170A9DED1E1A70EE810A01EEA00ADDED05
:101CB0000D0AB0EE001A19E05C020020600200205C
:101CC000640200206802002038AF0120A00200203A
:101CD000980200200000FA44F8C1F93C35FA8E3C25
:101CE000FA7E6ABC7493683F0000000020EE811AFF
:101CF000DDED1B0AF6EE001A71EEE01ADDED180AB2
:101D000071EEE00A01EE200A8DED310A9DED330AF5
:101D100060EE000A9DED320A40EE000ACDED070AA2
:101D20000798FFF7C5F9CDE908019DED080B07F00D
:101D300057F88DED0A0B9DED0A0B51EC100BFFF7D8
:101D4000FBF930909DED310A8DED2F0A9DED190ABA
:101D5000DDED1D0A30EE600AF0EE000A20EE200AEA
:101D60008DED2E0A9DED1E0ADDED170A30EE200ADC
:101D7000F0EE000A20EE200A8DED2D0A9DED1F0ADF
:101D8000DDED1B0A70EE600A9DED180A70EEC00AC8
:101D90009DED160A30EE800A8DED2C0A9DED300A7D
:101DA000F0EE000A60EE200A9DED180AB6EE001A69
:101DB00031EE401A9DED160A31EE400A60EE800ABF
:101DC0009DED2F0AB0EE001A60EE011A9DED190A82
:101DD0009DED1D1A30EE411AB0EE600A01EE810A47
:101DE0008DED2B0A9DED300AF0EE000A20EE201A50
:101DF0009DED1A0ADDED1C0A30EE600A61EE000A64
:101E00009DED2F0AB0EE001A60EE011A9DED1E0A3C
:101E10009DED171A30EE011AB0EE600A01EE810A4C
:101E20008DED2A0A9DED300AF0EE000A20EE201A10
:101E30009DED1D0ADDED190A30EE200A61EE000A63
:101E40009DED2F0AB0EE001A20EE011A9DED1B0A3F
:101E5000F6EE001A71EEC01A9DED180A71EEC01A66
:101E6000B0EE600A01EE210A8DED290ADDED110ABE
:101E70009DED2C0A60EE800A9DED101A9DED2D0A55
:101E800041EE400A9DED0E1A9DED290A21EE001A41
:101E9000DDED0D1A9DED2A0A01EEC01A30EE810A21
:101EA0008DED280ADDED100A9DED2E0A60EE800A08
:101EB0009DED121A9DED2C0A41EE400A9DED0D1A82
:101EC0009DED2B0A21EE001ADDED0F1A9DED290A7A
:101ED00001EEC01A30EE810A8DED270ADDED120AFF
:101EE0009DED2D0A60EE800A9DED111A9DED2E0AE2
:101EF00041EE400A9DED0F1A9DED2A0A61EE001A8F
:101F00009DED0E1A9DED2B0A41EE401A30EEA10A0E
:101F10008DED260A9DED150A20EE000ADDED140A6E
:101F200000EEA00ADDED130A00EEA00A8DED070A0F
:101F30000798FFF7BDF8CDE908019DED080B06F005
:101F40004FFF8DED0A0B9DED0A0B51EC100BFFF7C7
:101F5000F3F834909DED340ADFEDFE0AB4EEE00AAA
:101F6000F1EE10FA7DD29DED280A5FEDA10A20EE78
:101F7000200A8DED030A0398FFF79AF8CDE90401D2
:101F80009DED240B53EC102B9DED040B51EC100B2D
:101F9000FEF781FFCDE90801EF480068FFF788F8F8
:101FA000CDE906019DED080B53EC102B9DED060BC2
:101FB00051EC100BFEF7C8FECDE90A019DED0A0BAE
:101FC00051EC100BFFF7B8F8E34908609DED270AC4
:101FD0005FEDBB0A20EE200A8DED030A0398FFF7A0
:101FE00067F8CDE904019DED240B53EC102B9DED1A
:101FF000040B51EC100BFEF74EFFCDE90801D7485A
:102000000068FFF755F8CDE906019DED080B53EC8C
:10201000102B9DED060B51EC100BFEF795FECDE954
:102020000A019DED0A0B51EC100BFFF785F8CB4927
:1020300008609DED260A5FEDD40A20EE200A8DEDA2
:10204000030A0398FFF734F8CDE904019DED240B52
:1020500053EC102B9DED040B51EC100BFEF71BFF06
:1020600000E049E0CDE90801BD480068FFF720F82D
:10207000CDE906019DED080B53EC102B9DED060BF1
:1020800051EC100BFEF760FECDE90A019DED0A0B45
:1020900051EC100BFFF750F8B14908609DED150A9F
:1020A000DDED280AB0EE001A01EE200AAA48D0EDB4
:1020B000000A30EE200A8DED150A9DED140ADDEDC3
:1020C000270AB0EE001A01EE200AA448D0ED000A5B
:1020D00030EE200A8DED140A9DED130ADDED260A7F
:1020E000B0EE001A01EE200A0846D0ED000A30EEEC
:1020F000200A8DED130A1DE09DED150ADDED280A7D
:10210000B7EE001A01EE200A8DED150A9DED140AB6
:10211000DDED270AB7EE001A01EE200A8DED140A54
:102120009DED130ADDED260AB7EE001A01EE200A36
:102130008DED130A8B4890ED000AF1EE400A9DEDFB
:10214000150A20EE800A884890ED001ADDED140A89
:1021500001EE600A854890ED001ADDED130A01EEEC
:10216000600A8DED030A0398FEF7A2FFCDE9040192
:102170009DED240B53EC102B9DED040B51EC100B3B
:10218000FEF789FECDE9080179480068FEF790FF67
:10219000CDE906019DED080B53EC102B9DED060BD0
:1021A00051EC100BFEF7D0FDCDE90A019DED0A0BB5
:1021B00051EC100BFEF7C0FF23906D48D0ED000AE4
:1021C0009DED150A20EE800A674890ED001ADDEDBE
:1021D000130A01EE200A654890ED001ADDED140A9D
:1021E00001EE600A8DED030A0398FEF761FFCDE969
:1021F00004019DED240B53EC102B9DED040B51ECD1
:10220000100BFEF748FECDE9080156480068FEF7BE
:102210004FFFCDE906019DED080B53EC102B9DED12
:10222000060B51EC100BFEF78FFDCDE90A019DED79
:102230000A0B51EC100BFEF77FFF22904C48D0EDBB
:10224000000A9DED140A20EE800A464890ED001A1F
:10225000DDED130A01EE600A444890ED001ADDED51
:10226000150A01EE200A8DED030A0398FEF720FF00
:10227000CDE904019DED240B53EC102B9DED040BD7
:1022800051EC100BFEF707FECDE908013648006857
:10229000FEF70EFFCDE906019DED080B53EC102B68
:1022A0009DED060B51EC100BFEF74EFDCDE90A013A
:1022B0009DED0A0B51EC100BFEF73EFF21902C48D0
:1022C000D0ED000A9DED130A20EE800A254890ED1E
:1022D000001ADDED140A01EE200A234890ED001AE1
:1022E000DDED150A01EE600A8DED030A0398FEF795
:1022F000DFFECDE904019DED240B53EC102B9DED89
:10230000040B51EC100BFEF7C6FDCDE90801174890
:102310000068FEF7CDFECDE906019DED080B53ECFC
:10232000102B9DED060B51EC100BFEF70DFDCDE9CA
:102330000A019DED0A0B51EC100BFEF7FDFE2090FB
:102340009DED230A60EE000A9DED220A40EE000A90
:1023500010E000009CC4A03E500200205402002067
:102360005802002060020020640200206802002061
:102370005C0200209DED210A40EE000A9DED200A3E
:1023800040EE000ACDED0C0A9DED0C0A09F0D6FED8
:102390008DED340A9DED230ADDED340A20EE200A8E
:1023A000B04880ED000A9DED220ADDED340A20EEF2
:1023B000200AAD4880ED000A9DED210ADDED340ACA
:1023C00020EE200AA94880ED000A9DED200ADDEDEF
:1023D000340A20EE200AA64880ED000AA54890EDB8
:1023E000000AA54880ED000AA04890ED000AF8EE2A
:1023F000000A20EE200AD0ED000A20EE200A9C48B8
:10240000D0ED000AB0EE001A60EE810A90ED001ADD
:1024100000EEC10AF7EE000A30EE200A8DED010A47
:102420000198FEF745FECDE904018F4890ED000AC2
:10243000F0EE000A20EE200A8C48D0ED000A20EED3
:10244000200A8848D0ED000AB0EE001A60EE810A3A
:10245000874890ED001A00EE810A8DED010A01987F
:10246000FEF726FECDE902019DED041B9DED020B5A
:1024700006F08AF98DED060B9DED060B51EC100B65
:1024800081F000419FED7D0B53EC102BCDE908014D
:102490009DED080B51EC100BFEF7FDFCCDE90A0198
:1024A0009DED0A0B51EC100BFEF746FE71490860DA
:1024B0006D4890ED000AF8EE000A20EE200A6C4804
:1024C000D0ED000A20EE200A6648D0ED000AB0EEFA
:1024D000001A60EE810A654890ED001A00EE810A4C
:1024E0008DED030A0398FEF7E3FDCDE904019DEDB0
:1024F000040B05F02DFE8DED060B9DED060B51EC4A
:10250000100B81F000419FED5D0B53EC102BCDE9DA
:1025100008019DED080B51EC100BFEF7BCFCCDE95A
:102520000A019DED0A0B51EC100BFEF705FE554913
:1025300088604D4890ED000AF8EE000A20EE200A6F
:10254000D0ED000A20EE200A4848D0ED000AB0EE97
:10255000001A60EE810A90ED001A00EEC10AF7EE53
:10256000000A30EE200A8DED030A0398FEF7A0FD65
:10257000CDE906013D4890ED000AF0EE000A20EE9C
:10258000200A3B48D0ED000A20EE200A3548D0ED65
:10259000000AB0EE001A60EE810A334890ED001A8E
:1025A00000EE810A8DED030A0398FEF781FDCDE967
:1025B00004019DED061B9DED040B06F0E5F88DED85
:1025C000080B9FED2E0B53EC102B9DED080B51ECDF
:1025D000100BFEF760FCCDE90A019DED0A0B51ECF2
:1025E000100BFEF7A9FD2749C860224890ED000AAC
:1025F0002148D0ED000A30EE600ADFED230AB4EE88
:10260000E00AF1EE10FA05DB20480068401E1F4981
:10261000086013E0174890ED000A1748D0ED000A53
:1026200030EE600ADFED1A0AB4EEE00AF1EE10FABD
:1026300004D816480068401C144908601348006814
:102640004FF4B471484300EE100AB8EEC00A0948CE
:10265000D0ED000A30EE200A0A4880ED040A35B0B9
:1026600000BD00005C020020600200206402002027
:1026700068020020700200206C02002000000000B0
:10268000DCA54C40C0AF01200000A543740200202F
:102690000000A5C3034880ED000AC0ED010A80EDEB
:1026A000021A704738AF012010B52DED048B9FED55
:1026B0003C0AB0EE408A9FED3A0AF0EE408A9FED68
:1026C000380AB0EE409A002451E0364A911E881E26
:1026D00002F03EFD3348001FB0F9000000EE100A82
:1026E000B8EEC00ADFED300A80EE201AB0EE000A24
:1026F00061EE000A9FED2D1AB0EE480A00EE810A45
:10270000B0EE408A2748001FB0F9020000EE100A20
:10271000B8EEC00A9FED241AC0EE010AB0EE000A1E
:1027200060EE800A9FED211AB0EE680A00EE810A81
:10273000F0EE408A1B48001FB0F9040000EE100ABA
:10274000B8EEC00A9FED181AC0EE010AB0EE000AFA
:1027500060EE800A9FED151AB0EE490A00EE810A7C
:10276000B0EE409A032009F03FFE601CC4B2C82CB2
:10277000ABDB9FED0F0AC8EE000A0E48C0ED000A61
:102780009FED0B0AC8EE800AC0ED010A9FED080A12
:10279000C9EE000AC0ED020ABDEC048B10BD0000BA
:1027A0000000000064AF0120000000470AE81C415F
:1027B0000000C84288AF012031B52DED060B2DED8C
:1027C000108B94B004469DED281BB0EE410AF0EE4C
:1027D000610A9FEDED1B53EC112B51EC100BFEF732
:1027E0005AFB41EC180B9DED261BB0EE410AF0EEB2
:1027F000610A9FEDE51B53EC112B51EC100BFEF71A
:102800004AFBCDE900019DED241BB0EE410AF0EE3C
:10281000610A9FEDDD1B53EC112B51EC100BFEF701
:102820003AFB41EC190BB0EE480AF0EE680A06F0EC
:1028300003FAB0EE40AAF0EE60AA9DED000B06F0A0
:10284000FBF9B0EE40BAF0EE60BA53EC1A2B51EC43
:102850001B0BFEF720FBCDE90201B0EE480AF0EEBB
:10286000680A06F059FAB0EE40CAF0EE60CAB0EE5F
:10287000490AF0EE690A06F0DFF9B0EE40DAF0EE50
:1028800060DA53EC1C2B51EC1D0BFEF704FB41EC02
:102890001A0BB0EE480AF0EE680A06F0CDF9B0EE79
:1028A00040CAF0EE60CA9DED000B06F035FAB0EEBE
:1028B00040EAF0EE60EAB0EE490AF0EE690A06F08E
:1028C0002BFAB0EE40FAF0EE60FA53EC1E2B51EC0E
:1028D0001F0BFEF7E0FA41EC1D0B53EC1C2BFEF72F
:1028E000DAFA41EC1B0B53EC1A2BFEF7CEFACDE9CA
:1028F0000401B0EE480AF0EE680A06F00DFAB0EEF8
:1029000040CAF0EE60CAB0EE490AF0EE690A06F07D
:1029100003FAB0EE40DAF0EE60DA53EC1C2B51EC27
:102920001D0BFEF7B8FA41EC1A0BB0EE480AF0EEB8
:10293000680A06F081F9B0EE40CAF0EE60CA9DED7B
:10294000000B06F0E9F9B0EE40EAF0EE60EAB0EE16
:10295000490AF0EE690A06F06FF9B0EE40FAF0EEBF
:1029600060FA53EC1E2B51EC1F0BFEF794FA41EC6E
:102970001D0B53EC1C2BFEF78EFA41EC1B0B53EC9A
:102980001A2BFEF7E1F9CDE90601B0EE480AF0EEA8
:10299000680A06F0C1F9B0EE40AAF0EE60AA9DED1B
:1029A000000B06F049F9B0EE40BAF0EE60BA53EC15
:1029B0001A2B51EC1B0BFEF76EFACDE90801B0EEB5
:1029C000480AF0EE680A06F037F9B0EE40CAF0EEB9
:1029D00060CAB0EE490AF0EE690A06F02DF9B0EED1
:1029E00040DAF0EE60DA53EC1C2B51EC1D0BFEF7D5
:1029F00052FA41EC1A0BB0EE480AF0EE680A06F003
:102A00008BF9B0EE40CAF0EE60CA9DED000B06F007
:102A100083F9B0EE40EAF0EE60EAB0EE490AF0EE7B
:102A2000690A06F079F9B0EE40FAF0EE60FA53EC7C
:102A30001E2B51EC1F0BFEF72EFA41EC1D0B53EC35
:102A40001C2BFEF728FA41EC1B0B53EC1A2BFEF75C
:102A50007BF9CDE90A01B0EE480AF0EE680A06F00B
:102A6000EBF8B0EE40CAF0EE60CAB0EE490AF0EE04
:102A7000690A06F051F9B0EE40DAF0EE60DA53EC94
:102A80001C2B51EC1D0BFEF706FA41EC1A0BB0EEB5
:102A9000480AF0EE680A06F03FF9B0EE40CAF0EEE0
:102AA00060CA9DED000B06F037F9B0EE40EAF0EE9B
:102AB00060EAB0EE490AF0EE690A06F0BDF8B0EE41
:102AC00040FAF0EE60FA53EC1E2B51EC1F0BFEF7B0
:102AD000E2F941EC1D0B53EC1C2BFEF7DCF941EC49
:102AE0001B0B53EC1A2BFEF7D0F9CDE90C019DED31
:102AF000000B06F011F9B0EE40AAF0EE60AA51EC1E
:102B00001A0B81F00041CDE90E019DED000B06F09E
:102B100093F8B0EE40AAF0EE60AAB0EE490AF0EEEB
:102B2000690A06F0F9F8B0EE40BAF0EE60BA53EC7C
:102B30001A2B51EC1B0BFEF7AEF9CDE910019DED00
:102B4000000B06F079F8B0EE40AAF0EE60AAB0EE05
:102B5000490AF0EE690A06F06FF8B0EE40BAF0EEFE
:102B600060BA53EC1A2B51EC1B0BFEF794F9CDE92C
:102B70001201482202A92046FEF7C2F814B0BDECAB
:102B8000108B07B030BD0000000000A046DF913F71
:102B900000BFFEE72DE9F0418AB004460D46164617
:102BA0001F46DDF840800121022003F071FD012164
:102BB000480603F07DFD4FF44070089002208DF828
:102BC000240000208DF8260003208DF82500012028
:102BD0008DF8270008A9314801F064FD0922082179
:102BE0002E4801F0A7FD092211462C4801F0A2FD54
:102BF00000208DF81A0001208DF81B0000208DF8B0
:102C00001C0001208DF81D0000208DF81E008DF89D
:102C10001F008DF816808DF817408DF818608DF81C
:102C20001950ADF8147005A91D4800F012FC0020E1
:102C30008DF80E008DF80F0001208DF81000002097
:102C4000ADF80400ADF80600ADF80800ADF80A00D4
:102C5000ADF80C0001208DF8110001A800F06CFB0C
:102C600000224FF400410E4800F0EAFB012202214D
:102C70000B4800F0E5FB14208DF8000007208DF8CC
:102C8000010000208DF8020001208DF80300684645
:102C900003F0B0FB00200AB0BDE8F0810004024060
:102CA0000064004000B585B06A4600214B4800F042
:102CB0005AFC4B49009808600846006810287DDBE4
:102CC00008460068132879DC9DF80B000111444880
:102CD00000681038C0EBC000424A42F820109DF84E
:102CE0000D109DF80C0041EA00213D4800681038A5
:102CF000C0EBC00002EB800041609DF80E000101B6
:102D00009DF80F0041EA2011354800681038C0EBEB
:102D1000C00002EB800081609DF810109DF80F004C
:102D200000F00F0041EA00212D4800681038C0EB88
:102D3000C00002EB8000C160294909681039C1EB6D
:102D4000C10102EB810148681021DFED270A9FEDE8
:102D5000270A0AF02BFB224800681038C0EBC0009D
:102D6000204901EB800080ED040A1D4909681039F3
:102D7000C1EBC1011B4A02EB810188680C21DFED28
:102D80001C0A9FED1C0A0AF011FB15480068103858
:102D9000C0EBC000134901EB800080ED050A10492B
:102DA00009681039C1EBC1010E4A02EB8101C86804
:102DB0000C21F3EE0E0ABBEE0E0A00E00BE00AF067
:102DC000F5FA074800681038C0EBC000054901EB70
:102DD000800080ED060A05B000BD000000640040E0
:102DE00080000020C80A0020DA0F4940DA0F49C0ED
:102DF00000003442000034C230B585B0044600946F
:102E000000208DF808008DF8090008208DF80A00D0
:102E1000FF208DF80B00FF218DF80C108DF80D10A0
:102E20008DF80E108DF80F108DF810108DF8111010
:102E3000FD218DF812106946064800F00CFC05468D
:102E400000BF2946034800F099FC0128F9D105B0DC
:102E500030BD00000064004030B585B004460094E9
:102E600000208DF808008DF8090008208DF80A0070
:102E7000FF208DF80B00FF218DF80C108DF80D1040
:102E80008DF80E108DF80F108DF810108DF81110B0
:102E9000FC218DF812106946064800F0DCFB05465F
:102EA00000BF2946034800F069FC0128F9D105B0AC
:102EB00030BD0000006400402DE9F0418AB00446B6
:102EC0000D4616461F46DDF840800121022003F022
:102ED000DFFB0121880603F0EBFB0121880603F0EC
:102EE000F7FB00214FF0806003F0F2FB60200890B8
:102EF00002208DF8240000208DF8260003208DF894
:102F0000250001208DF8270008A9324801F0CAFBEE
:102F1000092205212F4801F00DFC092206212D4828
:102F200001F008FC00208DF81A0001208DF81B002C
:102F300000208DF81C0001208DF81D0000208DF868
:102F40001E008DF81F008DF816808DF817408DF843
:102F500018608DF81950ADF8147005A91E4800F0DE
:102F600078FA0E208DF80E0000208DF80F00012059
:102F70008DF810000020ADF80400ADF80600ADF8A3
:102F80000800ADF80A000120ADF80C008DF8110022
:102F900001A800F0D1F900224FF400410E4800F0E2
:102FA0004FFA012210210C4800F04AFA41208DF816
:102FB000000008208DF8010000208DF8020001209B
:102FC0008DF80300684603F015FA00200AB0BDE84A
:102FD000F0810000000402400068004010B5CC4AB7
:102FE0000121CC4800F0BFFAC9480068CA4908600E
:102FF00008460068B0F5806F7DD007DCA0F2411074
:1030000058B101280AD0C42876D1F8E0A0F20140D6
:10301000002872D00128F7D166E100BFBC480068E3
:10302000A0F5A070BD49086008460068401E086011
:10303000B748007B096801EBC101B94A02F81100E9
:10304000B348407BB549096801EBC10102EB41017E
:103050004871AF48817BB148006800EBC00002EBCB
:1030600040008171AA48C07BAC49096801EBC101ED
:1030700002EB41014870A648017CA848006800EBBB
:10308000C00002EB40008170A148407CA349096860
:1030900001EBC10102EB4101C8709D48817C9F4852
:1030A000006800EBC00002EB400001719B48006823
:1030B00000EBC000114601EB4000C1789748006862
:1030C00000EBC00002EB4000007941EA0020934988
:1030D000096801EBC10102EB410148818F4800689A
:1030E00000EBC000114601EB400041788B480068BE
:1030F00000EBC00002E0D9E007E1DCE002EB4000B9
:10310000807841EA002000B28449096801EBC101DE
:1031100002EB410108818148006800EBC0001146C4
:1031200001EB400041797D48006800EBC00002EBF4
:103130004000807941EA002000B27849096801EB3B
:10314000C10102EB410188817448006800EBC000B6
:10315000114601EB400040897049096801EBC1014B
:1031600002EB4101C989401AB0F5004F11DB6B48F1
:10317000006800EBC000114601EB4000008A401ED1
:1031800000B26649096801EBC10102EB4101088206
:1031900024E06248006800EBC000614901EB400098
:1031A00040895E49096801EBC1015D4A02EB4101BA
:1031B000C989401A10F5004F10DC5848006800EB30
:1031C000C000114601EB4000008A401C00B2534988
:1031D000096801EBC10102EB410108824F48006818
:1031E00000EBC0004E4901EB400040894B490968A3
:1031F00001EBC1014A4A02EB4101C88185E049481F
:1032000000884849B1F91210401AB0F5805F05DD19
:103210004448C068401E4349C8600DE041480088EA
:103220004049B1F91210401A10F5805F04DA3D48A8
:10323000C068401C3B49C8603A48008800B2394920
:1032400048823348007B3249C97A40EA0120354937
:1032500008802F48817B407B41EA002000B2314941
:1032600048802B48017CC07B41EA002000B22D49F8
:1032700088802748407C08740846C068C0EB40300E
:103280000988084427498860098808B24FF41A71F0
:1032900008F02FFF00EE100AB8EEC00ADFED220A98
:1032A00020EE200A214880EDA00A2EE01848C07ABE
:1032B0001F49086029E01648417B807B41EA0020D5
:1032C00000B21C4988801248C17B007C41EA002082
:1032D00000B21849C8800E48417C807C41EA002039
:1032E00000B21449088110E00948C17A007B41EA24
:1032F000002000B20F4908800548417B807B41EAED
:10330000002000B20B49488000BF00BF10BD000084
:103310005C0B002000680040840000208800002032
:10332000380B0020780A00200000343D80B70120CF
:1033300050000020700B002010B50021837A01227C
:1033400002FA03F13D4A126842F001023B4B1A6057
:103350003A4A1C3212688A43384B1C331A60027B8B
:10336000CAB9364A0C3212688A43344B0C331A609D
:103370004288C38842EA0343304A4032847A42F8A2
:1033800034300288838842EA03432C4A4032847AEC
:1033900002EBC4025360027B012A19D1274A0C3286
:1033A00012680A43254B0C331A604288038842EAAC
:1033B0000343224A4032847A42F83430C2888388F8
:1033C00042EA03431D4A4032847A02EBC40253604E
:1033D000C27A3AB9194A121D12688A43174B1B1D4B
:1033E0001A6006E0154A121D12680A43134B1B1D92
:1033F0001A60028932B9114A143212688A430F4B9B
:1034000014331A600289012A06D10C4A1432126858
:103410000A430A4B14331A60427B012A06D1074A39
:103420001C3212680A43054B1C331A60034A1268A7
:1034300022F00102014B1A6010BD0000006600403E
:103440001AB143690B43436102E043698B43436113
:10345000704730B5024600200023146824F00204AF
:103460001460146844F00104146000E05B1C5468AC
:1034700004F001041CB94FF6FF74A342F6D154685E
:1034800004F001040CB900206CE08C79012C04D10B
:10349000146844F08004146003E0146824F080048D
:1034A0001460CC79012C04D1146844F040041460F9
:1034B00003E0146824F0400414600C7A012C04D159
:1034C000146844F02004146003E0146824F020041D
:1034D00014604C7A012C04D1146844F01004146078
:1034E00003E0146824F0100414608C7A012C04D1D9
:1034F000146844F00804146003E0146824F008041D
:103500001460CC7A012C04D1146844F004041460D3
:1035100003E0146824F0040414608C78A407CD78C8
:1035200044EA05640D7944EA05444D7944EA0554BA
:103530000D886D1E2C43D461146824F001041460BE
:10354000002300E05B1C546804F001041CB14FF63A
:10355000FF74A342F6D1546804F001040CB10020BA
:1035600000E0012030BD10B500F5D87303EB011366
:103570001B6803F004031372137A53B900F5D87370
:1035800003EB01131B6840F2FF7404EA535313600A
:1035900009E000F5D87303EB01131B686FF060447A
:1035A00004EAD303536000F5D87303EB01131B68DF
:1035B00003F00203537200F5D87303EB01135B6849
:1035C00003F00F03937200F5D87303EB01135B68EC
:1035D0001B0AD37400F5D87303EB01139B68D372F5
:1035E00000F5D87303EB01139B681C0A147300F5F4
:1035F000D87303EB01139B681C0C547300F5D8734C
:1036000003EB01139B681B0E937300F5D87303EB58
:103610000113DB68D37300F5D87303EB0113DB6888
:103620001C0A147400F5D87303EB0113DB681C0C3F
:10363000547400F5D87303EB0113DB681B0E93740D
:1036400021B9C36843F02003C36003E0036943F07A
:103650002003036110BD10B502460020936803F0FB
:103660008063B3F1806F00D110E0936803F00063D2
:10367000B3F1006F01D1012008E0936803F080539B
:10368000B3F1805F01D1022000E00420042874D04F
:1036900002F5C07303EB00131B6803F0010402F58D
:1036A000C07303EB00131C600B7A7BB94B7A0C8858
:1036B00043EA445302F5C07404EB00142468234326
:1036C00002F5C07404EB0014236010E00B7A4C6820
:1036D00043EAC4034C7A234302F5C07404EB00149C
:1036E0002468234302F5C07404EB001423608B7A32
:1036F00003F00F038B7202F5C07303EB00135B68DA
:1037000023F00F0402F5C07303EB00135C6002F5B5
:10371000C07303EB00135B688C7A234302F5C0741B
:1037200004EB001463608B7B1C064B7B44EA034470
:103730000B7B44EA0323CC7A234302F5C07404EBE9
:103740000014A3608B7C1C064B7C44EA03440B7C76
:1037500044EA0323CC7B234302F5C07404EB00143A
:10376000E36002F5C07303EB00131B6843F0010430
:1037700002F5C07303EB00131C6010BD10B50246C8
:10378000002321B1012907D002290FD109E0906857
:103790001D4C00EA04030BE090681C4C00EA040393
:1037A00006E090681A4C00EA040301E0002300BF21
:1037B00000BF184C181BA34216D007DC83B16FF072
:1037C0008060184470B1022818D111E0B0F5007F74
:1037D00010D0114C204448B1B0F5003F0ED10BE0A1
:1037E00002230DE000230BE0002309E0002307E0A3
:1037F000012305E0012303E0012301E0002300BFD2
:1038000000BFD8B210BD0000030000040003000890
:1038100000000310000100080001FFF730B585B07B
:1038200005460C4640F24110009000208DF808003B
:103830008DF8090008208DF80A00E8B28DF80B0019
:10384000E1B28DF80F10210A8DF81010210C8DF8BF
:103850001110210E8DF8121069460248FFF7FBFE89
:1038600005B030BD0068004030B585B005460C4657
:103870004FF4A170009000208DF808008DF8090029
:1038800008208DF80A00E8B28DF80B00E1B28DF83F
:103890000F10210A8DF81010210C8DF81110210E37
:1038A0008DF8121069460248FFF7D5FE05B030BD0D
:1038B0000068004006F052FD04E006F015FE01200D
:1038C00009F04CFFF9E707F0CFFC04E007F006FD34
:1038D000012009F043FFF9E770B52DED068B044692
:1038E000122518E0681E04F5947101EBC00090EDFC
:1038F000000B084600EBC50080ED000B681E04F1CC
:10390000080101EBC00090ED000B084600EBC5007C
:1039100080ED000B6D1E002DE4DC94ED000B84EDBA
:10392000020B94ED022BB0EE420AF0EE620A384828
:1039300090ED002BB0EE421AF0EE621A53EC102B11
:1039400051EC110BFDF7A7FA04F5947203C201259F
:1039500049E004F5947000EBC50090ED002BB0EE4B
:10396000420AF0EE620A2B4800EBC50090ED002BF6
:10397000B0EE421AF0EE621A53EC102B51EC110B20
:10398000FDF789FA41EC180B04F1080000EBC500C3
:1039900090ED002BB0EE420AF0EE620A1C4800EBFC
:1039A000C50090ED002BB0EE421AF0EE621A53EC17
:1039B000102B51EC110BFDF76EFA41EC1A0B94ED44
:1039C0004A1BB0EE410AF0EE610A53EC102BFDF7F2
:1039D000BBF941EC190B53EC182BFDF756FA04F523
:1039E000947203C26D1C132DB3DB94ED4A0B84ED6E
:1039F000920B94ED921BB0EE410AF0EE610A51EC8D
:103A0000100BFDF799FB00EE100ABDEC068B70BDA4
:103A1000B8E9000858EA000870B506460C4604F0FC
:103A20008000802808D104F07F0000EB800106F5BB
:103A30008E7000EBC10505E004EB840106F55D70B6
:103A400000EBC1050020A87004F07F002870C4F3CB
:103A5000C01068702946304604F039F9002070BD66
:103A60002DE9F04106460D4690461F4605F08000C0
:103A7000802808D105F07F0000EB800106F58E70EC
:103A800000EBC10407E005F07F0000EB800106F5C4
:103A90005D7000EBC10405F07F00207005F0800030
:103AA000C0096070C4F80880E770607808B12078B9
:103AB000E080022F01D1002020712146304604F021
:103AC000BAF80020BDE8F0812DE9F04105460E4628
:103AD0001746984606F07F0000EB800105F55D7003
:103AE00000EBC104E760C4F814800020A06160709E
:103AF00006F07F002070E878012800D12761207847
:103B000020B92146284603F0BAFF03E021462846A3
:103B100004F037F90020BDE8F08108B500220092DA
:103B2000009A61F30A12009202691268009B1A431C
:103B300003691A6008BD70B506460C4604F08000A3
:103B4000802808D104F07F0000EB800106F58E701C
:103B500000EBC10505E004EB840106F55D7000EBA8
:103B6000C1050120A87004F07F002870C4F3C010C4
:103B700068702946304604F0D2F8002070BD2DE967
:103B8000F04107460D461646984605F07F0000EBCB
:103B9000800107F58E7000EBC1040120607005F014
:103BA0007F002070E66026610020A061C4F81480C8
:103BB000207820B92146384603F061FF03E0214612
:103BC000384604F0DEF80020BDE8F0817CB50546FB
:103BD000564C284603F01EFFE868C0680090009825
:103BE00020F4705000900098E968C860284604F0FE
:103BF000EDF903280BD10020A8704FF40070A880C5
:103C0000009820F4705000F5105000907EE00120E4
:103C1000A8704020A8804648844209D34548844281
:103C200006D2009820F4705000F5605000906DE0CE
:103C30004048844209D34048844206D2009820F488
:103C4000705000F55050009060E03B48844209D32A
:103C50003A48844206D2009820F4705000F5405053
:103C6000009053E03548844209D33548844206D257
:103C7000009820F4705000F53050009046E0304835
:103C8000844209D32F48844206D2009820F4705011
:103C900000F52050009039E02A48844209D32A4890
:103CA000844206D2009820F4705000F51050009025
:103CB0002CE02548844209D32448844206D2009847
:103CC00020F4705000F5005000901FE01F4884421F
:103CD00009D31F48844206D2009820F4705000F5A2
:103CE000E050009012E01A48844209D319488442F7
:103CF00006D2009820F4705000F5C050009005E006
:103D0000009820F4705000F5A05000900098E968E9
:103D1000C86000200190019820F4005000F5005088
:103D200001900198E968486101207CBD00B0710BE9
:103D3000C0E1E4000024F400E0EC040100C3180139
:103D4000002D310140A44C0100366E0140E2950186
:103D500080C3C90160600B02F8B50546002400204D
:103D60000090284604F065F9064681E006F001005F
:103D700000287BD0E1B2284600F0A8FA0090009815
:103D800000F0010030B3012000FA04F72869406B0D
:103D9000B8432969486300200090009820F0010092
:103DA000401C009005F1180050F824000099816033
:103DB000E1B232480068426828469047E878012816
:103DC00008D13CB940F21110405D042802D12846C8
:103DD00003F000FF0098C0F3C00060B10020009025
:103DE000009820F008000830009005F1180050F805
:103DF0002400009981600098C0F3001060B1002099
:103E00000090009820F010001030009005F118008C
:103E100050F82400009981600098C0F3801060B1D0
:103E200000200090009820F040004030009005F104
:103E3000180050F82400009981600098C0F34000F9
:103E400060B100200090009820F00200801C0090DB
:103E500005F1180050F82400009981600098C0F323
:103E6000C01018B12146284600F044FA641C7608B8
:103E7000002E7FF47BAF0120F8BD00000404002079
:103E80007CB50446002500200190204604F0D9F8B6
:103E900006466FE006F00100002869D0E9B220462E
:103EA00004F0D7F80190019800F00100C8B3002099
:103EB0000190019820F00100401C019004F1540091
:103EC00050F8250001998160E078012817D104F1AC
:103ED000540050F825000069009005EB850104F5B9
:103EE0005D7000EBC10080680099C1F31201411AB6
:103EF00005EB850204F55D7000EBC2008161E9B25B
:103F00001E480068026820469047E078012808D1E2
:103F10003DB940F21110005D052802D1204603F0A2
:103F200059FE0198C0F3400060B100200190019853
:103F300020F00200801C019004F1540050F825008C
:103F4000019981600198C0F3C00088B10B480068F6
:103F500081682046884700200190019820F00800E1
:103F60000830019004F1540050F825000199816057
:103F70006D1C7608002E8DD101207CBD040400202C
:103F80003EB50446A07A78B1D4F80C0100680090E0
:103F9000009820F002000090009820F001000090AE
:103FA0000099D4F80C01016000200190019820F0E4
:103FB0000100401C019020694068019988432169F3
:103FC00048600948006881692046884700200290BF
:103FD000029820F0004000F1004002900298E16851
:103FE000486101203EBD0000040400207CB5044669
:103FF00000200190019820F0100010300190E0683E
:10400000806901998843E1688861E068006A0090EE
:10401000009800F00F0000EB800104F55D7000EBEC
:10402000C1050098C0F3434007282DD2DFE800F017
:104030002C04051D1E2C1F0027E00098C0F30A1059
:1040400090B10098C0F30A122046E96804F00BF81A
:10405000E8680099C1F30A110844E860A86900996A
:10406000C1F30A110844A8610FE00EE00DE0082238
:1040700004F2CC51204603F0F6FFA8690099C1F381
:104080000A110844A86100E000BF00BFE068806931
:1040900001990843E168886101207CBD38B5044678
:1040A00008480068C16820468847002000900098B2
:1040B00020F00800083000900098E1684861012075
:1040C00038BD0000040400201FB504460020009005
:1040D0004FF48970005D00902348006841692046D4
:1040E000884720698068019000200390039820F49D
:1040F000006000F5006003900398E1684861A07AD1
:1041000070B3019800F0010050B340F21510005D4B
:10411000012825D19DF80000032821D1002002901C
:10412000029820F00100401C0290D4F80C010068B5
:1041300002990843D4F80C110860029820F002009C
:10414000801C0290D4F80C01006802990843D4F84E
:104150000C1108600548006840F00600034908603B
:10416000012004B010BD00000404002010ED00E0A8
:1041700030B587B004460020029006900590049068
:1041800003900190029820F00100401C02902069E9
:10419000406802998843216948600021204603F065
:1041A000EBFE00250BE0FF2104F1180050F825007C
:1041B000816004F1540050F8250081606D1C607826
:1041C000A842F0D84FF0FF312069816106986FF363
:1041D0000F00401C0690069880B200F580300690D3
:1041E00006992069C161059820F008000830059003
:1041F000059820F00100401C0590059820F0020071
:10420000801C0590059920694161049820F0010007
:10421000401C0490049820F0080008300490049892
:1042200020F00200801C049004992069016120693B
:1042300000680390039820F4FE60039003992069BE
:104240000160204603F0C6FC00200190019820F494
:10425000805000F5805001900198E1684861044861
:104260000068016920468847012007B030BD000082
:104270000404002038B50446002000900748006878
:10428000C16920468847009820F4801000F580100E
:1042900000900098E1684861012038BD04040020C6
:1042A00038B504460020009007480068016A20469F
:1042B0008847009820F4001000F500100090009846
:1042C000E1684861012038BD0404002030B5024691
:1042D00015692B6915696C6B24FA01F505F0010568
:1042E00043EAC51302F1180555F82150AD6805EAF7
:1042F000030030BD2DE9F84306460F460025002097
:10430000009007EB870106F58E7000EBC104D4E93D
:104310000501451AA068A84200D2A568E81C4FEA2A
:10432000900806F1180050F827008069009029E0F5
:10433000D4E90501451AA068A84200D2A568E81C86
:104340004FEA9008ABB2FAB23046E16803F09FFE44
:10435000E0682844E060A0692844A06106F11800E4
:1043600050F8270080690090D4E90501884209D1FE
:104370002178012000FA01F93069406B20EA090038
:1043800031694863009880B2404506D9D4E90510E8
:10439000884202D260690028CAD10120BDE8F883B2
:1043A0000246094B9A4201D2084801E006481038FB
:1043B00001F000531BB1064B0B40C36002E0044BFD
:1043C0000B408360704700001064024000600240B0
:1043D0007D0F7D0F21B1026842F00102026003E00F
:1043E000026822F00102026070470146486880B20C
:1043F0007047014600200A6802F400220AB1012039
:1044000000E00020704741607047000070B52DED5E
:10441000028B86B00446B0EE408A0C209FED1A1A3B
:10442000DFED1A0AB0EE480A07F02CFE85B20194BF
:1044300000208DF80C008DF80D0008208DF80E007E
:1044400000208DF80F0000218DF810108DF811104C
:104450008DF812108DF813108DF8141029128DF8A4
:1044600015108DF8165001A90948FFF7F4F8064613
:1044700000BF31460648FFF781F90128F9D106B09F
:10448000BDEC028B70BD000000005842000058C215
:1044900000640040704710B5102000F001F810BD16
:1044A0000149086070470000143C01400149086060
:1044B000704700000C3C024070B504460A460026D6
:1044C000092502B909E0012A01D1160205E0022AF4
:1044D00001D1160201E04FF4407600F09DF8054648
:1044E000092D28D11548006820F440701349086050
:1044F00008460068304308600846006820F0F8006D
:1045000008600846006844F0020108430B4908604F
:104510000846006840F48030086000F07DF80546E9
:104520000648006820F00200044908600846006858
:1045300020F0F8000860284670BD0000103C0240E2
:1045400009201349096801F48031B1F5803F01D198
:1045500001201CE00E49096801F0100109B1062094
:1045600015E00B49096801F4807109B102200EE0E1
:104570000749096801F0EF0109B1072007E0044984
:10458000096801F0020109B1082000E00920704724
:104590000C3C02400348006840F0004001490860BC
:1045A00070470000103C024030B502460C46092519
:1045B00000F032F80546092D17D10D48006820F4A7
:1045C00040700B49086008460068086008460068AB
:1045D00040F001000860147000F01EF80546044821
:1045E000006820F0010002490860284630BD000044
:1045F000103C02400548006800F0004028B1044823
:1046000002490C390860034808607047103C0240BA
:1046100023016745AB89EFCD08B509200090FFF76E
:104620008FFF009002E0FFF78BFF00909DF80000E5
:104630000128F8D09DF8000008BD10B5FFF7DAFF9B
:10464000F120FFF733FF01215820FFF735FFFFF777
:10465000A1FF10BD0246054B002103E0585C5054F9
:10466000481CC1B23029F9DB0020704700000E0859
:1046700070B505460A4EFFF7E0FFFFF7BBFF0024C9
:1046800008E0E120FFF712FF295D3019FFF78CFFEA
:10469000601CC4B2302CF4DBFFF77CFF002070BD3F
:1046A00000000E08F0B50A4600210023002400BFD8
:1046B0003DE0012505FA01F3156805EA03049C4273
:1046C00034D105684F000326BE40B5430560157917
:1046D0004E00B5400668354305601579012D02D0BE
:1046E0001579022D16D185684F000326BE40B543CB
:1046F000856055794E00B5408668354385604568CC
:1047000001268E40B5434560456896798E40B6B225
:1047100035434560C5684F000326BE40B543C560BC
:10472000D5794E00B540C6683543C560491C10298F
:10473000BFD3F0BDF0B5002300244D07ED0E02FA03
:1047400005F3CE1000F1200555F826504E07F70E60
:104750000F26BE40B543CF1000F1200646F8275083
:10476000CE1000F1200555F8265045EA0304CE107E
:1047700000F1200545F82640F0BD418370470183D4
:104780007047000010B52DED048B244A911E881E41
:1047900000F037FD21480C38B0F9080000EE100A8F
:1047A000F8EEC00A1E48B0F9080000EE100AB8EE94
:1047B000C00A30EEC00AB0EE408A18480C38B0F992
:1047C0000A0000EE100AF8EEC00A1548B0F90A0017
:1047D00000EE100AB8EEC00A30EEC00AF0EE408AD1
:1047E0000E480C38B0F90C0000EE100AF8EEC00AC2
:1047F0000B48B0F90C0000EE100AB8EEC00A30EE1B
:10480000C00AB0EE409AB0EE491AF0EE680AB0EE77
:10481000480A00F03BF8BDEC048B10BD6CAF0120E2
:1048200074AF012010B52DED088B07F019FE04467A
:10483000FCF731FC41EC180B4FF0E02040694FF0E1
:10484000E0218969401A4FF47A7148434FF0E02122
:104850004969B0FBF1F42046FCF71DFC9FED090B04
:1048600053EC102BFCF717FB53EC182BFCF76CFAEE
:1048700041EC190BB0EE490AF0EE690ABDEC088B69
:1048800010BD0000FCA9F1D24D62503F10B52DEDD6
:10489000048BB0EE408AF0EE608AB0EE419A18EEDA
:1048A000100AFCF705FC134A03C218EE900AFCF745
:1048B000FFFB104A02F5147203C219EE100AFCF74E
:1048C000F7FB0C4A02F5946203C20A48FFF704F8AA
:1048D000094880ED040A0948FEF7FEFF064880ED0E
:1048E000050A0748FEF7F8FF034880ED060ABDEC0D
:1048F000048B10BD00A8012038AF012050AA012070
:10490000A0AC012000BFFEE710B5002424E0204A3F
:10491000911E881E00F075FC1D480C38B0F9080087
:104920001C49096808441B49086019480C38B0F94B
:104930000A001949096808441749086014480C38E6
:10494000B0F90C00154909680844144908600320AF
:1049500007F04AFD601CC4B2C82CD8DB0D480068C3
:10496000C82190FBF1F000B20D4908810A480068A7
:10497000C82190FBF1F000B209494881074800685E
:10498000C82190FBF1F000B20549888110BD0000FC
:104990006CAF01208C0200209002002094020020C5
:1049A00074AF012036E0FCF72BFFFFF7EBFE05F0BC
:1049B000D1FC194800F094FCFCF77EFF174890EDFD
:1049C000040ADFED170A20EE200ABDEEC00A10EE41
:1049D000100A00B2104914390880104890ED050AF9
:1049E000DFED0F0A20EE200ABDEEC00A10EE100A1D
:1049F00000B24880094890ED060ADFED090A20EE72
:104A0000200ABDEEC00A10EE100A00B28880012014
:104A100008F0A4FEC7E70000D4AF012038AF0120A2
:104A2000F8C1F93C10B52DED048B0446B0EE408A78
:104A3000F0EE608AB0EE419AB7EE000A84ED4E0ABD
:104A400084ED4F8A9FED7A0A84ED500AB7EE000A92
:104A500084ED510AB7EE000A84ED5E0A9FED740AF8
:104A600084ED5F0A9FED720A84ED600AB7EE000ADA
:104A700084ED610AC4ED448A84ED459A04F138025C
:104A800004F1300104F16000FBF78EFF04F16801CE
:104A900004F16000FCF7AAF804F1580204F1500197
:104AA00004F16000FBF780FFB4F85800A4F8B000F0
:104AB0006A20015BB220015304F1B00204F16801E5
:104AC00004F15800FBF770FF04F1580204F1900163
:104AD00004F1B000FBF748FC04F1880104F1800008
:104AE000FCF784F8B4F88000A4F8B0005A20015B09
:104AF000B220015304F1B00204F1580104F1800026
:104B0000FBF752FFB4F8B000A4F8B8008A20015BAC
:104B1000BA20015304F1B80204F1880104F1B00095
:104B2000FBF742FFB4F8B800A4F8A8009A20015B94
:104B3000AA20015304F1A80204F1980104F1B8007D
:104B4000FBF712FC04F1B80104F1A800FBF794FC98
:104B500004F1B00204F1880104F15800FBF724FFCE
:104B600004F1A00204F1B80104F1B000FBF71CFF4E
:104B7000B4F88000A4F8C0000121C220015304F160
:104B8000C00204F1380104F18000FBF70DFFB4F816
:104B90004800A4F8C8000121CA20015304F1C8024A
:104BA00004F1C00104F14800FBF79CFFB4F8A00039
:104BB000A4F8C0000121C220015304F1C00204F195
:104BC000C80104F1A000FBF7EFFE04F1300204F18C
:104BD000C00104F13800FBF7C7FBB4F8A000A4F84B
:104BE000B0008220015BB2200153B4F8B000A4F8F9
:104BF000B8005A20015BBA20015304F1B00204F15D
:104C0000800104F1A000FBF7CFFE04F1B80204F12B
:104C1000580104F1B000FBF7C7FE04F1500204F1A3
:104C2000B80104F15800FBF75DFFBDEC048B10BD2B
:104C3000000000002DE9F04104460D4617461E46CF
:104C40000420974908800820964908802573A67398
:104C50009348008800FB05F104F1F000FCF769F8C7
:104C6000217B04F1F003012204F13000FBF700FC8A
:104C70008B48008800FB05F104F1F800FCF759F8B7
:104C8000217B04F1F803012204F13800FBF7F0FB6B
:104C90008348008800FB06F104F58870FCF749F8AA
:104CA000A17B04F58873012204F14800FBF7E0FBC7
:104CB0007B480088684300FB05F104F58C70FCF725
:104CC00038F8227B114604F58C7304F15000FBF791
:104CD000CFFB73480088684300FB05F104F594702E
:104CE000FCF727F8227B114604F5947304F1580071
:104CF000FBF7BEFB6A480088684300FB05F104F53A
:104D00009C70FCF716F866480088684300FB05F1C4
:104D100004F5A470FCF70DF8227B114604F59C7392
:104D200004F16000FBF7A4FB227B114604F5A47399
:104D300004F16800FBF79CFB59480088704300FBB6
:104D400005F104F5BC70FBF7F4FF55480088684393
:104D500000FB06F104F5C470FBF7EBFF227BA17B9F
:104D600004F5BC7304F18000FBF782FBA27B217B7E
:104D700004F5C47304F18800FBF77AFB4848008807
:104D8000684300FB05F104F5CC70FBF7D2FF227BF2
:104D9000114604F5CC7304F19000FBF769FB404821
:104DA0000088704300FB06F104F5D470FBF7C1FFE7
:104DB000A27B114604F5D47304F19800FBF758FB6D
:104DC00037480088684300FB06F104F5DC70FBF708
:104DD000B0FFA27B217B04F5DC7304F1A000FBF79C
:104DE00047FB227B114604F5E47304F1A800FBF7AE
:104DF0003FFB227B114604F5EC7304F1B000FBF796
:104E000037FB227B114604F5F47304F1B800FBF77D
:104E10002FFB217B04F5FC73012204F1C000FBF79A
:104E200027FB217B04F50273012204F1C800FBF784
:104E30001FFB9FED1D0A84ED3C0A9FED1B0A84EDCC
:104E40003D0A9FED1A0A84ED460A9FED180A84ED8B
:104E5000470A9FED170A84ED660A9FED160A84ED56
:104E60006A0A9FED150A84ED6B0A9FED130A84ED23
:104E70006C0A9FED100A84ED6D0A9FED0C0A84ED1B
:104E80006E0A9FED0D0A84ED6F0A9FED0B0A84ED0B
:104E9000700A9FED060A84ED710ABDE8F0810000FA
:104EA000D0030020D20300206F12833ACDCCCC3D3A
:104EB0000AD7233CAE47C13F0000000004E007F0E2
:104EC0005BF9012008F04AFCF9E710B500247521D0
:104ED000012000F03DFA04460A2007F085FA702C04
:104EE0007DD180226B21012000F09CFA0A2007F07E
:104EF0007BFA00226B21012000F094FA0A2007F0CF
:104F000073FA07226821012000F08CFA0A2007F0CA
:104F10006BFA03226B21012000F084FA0A2007F0CB
:104F200063FA00226C21012000F07CFA0A2007F0CD
:104F30005BFA00221A21012000F074FA0A2007F01F
:104F400053FA00221921012000F06CFA0A2007F020
:104F50004BFA00221A21012000F064FA0A2007F01F
:104F600043FA10221B21012000F05CFA0A2007F00E
:104F70003BFA00221C21012000F054FA0A2007F01D
:104F800033FA01223821104600F04CFA0A2007F0CB
:104F90002BFA01223721104600F044FA0A2007F0CC
:104FA00023FA0D222721012000F03CFA0A2007F005
:104FB0001BFA0D226721012000F034FA0A2007F0C5
:104FC00013FA0D222721012000F02CFA0A2007F005
:104FD0000BFA01226B21104600F024FA00E00BE0EE
:104FE0000A2007F001FA00226C21012000F01AFAD1
:104FF0000A2007F0F9F901E0012010BD0020FCE7CC
:1050000010B500247521022000F0A2F904460A2000
:1050100007F0EAF9702C7DD180226B21022000F08C
:1050200001FA0A2007F0E0F900226B21022000F0CB
:10503000F9F90A2007F0D8F907226821022000F0C8
:10504000F1F90A2007F0D0F903226B21022000F0C9
:10505000E9F90A2007F0C8F900226C21022000F0CB
:10506000E1F90A2007F0C0F900221A21022000F01D
:10507000D9F90A2007F0B8F900221921022000F01E
:10508000D1F90A2007F0B0F900221A21022000F01D
:10509000C9F90A2007F0A8F910221B21022000F00C
:1050A000C1F90A2007F0A0F900221C21022000F01B
:1050B000B9F90A2007F098F901223821022000F0FE
:1050C000B1F90A2007F090F901223721022000F0FF
:1050D000A9F90A2007F088F90D222721022000F003
:1050E000A1F90A2007F080F90D226721022000F0C3
:1050F00099F90A2007F078F90D222721022000F003
:1051000091F90A2007F070F901226B21022000F0CA
:1051100089F900E00BE00A2007F066F900226C2113
:10512000022000F07FF90A2007F05EF901E001207B
:1051300010BD0020FCE710B500F0C2F9FFF7C5FE76
:1051400010B9FFF75DFF08B1012010BD0020FCE79A
:1051500070B586B004460D46164604AB06223B21C8
:10516000012000F021F910B1012006B070BD9DF8BA
:1051700011009DF8101040EA012000B2ADF80400C3
:105180009DF813009DF8121040EA012000B2ADF81E
:1051900006009DF815009DF8141040EA012000B2A9
:1051A000ADF8080004AB06223B21022000F0FCF819
:1051B00008B10120D9E79DF811009DF8101040EAD0
:1051C000012000B2ADF80A009DF813009DF81210FE
:1051D00040EA012001B2ADF80C109DF815009DF8D1
:1051E000141040EA012001B2ADF80E10BDF8040021
:1051F0002080BDF806002880BDF80800308000201F
:10520000B3E770B586B004460D46164604AB0622D9
:105210004321012000F0C8F810B1012006B070BD94
:105220009DF811009DF8101040EA012000B2ADF881
:1052300004009DF813009DF8121040EA012000B20E
:10524000ADF806009DF815009DF8141040EA012005
:1052500000B2ADF8080004AB06224321022000F0A2
:10526000A3F808B10120D9E79DF811009DF81010AE
:1052700040EA012000B2ADF80A009DF813009DF845
:10528000121040EA012001B2ADF80C109DF8150093
:105290009DF8141040EA012001B2ADF80E10BDF9DE
:1052A0000420BDF90C10501800EBD071491009B260
:1052B0002180BDF90610BDF90A20881A00EBD071D3
:1052C000491009B22980BDF90820BDF90E10501807
:1052D00000EBD071491009B2318000209EE7000038
:1052E00030B52DED068B81B004466B46022241217C
:1052F000012000F059F89DF801009DF8001040EAE7
:10530000012005B22846FBF7B5FE41EC1A0B9FEDD4
:105310000C0B53EC102BFBF730FE41EC190B9FEDFF
:105320000A0B53EC102BFBF70FFD41EC180BFBF7AE
:1053300003FF2060002001B0BDEC068B30BD0000F3
:1053400052B81E85EBDD74400000000000002A40CA
:1053500070B504460D46012C04D110211048FFF70A
:105360000CFA05E0022C03D110210E48FFF705FAD4
:1053700045F0800001F022FBFF2001F01FFB0646F4
:10538000012C04D110210648FFF7F9F905E0022CA1
:1053900003D110210348FFF7F2F9304670BD000039
:1053A00000080240000002402DE9F04104460F468B
:1053B00015461E46012C04D110211848FFF7DDF9CF
:1053C00005E0022C03D110211548FFF7D6F947F06C
:1053D000800001F0F3FA0FE0012D04D1FF2001F06D
:1053E000EDFA307003E0FF2001F0E8FA3070761C2F
:1053F000781CC7B2681EC5B2002DEDD1012C04D1B6
:1054000010210648FFF7BBF905E0022C03D110215B
:105410000348FFF7B4F90020BDE8F081000802401E
:105420000000024070B504460D461646012C04D11A
:1054300010210F48FFF7A1F905E0022C03D110213C
:105440000C48FFF79AF9284601F0B8FA304601F007
:10545000B5FA012C04D110210548FFF790F905E0B9
:10546000022C03D110210348FFF789F9002070BDF9
:1054700000080240000002401CB50121022001F09A
:1054800007F9012000908DF8040000208DF8060037
:1054900002208DF8050001208DF8070069460348B9
:1054A000FFF700F900F004F81CBD00000004024002
:1054B00010B501210148FFF760F910BD000402405A
:1054C0001CB50121072001F0E3F80121880301F058
:1054D0000FF91020009001208DF8040000208DF8B5
:1054E000060003208DF8050069461848FFF7DAF832
:1054F0001020009001208DF8040000208DF8060097
:1055000003208DF8050069461148FFF7CBF801200C
:1055100000908DF804008DF8070000208DF806003B
:1055200003208DF8050069460A48FFF7BBF8012102
:105530000848FFF722F901F0DFF910210348FFF7CF
:105540001EF910210248FFF71AF91CBD000802409D
:1055500000000240000402400FB400B595B09DED7C
:10556000260B8DED060B9DED060B51EC100B81F01B
:105570000041CDE908019DED1E0B8DED060B9DED63
:10558000060B53EC102B9DED080B51EC100BFBF7A9
:10559000A3FD7CD29DED260B8DED080B9DED1E0B22
:1055A0008DED060B9DED080B53EC102B9DED060BBE
:1055B00051EC100BFBF7A8FD6AD29DED260B8DED8B
:1055C000060B9DED060B51EC100B81F00041CDE96F
:1055D00008019DED160B8DED060B9DED060B53ECB2
:1055E000102B9DED080B51EC100BFBF775FD7DD2D8
:1055F0009DED160B8DED000B9DED000B53EC102B6C
:105600009FEDFE0B51EC100BFBF79EFBCDE9020169
:105610009DED1E0B8DED000B9DED000B53EC102B43
:105620009DED020B51EC100BFBF78EFBCDE9040155
:105630009DED260B8DED020B9DED020B53EC102B17
:105640009DED040B51EC100BFBF77EFBCDE9060141
:105650009DED060B03F0C4FB8DED080B9FEDE90BF0
:1056600053EC102B9DED080B51EC100BFBF713FCCA
:10567000CDE912019FEDE50B53EC102B9DED120BC4
:1056800051EC100BFBF779FCCDE90A0101E0C9E20E
:1056900029E19DED240B8DED060B9DED200B8DED8D
:1056A000040B9DED060B53EC102B9DED040B51EC00
:1056B000100BFBF7EAFBCDE908019DED120B53EC53
:1056C000102B9DED080B51EC100BFBF756FCCDE9B0
:1056D0000C019DED1A0B8DED060B9DED220B8DED52
:1056E000040B9DED060B53EC102B00E034E09DED18
:1056F000040B51EC100BFBF7C8FBCDE908019DED45
:10570000120B53EC102B9DED080B51EC100BFBF71B
:1057100034FCCDE90E019DED1C0B8DED060B9DEDCE
:10572000180B8DED040B9DED060B53EC102B9DED2E
:10573000040B51EC100BFBF7A8FBCDE908019DED24
:10574000120B53EC102B9DED080B51EC100BFBF7DB
:1057500014FCCDE9100164E29DED160B8DED000BFC
:105760009DED000B53EC102B9FEDA40B51EC100B97
:10577000FBF78BFBCDE902019DED1E0B8DED000BC0
:105780009DED000B53EC102B9DED020B51EC100B1B
:10579000FBF7DAFACDE904019DED260B8DED020B46
:1057A0009DED020B53EC102B9DED040B51EC100BF7
:1057B000FBF76BFBCDE906019DED060B03F010FB3B
:1057C0008DED080B9FED8F0B53EC102B9DED080B0F
:1057D00051EC100BFBF75FFBCDE912019DED220BA5
:1057E0008DED060B9DED1A0B8DED040B9DED060B5B
:1057F00053EC102B9DED040B51EC100BFBF745FB0C
:10580000CDE908019DED120B53EC102B9DED080B1B
:1058100051EC100BFBF7B1FBCDE90A019DED180B24
:105820008DED040B9DED1C0B8DED020B9DED040B1E
:1058300053EC102B9DED020B51EC100BFBF784FA8F
:10584000CDE906019DED060B51EC100B81F00041F6
:10585000CDE908019DED120B53EC102B9DED080BCB
:1058600051EC100BFBF789FBCDE90C019DED120B00
:1058700051EC100B81F000419FED640B53EC102BA9
:10588000CDE908019DED080B51EC100BFBF775FB02
:10589000CDE90E019DED200B8DED040B9DED240B4C
:1058A0008DED020B9DED040B53EC102B9DED020BC7
:1058B00051EC100BFBF748FACDE906019DED060B04
:1058C00051EC100B81F00041CDE908019DED120B68
:1058D00053EC102B9DED080B51EC100BFBF74DFB1F
:1058E000CDE910019DE19DED1E0B8DED060B9DEDAB
:1058F000060B51EC100B81F00041CDE908019DED44
:10590000160B8DED060B9DED060B53EC102B9DED4C
:10591000080B51EC100BFBF7DFFB6ED29DED160B65
:105920008DED000B9DED000B53EC102B9FED330B19
:1059300051EC100BFBF708FACDE902019DED1E0BAF
:105940008DED000B9DED000B53EC102B9DED020B2C
:1059500051EC100BFBF7F8F9CDE904019DED260B96
:105960008DED020B9DED020B53EC102B9DED040B06
:1059700051EC100BFBF7E8F9CDE906019DED060BA4
:1059800003F02EFA8DED080B9FED1E0B53EC102B40
:105990009DED080B51EC100BFBF77DFACDE91201E0
:1059A0009FED1A0B53EC102B9DED120B51EC100BCD
:1059B000FBF7E3FACDE90A019DED240B8DED060B13
:1059C0009DED200B8DED040B9DED060B53EC102B84
:1059D0009DED040B51EC100BFBF757FACDE90801D4
:1059E0009DED120B53EC102B9DED080B51EC100BA1
:1059F000FBF7C3FACDE90C010CE04CE0000000001D
:105A00000000F03F00000000000000400000000027
:105A1000000010409DED1A0B8DED060B9DED220B45
:105A20008DED040B9DED060B53EC102B9DED040B3F
:105A300051EC100BFBF729FACDE908019DED120B93
:105A400053EC102B9DED080B51EC100BFBF795FA66
:105A5000CDE90E019DED1C0B8DED060B9DED180B98
:105A60008DED040B9DED060B53EC102B9DED040BFF
:105A700051EC100BFBF709FACDE908019DED120B73
:105A800053EC102B9DED080B51EC100BFBF775FA46
:105A9000CDE91001C5E09DED160B8DED000B9DEDE0
:105AA000000B53EC102B1FED2B0B51EC100BFBF7E5
:105AB000ECF9CDE902019DED1E0B8DED000B9DED86
:105AC000000B53EC102B9DED020B51EC100BFBF770
:105AD000DCF9CDE904019DED260B8DED020B9DED6A
