:020000040800F2
:10000000A8B5012059020008D13300082F2F00089D
:10001000CD3300089B1400087F5300080000000047
:10002000000000000000000000000000A101000826
:10003000412E000800000000F5010008ED3B00081B
:1000400073020008730200087302000873020008BC
:1000500073020008730200087302000873020008AC
:100060007302000873020008432E000873020008A0
:10007000730200087302000873020008730200088C
:10008000730200087302000873020008730200087C
:10009000B11500087302000873020008730200081B
:1000A000730200087302000873020008730200085C
:1000B00073020008653C0008730200087302000820
:1000C000730200087302000873020008730200083C
:1000D0007302000873020008493E0008730200081A
:1000E000730200087302000873020008730200081C
:1000F000730200087302000873020008730200080C
:1001000073020008730200087D3C000873020008B7
:1001100073020008E93D000873020008730200083A
:1001200073020008730200087302000873020008DB
:1001300073020008730200087302000873020008CB
:1001400073020008E918000873020008613400080F
:1001500073020008730200087302000873020008AB
:10016000730200087302000873020008730200089B
:10017000730200087302000873020008730200088B
:100180007302000873020008DFF810D001F038F99C
:1001900000480047D57E0008AFF30080A8B50120D5
:1001A0002A4B19680868B0E8F04F80F30988BFF35C
:1001B0006F8F4FF0000080F311887047000000003F
:1001C00006480068006880F3088862B661B6BFF32D
:1001D0004F8FBFF36F8F00DF00BF00BF08ED00E05F
:1001E000DFF80C00016841F470010160704700BF46
:1001F00088ED00E0EFF30980BFF36F8F134B1A68AF
:100200001EF0100F08BF20ED108A20E9F04F10609B
:1002100008B44FF0500080F31188BFF34F8FBFF345
:100220006F8F09F0B3F94FF0000080F3118808BC1C
:1002300019680868B0E8F04F1EF0100F08BFB0EC66
:10024000108A80F30988BFF36F8F7047C0000020C9
:10025000EFF30580704700000648804706480047D6
:10026000FEE7FEE7FEE7FEE7FEE7FEE7FEE7FEE766
:10027000FEE7FEE7FD3B0008890100089FED1A1A22
:10028000F5EE000A40EE010ABDEEE00AF5EEC00A06
:1002900010EE100AF1EE10FA38BF401E00EE100A00
:1002A0001349F7EE001AB8EEC00A30EEC00ADFEDCF
:1002B0000F0A20EE200AFCEEC00A10EE900AC0F3EE
:1002C000080000EE900A01EB8000F8EE600A90ED65
:1002D000011A70EE600A90ED000A71EEE01A21EE4C
:1002E000800A00EE810A704783F9223E0000004434
:1002F000D4A30008DFED190AB5EEC00A60EE200AAB
:10030000BDEEE01A11EE100AF1EE10FA38BF401EF1
:1003100000EE100A1349F7EE001AB8EEC00A30EEEC
:10032000C00ADFED0F0A60EE200ABCEEE00A10EE14
:10033000100AC0F3080000EE100A01EB8000B8EECE
:10034000400A90ED011A70EEC00A90ED000A71EEBD
:10035000E01A21EE800A00EE810A704783F9223EFE
:1003600000000044D4A3000870B405880E884468D7
:10037000D1F804C05368B54208D140884988884202
:1003800001BF11888D425188884203D070BC6FF044
:100390000200704705FB00F1880827D094ED001A91
:1003A000DCED000A94ED010ADCED011A31EE201AB1
:1003B000D4ED020A70EE211A9CED020A83ED001AB8
:1003C000C3ED011A94ED031ADCED031A30EE800A36
:1003D000401E71EE210A83ED020A04F11004C3ED00
:1003E000030A03F110030CF1100CD7D111F0030034
:1003F00030D0B0F1004F30D200282BDD211F1B1F61
:10040000ACF1040210F0010F0AD091ED010AD2ED17
:10041000010A091D121D30EE200A83ED010A1B1D81
:10042000400817D091ED010AD2ED010A401E30EECE
:10043000200A83ED010A91ED020AD2ED020A01F1D0
:10044000080102F1080230EE200A83ED020A03F1EE
:100450000803E7D170BC00207047B4EC010A401ECD
:10046000FCEC010A30EE200AA3EC010AF5D1F1E719
:1004700001804280436070472DE9F34F84B00498B7
:1004800040680090486801900498B0F800E0458802
:10049000DFEDFE0A00200290B0EE600AAE4506D104
:1004A00008884988884204BF7146864504D06FF0A9
:1004B000020006B0BDE8F08F01985FEA010C18BF9A
:1004C000B7EE001A3DD000BFBEEB0C0117D0B1F162
:1004D000004F80F01F82002911DD021F11F0010F73
:1004E0001CBFC2ED010A121D4B1006D0C2ED010A5D
:1004F000C2ED020A08325B1EF8D100EB8100BCF1AC
:100500000102A0EC011A19D0B2F1004F80F008826C
:10051000002A13DD031F12F0010F1CBFC3ED010AF7
:100520001B1D511008D000BFC3ED010AC3ED020A24
:10053000491E03F10803F7D100EB8200BCF1010C66
:10054000C2D14FF000080395002D14BFB0EE602A11
:10055000002000F0BF8100BF009908FB05F001EB0F
:10056000800B0199DBED002A01EB80000346F0EEE1
:10057000421AC64552D9AEEB0802ABEB850112F028
:10058000010F17D001EB850191ED000AB5EEC00A0D
:10059000F1EE10FA07DDB4EEE10AF1EE10FA09DD32
:1005A000F0EE401A06E0B1EE400AF4EEC01AF1EEA9
:1005B00010FAF5D3521031D001EB850C9CED000AF6
:1005C000B5EEC00AF1EE10FA05DDB4EEE10AF1EE87
:1005D00010FA09DD06E0B1EE400AF4EEC01AF1EEC1
:1005E00010FA01D2F0EE401A01EBC50191ED000ABC
:1005F000B5EEC00AF1EE10FA05DDB4EEE10AF1EE57
:1006000010FA09DD06E0B1EE400AF4EEC01AF1EE90
:1006100010FA01D2F0EE401A521ECDD1F5EEC01AFA
:10062000F1EE10FA00F07381F5EEC02A0126F1EE2A
:1006300010FA0099D4BFB1EE620AB0EE620AB4EECD
:10064000610AF1EE10FA1CBFAEEB0802B2F1010C28
:1006500047D005FB08F201EB820292ED001A00BFC1
:10066000B0EE410A05FB06F4B5EEC00A00EB8404C7
:10067000F1EE10FACCBFF0EE400AF1EE400AF4EED3
:10068000610AF1EE10FA28D1B5EB080C11D0BCF1DB
:10069000004F7DD2BCF1000F0BDD00BF92ED000AD0
:1006A000D1ED000ABCF1010CE2EC010AA1EC010A57
:1006B000F4D129000ED0B1F1004F6AD2002909DD32
:1006C00094ED000AD0ED000A491EE4EC010AA0EC0A
:1006D000010AF5D1012002900BE0761CBCF1010C5F
:1006E000BED10298012804D0F5EEC02AF1EE10FA2E
:1006F0007ED09BED000AB5EB08009A4659460646A7
:1007000022D0B0F1004F74D200281DDD091F10F077
:10071000010F06D0F0EE400A80EEA01A81ED011A1A
:10072000091D401010D000BFD1ED010A401E80EE1F
:10073000801A81ED011A91ED021AC1EE000AC1ED95
:10074000020A01F10801EFD1280026D0B0F1004FD4
:100750007ED2002821DDAAF1040110F0010F06D09D
:10076000D1ED010A80EE801A81ED011A091D4010B9
:1007700013D000BFD1ED010A401E80EE801A81ED3A
:10078000011AD1ED020A80EE801A81ED021A01E011
:10079000CBE0D6E001F10801ECD1DDE900124FF029
:1007A00000095FEA0E0773D0C14504BF01EB860163
:1007B00002EB850274D091ED000ADC46504633000E
:1007C00035D01C46B6F1004F7ED2002C2FDD0B1F1A
:1007D000ABF1040C16F0010F0FD0F0EE400ADCED87
:1007E000011AB0EE601A00EEE11A83ED011A01E081
:1007F0008DE0B1E01B1D0CF1040C741015D000BF8E
:10080000D3ED010A9CED011A40EE410AC3ED010A45
:10081000D3ED020A9CED021A0CF1080C40EE410ADD
:10082000C3ED020A0833641EEAD101EB86012B00F6
:1008300036D0B3F1004F72D2002B31DDA2F1040C9F
:10084000AAF1040013F0010F0CD0DCED010A00E066
:100850008BE090ED011A001D40EE410ACCED010A3B
:100860000CF1040C5C1019D0DCED010A90ED011ABA
:1008700040EE410ACCED010ADCED020A90ED021ACD
:10088000083040EE410ACCED020A03E0000000000F
:100890000DE005E0641E0CF1080CE5D102EB8302CB
:1008A00001EB88017F1E09F101097FF47DAF0098FB
:1008B00008F10108001D00900398401E03907FF48A
:1008C0004BAE0299012900E058E004BF06B0BDE834
:1008D000F08F00BFB5EEC00AF1EE10FA7FF4E9AD7B
:1008E00004990EFB05F3002B4A684FF000010BD969
:1008F00002EB810C9CED000AB5EEC00AF1EE10FA95
:1009000002D1491C8B42F3D88B427FF4D2AD6FF0F9
:100910000400CEE5E0EC010A491EFBD1EFE538E02A
:10092000E0EC010A521EFBD108E692ED000AD1ED7F
:10093000000ABCF1010CE2EC010AA1EC010AF4D1BD
:10094000B7E694ED000AD0ED000A491EE4EC010A76
:10095000A0EC010AF5D1BDE6D1ED000A401E80EE03
:10096000801AA1EC011AF7D1EEE6D3ED000A401E81
:1009700080EE801AA3EC011AF7D10EE7BCEC011A45
:10098000D1ED000A5B1E40EE410AE1EC010AF5D10F
:100990004DE7B0EC011AD2ED000A5B1E40EE410AB1
:1009A000E2EC010AF5D17BE72DE9F04F82B0466811
:1009B00053680193058847884B8800200090088879
:1009C000874201BFB2F800C06545528893421EBFFE
:1009D0006FF0020002B0BDE8F08F9FED412A4FEAB0
:1009E000970EC7F3400B00BFDDE9000202EB800A5F
:1009F0004A6898464FF00009B0EE420AB4465FEAF2
:100A00000E0025D092ED001ADCED001A02EB8302F5
:100A1000DCED010A01EE810A92ED001A02EB83027D
:100A2000401ED2ED001A02EB830200EE810A9CED1B
:100A3000021ADCED030A00040CF1100C000C01EEAC
:100A4000210A92ED001A02EB830200EE810AD9D14D
:100A500017F0030026D0ACF10404A2EB830210F0DF
:100A6000010F08D002EB8302D4ED010A92ED001AC7
:100A7000241D00EE810A5FEA0B0013D002EB830C09
:100A8000D4ED010A9CED001A02EBC302401E00EEF9
:100A9000810AD4ED020A92ED001A04F1080400EE76
:100AA000810AEBD109F10100AAEC010A1FFA80F9D1
:100AB000486800EB8902A8F101001FFA80F8B8F13C
:100AC000000F99D1009806EB8706184480B2009079
:100AD000681E05042D0C87D102B00020BDE8F08F00
:100AE0000000000070B405880E884468D1F804C086
:100AF0005368B54208D140884988884201BF1188AF
:100B00008D425188884203D070BC6FF0020070475C
:100B100005FB00F1880827D094ED001ADCED000AEF
:100B200094ED010ADCED011A31EE601AD4ED020AEF
:100B300070EE611A9CED020A83ED001AC3ED011AF2
:100B400094ED031ADCED031A30EEC00A401E71EE7C
:100B5000610A83ED020A04F11004C3ED030A03F1F4
:100B600010030CF1100CD7D111F0030030D0B0F10C
:100B7000004F30D200282BDD211F1B1FACF10402D7
:100B800010F0010F0AD091ED010AD2ED010A091D02
:100B9000121D30EE600A83ED010A1B1D400817D0BC
:100BA00091ED010AD2ED010A401E30EE600A83ED9C
:100BB000010A91ED020AD2ED020A01F1080102F1E7
:100BC000080230EE600A83ED020A03F10803E7D160
:100BD00070BC00207047B4EC010A401EFCEC010A16
:100BE00030EE600AA3EC010AF5D1F1E72DE9F04FF0
:100BF00002884768B0F802804888D1F8049082B033
:100C00004FF0000A1646824207BF098888456FF0F8
:100C1000020002B018BFBDE8F08F4FEA980B02EB5C
:100C200042000190C8F34000CDF8000009EB8A01B2
:100C3000BBF1000F33D0019801EB820C01EB800473
:100C40003B46E64601EBC2054FEA0B0093ED000A76
:100C5000401E81ED000A93ED010A01EB02118CEDBB
:100C6000000A93ED020A0CEB021C85ED000A93EDDD
:100C7000030A05EB021584ED000A04EB021403F1EC
:100C80001003E3D10EEB820000EB820000EB820147
:100C9000ABF10100504307EB0B1701EB001118F00B
:100CA000030C21D03B1FA1EB82011CF0010F06D0E9
:100CB00093ED010A01EB82011B1D81ED000A0098F2
:100CC00080B100BF93ED010A01EB820401EBC20188
:100CD00084ED000A93ED020A401E81ED000A03F143
:100CE0000803EFD107EB8C070AF101001FFA80FA25
:100CF000701E0604360C99D102B00020BDE8F08FBA
:100D000040EA01039B0703D009E008C9121F08C08D
:100D1000042AFAD203E011F8013B00F8013B521E0D
:100D2000F9D27047D2B201E000F8012B491EFBD284
:100D300070470022F6E710B513460A4604461946E6
:100D4000FFF7F0FF204610BD2DE9FE4F804681EAF7
:100D50000300C00F0C46009021F0004123F0004535
:100D6000B8EB0200A94105D24046214690461C46F8
:100D70000B46024623F00040104347D0270DC7F32F
:100D80000A00C3F30A510290401A019040286BDA1E
:100D9000C3F3130040F4801B0098924620B1002357
:100DA000D2EB030A63EB0B0B01985946C0F14002EA
:100DB000504600F006FA06460D4650465946019A3E
:100DC00000F00EFA10EB08006141002487EA11528E
:100DD00084EAE7731A4340D0009A62B3019A012A69
:100DE0004FEA075215DC001B61EB02014FF0004295
:100DF00002EA0752CDE90042001C41F5801132465B
:100E00002B4600F045FA03B0BDE8F08F404621467E
:100E1000F9E7001B61EB0201001C41F5801300188B
:100E20005B412018A2F5001747EB030140EAD5709B
:100E3000B6196D4111E06D084FEA360645EAC075F6
:100E40004FEA0752001B61EB0201001C41F58011C3
:100E500049084FEA30000019514132462B4603B091
:100E6000BDE8F04F00F005BA0098012240000023D1
:100E7000D0EB020263EBE073009821464FEAE07486
:100E8000B8EB000061EB0401E9E783F000435BE7A6
:100E900081F0004158E72DE9FE4F81EA030404F098
:100EA000004421F0004100944FF0000B23F0004378
:100EB00050EA01045ED052EA03045BD0C3F30A5443
:100EC000C1F30A552C44A4F2F3340194A0FB02545C
:100ED000C1F3130141F48011C3F3130343F48013EE
:100EE00001FB024400FB034E840A970A44EA815442
:100EF00047EA8357A4FB076802958D0A05FB07851F
:100F00004FEA932C04FB0C542705029D4FEA065828
:100F100047EA1637B5EB08056EEB070C870E920E05
:100F200047EA811742EA8312A7FB0201B6EB0B01E5
:100F300064EB00042B0D43EA0C335E1844EB1C50A9
:100F4000DA465146E7FB0201C5F313044FEA0B33BF
:100F500043EA14534FEA0432019C43EA0603A4F126
:100F60000C040294009CCDE900B400F091F903B0A8
:100F7000BDE8F08F00200146F9E72DE9F04D81EA48
:100F8000030404F0004B21F0004514464FF0000A22
:100F900023F0004150EA050220D054EA01021DD09E
:100FA000C5F30A570246C5F31303C1F31300C1F397
:100FB0000A5640F4801543F48013A7EB0608101B73
:100FC000D64608F2FD3873EB050002D308F101089C
:100FD00001E092185B41B8F1000F03DA00200146EE
:100FE000BDE8F08D00204FF48011064684460EE0E7
:100FF000171B73EB050705D3121B63EB05030643B1
:101000004CEA010C49084FEA300092185B4150EA63
:101010000107EDD152EA030012D082EA040083EA0C
:101020000501084305D0101BAB4106D20122002365
:1010300006E000224FF0004302E06FF0010253107F
:101040001AEB06004CEB085110EB0A0041EB0B01C8
:10105000BDE8F04D00F00DB930B404469623080009
:10106000214604D0B62330BC002200F0D4B820467C
:101070000021F8E700F0004230F000400AD0C10D36
:1010800001F56071C0F3160042EA0151C208400741
:1010900011437047002001467047000030B5041E20
:1010A00071F1000404DB4FF00044404264EB0101A5
:1010B000141E73F1000405DB1C464FF0004352423E
:1010C00063EB04038B4208BF824230BD30B5041E7F
:1010D00071F1000404DB4FF00044404264EB010175
:1010E000141E73F1000405DB1C464FF0004352420E
:1010F00063EB0403994208BF904230BD01F0004306
:1011000030B421F0004150EA010206D00A0DA2F5E8
:101110006072C1F31301002A02DC30BC002070476A
:10112000440F44EAC104C100E01830BC00EBC250D7
:1011300000F068B830B50B4601460020202201249B
:1011400009E021FA02F59D4205D303FA02F5491B95
:1011500004FA02F52844151EA2F10102F1DC30BDAB
:101160002DE9F05F0546002092469B4688460646DC
:10117000814640241BE0284641464746224600F06F
:1011800051F953465A46C01A914110D31146184698
:10119000224600F016F82D1A67EB01084F4622464A
:1011A0000120002100F00DF817EB00094E41201E30
:1011B000A4F10104DFDC484631462A464346BDE837
:1011C000F09F202A04DB203A00FA02F10020704749
:1011D0009140C2F1200320FA03F319439040704775
:1011E000202A06DBCB17203A41FA02F043EAE073EB
:1011F00006E041FA02F3D040C2F1200291400843D8
:10120000194670470029A8BF7047401C490008BF15
:1012100020F00100704710B4B0FA80FC00FA0CF026
:1012200050EA010404BF10BC704749B1CCF120045E
:1012300021FA04F411FA0CF118BF012121430843EB
:10124000A3EB0C01CB1D4FEA00614FEA102042BF17
:10125000002010BC704700EBC35010440029A4BF0D
:1012600010BC7047401C490008BF20F0010010BCB2
:10127000704710B5141E73F1000408DA401C41F1E8
:10128000000192185B411A4301D120F0010010BD0A
:101290002DE9F04D92469B4611B1B1FA81F202E080
:1012A000B0FA80F220329046FFF78BFF04460F46DB
:1012B00040EA0A0041EA0B0153465A46084313D05C
:1012C000114653EA010019D0C8F14002504600F01F
:1012D000A9F805460E46504659464246FFF771FFAB
:1012E000084305D0012004E020463946BDE8F08DD2
:1012F0000020054346EAE0762C4337430A9863050D
:10130000E40AA0EB08000022FD0A44EA47540A3030
:1013100002D500200146E9E7010510196941DDE920
:10132000084500196941BDE8F04DA2E72DE9F04DEF
:1013300000231A461B1A8A4103DB00200146BDE840
:10134000F08DC1F30A52C1F3130141F480154FF03F
:10135000000BD10702D100186D41521E0027044630
:1013600040F2FF11384601EB620A3E4680460246D3
:1013700000204FF4801100F055F8C2197141BB18DC
:1013800046EB0100B4EB030C75EB000C04D3E41A3C
:1013900065EB000517460E46241908F101006D4162
:1013A00080463428E3DDF91946EB0600091BA84105
:1013B00003D24FF0FF32134601E0002213461BEB2D
:1013C000070046EB0A51BDE8F04DFFF752BFC1F3ED
:1013D0000A52C1F3130140F2FF3341F480119A42E3
:1013E00002DA00200146704740F233439A42A2F2EB
:1013F000334202DC524200F015B8FFF7E2BE0000B3
:10140000064C074D06E0E06840F0010394E8070051
:1014100098471034AC42F6D3FEF7BAFED8AB0008BA
:10142000F8AB0008202A04DB203A21FA02F0002160
:10143000704721FA02F3D040C2F1200291400843E4
:101440001946704770B58C1810F8015B15F007034A
:1014500001D110F8013B2A1106D110F8012B03E04D
:1014600010F8016B01F8016B5B1EF9D12B0705D455
:101470000023521E0DD401F8013BFAE710F8013B9E
:10148000CB1A921C03E013F8015B01F8015B521EBA
:10149000F9D5A142D8D3002070BD00BFFEE70000FF
:1014A0002DE9F0418AB004460D4616461F46DDF888
:1014B00040800121022002F0DBF80121480602F001
:1014C000E7F84FF44070089002208DF824000020C7
:1014D0008DF8260003208DF8250001208DF82700C7
:1014E00008A9314801F0B8FC092208212E4801F072
:1014F000FBFC092211462C4801F0F6FC00208DF877
:101500001A0001208DF81B0000208DF81C0001201E
:101510008DF81D0000208DF81E008DF81F008DF83D
:1015200016808DF817408DF818608DF81950ADF8B9
:10153000147005A91D4800F012FC00208DF80E0063
:101540008DF80F0001208DF810000020ADF8040088
:10155000ADF80600ADF80800ADF80A00ADF80C00D3
:1015600001208DF8110001A800F06CFB00224FF45F
:1015700000410E4800F0EAFB012202210B4800F076
:10158000E5FB14208DF8000007208DF801000020F5
:101590008DF8020001208DF80300684601F01AFF63
:1015A00000200AB0BDE8F081000402400064004061
:1015B00000B585B06A4600214B4800F05AFC4B4903
:1015C000009808600846006810287DDB084600681F
:1015D000132879DC9DF80B0001114448006810388D
:1015E000C0EBC000424A42F820109DF80D109DF853
:1015F0000C0041EA00213D4800681038C0EBC000F3
:1016000002EB800041609DF80E0001019DF80F0083
:1016100041EA2011354800681038C0EBC00002EBE9
:10162000800081609DF810109DF80F0000F00F0001
:1016300041EA00212D4800681038C0EBC00002EBE1
:101640008000C160294909681039C1EBC10102EB72
:10165000810148681021DFED270A9FED270A07F076
:10166000C3FB224800681038C0EBC000204901EBE2
:10167000800080ED040A1D4909681039C1EBC101E1
:101680001B4A02EB810188680C21DFED1C0A9FEDEB
:101690001C0A07F0A9FB154800681038C0EBC00011
:1016A000134901EB800080ED050A104909681039E3
:1016B000C1EBC1010E4A02EB8101C8680C21F3EEB7
:1016C0000E0ABBEE0E0A00E00BE007F08DFB0748A8
:1016D00000681038C0EBC000054901EB800080EDC8
:1016E000060A05B000BD0000006400408000002034
:1016F00050090020DA0F4940DA0F49C00000344297
:10170000000034C230B585B00446009400208DF846
:1017100008008DF8090008208DF80A00FF208DF8D8
:101720000B00FF218DF80C108DF80D108DF80E10A8
:101730008DF80F108DF810108DF81110FD218DF817
:1017400012106946064800F00CFC054600BF294609
:10175000034800F099FC0128F9D105B030BD000024
:101760000064004030B585B00446009400208DF838
:1017700008008DF8090008208DF80A00FF208DF878
:101780000B00FF218DF80C108DF80D108DF80E1048
:101790008DF80F108DF810108DF81110FC218DF8B8
:1017A00012106946064800F0DCFB054600BF2946DA
:1017B000034800F069FC0128F9D105B030BD0000F4
:1017C000006400402DE9F0418AB004460D461646FB
:1017D0001F46DDF840800121022001F049FF012170
:1017E000880601F055FF0121880601F061FF002104
:1017F0004FF0806001F05CFF6020089002208DF8BF
:10180000240000208DF8260003208DF825000120FB
:101810008DF8270008A9324801F01EFB0922052196
:101820002F4801F061FB092206212D4801F05CFBE5
:1018300000208DF81A0001208DF81B0000208DF883
:101840001C0001208DF81D0000208DF81E008DF871
:101850001F008DF816808DF817408DF818608DF8F0
:101860001950ADF8147005A91E4800F078FA0E2042
:101870008DF80E0000208DF80F0001208DF810006B
:101880000020ADF80400ADF80600ADF80800ADF892
:101890000A000120ADF80C008DF8110001A800F03D
:1018A000D1F900224FF400410E4800F04FFA012216
:1018B00010210C4800F04AFA41208DF80000082061
:1018C0008DF8010000208DF8020001208DF8030042
:1018D000684601F07FFD00200AB0BDE8F0810000FD
:1018E000000402400068004010B5CC4A0121CC48F9
:1018F00000F0BFFAC9480068CA4908600846006895
:10190000B0F5806F7DD007DCA0F2411058B10128FE
:101910000AD0C42876D1F8E0A0F20140002872D0A5
:101920000128F7D166E100BFBC480068A0F5A070AF
:10193000BD49086008460068401E0860B748007B43
:10194000096801EBC101B94A02F81100B348407BB4
:10195000B549096801EBC10102EB41014871AF488B
:10196000817BB148006800EBC00002EB4000817150
:10197000AA48C07BAC49096801EBC10102EB4101F7
:101980004870A648017CA848006800EBC00002EB44
:1019900040008170A148407CA349096801EBC10166
:1019A00002EB4101C8709D48817C9F48006800EBB4
:1019B000C00002EB400001719B48006800EBC000D2
:1019C000114601EB4000C1789748006800EBC00069
:1019D00002EB4000007941EA00209349096801EBDD
:1019E000C10102EB410148818F48006800EBC00053
:1019F000114601EB400041788B48006800EBC000C5
:101A000002E0D9E007E1DCE002EB4000807841EA47
:101A1000002000B28449096801EBC10102EB4101D9
:101A200008818148006800EBC000114601EB4000CE
:101A300041797D48006800EBC00002EB40008079EE
:101A400041EA002000B27849096801EBC10102EBCC
:101A5000410188817448006800EBC000114601EB29
:101A6000400040897049096801EBC10102EB410166
:101A7000C989401AB0F5004F11DB6B48006800EBD4
:101A8000C000114601EB4000008A401E00B26649CA
:101A9000096801EBC10102EB4101088224E06248C0
:101AA000006800EBC000614901EB400040895E49DD
:101AB000096801EBC1015D4A02EB4101C989401A85
:101AC00010F5004F10DC5848006800EBC0001146CC
:101AD00001EB4000008A401C00B25349096801EB49
:101AE000C10102EB410108824F48006800EBC000D1
:101AF0004E4901EB400040894B49096801EBC101A7
:101B00004A4A02EB4101C88185E0494800884849BA
:101B1000B1F91210401AB0F5805F05DD4448C06885
:101B2000401E4349C8600DE0414800884049B1F972
:101B30001210401A10F5805F04DA3D48C068401C5E
:101B40003B49C8603A48008800B239494882334866
:101B5000007B3249C97A40EA0120354908802F4884
:101B6000817B407B41EA002000B2314948802B480C
:101B7000017CC07B41EA002000B22D4988802748C3
:101B8000407C08740846C068C0EB403009880844AF
:101B900027498860098808B24FF41A7106F07DF968
:101BA00000EE100AB8EEC00ADFED220A20EE200A8D
:101BB000214880EDA00A2EE01848C07A1F4908602D
:101BC00029E01648417B807B41EA002000B21C4995
:101BD00088801248C17B007C41EA002000B218498D
:101BE000C8800E48417C807C41EA002000B2144944
:101BF000088110E00948C17A007B41EA002000B268
:101C00000F4908800548417B807B41EA002000B2F3
:101C10000B49488000BF00BF10BD0000E409002050
:101C2000006800408400002088000020C0090020D7
:101C3000000900200000343DECA5012050000020E8
:101C4000F809002010B50021837A012202FA03F17D
:101C50003D4A126842F001023B4B1A603A4A1C327C
:101C600012688A43384B1C331A60027BCAB9364A61
:101C70000C3212688A43344B0C331A604288C38892
:101C800042EA0343304A4032847A42F834300288D0
:101C9000838842EA03432C4A4032847A02EBC4022E
:101CA0005360027B012A19D1274A0C3212680A4379
:101CB000254B0C331A604288038842EA0343224AC8
:101CC0004032847A42F83430C288838842EA03433F
:101CD0001D4A4032847A02EBC4025360C27A3AB998
:101CE000194A121D12688A43174B1B1D1A6006E021
:101CF000154A121D12680A43134B1B1D1A600289F4
:101D000032B9114A143212688A430F4B14331A60E5
:101D10000289012A06D10C4A143212680A430A4B7E
:101D200014331A60427B012A06D1074A1C3212681A
:101D30000A43054B1C331A60034A126822F0010261
:101D4000014B1A6010BD0000006600401AB14369E3
:101D50000B43436102E043698B434361704730B5F5
:101D6000024600200023146824F002041460146862
:101D700044F00104146000E05B1C546804F00104AA
:101D80001CB94FF6FF74A342F6D1546804F0010465
:101D90000CB900206CE08C79012C04D1146844F05B
:101DA0008004146003E0146824F080041460CC798B
:101DB000012C04D1146844F04004146003E014685A
:101DC00024F0400414600C7A012C04D1146844F00F
:101DD0002004146003E0146824F0200414604C7A9A
:101DE000012C04D1146844F01004146003E014685A
:101DF00024F0100414608C7A012C04D1146844F08F
:101E00000804146003E0146824F008041460CC7A19
:101E1000012C04D1146844F00404146003E0146835
:101E200024F0040414608C78A407CD7844EA056497
:101E30000D7944EA05444D7944EA05540D886D1E38
:101E40002C43D461146824F001041460002300E0E2
:101E50005B1C546804F001041CB14FF6FF74A342EC
:101E6000F6D1546804F001040CB1002000E0012018
:101E700030BD10B500F5D87303EB01131B6803F0F8
:101E800004031372137A53B900F5D87303EB0113EB
:101E90001B6840F2FF7404EA5353136009E000F535
:101EA000D87303EB01131B686FF0604404EAD3039B
:101EB000536000F5D87303EB01131B6803F00203B2
:101EC000537200F5D87303EB01135B6803F00F0343
:101ED000937200F5D87303EB01135B681B0AD3748C
:101EE00000F5D87303EB01139B68D37200F5D87328
:101EF00003EB01139B681C0A147300F5D87303EB02
:101F000001139B681C0C547300F5D87303EB011389
:101F10009B681B0E937300F5D87303EB0113DB680A
:101F2000D37300F5D87303EB0113DB681C0A147438
:101F300000F5D87303EB0113DB681C0C547400F537
:101F4000D87303EB0113DB681B0E937421B9C368CC
:101F500043F02003C36003E0036943F020030361FF
:101F600010BD10B502460020936803F08063B3F102
:101F7000806F00D110E0936803F00063B3F1006F4D
:101F800001D1012008E0936803F08053B3F1805F32
:101F900001D1022000E00420042874D002F5C073AF
:101FA00003EB00131B6803F0010402F5C07303EB9D
:101FB00000131C600B7A7BB94B7A0C8843EA4453BC
:101FC00002F5C07404EB00142468234302F5C074C6
:101FD00004EB0014236010E00B7A4C6843EAC4035E
:101FE0004C7A234302F5C07404EB001424682343A5
:101FF00002F5C07404EB001423608B7A03F00F0326
:102000008B7202F5C07303EB00135B6823F00F04BF
:1020100002F5C07303EB00135C6002F5C07303EBC1
:1020200000135B688C7A234302F5C07404EB001440
:1020300063608B7B1C064B7B44EA03440B7B44EAC6
:102040000323CC7A234302F5C07404EB0014A3608D
:102050008B7C1C064B7C44EA03440B7C44EA032340
:10206000CC7B234302F5C07404EB0014E36002F55B
:10207000C07303EB00131B6843F0010402F5C07347
:1020800003EB00131C6010BD10B50246002321B104
:10209000012907D002290FD109E090681D4C00EA00
:1020A00004030BE090681C4C00EA040306E090680F
:1020B0001A4C00EA040301E0002300BF00BF184CE3
:1020C000181BA34216D007DC83B16FF08060184460
:1020D00070B1022818D111E0B0F5007F10D0114C7A
:1020E000204448B1B0F5003F0ED10BE002230DE0D3
:1020F00000230BE0002309E0002307E0012305E0B3
:10210000012303E0012301E0002300BF00BFD8B298
:1021100010BD0000030000040003000800000310CD
:10212000000100080001FFF730B585B005460C46F8
:1021300040F24110009000208DF808008DF8090051
:1021400008208DF80A00E8B28DF80B00E1B28DF896
:102150000F10210A8DF81010210C8DF81110210E8E
:102160008DF8121069460248FFF7FBFE05B030BD3E
:102170000068004030B585B005460C464FF4A170AC
:10218000009000208DF808008DF8090008208DF8D7
:102190000A00E8B28DF80B00E1B28DF80F10210AA9
:1021A0008DF81010210C8DF81110210E8DF81210E1
:1021B00069460248FFF7D5FE05B030BD0068004013
:1021C00003F008FF04E003F0C9FF012006F0E4FF7C
:1021D000F9E704F0E1FE04E004F018FF012006F046
:1021E000DBFFF9E770B506460C4604F08000802856
:1021F00008D104F07F0000EB800106F58E7000EB43
:10220000C10505E004EB840106F55D7000EBC10536
:102210000020A87004F07F002870C4F3C01068701C
:102220002946304602F0ABFE002070BD2DE9F0419A
:1022300006460D4690461F4605F08000802808D1CE
:1022400005F07F0000EB800106F58E7000EBC10405
:1022500007E005F07F0000EB800106F55D7000EB04
:10226000C10405F07F00207005F08000C009607097
:10227000C4F80880E770607808B12078E080022F09
:1022800001D1002020712146304602F02CFE0020B2
:10229000BDE8F0812DE9F04105460E461746984607
:1022A00006F07F0000EB800105F55D7000EBC104D6
:1022B000E760C4F814800020A061607006F07F0021
:1022C0002070E878012800D12761207820B92146C4
:1022D000284602F02CFD03E02146284602F0A9FE24
:1022E0000020BDE8F08108B500220092009A61F359
:1022F0000A12009202691268009B1A4303691A606D
:1023000008BD70B506460C4604F08000802808D150
:1023100004F07F0000EB800106F58E7000EBC10534
:1023200005E004EB840106F55D7000EBC1050120BA
:10233000A87004F07F002870C4F3C01068702946AC
:10234000304602F044FE002070BD2DE9F041074602
:102350000D461646984605F07F0000EB800107F514
:102360008E7000EBC1040120607005F07F002070CA
:10237000E66026610020A061C4F81480207820B9AE
:102380002146384602F0D3FC03E02146384602F0ED
:1023900050FE0020BDE8F0817CB50546564C28462D
:1023A00002F090FCE868C0680090009820F470503B
:1023B00000900098E968C860284602F05FFF032893
:1023C0000BD10020A8704FF40070A880009820F472
:1023D000705000F5105000907EE00120A870402061
:1023E000A8804648844209D34548844206D20098D2
:1023F00020F4705000F5605000906DE04048844239
:1024000009D34048844206D2009820F4705000F569
:102410005050009060E03B48844209D33A488442DF
:1024200006D2009820F4705000F54050009053E020
:102430003548844209D33548844206D2009820F4B6
:10244000705000F53050009046E03048844209D387
:102450002F48844206D2009820F4705000F5205096
:10246000009039E02A48844209D32A48844206D29F
:10247000009820F4705000F5105000902CE0254892
:10248000844209D32448844206D2009820F4705034
:1024900000F5005000901FE01F48844209D31F48F8
:1024A000844206D2009820F4705000F5E05000906D
:1024B00012E01A48844209D31948844206D200988F
:1024C00020F4705000F5C050009005E0009820F412
:1024D000705000F5A05000900098E968C860002096
:1024E0000190019820F4005000F5005001900198EF
:1024F000E968486101207CBD00B0710BC0E1E400D7
:102500000024F400E0EC040100C31801002D3101A7
:1025100040A44C0100366E0140E2950180C3C90120
:1025200060600B02F8B505460024002000902846A4
:1025300002F0D7FE064681E006F0010000287BD0BD
:10254000E1B2284600F0A8FA0090009800F00100DF
:1025500030B3012000FA04F72869406BB8432969B9
:10256000486300200090009820F00100401C00907B
:1025700005F1180050F8240000998160E1B232485A
:102580000068426828469047E878012808D13CB99D
:1025900040F21110405D042802D1284602F072FC7E
:1025A0000098C0F3C00060B100200090009820F0B7
:1025B00008000830009005F1180050F82400009938
:1025C00081600098C0F3001060B100200090009876
:1025D00020F010001030009005F1180050F8240091
:1025E000009981600098C0F3801060B100200090D5
:1025F000009820F040004030009005F1180050F89D
:102600002400009981600098C0F3400060B1002070
:102610000090009820F00200801C009005F1180046
:1026200050F82400009981600098C0F3C01018B1E0
:102630002146284600F044FA641C7608002E7FF4F8
:102640007BAF0120F8BD00008C0200207CB5044661
:10265000002500200190204602F04BFE06466FE068
:1026600006F00100002869D0E9B2204602F049FED8
:102670000190019800F00100C8B30020019001987A
:1026800020F00100401C019004F1540050F8250096
:1026900001998160E078012817D104F1540050F8C5
:1026A00025000069009005EB850104F55D7000EBE5
:1026B000C10080680099C1F31201411A05EB85023F
:1026C00004F55D7000EBC2008161E9B21E4800684C
:1026D000026820469047E078012808D13DB940F2D1
:1026E0001110005D052802D1204602F0CBFB0198B5
:1026F000C0F3400060B100200190019820F002007A
:10270000801C019004F1540050F82500019981606B
:102710000198C0F3C00088B10B480068816820466A
:10272000884700200190019820F0080008300190AF
:1027300004F1540050F82500019981606D1C760861
:10274000002E8DD101207CBD8C0200203EB50446B8
:10275000A07A78B1D4F80C0100680090009820F0BD
:1027600002000090009820F0010000900099D4F839
:102770000C01016000200190019820F00100401C34
:10278000019020694068019988432169486009489F
:10279000006881692046884700200290029820F056
:1027A000004000F1004002900298E1684861012079
:1027B0003EBD00008C0200207CB504460020019044
:1027C000019820F0100010300190E06880690199B4
:1027D0008843E1688861E068006A0090009800F032
:1027E0000F0000EB800104F55D7000EBC10500985F
:1027F000C0F3434007282DD2DFE800F02C04051D6C
:102800001E2C1F0027E00098C0F30A1090B100981A
:10281000C0F30A122046E96802F07DFDE8680099DD
:10282000C1F30A110844E860A8690099C1F30A11CC
:102830000844A8610FE00EE00DE0082204F2CC513C
:10284000204602F068FDA8690099C1F30A11084406
:10285000A86100E000BF00BFE068806901990843FB
:10286000E168886101207CBD38B5044608480068ED
:10287000C1682046884700200090009820F008009A
:10288000083000900098E1684861012038BD0000E0
:102890008C0200201FB50446002000904FF4897080
:1028A000005D009023480068416920468847206900
:1028B0008068019000200390039820F4006000F5E8
:1028C000006003900398E1684861A07A70B30198B2
:1028D00000F0010050B340F21510005D012825D131
:1028E0009DF80000032821D100200290029820F0DA
:1028F0000100401C0290D4F80C01006802990843C2
:10290000D4F80C110860029820F00200801C02909C
:10291000D4F80C01006802990843D4F80C1108603F
:102920000548006840F0060003490860012004B033
:1029300010BD00008C02002010ED00E030B587B023
:1029400004460020029006900590049003900190A8
:10295000029820F00100401C029020694068029912
:102960008843216948600021204602F05DFC002573
:102970000BE0FF2104F1180050F82500816004F1FC
:10298000540050F8250081606D1C6078A842F0D892
:102990004FF0FF312069816106986FF30F00401CF2
:1029A0000690069880B200F580300690069920695E
:1029B000C161059820F0080008300590059820F0C6
:1029C0000100401C0590059820F00200801C059035
:1029D000059920694161049820F00100401C049091
:1029E000049820F0080008300490049820F00200B9
:1029F000801C04900499206901612069006803909B
:102A0000039820F4FE60039003992069016020463A
:102A100002F038FA00200190019820F4805000F56F
:102A2000805001900198E16848610448006801699C
:102A300020468847012007B030BD00008C020020EE
:102A400038B504460020009007480068C169204658
:102A50008847009820F4801000F5801000900098BE
:102A6000E1684861012038BD8C02002038B5044679
:102A70000020009007480068016A204688470098B7
:102A800020F4001000F5001000900098E168486103
:102A9000012038BD8C02002030B5024615692B6933
:102AA00015696C6B24FA01F505F0010543EAC513BD
:102AB00002F1180555F82150AD6805EA030030BD54
:102AC0002DE9F84306460F4600250020009007EB4D
:102AD000870106F58E7000EBC104D4E90501451AA3
:102AE000A068A84200D2A568E81C4FEA900806F149
:102AF000180050F827008069009029E0D4E905010A
:102B0000451AA068A84200D2A568E81C4FEA9008C0
:102B1000ABB2FAB23046E16802F011FCE06828443A
:102B2000E060A0692844A06106F1180050F8270071
:102B300080690090D4E90501884209D121780120FB
:102B400000FA01F93069406B20EA090031694863F5
:102B5000009880B2404506D9D4E90510884202D2D7
:102B600060690028CAD10120BDE8F8830246094BFC
:102B70009A4201D2084801E00648103801F000539B
:102B80001BB1064B0B40C36002E0044B0B4083605B
:102B90007047000010640240006002407D0F7D0F0E
:102BA00021B1026842F00102026003E0026822F0F3
:102BB0000102026070470000016821F0010101601C
:102BC0000021016041608160C1600161212141619A
:102BD0004A49884204D13D21484A103A91608CE02C
:102BE00046491831884205D14FF47461434A103A7E
:102BF000916082E041493031884205D14FF474112F
:102C00003E4A103A916078E03C494831884205D10B
:102C10004FF07461394A103A91606EE03749603183
:102C2000884204D13649354A103AD16065E03349CB
:102C30007831884204D13349304A103AD1605CE09F
:102C40002E499031884204D12F492C4A103AD16044
:102C500053E02A49A831884205D14FF03D51274A17
:102C6000103AD16049E02949884204D13D21274AE0
:102C7000083A116041E025491831884205D14FF4E6
:102C80007461224A083A116037E0204930318842A5
:102C900005D14FF474111D4A083A11602DE01B490B
:102CA0004831884205D14FF07461184A083A1160E2
:102CB00023E016496031884204D11149134A121F9A
:102CC00011601AE011497831884204D10D490F4A48
:102CD000121F116011E00D499031884204D10A4958
:102CE0000A4A121F116008E00849A831884204D13D
:102CF0004FF03D51054A121F1160704710600240AD
:102D00003D000020400F002000003D2010640240E4
:102D100021B1026842F48022026003E0026822F4DA
:102D200080220260704722B1036843F400230360ED
:102D300003E0036823F40023036001617047014648
:102D4000486880B27047014600200A6802F40022F9
:102D50000AB1012000E000207047000010B50022F9
:102D60000268134B1A40CC680B6823434C69234319
:102D70008C692343CC6923430C6A23434C6A234365
:102D80008C6A23434C6B23438C6B23431A430260AE
:102D9000426922F00702D1E90B3423431A4342610E
:102DA0000B6943604B6883608B68C36010BD000093
:102DB0003F801CF04160704770B52DED028B86B0EE
:102DC0000446B0EE408A0C209FED1A1ADFED1A0A75
:102DD000B0EE480A05F02AF885B2019400208DF87B
:102DE0000C008DF80D0008208DF80E0000208DF8E5
:102DF0000F0000218DF810108DF811108DF81210B1
:102E00008DF813108DF8141029128DF815108DF807
:102E1000165001A90948FFF7A4F8064600BF31463D
:102E20000648FFF731F90128F9D106B0BDEC028B55
:102E300070BD000000005842000058C2006400400D
:102E4000704710B5102000F001F810BD014908606E
:102E500070470000143C0140F0B50A4600210023F1
:102E6000002400BF3DE0012505FA01F3156805EADD
:102E700003049C4234D105684F000326BE40B5438D
:102E8000056015794E00B540066835430560157933
:102E9000012D02D01579022D16D185684F00032629
:102EA000BE40B543856055794E00B54086683543D0
:102EB0008560456801268E40B54345604568967932
:102EC0008E40B6B235434560C5684F000326BE400C
:102ED000B543C560D5794E00B540C6683543C56079
:102EE000491C1029BFD3F0BDF0B5002300244D07C5
:102EF000ED0E02FA05F3CE1000F1200555F826502C
:102F00004E07F70E0F26BE40B543CF1000F1200646
:102F100046F82750CE1000F1200555F8265045EA16
:102F20000304CE1000F1200545F82640F0BD00BF97
:102F3000FEE7000010B52DED048B0446B0EE408A8C
:102F4000F0EE608AB0EE419AB7EE000A84ED4E0AC8
:102F500084ED4F8A9FED7A0A84ED500AB7EE000A9D
:102F600084ED510AB7EE000A84ED5E0A9FED740A03
:102F700084ED5F0A9FED720A84ED600AB7EE000AE5
:102F800084ED610AC4ED448A84ED459A04F1380267
:102F900004F1300104F16000FDF706FD04F1680161
:102FA00004F16000FDF722FE04F1580204F1500123
:102FB00004F16000FDF7F8FCB4F85800A4F8B00084
:102FC0006A20015BB220015304F1B00204F16801F0
:102FD00004F15800FDF7E8FC04F1580204F19001F7
:102FE00004F1B000FDF7C0F904F1880104F180009C
:102FF000FDF7FCFDB4F88000A4F8B0005A20015B96
:10300000B220015304F1B00204F1580104F1800030
:10301000FDF7CAFCB4F8B000A4F8B8008A20015B40
:10302000BA20015304F1B80204F1880104F1B000A0
:10303000FDF7BAFCB4F8B800A4F8A8009A20015B28
:10304000AA20015304F1A80204F1980104F1B80088
:10305000FDF78AF904F1B80104F1A800FDF70CFAB4
:1030600004F1B00204F1880104F15800FDF79CFC62
:1030700004F1A00204F1B80104F1B000FDF794FCE2
:10308000B4F88000A4F8C0000121C220015304F16B
:10309000C00204F1380104F18000FDF785FCB4F8AA
:1030A0004800A4F8C8000121CA20015304F1C80255
:1030B00004F1C00104F14800FDF714FDB4F8A000CC
:1030C000A4F8C0000121C220015304F1C00204F1A0
:1030D000C80104F1A000FDF767FC04F1300204F11F
:1030E000C00104F13800FDF73FF9B4F8A000A4F8DE
:1030F000B0008220015BB2200153B4F8B000A4F804
:10310000B8005A20015BBA20015304F1B00204F167
:10311000800104F1A000FDF747FC04F1B80204F1BE
:10312000580104F1B000FDF73FFC04F1500204F136
:10313000B80104F15800FDF7D5FCBDEC048B10BDBF
:10314000000000002DE9F04104460D4617461E46DA
:103150000420974908800820964908802573A673A3
:103160009348008800FB05F104F1F000FDF7E1FD54
:10317000217B04F1F003012204F13000FDF778F91E
:103180008B48008800FB05F104F1F800FDF7D1FD44
:10319000217B04F1F803012204F13800FDF768F9FE
:1031A0008348008800FB06F104F58870FDF7C1FD37
:1031B000A17B04F58873012204F14800FDF758F95A
:1031C0007B480088684300FB05F104F58C70FDF72F
:1031D000B0FD227B114604F58C7304F15000FDF71D
:1031E00047F973480088684300FB05F104F59470C3
:1031F000FDF79FFD227B114604F5947304F15800FE
:10320000FDF736F96A480088684300FB05F104F5CC
:103210009C70FDF78EFD66480088684300FB05F151
:1032200004F5A470FDF785FD227B114604F59C731F
:1032300004F16000FDF71CF9227B114604F5A4732C
:1032400004F16800FDF714F959480088704300FB49
:1032500005F104F5BC70FDF76CFD55480088684326
:1032600000FB06F104F5C470FDF763FD227BA17B32
:1032700004F5BC7304F18000FDF7FAF8A27B217B12
:1032800004F5C47304F18800FDF7F2F8484800889B
:10329000684300FB05F104F5CC70FDF74AFD227B85
:1032A000114604F5CC7304F19000FDF7E1F84048B5
:1032B0000088704300FB06F104F5D470FDF739FD7A
:1032C000A27B114604F5D47304F19800FDF7D0F801
:1032D00037480088684300FB06F104F5DC70FDF711
:1032E00028FDA27B217B04F5DC7304F1A000FDF72F
:1032F000BFF8227B114604F5E47304F1A800FDF742
:10330000B7F8227B114604F5EC7304F1B000FDF729
:10331000AFF8227B114604F5F47304F1B800FDF711
:10332000A7F8217B04F5FC73012204F1C000FDF72E
:103330009FF8217B04F50273012204F1C800FDF718
:1033400097F89FED1D0A84ED3C0A9FED1B0A84ED62
:103350003D0A9FED1A0A84ED460A9FED180A84ED96
:10336000470A9FED170A84ED660A9FED160A84ED61
:103370006A0A9FED150A84ED6B0A9FED130A84ED2E
:103380006C0A9FED100A84ED6D0A9FED0C0A84ED26
:103390006E0A9FED0D0A84ED6F0A9FED0B0A84ED16
:1033A000700A9FED060A84ED710ABDE8F081000005
:1033B000580200205A0200206F12833ACDCCCC3D37
:1033C0000AD7233CAE47C13F0000000000BFFEE724
:1033D0007047000070B5002100230F22C4781CB391
:1033E000174C246804F4E064C4F5E064C4F30721D6
:1033F000C1F10404E3B20A4144789C40E1B284780C
:10340000144021430C07210E0E4C057861550478B9
:1034100004F01F050124AC4005786D11AD0005F1E5
:10342000E025C5F8004109E0047804F01F050124F7
:10343000AC40054D0678761145F8264070BD000079
:103440000CED00E000E400E080E100E0024901430F
:10345000024A1160704700000000FA050CED00E020
:1034600010B5024801F016F910BD0000A8020020B6
:10347000B0EE401A10B99FED7D0A704790ED100A2A
:1034800080ED110A90ED0F0A80ED100AC0ED060ADA
:1034900080ED071A90ED060AD0ED071A30EE610AAA
:1034A00080ED0F0A0178002979D190ED010AD0ED65
:1034B0000F1A20EE210A80ED090A90ED0A0AD0EDDC
:1034C000021A90ED0F2A01EE820A80ED0A0A90EDB1
:1034D0000D0A80ED0E0A90ED0C0A80ED0D0A90EDBC
:1034E0000F0AD0ED101A30EE610A80ED0C0A90ED53
:1034F000030AD0ED0C1A20EE210A80ED0B0A90EDA4
:103500000B0A80ED120A90ED0A0AD0ED051AB4EE0E
:10351000E10AF1EE10FA04DD90ED050A80ED0A0AE9
:1035200010E090ED0A0AD0ED051AF1EE611AB4EE42
:10353000E10AF1EE10FA05D290ED050AB1EE400A6B
:1035400080ED0A0A90ED090AD0ED0A1A30EE210A40
:10355000D0ED0B1A30EE210A80ED080A90ED080A32
:10356000D0ED041AB4EEE10AF1EE10FA04DD90EDAC
:10357000040A80ED080A76E090ED080AD0ED041AFE
:10358000F1EE611AB4EEE10AF1EE10FA6BD290EDB1
:10359000040AB1EE400A80ED080A64E0FFE7017812
:1035A000012960D190ED0F0AD0ED101A30EE610ABA
:1035B000D0ED011A20EE210A80ED090A90ED020AF1
:1035C000D0ED0F1A20EE210A80ED0A0A90ED0D0AC7
:1035D00080ED0E0A90ED0C0A80ED0D0A90ED0F0AB9
:1035E000D0ED101AB0EE002A02EE610AD0ED111AE9
:1035F00030EE210A80ED0C0A90ED030AD0ED0C1A92
:1036000020EE210A80ED0B0A90ED090AD0ED0A1A8E
:1036100030EE210AD0ED0B1A30EE210AD0ED081A57
:1036200030EE210A80ED080A90ED080AD0ED041A68
:10363000B4EEE10AF1EE10FA04DD90ED040A80ED3B
:10364000080A10E090ED080AD0ED041AF1EE611AB4
:10365000B4EEE10AF1EE10FA05D290ED040AB1EEF3
:10366000400A80ED080A90ED080A06E70000000015
:1036700029B1064A12680243044B1A6004E0034A67
:1036800012688243014B1A607047000030380240D4
:1036900029B1064A12680243044B1A6004E0034A47
:1036A00012688243014B1A607047000040380240A4
:1036B00029B1064A12680243044B1A6004E0034A27
:1036C00012688243014B1A607047000020380240A4
:1036D00029B1064A12680243044B1A6004E0034A07
:1036E00012688243014B1A60704700002438024080
:1036F000F0B5002100220024022500260223324FCB
:103700003F6807F00C0121B1042905D0082937D101
:1037100005E02E4F076036E02D4F076033E02A4F5B
:103720003F1F3F68C7F38056274F3F1F3F6807F092
:103730003F036EB1264FB7FBF3F7DFF88CC0ACF157
:10374000040CDCF800C0CCF3881C07FB0CF40CE084
:103750001E4FB7FBF3F7DFF870C0ACF1040CDCF8D8
:1037600000C0CCF3881C07FB0CF4174F3F1F3F68C9
:10377000C7F301477F1C7D00B4FBF5F7076002E04B
:10378000124F076000BF00BF0F4F3F6807F0F00106
:103790000909104F7A5C0768D74047600A4F3F68B5
:1037A00007F4E051890A0B4F7A5C4768D74087607D
:1037B000054F3F6807F46041490B064F7A5C476844
:1037C000D740C760F0BD0000083802400024F40074
:1037D00000127A00B000002070B590B004460E468A
:1037E000154601210846FFF743FF01214804FFF772
:1037F0004FFF01214804FFF75BFF01214804FFF759
:1038000057FF01214805FFF733FF072203214248F4
:10381000FFF76AFB08200E9002208DF83C00002084
:103820008DF83E0002208DF83D0000208DF83F000D
:103830000EA93948FFF710FB384800F0B3FB3848B1
:103840000A900020ADF82C00ADF82E004FF48060F7
:10385000ADF830000420ADF832000020ADF834009F
:103860000AA92E4800F066FC012240212B4800F0F6
:103870008FFB1021294800F067FB012240F2244110
:10388000264800F031FC0121244800F075FB262079
:103890008DF83C0004208DF83D0000208DF83E009E
:1038A00001208DF83F000FA8FFF794FD1D48FFF79A
:1038B00083F94FF0006001901848001D02900394B6
:1038C00000200490059506904FF48060079000203A
:1038D000089009904FF480700A904FF440300B909C
:1038E00000200C900D900E900F9001A90D48FFF74D
:1038F00035FA002231460B48FFF715FA0121094835
:10390000FFF706FA00210748FFF74AF901210548A9
:10391000FFF746F910B070BD0000024000440040BF
:10392000A0860100886002403248B0F9000010F51E
:10393000257F26D12F48B0F9020010F5257F20D130
:103940002C48B0F90400B0F5257F1AD12948B0F908
:10395000060010F5257F14D1012080F3138800BFE5
:1039600000BFBFF34F8F2448006800F4E060234994
:103970000843001D20490860BFF34F8F00BF00BF00
:10398000FEE71C48807A022807D11A48C07A02282C
:1039900003D100201A4908602AE01648C07A02289C
:1039A00007D11448807A032803D105201449086000
:1039B0001EE01048C07A032807D10E48807A0328F9
:1039C00003D101200E49086012E00A48807A0128DC
:1039D00003D10848C07A032807D00648807A012816
:1039E00006D10448C07A012802D1022004490860A7
:1039F00070470000F80900200CED00E00000FA0517
:103A00008C00002000B101B970470278437842EA87
:103A10000322C2F30A020A804278D210837842EA73
:103A20004312C2F30A024A8082789211C37842EAB2
:103A30008302037942EA8322C2F30A028A8002796E
:103A40005210437942EAC312C2F30A02CA80427991
:103A5000C2F301128A72427912119308CB728279F1
:103A6000C37942EA032212B28A81027A437A42EA95
:103A7000032213B2CB81827AC37A42EA032213B2C1
:103A80000B82037B8B74437BCB74827BC37B42EAC8
:103A900003228A82027C437C42EA032212B20A8118
:103AA0000A88A2F5806212B20A804A88A2F5806272
:103AB00012B24A808A88A2F5806212B28A80CA88CD
:103AC000A2F5806212B2CA800A89A2F5806212B29F
:103AD0000A8100BF98E700000CB50020019000901B
:103AE0003448006840F480303249086000BF3148F3
:103AF000006800F4003000900198401C019000988C
:103B000018B90198B0F5A04FF1D12A48006800F427
:103B1000003010B10120009001E0002000900098DA
:103B2000012846D123484030006840F080502149A8
:103B3000403108602048006840F440401E49086059
:103B40001C48083000681B490831086008460068B6
:103B500040F4004008600846006840F4A050086047
:103B60001648091F0860081F006840F08070091F90
:103B7000086000BF0F48006800F000700028F9D00E
:103B800040F205700E4908600A480830006820F0CD
:103B900003000849083108600846006840F0020048
:103BA000086000BF03480830006800F00C000828D7
:103BB000F8D10CBD003802400070004008544007A6
:103BC000003C0240042808D14FF0E021096941F08F
:103BD00004014FF0E022116107E04FF0E021096994
:103BE00021F004014FF0E0221161704710B506F09A
:103BF00049F9012801D005F0CBFD10BD10B51548DD
:103C0000006840F47000134908601348006840F0F1
:103C100001001149086000200F49083108600E4872
:103C200000680E4908400C4908600D48091D0860ED
:103C3000081F006820F48020091F08600020064942
:103C40000C310860FFF748FF4FF0006001498039F0
:103C5000086010BD88ED00E000380240FFFFF6FE6E
:103C60001030002410B50121034800F060F8012154
:103C7000014800F04DF810BD0004004010B50121CE
:103C8000094800F054F8012808D10848D0E900207C
:103C9000521C40F100000549C1E900200121024801
:103CA00000F036F810BD0000000C0040400000207D
:103CB0007FB504460D4601210820FFF7E9FCA8B2B4
:103CC000ADF800000020ADF802000194ADF8080046
:103CD00069460E4800F046F8012211460B4800F0F4
:103CE00037F80121094800F016F832208DF80C0051
:103CF00006208DF80D0000208DF80E0001208DF8B3
:103D00000F0003A8FFF766FB7FBD0000000C00401A
:103D1000CA430282704721B1028842F00102028048
:103D200004E002884FF6FE731A400280704730B5F7
:103D30000246002000230024158A05EA0103958924
:103D400005EA010413B10CB1012000E0002030BDF0
:103D50001AB183890B43838102E083898B4383817A
:103D60007047000000220288184B98420ED0184B72
:103D700098420BD0B0F1804F08D0164B984205D036
:103D8000154B984202D0154B984204D14FF68F73D1
:103D90001A404B881A43124B984207D0114B984255
:103DA00004D04FF6FF431A400B891A4302804B6838
:103DB000C3620B880385054B984202D0044B98429E
:103DC00001D18B7A03860123838270470000014072
:103DD000000401400004004000080040000C0040C6
:103DE00000100040001400401CB540F2255114485A
:103DF00000F050F9A8B140F22551114800F0ADF89B
:103E00000F4800880E4880880D4800F0FDF9C0B2C8
:103E1000019000236A4601A90A48006805F02AFFBC
:103E20000CE040F22531064800F034F930B10821A9
:103E3000034800F089F8024800F0E6F91CBD0000D4
:103E400000500040AC00002010B540F22551384829
:103E500000F020F918B1364800F0D6F966E040F2DB
:103E60002441334800F016F900285FD0304800F0B4
:103E7000CBF93048FEF767FF48BB00212D48FEF71D
:103E80008FFE2C48FEF75BFFC0F124002A49088012
:103E900024212848FEF78EFF2648006840F40020C1
:103EA00024498839C1F8880024492248FEF75EFE7B
:103EB00001212048FEF774FE1F480088122830D1E7
:103EC0001F492048FFF79EFDFFF72EFD29E0002146
:103ED0001848FEF765FE1748FEF731FFC0F12400D1
:103EE0001549088024211348FEF764FF1148006833
:103EF00020F400200F498839C1F888000F490D4887
:103F0000FEF734FE01210B48FEF74AFE0A480088FE
:103F1000122806D10A490B482430FFF773FDFFF73A
:103F200003FD40F22441024800F017F810BD0000E4
:103F30000044004088600240A000002030000020C3
:103F4000F80900200E0A002001F40072B2F5007F8B
:103F500000D100BFCA430280704710B50022002381
:103F600040F66A14A14200D100BF0A120124944015
:103F7000A3B2DC43048010BD21B1828942F4005217
:103F8000828104E082894DF6FF731A408281704776
:103F90001AB1838A0B43838202E0838A8B43838234
:103FA0007047000010B504463248844208D1012110
:103FB0001020FFF78DFB00211020FFF789FB57E051
:103FC0002D48844209D101214804FFF771FB0021EB
:103FD0004FF40030FFF76CFB4AE02848844209D1D7
:103FE00001218804FFF764FB00214FF48020FFF7D4
:103FF0005FFB3DE02248844209D10121C804FFF75C
:1040000057FB00214FF40020FFF752FB30E01D4822
:10401000844209D101210805FFF74AFB00214FF432
:104020008010FFF745FB23E01748844208D10121A7
:104030002020FFF74DFB00212020FFF749FB17E070
:104040001248844209D101218807FFF731FB002182
:104050004FF08040FFF72CFB0AE00D48844207D167
:1040600001214005FFF724FB00216005FFF720FB3D
:1040700010BD000000100140004400400048004016
:10408000004C004000500040001401400078004007
:10409000007C004070B5024600240023002500206B
:1040A00040F66A16B14200D100BFC1F3421501F0DB
:1040B0001F03012606FA03F3012D02D1968933402E
:1040C00006E0022D02D1168A334001E0968A334081
:1040D0000C12012606FA04F41688344013B10CB110
:1040E000012000E0002070BDF0B50346002400264A
:1040F0000025002040F66A17B94200D100BF1846DB
:10410000C1F3421401F01F06012707FA06F5012C3E
:1041100001D10C3004E0022C01D1103000E0143049
:104120001AB107682F43076002E00768AF430760D2
:10413000F0BD00002DE9FF4705460E460024A146CC
:1041400000BFA046B08900B100BF2C8A24F44054BF
:10415000F08804432C82AC8941F20C608443B0881F
:1041600031890843718908430443AC81AC8A24F443
:104170004074B0890443AC826846FFF7B9FA20481E
:10418000854202D01F48854202D1DDF80C9001E043
:10419000DDF80890A88900F4004040B109EBC9009F
:1041A00000EB091031684900B0FBF1F707E009EBBB
:1041B000C90000EB091031688900B0FBF1F76420F9
:1041C000B7FBF0F004012009642101FB1078A889F5
:1041D00000F4004040B1322000EBC800B0FBF1F029
:1041E00000F00700044308E0322000EB08106421CF
:1041F000B0FBF1F000F00F0004432C81BDE8FF8715
:10420000001001400014014001468888C0F30800F6
:10421000704770B504460D46D4F8E4052946426857
:1042200020469047002070BD70B504460D464FF4FF
:104230008970005D022802D0032812D100E000BF7F
:10424000688801280CD100214FF48C700151D4F8FA
:10425000E4052946826820469047204600F05EF833
:1042600004E02946204600F021F800BF00BF70BDE1
:104270002DE9F04106460C46154600272B462246FE
:1042800000213046FEF706F83846BDE8F0812DE9FA
:10429000F04106460C46154600272B4622460021D3
:1042A0003046FEF752F83846BDE8F08170B5044656
:1042B0000D4680212046FEF724F800212046FEF717
:1042C00020F8204600F0DEFD70BD70B504460025E4
:1042D000052140F21110015500231A4619462046C7
:1042E000FDF7D8FF204600F0CDFD284670BD2DE932
:1042F000F04104460E4615460027C4F83C51C4F868
:104300003851022140F2111001552B46324600214E
:104310002046FEF71AF83846BDE8F08170B504462D
:104320000025042140F21110015500231A461946B8
:104330002046FEF70AF8204600F0A4FD284670BD8E
:1043400070B505460E46002E51D105F58E7440F22B
:104350001110405D02283DD1A168E069884211D961
:10436000A168E069401AE061E878012803D1D4E946
:1043700002100844E060A08B82B22846E168FFF793
:1043800086FF27E0A168206AB0FBF1F201FB120072
:1043900078B9A168206A88420BD3D4E90801884221
:1043A00007D2002211462846FFF771FF0020606205
:1043B00010E0D5F8E405C06848B14FF48970405D5D
:1043C000032804D1D5F8E405C16828468847284663
:1043D000FFF77BFF4FF48B70405D012816D1284614
:1043E00000F014FA00214FF48B7041550EE0D5F81F
:1043F000E405406950B14FF48970405D032805D150
:10440000D5F8E4053146426928469047002070BD42
:1044100070B505460E46A6BB05F55D7440F2111059
:10442000405D03283DD1A168E069884217D9A168A1
:10443000E069401AE061E878012803D1D4E902106C
:104440000844E060A368E069984201D2E06900E0B6
:10445000A06882B22846E168FFF70AFF21E0D5F89C
:10446000E405006948B14FF48970405D032804D128
:10447000D5F8E4050169284688472846FFF74EFF2E
:104480000FE0FFE7D5F8E405806950B14FF489707B
:10449000405D032805D1D5F8E405314682692846F8
:1044A0009047002070BD000070B504460D46E888B6
:1044B000012804D029462046FFF7F8FE1AE04FF401
:1044C0008970005D022802D003280DD105E0012289
:1044D00009492046FFF70BFF0BE0012204F5887124
:1044E0002046FFF704FF04E029462046FFF7DEFEE2
:1044F00000BF00BF70BD000094020020F8B5044664
:104500000E467088001208286CD2DFE800F06B04B9
:1045100016226B6B6166A078D4F8EC150A686946C0
:1045200090470546F088402804D04FF48970005D1C
:10453000012801D10820009059E0A078D4F8E415B2
:104540008A6A69469047054602216970C4F8F055A9
:104550004DE0B078062834D2DFE800F0030B131BDF
:10456000232BA078D4F8EC154A6869469047054695
:104570002CE0A078D4F8EC158A6869469047054687
:1045800024E0A078D4F8EC15CA686946904705463F
:104590001CE0A078D4F8EC150A69694690470546F6
:1045A00014E0A078D4F8EC154A69694690470546AE
:1045B0000CE0A078D4F8EC158A6969469047054666
:1045C00004E031462046FFF771FEF8BD00BF0EE063
:1045D00031462046FFF76AFEF7E731462046FFF7EF
:1045E00065FEF2E731462046FFF760FEEDE700BFCB
:1045F000BDF8000088B1F08878B1F088BDF80010EF
:10460000884202DDBDF8000000E0F0880090BDF8AF
:10461000002029462046FFF76AFE00BFD5E70000CC
:1046200070B504460D464FF48970005D022802D033
:10463000032813D100E000BF01200C4908604FF4AB
:104640008C70005920B10846006840F002000860F4
:10465000022206492046FFF74AFE04E0294620468A
:10466000FFF724FE00BF00BF70BD000098020020CD
:1046700010B50446D4F8E405016A204688470020B6
:1046800010BD10B50446D4F8E405416A20468847B9
:10469000002010BD7CB505460024284600F00EFE23
:1046A000002865D0284600F014FE0190019808B952
:1046B00000207CBD0198C0F3C04018B12846FDF72A
:1046C000C5FF04430198C0F3804018B12846FDF7A8
:1046D00029FF04430198C0F3400050B1002000902E
:1046E000009820F00200801C00900098E968486162
:1046F00000BF0198C00F18B12846FEF727F8044301
:104700000198C0F3C02018B12846FEF7C3F804434F
:104710000198C0F3C00018B12846FEF7A5F804437D
:104720000198C0F3001018B12846FEF745F804437D
:104730000198C0F3003018B12846FEF7FFF8044393
:104740000198C0F3403018B12846FDF725FE044318
:104750000198C0F3005018B12846FEF771F90443E0
:104760000198C0F3405018B12846FEF77FF9044382
:1047700020469EE790F8CC250A7090F8CD254A7027
:1047800090F8CE3590F8CF2503EB02224A8090F8BE
:10479000D03590F8D12503EB02228A8090F8D235EB
:1047A00090F8D32503EB0222CA80CB884FF4A07285
:1047B0001350012340F211121354704710B50446F0
:1047C0000023402219462046FDF730FD00234022F9
:1047D00080212046FDF72AFD01214FF48970015503
:1047E000A078D4F8E82551688847002010BD10B59E
:1047F0000446D4F8E8150869804740F21310015DBB
:10480000401E015503210155002010BD01460348FB
:104810000268086942600020704700005C020020C6
:1048200010B50446D4F8E405C06920B1D4F8E40515
:10483000C16920468847002010BD70B504460D466A
:10484000A88818BBE88808BBA87800F07F064FF45A
:104850008970005D032804D129462046FFF726FD14
:1048600018E04FF48A70065531462046FDF73BFDAF
:104870002046FFF753FD26B102214FF48970015500
:1048800008E001214FF48970015503E029462046D4
:10489000FFF70CFD70BD70B504460D46D4F8E40575
:1048A0002946026820469047D4F8E8158868804772
:1048B000002070BD70B504460D46A87830490870D8
:1048C00008460078012804DD29462046FFF7EEFC63
:1048D00055E04FF48970005D022802D0032848D1CA
:1048E00017E02748007880B12548007884F8100147
:1048F00003214FF489700155214801782046FFF7C4
:10490000CAFF2046FFF70AFD02E02046FFF706FD3A
:1049100034E01B48007880B902214FF489700155BA
:104920001748007884F81001154801782046FFF7F1
:1049300070FC2046FFF7F2FC1AE094F810011049D1
:104940000978884211D094F810112046FFF761FCD5
:104950000B48007884F81001094801782046FFF7D9
:104960009AFF2046FFF7DAFC02E02046FFF7D6FC6C
:1049700004E029462046FFF799FC00BF00BF70BD48
:104980009C020020F8B504460D46002668880128E0
:104990000DD101214FF48C700151D4F8E405294662
:1049A0008268204690472046FFF7B8FC39E06888C7
:1049B000022836D12879A0BB206940680090A888D9
:1049C0000612062E22D2DFE806F02103090F151B7E
:1049D000009820F070001030009017E0009820F050
:1049E00070002030009011E0009820F0700030300E
:1049F00000900BE0009820F070004030009005E03F
:104A0000009820F070005030009000BF00BF0548B3
:104A10000099016001214FF48B7001552046FFF78A
:104A20007DFCF8BD5C0200201CB5044669462046AA
:104A3000FFF7A0FE9DF8000000F01F0020B1012844
:104A400007D002280FD109E06946204600F016F889
:104A500011E06946204600F0F9F80CE0694620466E
:104A600000F046F807E09DF8000000F080012046C5
:104A7000FDF747FC00BF00BF00201CBD70B5054618
:104A80000C46002660780A2829D2DFE800F01923B6
:104A9000281E280A0528140F21462846FFF72EFD58
:104AA00022E021462846FFF7C8FE1DE021462846A1
:104AB000FFF700FF18E021462846FFF7F5FC13E05A
:104AC00021462846FFF7ACFD0EE021462846FFF7B9
:104AD00059FF09E021462846FFF7A6FB04E02146DE
:104AE0002846FFF7E3FB00BF00BF304670BD000063
:104AF0002DE9F04105460E460027347970780028EC
:104B000057D001282BD0032875D14FF48970405D10
:104B1000022802D003281BD107E02CB1802C03D03F
:104B200021462846FDF7EDFB17E0708830B92CB11F
:104B3000802C03D021462846FDF7E3FBD5F8E40599
:104B400031468268284690472846FFF7E7FB04E095
:104B500031462846FFF7AAFB00BF00BF70E04FF4C4
:104B60008970405D022802D003281BD107E02CB1D8
:104B7000802C03D021462846FDF7C3FB17E0708840
:104B800078B95CB1802C09D021462846FDF72AFB74
:104B9000D5F8E40531468268284690472846FFF755
:104BA000BDFB04E031462846FFF780FB00BF00BF95
:104BB00046E04FF48970405D022802D0032837D1C7
:104BC00007E02CB1802C03D021462846FDF799FB45
:104BD00033E004F08000802812D104F07F0000EB65
:104BE000800105F58E7000EBC100807820B10120B6
:104BF0001549086016E022E000201349086011E022
:104C000004F0800070B904EB840105F55D7000EBE1
:104C1000C100807818B101200B49086002E0002033
:104C200009490860022208492846FFF760FB04E0B2
:104C300031462846FFF73AFB00BF00BF00E000BF47
:104C400000BF3846BDE8F0819002002070B50446F0
:104C50000D4600264FF48970005D032814D1287991
:104C600001280CDCD4F8E4052946826820469047E8
:104C7000E88840B93EB92046FFF750FB03E02946DB
:104C80002046FFF713FB04E029462046FFF70EFB02
:104C900000BF00BF304670BD10B504464FF48970A8
:104CA000015D401C01550421401E0155D4F8E81552
:104CB000C8688047002010BD10B50446204603F0A8
:104CC00091F810BD0EB501460020002200920A693D
:104CD000926802928A6912680192029AC2F34102B2
:104CE00032B1012A05D0022A09D0032A0DD101E0F0
:104CF00000BF00BF019A6FF30A02019205E0019A1A
:104D00006FF30A02D21C019200BF00BF019B8A69A7
:104D10001360009A22F4807202F5807200920A6990
:104D20005268009B9A431A430B695A600EBDFEB548
:104D30000246002000240025029500954D78012DA3
:104D400052D193691D6802951D6900954D6955B949
:104D5000009D25F07F050095009D25F4C01505F503
:104D60000025009516E08E684D69B54207D98D681B
:104D70004D610E7A009D66F30605009504E00E7DF8
:104D8000009D66F306050095009D25F4C01505F508
:104D900000250095009D1D61D578012D06D10F7865
:104DA00002F1180555F827500E696E61029D25F035
:104DB000806505F180650295029D25F0004505F1AD
:104DC00000450295029D1D60D578002D59D14D6991
:104DD000002D56D00E780125B5402C4315696D6B1A
:104DE0002543166975634CE00E7802F1540555F8B9
:104DF00026502D6802950E7802F1540555F826507C
:104E00002D6900954D695DB90E7A009D66F3060522
:104E10000095009D25F4C01505F5002500950CE0D2
:104E20008D684D610E7A009D66F306050095009D24
:104E300025F4C01505F5002500950F7802F15405FD
:104E400055F82750009E2E61D578012D06D10F7898
:104E500002F1540555F827500E696E61029D25F048
:104E6000806505F180650295029D25F0004505F1FC
:104E7000004502950F7802F1540555F82750029E1F
:104E80002E60FEBD0EB500210191019921F0404137
:104E9000A1F180410191019921F4C01101F5002196
:104EA0000191019921F07F0118310191019A416D21
:104EB0000A61C178012915D10021009100F2CC517D
:104EC000426D5161416D09680091009921F00041E6
:104ED00001F1004100914FF080210091009A416D55
:104EE0000A6000BF0EBD3CB50246002000240194BC
:104EF00000944C78012C0CD10D7802F1180454F870
:104F000025300D780124AC40009D64F30F05009519
:104F10000BE00D7802F1540454F825300D7801248B
:104F2000AC40009D64F31F4500951C680194019CF2
:104F3000C4F3C034E4B90D89019C65F30A040194FB
:104F4000CD78019C65F3934401948D79019C65F3C0
:104F500099540194019C24F0805404F180540194EC
:104F6000019C24F4004404F500440194019C1C605D
:104F70001469E469009D2C431569EC613CBD38B5AA
:104F800003460020002400944C78012C05D10D78B4
:104F900003F1180454F8252004E00D7803F15404BB
:104FA00054F8252014680094009C24F40014009404
:104FB000CC78032C02D0CC78022C05D1009C24F0B4
:104FC000805404F180540094009C146038BD38B5BE
:104FD00003460A460020002400945478012C18D17E
:104FE000157803F1180454F825100C680094009CFF
:104FF000E40F2CB1009C24F0804404F18044009420
:10500000009C24F4001404F500140094009C0C602F
:105010000EE0157803F1540454F825100C68009440
:10502000009C24F4001404F500140094009C0C600F
:1050300038BDFEB505460C4600260027002002902C
:105040000190607801287ED1217805F1180050F890
:10505000210000680290217805F1180050F8210025
:1050600000690190606948B901986FF312000190DE
:105070000121019861F3DC40019017E0616901981A
:1050800061F3120001906069401EA1680844B0FB02
:10509000F1F1019861F3DC400190E078012805D13D
:1050A000019820F0C04000F100500190227805F1F5
:1050B000180050F8220001990161E878012807D111
:1050C000227805F1180050F82200216941610DE0B5
:1050D000E07801280AD0606940B12178012000FA07
:1050E00001F72869406B384329694863E078012853
:1050F00013D12869806800900098C0F3002030B96F
:10510000029820F0005000F10050029005E0029853
:1051100020F0805000F180500290029820F08060D2
:1051200000F180600290029820F0004000F1004001
:105130000290227805F1180050F8220002990160CF
:10514000E078012800E008E06CD1A08A83B22278E0
:105150002846E16800F0F3F864E0217805F1540096
:1051600050F8210000680290217805F1540050F8B1
:10517000210000690190606950B9A168019861F34C
:10518000120001900121019861F3DC40019013E0CD
:10519000A068401E61690844A168B0FBF1F1019864
:1051A00061F3DC4001900198C0F3C940A168484315
:1051B000019960F312010191227805F1540050F831
:1051C000220001990161E878012806D1227805F1D1
:1051D000540050F8220021694161E07801280ED185
:1051E000607930B1029820F0005000F10050029038
:1051F00005E0029820F0805000F180500290029863
:1052000020F0806000F180600290029820F0004061
:1052100000F100400290227805F1540050F822007D
:10522000029901603046FEBDF8B504460D460026E1
:10523000002700200090009820F0200020300090EF
:10524000009865F38A1000900098E168086100BF3B
:10525000E06800690090781C07460749884200D939
:1052600004E00098C0F340100028F1D100BF0320F3
:10527000FFF722FD3046F8BD400D030008B501469A
:1052800000200A6992680092009AC2F3410232B18A
:10529000012A06D0022A07D0032A07D102E0032000
:1052A00004E000BF022001E0012000BF00BF08BDF4
:1052B0000146C868406900F00100704700B5024629
:1052C0001046FFF7F5FF012801D0012000BD0020A6
:1052D000FCE701460020CA685069CA68926910401C
:1052E00070470146086982690869C069024090B246
:1052F00070470146086982690869C0690240100C5C
:105300007047024602F1540353F82130986813693C
:105310005B6918407047F0B503460024D01CC717DE
:1053200000EB9777BD10D3F8D06000BF03E0306882
:105330000860641C091DAC42F9D30846F0BD2DE994
:10534000F04104460026E078B0B900270020DD1CBB
:105350004FEAE57805EB98784FEAA80704F1D00505
:1053600055F822C000BF04E00D68CCF80050401C86
:10537000091DB842F8D300BF3046BDE8F08100BF38
:10538000FEE700000FB4054B10B503A9044A0298CC
:1053900000F09CFA10BC5DF814FB0000897E000848
:1053A000A00200204100080218BF04200A0E18BF06
:1053B00040F001004FF07F4232EA010108BF40F0A7
:1053C0000200012808BF05207047000070B54FF0AB
:1053D00068422DED048BF0EE408A18EE900AB0EE94
:1053E000608A18EE101A02EB4003B3F1654F3CBF20
:1053F00002EB4102B2F1654F7DD200BFC0F3C7534B
:10540000C1F3C7529A1A1B2A09DD10F0004F14BFCE
:105410009FED830A9FED830ABDEC048B70BD12F1F2
:105420001A0F36DA11F0004F09D010F0004F0CBF00
:105430009FED7D0A9FED7D0ABDEC048B70BD88EE6B
:10544000889A19EE100AFFF7ADFF042808BF00F094
:105450005DF918EE900AFFF7A5FF054618EE100A51
:10546000FFF7A0FF044619EE100AFFF79BFF042D7B
:1054700018BF052D08D1042C18BF052C04D1002815
:1054800004BF022000F05AF9B0EE490ABDEC048BCB
:1054900070BD4200B2EB410F3AD910F0004F19BF76
:1054A000DFED630A9FED630ADFED630A9FED630A98
:1054B000B0EE481A0A46B1EE688A80F00041F0EE7C
:1054C000418A10460A1A5200B2F1807F34D2484015
:1054D00010F0004FDFED5A1A9FED5A2A1DBFBEEEA5
:1054E000001A70EEE10A30EE420AB6EE001A08BF6A
:1054F00070EEA10A00E040E008BF30EE020AB0EE14
:10550000682A01EE482A08EE818AC2EE081A15E0E0
:1055100011F0004F04BF9FED4C0AF0EE400AD1D0CD
:1055200010F0004F19BFDFED490A9FED490ADFED8A
:10553000490A9FED490AC5E7C8EE881A21EEA11A6B
:105540009FED462ADFED462A41EE022A9FED452ACD
:1055500001EE222ADFED442A41EE022A9FED432A82
:10556000BDEC048B01EE222A21EE811A01EE020A23
:1055700030EE210A30EE200A70BD4FF07F42B2EBD0
:10558000400F28BFB2EB410F09D2F0EE480AB0EE4F
:10559000680ABDEC048BBDE8704000F0B4B840EA86
:1055A00001035B0008BF41F0FF410BD0B2EB400F9D
:1055B00008BFB2EB410F08D120F0804008EE900AFE
:1055C00021F0804108EE101A18E7B2EB400F12BF2D
:1055D0005FEA410340F0FF4001F000413FF40EAFAD
:1055E000B2EB410F12BF5FEA400200F0004041F011
:1055F000FF413FF403AF4A0092EA40033FF5FEAE9D
:10560000002AACBF9FED1A0A9FED1A0A68EE808A45
:1056100028EE008A18EE900A18EE101AEEE6000046
:10562000DB0FC9BFDB0FC93FDB0F4940DB0F49C0B0
:105630000000C9BF22AAFDB90000C93F22AAFD3956
:105640000060ED3EC30ACE3700000000000049C0F4
:1056500022AA7DBA0000494022AA7D3A2DAD65BD3F
:105660008FB8D53D0FB511BE61C84C3EA8AAAABEE1
:105670000000804F0000802F2DED020B019820F0DC
:10568000004001909DED000B02B0704700B52DED7C
:10569000048BB0EE409AF0EE609A83B051EC190B97
:1056A000FBF744FE41EC180B18EE100A18EE901AA6
:1056B0008DED008B002818BF0120084320F000402A
:1056C000C0F17F6000F1E040C00F14D019EE101A55
:1056D00019EE900A8DED009B002918BF01210843A7
:1056E00020F00040C0F17F6000F1E040C00F04BF37
:1056F000012000F023F8B0EE480A03B0F0EE680A8B
:10570000BDEC048B00BD30EE200A70479FED020A0D
:1057100020EE000A704700000000001002E008C8F8
:10572000121F08C1002AFAD170477047002001E01B
:1057300001C1121F002AFBD1704700000149086017
:1057400070470000A40200202DE9FF5F82B0002115
:10575000DDE90430020DDDF840B0034318D044F613
:105760001050A2F2FF3242431514119801281FD0A5
:10577000A5EB0B00401C5FEA000A4FF000064E4FFD
:10578000DFF83891B046504615D5CAF1000413E051
:10579000119801244AA3012801D16FEA0B01029854
:1057A000119AC0E90031C0E9024206B0BDE8F09F9D
:1057B000CBF10000DFE704460021404A491842EBE4
:1057C0000450CDE9001012E0E00707D032463B4616
:1057D00040464946FBF75FFB8046894632463B46DA
:1057E00010461946FBF757FB06460F466410002C7F
:1057F000EAD1DDE90401DDE90023BAF1000F06DAA0
:10580000FBF749FB42464B46FBF745FB05E0FBF740
:10581000B4FB42464B46FBF7B0FB04460E46002263
:10582000284BFBF753FC03D84FF0FF30014607E04D
:105830000022254B20463146FBF786FAFBF7C7FDD1
:10584000102409E0002C0ADB0A220023FBF788FC65
:10585000039B30321A55641E50EA0102F2D1641CD7
:10586000039AC4F111031444119A012A03D00122AE
:1058700008430DD10AE0084304D000204FF0110B7B
:10588000119072E7A3EB0B056D1E0DE05B4504DD87
:105890004FF0000205F1010504E003DA4FF00002C9
:1058A000A5F10105002AECD002981199C0E9023156
:1058B000C0E9004579E70000000014400000F03F17
:1058C000300000000000F0430000E03F2DE9FF4FF2
:1058D00095B09A46884606460025EEE1252877D100
:1058E00000242746F94A0121039400E0044316F8F6
:1058F000013F203B01FA03F01042F7D130782A280B
:1059000011D06FF02F033078A0F13002092A16D899
:10591000039A44F0020402EB820203EB42021044B9
:10592000761C0390EFE758F8042B0392002A03DA61
:10593000504244F40054039044F00204761C307842
:105940002E2816D116F8010F44F004042A280DD091
:105950006FF02F023078A0F13003092B09D807EB44
:10596000870302EB4303C718761CF3E758F8047B60
:10597000761C30786C280FD006DC4C2817D06828AD
:105980000DD06A2814D104E0742810D07A280FD1E1
:105990000DE044F400140AE044F4801401E044F4FF
:1059A00040147278824202D104F58014761C761C71
:1059B000307866280BD013DC582877D009DC002813
:1059C00075D04528F6D04628F4D047281AD193E15F
:1059D00018E0632835D0642879D0652812D18BE18E
:1059E000702873D008DC6728F1D069286FD06E2842
:1059F0000DD06F2806D1ACE073282CD0752874D058
:105A0000782853D05246179990476D1C54E1C4F33F
:105A10000250022809D003280DD0D8F8001004281D
:105A20000DD00D6008F1040846E1D8F80010EA171F
:105A3000C1E90052F6E7D8F800100D80F2E70D70CA
:105A4000F0E718F8041B8DF8001000208DF8010015
:105A5000EB46012003E058F804BB4FF0FF3061072C
:105A60004FF0000102D40DE009F101018946B9426D
:105A70000FDA8145F8DB1BF809100029F4D108E0A2
:105A800009F1010189468142FADB1BF8091000295E
:105A9000F6D103985346A0EB090721463846179ADA
:105AA00000F080FA284400EB090507E044E008E133
:105AB0000DE01BF8010B524617999047B9F1010907
:105AC000F7D2534621463846179AF2E039E00A21C8
:105AD000C4F302524FF0000B0091022A06D058F88E
