:020000040800F2
:1000000088B00120590200081B3E0008812F00081B
:10001000193E000825210008A14B0008000000003F
:10002000000000000000000000000000A101000826
:10003000FD2B000800000000F501000861460008E3
:1000400073020008730200087302000873020008BC
:1000500073020008730200087302000873020008AC
:10006000730200087302000873020008730200089C
:10007000730200087302000873020008730200088C
:10008000730200087302000873020008730200087C
:10009000252200087302000873020008730200089A
:1000A000730200087302000873020008730200085C
:1000B00073020008D14600087302000873020008AA
:1000C000730200087302000873020008730200083C
:1000D00073020008730200089D48000873020008BC
:1000E000730200087302000873020008730200081C
:1000F000730200087302000873020008730200080C
:100100007302000873020008ED460008730200083D
:10011000730200083D4800087302000873020008DB
:1001200073020008730200087302000873020008DB
:1001300073020008730200087302000873020008CB
:1001400073020008FD24000873020008730200080F
:1001500073020008730200087302000873020008AB
:10016000730200087302000873020008730200089B
:10017000730200087302000873020008730200088B
:100180007302000873020008DFF810D001F00CF9C8
:10019000004800476D830008AFF3008088B001205D
:1001A0002A4B19680868B0E8F04F80F30988BFF35C
:1001B0006F8F4FF0000080F311887047000000003F
:1001C00006480068006880F3088862B661B6BFF32D
:1001D0004F8FBFF36F8F00DF00BF00BF08ED00E05F
:1001E000DFF80C00016841F470010160704700BF46
:1001F00088ED00E0EFF30980BFF36F8F134B1A68AF
:100200001EF0100F08BF20ED108A20E9F04F10609B
:1002100008B44FF0500080F31188BFF34F8FBFF345
:100220006F8F09F067FA4FF0000080F3118808BC67
:1002300019680868B0E8F04F1EF0100F08BFB0EC66
:10024000108A80F30988BFF36F8F70478800002001
:10025000EFF30580704700000648804706480047D6
:10026000FEE7FEE7FEE7FEE7FEE7FEE7FEE7FEE766
:10027000FEE7FEE775460008890100089FED1A1A9F
:10028000F5EE000A40EE010ABDEEE00AF5EEC00A06
:1002900010EE100AF1EE10FA38BF401E00EE100A00
:1002A0001349F7EE001AB8EEC00A30EEC00ADFEDCF
:1002B0000F0A20EE200AFCEEC00A10EE900AC0F3EE
:1002C000080000EE900A01EB8000F8EE600A90ED65
:1002D000011A70EE600A90ED000A71EEE01A21EE4C
:1002E000800A00EE810A704783F9223E0000004434
:1002F00098A40008DFED190AB5EEC00A60EE200AE6
:10030000BDEEE01A11EE100AF1EE10FA38BF401EF1
:1003100000EE100A1349F7EE001AB8EEC00A30EEEC
:10032000C00ADFED0F0A60EE200ABCEEE00A10EE14
:10033000100AC0F3080000EE100A01EB8000B8EECE
:10034000400A90ED011A70EEC00A90ED000A71EEBD
:10035000E01A21EE800A00EE810A704783F9223EFE
:100360000000004498A4000870B405880E88446812
:10037000D1F804C05368B54208D140884988884202
:1003800001BF11888D425188884203D070BC6FF044
:100390000200704705FB00F1880827D094ED001A91
:1003A000DCED000A94ED010ADCED011A31EE201AB1
:1003B000D4ED020A70EE211A9CED020A83ED001AB8
:1003C000C3ED011A94ED031ADCED031A30EE800A36
:1003D000401E71EE210A83ED020A04F11004C3ED00
:1003E000030A03F110030CF1100CD7D111F0030034
:1003F00030D0B0F1004F30D200282BDD211F1B1F61
:10040000ACF1040210F0010F0AD091ED010AD2ED17
:10041000010A091D121D30EE200A83ED010A1B1D81
:10042000400817D091ED010AD2ED010A401E30EECE
:10043000200A83ED010A91ED020AD2ED020A01F1D0
:10044000080102F1080230EE200A83ED020A03F1EE
:100450000803E7D170BC00207047B4EC010A401ECD
:10046000FCEC010A30EE200AA3EC010AF5D1F1E719
:1004700001804280436070472DE9F34F84B00498B7
:1004800040680090486801900498B0F800E0458802
:10049000DFEDFE0A00200290B0EE600AAE4506D104
:1004A00008884988884204BF7146864504D06FF0A9
:1004B000020006B0BDE8F08F01985FEA010C18BF9A
:1004C000B7EE001A3DD000BFBEEB0C0117D0B1F162
:1004D000004F80F01F82002911DD021F11F0010F73
:1004E0001CBFC2ED010A121D4B1006D0C2ED010A5D
:1004F000C2ED020A08325B1EF8D100EB8100BCF1AC
:100500000102A0EC011A19D0B2F1004F80F008826C
:10051000002A13DD031F12F0010F1CBFC3ED010AF7
:100520001B1D511008D000BFC3ED010AC3ED020A24
:10053000491E03F10803F7D100EB8200BCF1010C66
:10054000C2D14FF000080395002D14BFB0EE602A11
:10055000002000F0BF8100BF009908FB05F001EB0F
:10056000800B0199DBED002A01EB80000346F0EEE1
:10057000421AC64552D9AEEB0802ABEB850112F028
:10058000010F17D001EB850191ED000AB5EEC00A0D
:10059000F1EE10FA07DDB4EEE10AF1EE10FA09DD32
:1005A000F0EE401A06E0B1EE400AF4EEC01AF1EEA9
:1005B00010FAF5D3521031D001EB850C9CED000AF6
:1005C000B5EEC00AF1EE10FA05DDB4EEE10AF1EE87
:1005D00010FA09DD06E0B1EE400AF4EEC01AF1EEC1
:1005E00010FA01D2F0EE401A01EBC50191ED000ABC
:1005F000B5EEC00AF1EE10FA05DDB4EEE10AF1EE57
:1006000010FA09DD06E0B1EE400AF4EEC01AF1EE90
:1006100010FA01D2F0EE401A521ECDD1F5EEC01AFA
:10062000F1EE10FA00F07381F5EEC02A0126F1EE2A
:1006300010FA0099D4BFB1EE620AB0EE620AB4EECD
:10064000610AF1EE10FA1CBFAEEB0802B2F1010C28
:1006500047D005FB08F201EB820292ED001A00BFC1
:10066000B0EE410A05FB06F4B5EEC00A00EB8404C7
:10067000F1EE10FACCBFF0EE400AF1EE400AF4EED3
:10068000610AF1EE10FA28D1B5EB080C11D0BCF1DB
:10069000004F7DD2BCF1000F0BDD00BF92ED000AD0
:1006A000D1ED000ABCF1010CE2EC010AA1EC010A57
:1006B000F4D129000ED0B1F1004F6AD2002909DD32
:1006C00094ED000AD0ED000A491EE4EC010AA0EC0A
:1006D000010AF5D1012002900BE0761CBCF1010C5F
:1006E000BED10298012804D0F5EEC02AF1EE10FA2E
:1006F0007ED09BED000AB5EB08009A4659460646A7
:1007000022D0B0F1004F74D200281DDD091F10F077
:10071000010F06D0F0EE400A80EEA01A81ED011A1A
:10072000091D401010D000BFD1ED010A401E80EE1F
:10073000801A81ED011A91ED021AC1EE000AC1ED95
:10074000020A01F10801EFD1280026D0B0F1004FD4
:100750007ED2002821DDAAF1040110F0010F06D09D
:10076000D1ED010A80EE801A81ED011A091D4010B9
:1007700013D000BFD1ED010A401E80EE801A81ED3A
:10078000011AD1ED020A80EE801A81ED021A01E011
:10079000CBE0D6E001F10801ECD1DDE900124FF029
:1007A00000095FEA0E0773D0C14504BF01EB860163
:1007B00002EB850274D091ED000ADC46504633000E
:1007C00035D01C46B6F1004F7ED2002C2FDD0B1F1A
:1007D000ABF1040C16F0010F0FD0F0EE400ADCED87
:1007E000011AB0EE601A00EEE11A83ED011A01E081
:1007F0008DE0B1E01B1D0CF1040C741015D000BF8E
:10080000D3ED010A9CED011A40EE410AC3ED010A45
:10081000D3ED020A9CED021A0CF1080C40EE410ADD
:10082000C3ED020A0833641EEAD101EB86012B00F6
:1008300036D0B3F1004F72D2002B31DDA2F1040C9F
:10084000AAF1040013F0010F0CD0DCED010A00E066
:100850008BE090ED011A001D40EE410ACCED010A3B
:100860000CF1040C5C1019D0DCED010A90ED011ABA
:1008700040EE410ACCED010ADCED020A90ED021ACD
:10088000083040EE410ACCED020A03E0000000000F
:100890000DE005E0641E0CF1080CE5D102EB8302CB
:1008A00001EB88017F1E09F101097FF47DAF0098FB
:1008B00008F10108001D00900398401E03907FF48A
:1008C0004BAE0299012900E058E004BF06B0BDE834
:1008D000F08F00BFB5EEC00AF1EE10FA7FF4E9AD7B
:1008E00004990EFB05F3002B4A684FF000010BD969
:1008F00002EB810C9CED000AB5EEC00AF1EE10FA95
:1009000002D1491C8B42F3D88B427FF4D2AD6FF0F9
:100910000400CEE5E0EC010A491EFBD1EFE538E02A
:10092000E0EC010A521EFBD108E692ED000AD1ED7F
:10093000000ABCF1010CE2EC010AA1EC010AF4D1BD
:10094000B7E694ED000AD0ED000A491EE4EC010A76
:10095000A0EC010AF5D1BDE6D1ED000A401E80EE03
:10096000801AA1EC011AF7D1EEE6D3ED000A401E81
:1009700080EE801AA3EC011AF7D10EE7BCEC011A45
:10098000D1ED000A5B1E40EE410AE1EC010AF5D10F
:100990004DE7B0EC011AD2ED000A5B1E40EE410AB1
:1009A000E2EC010AF5D17BE72DE9F04F82B0466811
:1009B00053680193058847884B8800200090088879
:1009C000874201BFB2F800C06545528893421EBFFE
:1009D0006FF0020002B0BDE8F08F9FED412A4FEAB0
:1009E000970EC7F3400B00BFDDE9000202EB800A5F
:1009F0004A6898464FF00009B0EE420AB4465FEAF2
:100A00000E0025D092ED001ADCED001A02EB8302F5
:100A1000DCED010A01EE810A92ED001A02EB83027D
:100A2000401ED2ED001A02EB830200EE810A9CED1B
:100A3000021ADCED030A00040CF1100C000C01EEAC
:100A4000210A92ED001A02EB830200EE810AD9D14D
:100A500017F0030026D0ACF10404A2EB830210F0DF
:100A6000010F08D002EB8302D4ED010A92ED001AC7
:100A7000241D00EE810A5FEA0B0013D002EB830C09
:100A8000D4ED010A9CED001A02EBC302401E00EEF9
:100A9000810AD4ED020A92ED001A04F1080400EE76
:100AA000810AEBD109F10100AAEC010A1FFA80F9D1
:100AB000486800EB8902A8F101001FFA80F8B8F13C
:100AC000000F99D1009806EB8706184480B2009079
:100AD000681E05042D0C87D102B00020BDE8F08F00
:100AE0000000000070B405880E884468D1F804C086
:100AF0005368B54208D140884988884201BF1188AF
:100B00008D425188884203D070BC6FF0020070475C
:100B100005FB00F1880827D094ED001ADCED000AEF
:100B200094ED010ADCED011A31EE601AD4ED020AEF
:100B300070EE611A9CED020A83ED001AC3ED011AF2
:100B400094ED031ADCED031A30EEC00A401E71EE7C
:100B5000610A83ED020A04F11004C3ED030A03F1F4
:100B600010030CF1100CD7D111F0030030D0B0F10C
:100B7000004F30D200282BDD211F1B1FACF10402D7
:100B800010F0010F0AD091ED010AD2ED010A091D02
:100B9000121D30EE600A83ED010A1B1D400817D0BC
:100BA00091ED010AD2ED010A401E30EE600A83ED9C
:100BB000010A91ED020AD2ED020A01F1080102F1E7
:100BC000080230EE600A83ED020A03F10803E7D160
:100BD00070BC00207047B4EC010A401EFCEC010A16
:100BE00030EE600AA3EC010AF5D1F1E72DE9F04FF0
:100BF00002884768B0F802804888D1F8049082B033
:100C00004FF0000A1646824207BF098888456FF0F8
:100C1000020002B018BFBDE8F08F4FEA980B02EB5C
:100C200042000190C8F34000CDF8000009EB8A01B2
:100C3000BBF1000F33D0019801EB820C01EB800473
:100C40003B46E64601EBC2054FEA0B0093ED000A76
:100C5000401E81ED000A93ED010A01EB02118CEDBB
:100C6000000A93ED020A0CEB021C85ED000A93EDDD
:100C7000030A05EB021584ED000A04EB021403F1EC
:100C80001003E3D10EEB820000EB820000EB820147
:100C9000ABF10100504307EB0B1701EB001118F00B
:100CA000030C21D03B1FA1EB82011CF0010F06D0E9
:100CB00093ED010A01EB82011B1D81ED000A0098F2
:100CC00080B100BF93ED010A01EB820401EBC20188
:100CD00084ED000A93ED020A401E81ED000A03F143
:100CE0000803EFD107EB8C070AF101001FFA80FA25
:100CF000701E0604360C99D102B00020BDE8F08FBA
:100D000040EA01039B0703D009E008C9121F08C08D
:100D1000042AFAD203E011F8013B00F8013B521E0D
:100D2000F9D27047D2B201E000F8012B491EFBD284
:100D300070470022F6E710B513460A4604461946E6
:100D4000FFF7F0FF204610BD2DE9FE4F804681EAF7
:100D50000300C00F0C46009021F0004123F0004535
:100D6000B8EB0200A94105D24046214690461C46F8
:100D70000B46024623F00040104347D0270DC7F32F
:100D80000A00C3F30A510290401A019040286BDA1E
:100D9000C3F3130040F4801B0098924620B1002357
:100DA000D2EB030A63EB0B0B01985946C0F14002EA
:100DB000504600F0F3F906460D4650465946019A52
:100DC00000F0FBF910EB08006141002487EA1152A2
:100DD00084EAE7731A4340D0009A62B3019A012A69
:100DE0004FEA075215DC001B61EB02014FF0004295
:100DF00002EA0752CDE90042001C41F5801132465B
:100E00002B4600F032FA03B0BDE8F08F4046214691
:100E1000F9E7001B61EB0201001C41F5801300188B
:100E20005B412018A2F5001747EB030140EAD5709B
:100E3000B6196D4111E06D084FEA360645EAC075F6
:100E40004FEA0752001B61EB0201001C41F58011C3
:100E500049084FEA30000019514132462B4603B091
:100E6000BDE8F04F00F0F2B90098012240000023E5
:100E7000D0EB020263EBE073009821464FEAE07486
:100E8000B8EB000061EB0401E9E783F000435BE7A6
:100E900081F0004158E72DE9FE4F81EA030404F098
:100EA000004421F0004100944FF0000B23F0004378
:100EB00050EA01045ED052EA03045BD0C3F30A5443
:100EC000C1F30A552C44A4F2F3340194A0FB02545C
:100ED000C1F3130141F48011C3F3130343F48013EE
:100EE00001FB024400FB034E840A970A44EA815442
:100EF00047EA8357A4FB076802958D0A05FB07851F
:100F00004FEA932C04FB0C542705029D4FEA065828
:100F100047EA1637B5EB08056EEB070C870E920E05
:100F200047EA811742EA8312A7FB0201B6EB0B01E5
:100F300064EB00042B0D43EA0C335E1844EB1C50A9
:100F4000DA465146E7FB0201C5F313044FEA0B33BF
:100F500043EA14534FEA0432019C43EA0603A4F126
:100F60000C040294009CCDE900B400F07EF903B0BB
:100F7000BDE8F08F00200146F9E72DE9F04D81EA48
:100F8000030404F0004B21F0004514464FF0000A22
:100F900023F0004150EA050220D054EA01021DD09E
:100FA000C5F30A570246C5F31303C1F31300C1F397
:100FB0000A5640F4801543F48013A7EB0608101B73
:100FC000D64608F2FD3873EB050002D308F101089C
:100FD00001E092185B41B8F1000F03DA00200146EE
:100FE000BDE8F08D00204FF48011064684460EE0E7
:100FF000171B73EB050705D3121B63EB05030643B1
:101000004CEA010C49084FEA300092185B4150EA63
:101010000107EDD152EA030012D082EA040083EA0C
:101020000501084305D0101BAB4106D20122002365
:1010300006E000224FF0004302E06FF0010253107F
:101040001AEB06004CEB085110EB0A0041EB0B01C8
:10105000BDE8F04D00F0FAB830B40446962308001D
:10106000214604D0B62330BC002200F0C1B820468F
:101070000021F8E70EB5C10F80EAE0700844CA0706
:10108000002140F233438DE80E000A460B4600F083
:10109000ECF803B000BD0EB540F2334102910021DF
:1010A000CDE900110A460B4600F0DFF803B000BDA1
:1010B00000F0004230F000400AD0C10D01F560712F
:1010C000C0F3160042EA0151C208400711437047BD
:1010D000002001467047000030B5041E71F1000485
:1010E00004DB4FF00044404264EB0101141E73F135
:1010F000000405DB1C464FF00043524263EB04033F
:101100008B4208BF824230BD30B5041E71F100042D
:1011100004DB4FF00044404264EB0101141E73F104
:10112000000405DB1C464FF00043524263EB04030E
:10113000994208BF904230BD01F0004330B421F025
:10114000004150EA010206D00A0DA2F56072C1F317
:101150001301002A02DC30BC00207047440F44EA2F
:10116000C104C100E01830BC00EBC25000F037B839
:1011700030B50B46014600202022012409E021FA67
:1011800002F59D4205D303FA02F5491B04FA02F564
:101190002844151EA2F10102F1DC30BD202A04DB37
:1011A000203A00FA02F1002070479140C2F120037A
:1011B00020FA03F3194390407047202A06DBCB172F
:1011C000203A41FA02F043EAE07306E041FA02F302
:1011D000D040C2F1200291400843194670470029CF
:1011E000A8BF7047401C490008BF20F001007047AD
:1011F00010B4B0FA80FC00FA0CF050EA010404BF0D
:1012000010BC704749B1CCF1200421FA04F411FA62
:101210000CF118BF012121430843A3EB0C01CB1DA6
:101220004FEA00614FEA102042BF002010BC704717
:1012300000EBC35010440029A4BF10BC7047401CF1
:10124000490008BF20F0010010BC704710B5141E03
:1012500073F1000408DA401C41F1000192185B416F
:101260001A4301D120F0010010BD2DE9F04D924646
:101270009B4611B1B1FA81F202E0B0FA80F220325D
:101280009046FFF78BFF04460F4640EA0A0041EA0A
:101290000B0153465A46084313D0114653EA010046
:1012A00019D0C8F14002504600F090F805460E46AD
:1012B000504659464246FFF771FF084305D00120CA
:1012C00004E020463946BDE8F08D0020054346EA9B
:1012D000E0762C4337430A986305E40AA0EB080044
:1012E0000022FD0A44EA47540A3002D50020014694
:1012F000E9E7010510196941DDE90845001969416F
:10130000BDE8F04DA2E72DE9F04D00231A461B1A67
:101310008A4103DB00200146BDE8F08DC1F30A528B
:10132000C1F3130141F480154FF0000BD10702D136
:1013300000186D41521E0027044640F2FF11384646
:1013400001EB620A3E468046024600204FF48011BF
:1013500000F03CF8C2197141BB1846EB0100B4EB38
:10136000030C75EB000C04D3E41A65EB000517467B
:101370000E46241908F101006D4180463428E3DD52
:10138000F91946EB0600091BA84103D24FF0FF32C2
:10139000134601E0002213461BEB070046EB0A51FF
:1013A000BDE8F04DFFF752BF064C074D06E0E06880
:1013B00040F0010394E8070098471034AC42F6D39C
:1013C000FEF7E6FEB0AE0008D0AE0008202A04DB2F
:1013D000203A21FA02F00021704721FA02F3D040AE
:1013E000C2F12002914008431946704770B5C1F31D
:1013F0000A5201F000450024C1F3130140F2FF330B
:1014000041F480119A4201DA002070BD40F233436A
:101410009A42A2F2334203DC5242FFF7D7FF00E0C8
:1014200090402C43F1D0404270BD70B58C1810F83C
:10143000015B15F0070301D110F8013B2A1106D119
:1014400010F8012B03E010F8016B01F8016B5B1E33
:10145000F9D12B0705D40023521E0DD401F8013B0E
:10146000FAE710F8013BCB1A921C03E013F8015B7A
:1014700001F8015B521EF9D5A142D8D3002070BDFE
:1014800030B52DED068BC9B09FED7A8A7A4D0024D8
:10149000B0EE489AF0EE488ADFED789AB0EE00AAF6
:1014A000DFED77AA2A1DA91C734802F0FFF8B5F9F1
:1014B000000048AA00EE100A47A9B8EEC00A20EEC4
:1014C000290A20EE0A0A20EE2A0A8DED460AB5F90D
:1014D000020000EE100AB8EEC00A20EE290A20EE43
:1014E0000A0A20EE2A0A8DED470AB5F9040000EE3B
:1014F000100A46A8B8EEC00A20EE290A20EE0A0A11
:1015000020EE2A0A8DED480A04F0F8FF9DED460A08
:10151000032039EE009A9DED470A78EE808A9DED12
:10152000480A38EE008A06F073FF641CE4B2642CAB
:10153000B8D3DFED541A89EE210A88EEA11A8DED99
:10154000460A20EE000AC8EE210A8DED471A01EE88
:10155000010ACDED480A00EEA00A06F065FF9DEDF8
:10156000461AC1EE000A10EE900AFFF7A1FD41EC09
:10157000100B03F055FB9FED44AB51EC100B53ECFB
:101580001A2BFFF788FC9DED480A41EC180BB1EED1
:10159000400A10EE100AFFF78BFD9DED470A41EC63
:1015A000190BB1EE400A10EE100AFFF781FD41EC75
:1015B000100BB0EE491AF0EE691A03F04DFE53EC31
:1015C0001A2B51EC100BFFF766FC9FED311B53EC0F
:1015D000112BFFF75AFC41EC100B9FED2F2BB0EEB7
:1015E000481AF0EE681A34A800F0F4FB482234A937
:1015F00022A8FFF785FB402224A96846FFF780FB5D
:10160000DDE9222334A802F0D9FB482234A910A82E
:10161000FFF776FB382214A96846FFF771FB10AC80
:1016200094E80F0002F0D2F9B0EE41AAF0EE61AA00
:10163000B0EE429AF0EE629AB0EE438AF0EE638A20
:1016400051EC100BFFF778FD154C606051EC1A0B54
:10165000FFF772FDA06051EC190BFFF76DFDE06024
:1016600051EC180BFFF768FD206149B0BDEC068B0B
:1016700030BD000000000000F0A001200000003894
:101680000AE81C410000C84200000000DCA54C40F4
:101690000000000000806640000000000000000024
:1016A000100200203EB5224C221DA11C204601F054
:1016B000FDFFB4F900006A4600EE100A01A9F8EE39
:1016C000C00A9FED1C0A20EE801AF0EE000A61EEBF
:1016D000201A9FED191A61EE811ACDED021AB4F9A4
:1016E000020001EE900AF8EEE11A61EE801A61EE56
:1016F000A01A61EE811ACDED011AB4F9040001EED1
:10170000900A02A8F8EEE11A21EE800A20EE200AE3
:1017100020EE010A8DED000A04F0F0FE9DED001AA6
:10172000DDED010A9DED020A00F0F0FA3EBD000079
:10173000F0A00120000000380AE81C4130B52DED72
:10174000108B89B0FE4CFF48D4ED011A21EEA10A9E
:101750008DED000A94ED021AD4ED030A94ED040A0B
:1017600061EE81DA21EEA0DA61EE801A61EE20FAF4
:1017700020EEA0CACDED051A61EE011A60EE80BA26
:1017800061EE00CACDED011AD0ED040A20EE00BAD8
:10179000CDED080AD0ED050ACDED070A90ED061A49
:1017A0008DED061AD0ED00EA90ED01AAD0ED02AA67
:1017B00090ED07EAD0ED089A90ED099A01F07EFBD2
:1017C00084ED100B94ED0E0B53EC102B94ED100BDD
:1017D00051EC100BFFF759FBFFF7AEFC00EE900A3F
:1017E0009FEDD91A80EE810A10EE100AFFF760FC17
:1017F00094ED100B41EC180B84ED0E0B2EEEAE0A9F
:101800000AEE0A0A0AEEAA0A06F09AFD6EEE800AAD
:10181000CDED040A6AEE000A2AEE800ACDED030A35
:101820008DED020A2EEE0E0A09EEA90A09EE090A4A
:1018300006F086FD2EEE00EA69EE80EA29EE00FA57
:10184000DDED080A9FEDC10A9DED061A60EE801AD3
:10185000DDED070A21EE001A60EE800A9FEDBC0A5A
:10186000BC4821EE80AA20EE809A61EE009AB0EE8C
:10187000CA0A10EE101A9FEDB80A814201DAB0EEE2
:1018800040AAF0EEC90A10EE901A814201DAB0EED9
:10189000409AF0EEE90A10EE901A814201DAF0EE79
:1018A000409AF6EE002AF0EE00AA32EECC0A6EEE76
:1018B0002A1A2EEEAA1A30EE4B0A8DED070A21EEF7
:1018C000802A9DED050A7FEEC00A3CEE8D0ACDED23
:1018D000060A01EE202A6FEE2A0A9DED013A72EE09
:1018E000C32A00EE802A9DED050A32EECB3A3FEE88
:1018F000800A7CEECDFA72EECC3A21EE800A01EE3F
:10190000030A3BEEED3A00EE830A21EEAF3A7BEE9E
:10191000AD1A84ED000A01EE213ACDED053A00EE54
:10192000A33A62EE020A40EE000A8DED083A10EE8C
:10193000900AFFF7BDFB41EC100B03F0ADFF51EC3B
:10194000100BFFF7F9FBDDEC020A00EE100A9DED2B
:10195000083A7DEEAB3A6FEEAA1A23EE2A3A70EE01
:10196000C10A20EE2A1A23EEAA2A9DED070A70EE7C
:10197000CC0A21EE000A70EE8B2ADDED060A03EE9A
:101980002F0A61EE200A43EE230A7DEE2C3A21EE67
:10199000231ADDED053A03EE231A9DED033A63EEBB
:1019A000223A9DED023A43EE423A2EEE813A0FEE94
:1019B000603A6EEE200A4EEEC00A73EE83BA9DEDD9
:1019C000023ADDED043A23EE213A03EEE23A6FEEFD
:1019D000002A2AEE0A0A4EEE412A09EE090A23EEEF
:1019E000821A9DED032A02EE611A09EEA90A33EE6E
:1019F00022BA31EE20CA10EE100AFFF759FB41EC73
:101A0000100B03F049FF51EC100BFFF795FB534906
:101A1000884210DA04F120000BEEAAAA90EC030A27
:101A20000BEE2A9A4CEE2A9A3AEE00AA39EE209A48
:101A300079EE819A05E03AEE2BAA39EE0B9A79EE0F
:101A40008C9AD4ED02DA94ED03DAD4ED04BA2DEEDB
:101A5000CA0A0DEE490A0BEEE90A10EE100AFFF76A
:101A600027FB53EC182BFFF716FA94ED01BA41EC63
:101A70001C0B1BEE100AFFF71BFB53EC1C2BFFF794
:101A800063F9FFF759FB2BEE0A0A0EEE100A0DEE72
:101A9000290A0BEEC90A10EE100AFFF709FB53ECF6
:101AA000182BFFF7F8F941EC1C0B1DEE900AFFF71D
:101AB000FFFA53EC1C2BFFF747F9FFF73DFB2BEE2A
:101AC000090A0EEE900A0DEEE90A0BEE8A0A10EEF4
:101AD000100AFFF7EDFA53EC182BFFF7DCF941EC95
:101AE0001C0B1DEE100AFFF7E3FA53EC1C2BFFF75B
:101AF0002BF9FFF721FB2BEE290A0CEE100A0DEE55
:101B0000890A0DEE4A0A10EE100AFFF7D1FA53ECDB
:101B1000182BFFF7C0F941EC180B1BEE900AFFF7EA
:101B2000C7FA53EC182BFFF70FF9FFF705FB2EEE62
:101B30000E0A08EE100A0EEEAE0A0CEE0C0A0FE0CA
:101B400010020020C8A001200000FA44F8C1F93CAE
:101B500035FA8E3CA69B443B000000009CC4A03E8E
:101B600008EE080A06F0ECFB6EEE00BA6EEE80CAD4
:101B70006CEE008AC4ED01BA28EE008AC4ED02CAF8
:101B8000C4ED038A84ED048A94ED0C0AB8EE00AA31
:101B900084ED0B0A28EE8A0A68EE2A0AB7EE00BA2C
:101BA00020EE280A00EEC80A30EE0B0A10EE100AEA
:101BB000FFF77EFA2CEEAA0A6BEEAA0A41EC190B8B
:101BC00020EE280A00EE880A10EE100AFFF770FADD
:101BD00041EC100BB0EE491AF0EE691A03F03CFB31
:101BE0009FED438B51EC100B53EC182BFFF753F97F
:101BF000FFF7A2FA206394ED020AD4ED040A94EDF3
:101C0000031A20EE0A0A20EE200AD4ED010A60EE43
:101C1000AA0A00EE810A10EE100AFFF749FA41EC19
:101C2000100B02F0FDFF53EC182B51EC100BFFF7DB
:101C300032F9FFF781FA304DA86094ED029A29EE4F
:101C40000A0A60EE090A94ED030A60EE2A9A49EE48
:101C5000C00A30EE8B0A10EE100AFFF729FA94ED55
:101C6000040AD4ED010A41EC180B29EE800A60EE5B
:101C7000AA0A00EE890A10EE100AFFF719FA41ECE1
:101C8000100BB0EE481AF0EE681A03F0E5FA9FED7B
:101C90001B1B51EC100B53EC112BFFF7FCF8FFF75B
:101CA0004BFAE860D4ED0C0A94ED0B0A154930EEBE
:101CB000C00A10EE100A884202DB606B401E06E08C
:101CC00010EE100A10498842606B01D3401C60631B
:101CD0004FF4B471484300EE100AB8EEC00A30EE7B
:101CE000200A85ED040A09B0BDEC108B30BD000060
:101CF00000000000DCA54CC040A101200000000055
:101D0000DCA54C400000A5430000A5C3014880ECC1
:101D1000030A7047C8A0012070B52A4D00242DED9C
:101D2000068BB0EE00AA9FED268ADFED279ADFED45
:101D300027AAB0EE489AF0EE488A2A1DA91C21482D
:101D400001F0B4FCB5F9000000EE100AB5F902008C
:101D5000B8EEC00A20EE290A20EE0A0A00EE2A9AFE
:101D600000EE100AB5F90400B8EEC00A20EE290A08
:101D700020EE0A0A40EE2A8A00EE100A0320B8EE8E
:101D8000C00A20EE290A20EE0A0A00EE2A8A06F08E
:101D90003FFB641CE4B2C82CCFD30A489FED0C0A69
:101DA0002830C9EE000AC0ED000AC8EE800AC0ED76
:101DB000010AC8EE000AC0ED020ABDEC068B70BD38
:101DC00000000000F0A00120000000380AE81C41DB
:101DD0000000C84210B504462DED0C8B92B0B0EE59
:101DE000409AF0EE609AB0EE41AAF0EE61AA9FED43
:101DF000CB8B51EC120B53EC182BFFF74CF841EC4A
:101E00001B0B53EC182B51EC1A0BFFF744F841EC69
:101E10001A0B53EC182B51EC190BFFF73CF841EC63
:101E2000190BB0EE4B0AF0EE6B0A03F06DFCB0EE4E
:101E3000408AF0EE608AB0EE4A0AF0EE6A0A03F0D9
:101E400063FC53EC182B51EC100BFFF724F8B0EEA9
:101E50004B0AF0EE6B0ACDE9000103F0B9FCB0EEDD
:101E6000408AF0EE608AB0EE490AF0EE690A03F0AB
:101E70004BFC53EC182B51EC100BFFF70CF841EC1A
:101E80001D0BB0EE4B0AF0EE6B0A03F03DFCB0EE1A
:101E900040CAF0EE60CAB0EE4A0AF0EE6A0A03F0F9
:101EA00097FCB0EE408AF0EE608AB0EE490AF0EEA0
:101EB000690A03F08DFC53EC182B51EC100BFEF764
:101EC000EAFF53EC1C2BFEF7E6FF53EC1D2BFEF74D
:101ED000DCFFB0EE4B0AF0EE6B0ACDE9020103F035
:101EE00077FCB0EE408AF0EE608AB0EE490AF0EE80
:101EF000690A03F06DFC53EC182B51EC100BFEF744
:101F0000CAFF41EC1D0BB0EE4B0AF0EE6B0A03F07A
:101F1000FBFBB0EE40CAF0EE60CAB0EE4A0AF0EE4B
:101F20006A0A03F055FCB0EE408AF0EE608AB0EE2B
:101F3000490AF0EE690A03F0E7FB53EC182B51EC69
:101F4000100BFEF7A8FF53EC1C2BFEF7A4FF53EC7D
:101F50001D2BFEF7F9FEB0EE4B0AF0EE6B0ACDE951
:101F6000040103F035FCB0EE408AF0EE608AB0EE7A
:101F70004A0AF0EE6A0A03F0C7FB53EC182B51EC47
:101F8000100BFEF788FFB0EE4B0AF0EE6B0ACDE9BE
:101F9000060103F0B9FBB0EE408AF0EE608AB0EEC5
:101FA000490AF0EE690A03F0AFFB53EC182B51EC31
:101FB000100BFEF770FF41EC1D0BB0EE4B0AF0EE7C
:101FC0006B0A03F005FCB0EE40CAF0EE60CAB0EE5A
:101FD0004A0AF0EE6A0A03F0FBFBB0EE408AF0EE2C
:101FE000608AB0EE490AF0EE690A03F0F1FB53ECA7
:101FF000182B51EC100BFEF74EFF53EC1C2BFEF789
:102000004AFF53EC1D2BFEF79FFEB0EE4B0AF0EE9D
:102010006B0ACDE9080103F077FBB0EE408AF0EEE1
:10202000608AB0EE490AF0EE690A03F0D1FB53EC86
:10203000182B51EC100BFEF72EFF41EC180BB0EEF5
:102040004B0AF0EE6B0A03F0C3FBB0EE40CAF0EEB1
:1020500060CAB0EE4A0AF0EE6A0A03F0B9FBB0EECD
:1020600040BAF0EE60BAB0EE490AF0EE690A03F049
:102070004BFB53EC1B2B51EC100BFEF70CFF53ECFE
:102080001C2BFEF708FF53EC182BFEF7FEFEB0EEFC
:102090004A0AF0EE6A0ACDE90A0103F099FB51EC15
:1020A000100B81F00041B0EE4A0AF0EE6A0ACDE969
:1020B0000C0103F029FBB0EE408AF0EE608AB0EE2E
:1020C000490AF0EE690A03F083FB53EC182B51EC3C
:1020D000100BFEF7E0FEB0EE4A0AF0EE6A0ACDE918
:1020E0000E0103F011FBB0EE408AF0EE608AB0EE14
:1020F000490AF0EE690A03F007FB53EC182B51EC88
:10210000100BFEF7C8FECDE91001482269462046B3
:10211000FEF7F6FD12B0BDEC0C8B10BD000000A068
:1021200046DF913FFEE700002DE9F04F8BB08A4675
:1021300081461E46904601210220DDF850B001F094
:102140003FFF0121480601F047FF4FF44070079020
:1021500002208DF8200000248DF8224003208DF805
:1021600021002E4F01258DF8235007A9384600F095
:102170001BFE09220821384600F052FE09221146B2
:10218000384600F04DFE8DF802B08DF803908DF8C2
:1021900006408DF80840ADF800608DF807508DF8C6
:1021A00009501F4E8DF80A408DF804808DF80B40C1
:1021B0008DF805A06946304600F044FA8DF81640C7
:1021C0008DF817408DF81850ADF80C40ADF8104060
:1021D000ADF80E40ADF81240ADF814408DF819502E
:1021E00003A800F0C1F90022E903304600F022FA0A
:1021F00001220221304600F01DFA14208DF824003F
:1022000007208DF825008DF826408DF8275009A865
:1022100001F004FE0BB00020BDE8F08F0004024086
:102220000064004010B586B06A460021424800F0C4
:102230007DFA424A0098A0F110015060032978D835
:10224000102806D011280CD0122812D0132818D02C
:102250001EE0D2E90413491C43F10003C2E9041350
:1022600016E0D2E90613491C43F10003C2E9061344
:102270000EE0D2E90813491C43F10003C2E9081338
:1022800006E0D2E90A13491C43F10003C2E90A132C
:102290002B4BC0EBC0009DF80B1003EB8000A0F5AA
:1022A000E07009090160BDF80C10DFED260A49BA9B
:1022B00041609DF80E109FED240A0C019DF80F104F
:1022C00044EA111484609DF8104001F00F0144EAC3
:1022D0000121C1604068102106F0BCFE50680C214D
:1022E000C0EBC00003EB8000DFED180A00ED6C0AC4
:1022F000A0F580509FED160AD0F8480E06F0AAFE11
:1023000050680C21C0EBC00003EB8000F3EE0E0A16
:1023100000ED6B0AA0F58050BBEE0E0AD0F84C0E13
:1023200006F098FE5068C0EBC00003EB800000EDA3
:102330006A0A06B010BD00000064004030000020B2
:1023400084030020DA0F4940DA0F49C0000034420C
:10235000000034C200B585B06946009000208DF8B9
:1023600008008DF8090008208DF80A00FF208DF87C
:102370000C008DF80D008DF80E008DF810008DF812
:102380000B008DF80F008DF81100FD208DF8120064
:10239000024800F012FA05B000BD000000640040E1
:1023A00000B585B06946009000208DF808008DF8D2
:1023B000090008208DF80A00FF208DF80C008DF828
:1023C0000D008DF80E008DF810008DF80B008DF8C3
:1023D0000F008DF81100FC208DF81200024800F06B
:1023E000ECF905B000BD0000006400402DE9F04F9D
:1023F0008BB08A4681461E46904601210220DDF8B8
:1024000050B001F0DDFD01218C06204601F0E4FD15
:102410000121204601F0ECFD0021204601F0E8FDFD
:102420006020079002208DF8200000248DF82240C3
:1024300003208DF821002F4F01258DF8235007A987
:10244000384600F0B1FC09220521384600F0E8FCCE
:1024500009220621384600F0E3FC8DF802B08DF821
:1024600003908DF806408DF80840ADF800608DF8B7
:1024700007508DF80950204E8DF80A408DF80480E1
:102480008DF80B408DF805A06946304600F0DAF86B
:102490000E208DF816008DF817408DF81850ADF805
:1024A0000C40ADF81040ADF80E40ADF81240ADF85C
:1024B00014508DF8195003A800F056F80022E903D3
:1024C000304600F0B7F801221021304600F0B2F893
:1024D00041208DF8240008208DF825008DF8264035
:1024E0008DF8275009A801F099FC0BB00020BDE839
:1024F000F08F0000000402400068004010B5174A49
:102500000121174800F012F91448164902680A60C0
:10251000A0F19001972A11D09A2A0ED130F80B2FF2
:1025200052BA4A82428852BA12B24A61828852BA78
:102530000A8282798A61C079C86110BD30F80B2F98
:1025400052BA4A80428852BA12B24A60828852BA5B
:102550000A8082798A60C079C86010BDF4030020C7
:102560000068004030000020F0B5827A2F4D012134
:1025700091402A6842F001022A602C4E1C363268D3
:102580008A433260294A047B294B0C32A4B914686F
:102590008C4314604488C78844EA0744877A03EB75
:1025A000C707C7F840460488878844EA0744877A03
:1025B00003EBC707C7F84446047B012C12D114680B
:1025C0000C431460847A026803EBC4044FEA32427D
:1025D000C4F84026847A426803EBC4034FEA3242CF
:1025E000C3F84426114AC37A121D002B136806D083
:1025F0000B4313600D4A0389143213B104E08B437B
:10260000F7E713688B4313600389012B02D113682A
:102610000B431360407B012802D1306808433060CF
:10262000286820F001002860F0BD0000006600402E
:1026300000600040002A426901D00A4300E08A435A
:102640004261704710B50368002223F00203036063
:10265000036843F0010303604FF6FF7300E0521C70
:102660004468E40701D19A42F9D14268D2073ED0CA
:102670008A79012A02683CD022F080020260CA797D
:10268000012A026838D022F0400202600A7A012A48
:10269000026834D022F0200202604A7A012A0268DD
:1026A00030D022F0100202608A7A012A02682CD00F
:1026B00022F008020260CA7A012A026828D022F0B9
:1026C000040202608A78CC78920742EA04620C79AC
:1026D00042EA04424C79098842EA0452491E0A43FC
:1026E000C261016821F001010160002114E00020B5
:1026F00010BD42F08002C1E742F04002C5E742F05F
:102700002002C9E742F01002CDE742F00802D1E70B
:1027100042F00402D5E7491C4268D20701D0994231
:10272000F9D14068C007E2D1012010BD10B500EB1F
:102730000113D3F8B04114F004041472D3F8B0417B
:1027400033D0E4085460D3F8B04104F0020454726A
:10275000D3F8B44104F00F049472D3F8B441240ABE
:10276000D474D3F8B841D472D3F8B841240A14739E
:10277000D3F8B841240C5473D3F8B841240E9473A1
:10278000D3F8BC41D473D3F8BC41240A1474D3F8F1
:10279000BC41240C5474D3F8BC311B0E937439B172
:1027A000016941F02001016110BD640D1460CAE7A8
:1027B000C16841F02001C16010BD30B50246002063
:1027C00093685B0108D49068000101D5012003E003
:1027D0009068C00044D5022002EB0012D2F880318C
:1027E00003F00103C2F880310B7AC3B3D2F8804101
:1027F0004D681C434B7A43EAC5031C43C2F8804131
:102800008B7A03F00F038B72D2F8843123F00F031D
:10281000C2F88431D2F884318C7A2343C2F88431EF
:10282000CB7A8C7B0D7B43EA04634C7B240444EA23
:1028300005242343C2F88831CB7B8C7C43EA0463B4
:102840004C7C097C240444EA01210B43C2F88C31FE
:10285000D2F8801141F00101C2F8801130BD01E0D1
:102860000420FBE7D2F880314C7A23430C8843EAFA
:102870004453C2F88031C3E700B585B032220092DC
:1028800000228DF808208DF8092008238DF80C000F
:102890008DF80A30030A080A8DF811008DF812101D
:1028A0008DF80F208DF80D208DF80B308DF810204D
:1028B0008DF80E2069460248FFF77FFF05B000BD86
:1028C0000068004003F0CEFE03F05CFF012006F03C
:1028D0005FFDF9E704F052FE04F086FE012006F0E9
:1028E00057FDF9E72DE9F04104462DED028B12204A
:1028F00004EBC001401E91ED480B002881ED4A0B0E
:1029000091ED000B81ED020BF2DC94ED000B9FEDDD
:10291000241B84ED020B53EC112B51EC100BFEF732
:10292000BAFA214E0125A6F19808C4E94A0104EB40
:10293000C50706EBC50097ED4A1B90ED000B53EC65
:10294000112B51EC100BFEF7A6FA41EC180B08EB1B
:10295000C50097ED021B90ED000B53EC112B51ECD1
:10296000100BFEF798FA94ED4A1B53EC112BFEF76F
:10297000EBF953EC182BFEF788FA6D1C132DC4E904
:102980004A01D4DB94ED4A0B84ED920B51EC100B11
:10299000FEF7D2FBBDEC028B00EE100ABDE8F08121
:1029A000BEDC0F1C508C063E00A40008074A904273
:1029B00001D2074801E005481038064A8B0001EAB9
:1029C000020101D5C1607047816070471064024008
:1029D000006002407D0F7D0F0029016802D041F0A8
:1029E000010101E021F00101016070472DE9F04390
:1029F000016821F0010101600021016041608160F6
:102A0000C1600161212141613C493C4A3D251039A9
:102A1000904202D18D60BDE8F083384A4FF474666D
:102A20001832904201D18E60F5E7344A4FF47417A2
:102A30003032904201D18F60EDE7304A4FF0746C34
:102A40004832904202D1C1F808C0E4E72B4B2C4A2F
:102A50006033984201D1CA60DDE7284C294B7834B5
:102A6000A04201D1CB60D6E7DFF89080264C08F178
:102A70009008404501D1CC60CDE7DFF880804FF071
:102A80003D5908F1A808404502D1C1F80C90C2E7B1
:102A90001E49DFF878800839404501D10D60BAE75A
:102AA0001A4D1835A84201D10E60B4E7174D3035E4
:102AB000A84201D10F60AEE7144D4835A84202D1BB
:102AC000C1F800C0A7E7114D10496035091FA842A1
:102AD00001D10A609FE70D4A7832904201D10B6024
:102AE00099E70A4A9032904201D10C6093E7074A75
:102AF000A83290428FD1C1F800908CE7106002405C
:102B00003D000020400F002000003D2010640240E6
:102B10000029016802D041F4802101E021F48021E4
:102B200001607047002A026802D042F4002201E0EE
:102B300022F40022026001617047406880B2704751
:102B4000014600200968090300D5012070470000F4
:102B500030B50368124ACC6813400A682243D1E9B1
:102B600005452C432243CC6922430C6A22434C6A1C
:102B700022438C6A22434C6B22438C6B22431A43C0
:102B80000260426922F00703D1E90B2422431A4371
:102B900042610A6942604A6882608968C16030BDEA
:102BA0003F801CF04160704700B5024685B00C20A4
:102BB0009FED0F1ADFED0F0A05F08EFB002100924A
:102BC0008DF808108DF8091008228DF80A208DF86C
:102BD0000B1003918DF81010010A8DF811108DF86B
:102BE000120069460448FFF7E8FD05B000BD00008B
:102BF00000005842000058C20064004070470000C6
:102C000001490860704700000C3C024070B5064660
:102C1000002529B1012927D0022928D04FF4407579
:102C200000F07EF809281ED1124C206820F4407074
:102C30002060206828432060206820F0F800206091
:102C4000206846F0020108432060206840F480308C
:102C5000206000F065F8216821F002012160216800
:102C600021F0F801216070BD4FF48075D8E74FF472
:102C70000075D5E7103C02400D4909200A68D203CF
:102C800001D5012070470A68D20601D50620704799
:102C90000A68D20501D5022070470A6812F0EF0FCA
:102CA00001D00720704709688907FBD508207047C5
:102CB0000C3C02400248016841F00041016070474D
:102CC000103C024070B50D46064600F029F8092870
:102CD00011D1094C206820F44070206020682060E9
:102CE000206840F001002060357000F019F821687C
:102CF00021F00101216070BD103C024005480068D0
:102D0000002805DA034804490C38016003490160D2
:102D100070470000103C024023016745AB89EFCDAE
:102D200008B509208DF80000FFF7A6FF8DF8000018
:102D30009DF800000128F7D09DF8000008BD10B5EF
:102D4000FFF7DCFFF120FFF75BFF01215820FFF7C1
:102D50005DFFBDE81040FFF7ADBF0000044A002151
:102D6000535C4354491CC9B23029F9D30020704741
:102D700000000E0870B506460A4DFFF7E0FFFFF7AA
:102D8000BDFF0024E120FFF73BFF315D2819FFF76D
:102D900099FF641CE4B2302CF4D3FFF78BFF0020C2
:102DA00070BD000000000E08F0B5002201274FF0B2
:102DB000030C0B6807FA02F52B40AB422CD10668D6
:102DC00053000CFA03F4A64306600E79D0F800E035
:102DD0009E4046EA0E0606600E79012E01D0022EB4
:102DE00012D18668A64386604E79D0F808E09E40EE
:102DF00046EA0E0686604668AE43466045688E79B0
:102E00009640B6B235434560C568A543C560CC79E8
:102E10009C40C3681C43C460521C102AC9D3F0BD37
:102E20004B07DB0E9A40C90810B500EB8100016A20
:102E30000F249C40A1430162016A1143016210BD4D
:102E400041837047018370471B4A10B5911E881E4D
:102E500000F055FC18480C38B0F9081000EE101AB4
:102E600000F11401B1F90820F8EEC00A00EE102AB2
:102E7000B0F90A20B0F90C00B8EEC00A30EEC00A72
:102E800000EE902AB1F90A20B8EEE01A00EE902A7E
:102E9000F8EEE00A71EE600A01EE100AB1F90C00DA
:102EA000BDE81040F8EEC11A01EE100AB8EEC11AE2
:102EB00031EEC11A00F02CB8FCA0012010B52DEDA8
:102EC000028B05F0D1FAFEF7E6F841EC180B4FF053
:102ED000E020416982694069891A4FF47A7251434E
:102EE000B1FBF0F0FEF7D7F89FED071B53EC112B69
:102EF000FDF7D1FF53EC182BFDF726FFBDEC028B3D
:102F000041EC100B10BD0000FCA9F1D24D62503F06
:102F100010B510EE100A2DED028BF0EE418AB0EEE6
:102F2000608AFEF7C5F8124CC4E9000118EE100AD9
:102F3000FEF7BEF8C4E9940118EE900AFEF7B8F85F
:102F4000224602F5946203C22046FFF7CBFC094CEF
:102F5000094884ED040AFFF7C5FC84ED050A07481B
:102F6000FFF7C0FC84ED060ABDEC028B10BD00002B
:102F700060990120C8A00120B09B0120009E012083
:102F8000FEE700002DE9F0471A4E1B4C002506F124
:102F90000C0906F10A0806F108074A464146384678
:102FA00000F0ADFBB6F90800616908446061B6F94C
:102FB0000A00A1690844A061B6F90C00E16908445F
:102FC000E061032005F024FA6D1CEDB2C82DE4D3B6
:102FD0006169C82091FBF0F2064914310A81A269A7
:102FE00092FBF0F24A81E26992FBF0F08881BDE841
:102FF000F0870000F0A0012010020020194D2DEDF7
:10300000028B05F11406A5F178049FED178AFEF7EF
:1030100049FBFFF719FF03F023FB304600F0B0FB3C
:10302000FEF78CFB94ED040A20EE080ABDEEC00A00
:1030300010EE100A288094ED050A20EE080ABDEE75
:10304000C00A10EE100A688094ED060A20EE080A05
:10305000BDEEC00A10EE100AA880012006F098F913
:10306000D5E7000040A10120F8C1F93C2DE9FF5F40
:10307000F7EE001AC0ED4E1A044680ED4F0A9FEDA0
:10308000620A00F1380280ED500AC0ED511AC0ED1D
:103090005E1A80ED5F0A80ED600AC0ED611AC0ED36
:1030A000440A80ED451A00F1300104F160009046B9
:1030B00007460391FDF778FC04F168010D46384698
:1030C000FDF794FD04F1580204F15001164638460C
:1030D0000291FDF769FCB4F85800A4F8B000B4F808
:1030E0006A00A4F8B20004F1B0022946304600920A
:1030F000FDF75AFC324604F190010098FDF734F9CF
:1031000004F1880104F1800089460190FDF76EFD0D
:1031100034F8800F3146208634F8260C6086DDE9CD
:103120000020FDF741FC208E2087608924F83A0FAB
:10313000A21E15464946BA3C0098FDF735FCB4F886
:10314000B800A4F8A800B4F89A00A4F8AA0004F102
:10315000A802174604F198012846FDF705F929460B
:103160003846FDF789F949463046009AFDF71CFCC0
:1031700004F1A002934629460098FDF715FCB4F827
:103180008000A4F8C0000127A4F8C27004F1C002B6
:10319000924641460198FDF707FCB4F84800A4F8B0
:1031A000C80004F1C802A4F8CA709146514604F15F
:1031B0004800FDF797FC34F8A00F5246208467843E
:1031C00049465846FDF7F0FB51464046039AFDF745
:1031D000CBF82088208234F81E1C6182208334F8CA
:1031E000460C6083DDE900215846FDF7DDFB2A46E9
:1031F00031460098FDF7D8FB029A04B029463046C4
:10320000BDE8F05FFDF76EBC000000002DE9F0475F
:10321000834F0446042038800820788021730D46AF
:1032200004F1F0001E46A37389008046FDF781FD7E
:10323000217B4346012204F13000FDF719F939885A
:1032400004F1F80069438046FDF773FD217B434696
:10325000012204F13800FDF70BF9398804F5887074
:1032600071438046FDF765FDA17B4346012204F1D1
:103270004800FDF7FDF8398804F58C70694369430F
:103280008046FDF756FD217B43460A4604F1500077
:10329000FDF7EEF8398804F5947069436943804678
:1032A000FDF747FD217B43460A4604F15800FDF730
:1032B000DFF8398804F59C70694369438146FDF75E
:1032C00038FD398804F5A470694369438046FDF7E9
:1032D00030FD217B4B460A4604F16000FDF7C8F83B
:1032E000217B43460A4604F16800FDF7C1F839889E
:1032F00004F5BC70714369438146FDF71AFD3988B6
:1033000004F5C470694371438046FDF712FD227BCA
:10331000A17B4B4604F18000FDF7AAF8A27B217B3C
:10332000434604F18800FDF7A3F8398804F5CC7012
:10333000694369438046FDF7FCFC217B43460A460E
:1033400004F19000FDF794F8398804F5D4707143C6
:1033500071438046FDF7EDFCA17B43460A4604F12C
:103360009800FDF785F8398804F5DC7069437143EE
:103370000546FDF7DEFCA27B217B2B4604F1A00075
:10338000FDF776F8217B04F5E4730A4604F1A80002
:10339000FDF76EF8217B04F5EC730A4604F1B000EA
:1033A000FDF766F8217B04F5F4730A4604F1B800D2
:1033B000FDF75EF8217B04F5FC73012204F1C000E7
:1033C000FDF756F8217B04F50273012204F1C800D1
:1033D000FDF74EF89FED130ADFED140A84ED3C0A69
:1033E00084ED3D0A9FED100A9FED111A84ED460A07
:1033F00084ED470AC4ED660ADFED0E0A84ED6A1A11
:10340000C4ED6B0AC4ED6C0A84ED6D1A84ED6E0A8E
:10341000C4ED6F0AC4ED700A84ED710ABDE8F0874F
:10342000580300206F12833ACDCCCC3D0AD7233C01
:10343000AE47C13F0000000010B57521012000F02B
:10344000C7F904460A2004F0E3FF702C01D00120E4
:1034500010BD80226B21012000F020FA0A2004F028
:10346000D7FF00226B21012000F018FA0A2004F097
:10347000CFFF07226821012000F010FA0A2004F093
:10348000C7FF03226B21012000F008FA0A2004F094
:10349000BFFF00226C21012000F000FA0A2004F096
:1034A000B7FF00221A21012000F0F8F90A2004F0E9
:1034B000AFFF00221921012000F0F0F90A2004F0EA
:1034C000A7FF00221A21012000F0E8F90A2004F0E9
:1034D0009FFF10221B21012000F0E0F90A2004F0D8
:1034E00097FF00221C21012000F0D8F90A2004F0E7
:1034F0008FFF01223821104600F0D0F90A2004F095
:1035000087FF01223721104600F0C8F90A2004F095
:103510007FFF0D222721012000F0C0F90A2004F0CE
:1035200077FF0D226721012000F0B8F90A2004F08E
:103530006FFF0D222721012000F0B0F90A2004F0CE
:1035400067FF01226B21104600F0A8F90A2004F061
:103550005FFF00226C21012000F0A0F90A2004F096
:1035600057FF002010BD10B57521022000F030F982
:1035700004460A2004F04CFF702C01D0012010BD3D
:1035800080226B21022000F089F90A2004F040FF1C
:1035900000226B21022000F081F90A2004F038FF9C
:1035A00007226821022000F079F90A2004F030FF98
:1035B00003226B21022000F071F90A2004F028FF99
:1035C00000226C21022000F069F90A2004F020FF9B
:1035D00000221A21022000F061F90A2004F018FFED
:1035E00000221921022000F059F90A2004F010FFEE
:1035F00000221A21022000F051F90A2004F008FFED
:1036000010221B21022000F049F90A2004F000FFDB
:1036100000221C21022000F041F90A2004F0F8FEEB
:1036200001223821022000F039F90A2004F0F0FECE
:1036300001223721022000F031F90A2004F0E8FECF
:103640000D222721022000F029F90A2004F0E0FED3
:103650000D226721022000F021F90A2004F0D8FE93
:103660000D222721022000F019F90A2004F0D0FED3
:1036700001226B21022000F011F90A2004F0C8FE9B
:1036800000226C21022000F009F90A2004F0C0FE9B
:10369000002010BD10B500F04DF9FFF7CDFE18B9B0
:1036A000FFF761FF002800D0012010BD2DE9FC4785
:1036B00091460F4680466B4606223B21012000F0D2
:1036C000B5F890B9BDF800006B4640BA06B2BDF837
:1036D0000200062240BA05B2BDF804003B2140BA00
:1036E00004B2022000F0A2F810B10120BDE8FC876E
:1036F000A8F800603D80A9F800400020F6E72DE919
:10370000FC479146884606466B4606224321012027
:1037100000F08CF890B9BDF800006B4640BA07B2D3
:10372000BDF80200062240BA05B2BDF804004321EC
:1037300040BA04B2022000F079F810B10120BDE8CF
:10374000FC87BDF80210BDF8000049BA40BA09B2C2
:1037500000B2BDF80420394401EBD171281A491098
:1037600000EBD07052BA3180401012B2A8F80000BD
:10377000A01800EBD0704010A9F800000020DEE790
:1037800038B504466B4602224121012000F04EF874
:10379000BDF8000040BA00B2FDF76CFC9FED081BBD
:1037A00053EC112BFDF7E9FB9FED071B53EC112B9D
:1037B000FDF7CAFAFDF7C0FC2060002038BD00000C
:1037C00052B81E85EBDD74400000000000002A4066
:1037D0002DE9F041134D144E0F460446012802D046
:1037E000022C03D006E01021284601E010213046CB
:1037F000FFF726FB47F0800000F080FEFF2000F07E
:103800007DFE0746012C02D0022C03D006E01021D9
:10381000284601E010213046FFF714FB3846BDE88A
:10382000F081000000080240000002402DE9F0474E
:10383000DFF86080DFF860901D4614460F460646AC
:10384000012802D0022E03D006E01021404601E0FC
:1038500010214846FFF7F4FA47F0800000F04EFED2
:1038600006E0FF2000F04AFE641E05F8010BE4B2FA
:10387000002CF6D1012E02D0022E03D006E010213A
:10388000404601E010214846FFF7DCFA0020BDE881
:10389000F087000000080240000002402DE9F041DE
:1038A000124D134E174688460446012802D0022CBA
:1038B00003D006E01021284601E010213046FFF732
:1038C000BFFA404600F01AFE384600F017FE012C01
:1038D00002D0022C03D006E01021284601E010217E
:1038E0003046FFF7AFFA0020BDE8F0810008024043
:1038F000000002401CB50121022000F061FB012004
:103900008DF8040000218DF8061002218DF80510B5
:1039100000908DF8070069460248FFF745FA00F06D
:1039200003F81CBD0004024001210148FFF788BADA
:10393000000402402DE9FC410121072000F040FB7A
:103940000121880300F060FB01248DF8044000256C
:10395000DFF86C8010278DF80650032600978DF84D
:10396000056069464046FFF71FFA00978DF804404E
:10397000144F8DF806508DF8056069463846FFF7FC
:1039800013FA8DF804408DF8074000940E4C8DF822
:1039900006508DF8056069462046FFF705FA0121BB
:1039A0002046FFF74DFA00F04BFD10214046FFF78F
:1039B00049FA10213846FFF745FABDE8FC810000BE
:1039C0000008024000000240000402400FB430B57D
:1039D0002DED108B85B09DED28AB51EC1A0B81F0CD
:1039E00000419DED1A0B0D468DED020B9DED208BD8
:1039F00045EC100B04469DED1EFB9DED24EB9DED6B
:103A00001CDB9DED22CB9DED26BB9DED189B53EC61
:103A1000182B51EC100BFDF75FFB53EC1A2B51ECFC
:103A2000180B7DD2FDF770FB60D245EC104B53ECC8
:103A3000192B51EC100BFDF74FFB60D353EC192BF6
:103A40009FEDD40B51EC100BFDF71FFA53EC182B24
:103A5000FDF77AF953EC1A2BFDF717FA41EC100B2E
:103A600001F01AFF9FEDCD1B51EC100B53EC112B05
:103A7000FDF711FA41EC110B53EC1E2B8DED001BE1
:103A800051EC1D0BFDF701FA9DED001B53EC112BC2
:103A9000FDF773FA9DED020B41EC180B53EC102B64
:103AA00051EC1F0BFDF750F981F000419DED001B1B
:103AB00053EC112BFDF761FA41EC190B9FEDB90B9B
:103AC0009DED001B53EC102B51EC110BFDF7E3F9AE
:103AD00041EC1A0B53EC1C2B51EC1B0B4CE19DEDF4
:103AE000001B53EC112BFDF748FAB1E051EC180B19
:103AF00081F0004153EC192BFDF7EEFA4ED29FED09
:103B0000A50B51EC190B53EC102BFDF71DF953ECE1
:103B1000182BFDF719F953EC1A2BFDF715F900E0F6
:103B2000CFE041EC100B01F0B7FE9FED9C1B51EC78
:103B3000100B53EC112BFDF7AEF941EC110B8DED91
:103B4000001B9FED9A0B53EC102BFDF7A4F941ECF1
:103B5000180B53EC1B2B51EC1C0BFDF796F99DED4C
:103B6000001B53EC112BFDF708FA41EC190B53EC39
:103B70001D2B51EC1E0BFDF788F99DED001B53EC3E
:103B8000112BFDF7FAF99DED020B41EC1A0B53ECEA
:103B90001F2B51EC100BFDF778F9A0E753EC192B14
:103BA0009FED7C0B51EC100BFDF76FF953EC182BCC
:103BB000FDF76BF953EC1A2BFDF7C6F841EC100B2F
:103BC00001F06AFE9FED751B51EC100B53EC112BAD
:103BD000FDF761F941EC110B51EC1F0B8DED001B52
:103BE0009DED020B53EC102BFDF74FF99DED001BE3
:103BF00053EC112BFDF7C1F941EC180B53EC1E2BC4
:103C000051EC1D0BFDF7A0F881F000419DED001B6C
:103C100053EC112BFDF7B1F941EC190B53EC1C2BB4
:103C200051EC1B0BFDF790F881F000419DED001B5E
:103C300053EC112BFDF7A1F941EC1A0B9FED590B39
:103C40009DED001B53EC102B51EC110BFDF723F9EC
:103C500041EC1B0B9FED570B51EC180B53EC102B49
:103C6000FDF73AFA17D251EC180B81F0004141EC04
:103C7000180B51EC190B81F0004141EC190B51EC80
:103C80001A0B81F0004141EC1A0B51EC1B0B81F037
:103C9000004141EC1B0B05B0B0EE480AF0EE680A9B
:103CA000B0EE491AF0EE691AB0EE4A2AF0EE6A2A2E
:103CB000B0EE4B3AF0EE6B3ABDEC108B30BC5DF8D9
:103CC00014FBFDF721FA5CD253EC182B51EC190BC5
:103CD000FDF71AFABFF4B2AE51EC190B9FED2D0BA4
:103CE00053EC102BFDF730F853EC182BFDF7CDF803
:103CF00053EC1A2BFDF7C9F841EC100B01F0CCFD89
:103D00009FED261B51EC100B53EC112BFDF7C3F864
:103D100041EC110B53EC1C2B8DED001B51EC1B0BDC
:103D2000FDF7B3F89DED001B53EC112BFDF725F9C2
:103D30009FED1C0B9DED001B41EC180B53EC102B61
:103D400051EC110BFDF7A7F89DED020B41EC190B9F
:103D500053EC102B51EC1F0BFCF7F6FF81F00041E8
:103D60009DED001B53EC112BFDF707F941EC1A0BED
:103D700053EC1E2B51EC1D0BFCF7E6FF81F00041CC
:103D8000ADE653EC1A2B51EC190BFDF7BDF9A3D39B
:103D900004E70000000000000000F03F0000000009
:103DA00000000040000000000000D0BF0000000044
:103DB0000000D03F00000000000000000FB44822C7
:103DC00000B593B069469DED160B8DED000B9DED92
:103DD0001C0B8DED020B9DED220B8DED040B9DED6B
:103DE000180B8DED060B9DED1E0B8DED080B9DED5B
:103DF000240B8DED0A0B9DED1A0B8DED0C0B9DED3B
:103E0000200B8DED0E0B9DED260B8DED100BFCF7B1
:103E100077FF13B05DF814FBFEE7704730B50F2352
:103E2000C27801780125FAB1144A126801F1E02143
:103E300002F4E062C2F5E062C2F30722C2F10404B8
:103E4000D3404278A24084781C401443220181F878
:103E50000024007800F01F018D404009800000F12F
:103E6000E020C0F8005130BD01F01F008540480936
:103E7000800000F1E020C0F8805130BD0CED00E082
:103E80000249084302490860704700000000FA0533
:103E90000CED00E0A0B1D0ED101AC0ED111A90EDBC
:103EA0000F1A80ED101AC0ED060A80ED070A30EEF9
:103EB000C00A80ED0F0A017829B101293CD079E0D0
:103EC0009FED3E0A7047D0ED010A60EE801AC0ED0A
:103ED000091AD0ED0A0A90ED022A42EE000A30EEED
:103EE000410AC0ED0A0A90ED0D2A80ED0E2A90EDF0
:103EF0000C2A80ED0D2A80ED0C0A90ED031A21EEBC
:103F0000000A80ED0B0A80ED120A90ED051AF4EE1E
:103F1000C10AF1EE10FA06DCB1EE411AF4EEC10A64
:103F2000F1EE10FA01D280ED0A1AD0ED0A0A71EE14
:103F3000A00A30EE800A2BE070EE410A90ED012AD3
:103F400060EE820AC0ED090A90ED022A22EE002AF4
:103F500080ED0A2AD0ED0D2A70EE820AC0ED0E2AFD
:103F6000D0ED0C2AC0ED0D2AF0EE002A01EE620A17
:103F700030EE210A80ED0C0A90ED031A21EE000AC2
:103F800080ED0B0A30EE800AD0ED080A30EE200AF0
:103F900080ED080AD0ED040AB4EEE00AF1EE10FA62
:103FA00006DCF1EE600AB4EEE00AF1EE10FA01D29E
:103FB000C0ED080A90ED080A7047000000000000FC
:103FC000044A0029116801D0014300E081431160D7
:103FD0007047000030380240044A0029116801D0BF
:103FE000014300E081431160704700004038024007
:103FF000044A0029116801D0014300E081431160A7
:104000007047000020380240044A0029116801D09E
:10401000014300E0814311607047000044380240D2
:10402000044A0029116801D0014300E08143116076
:10403000704700002438024070B5204B1968204CAE
:1040400011F00C0104D06610042903D0082903D014
:1040500004601BE0066019E0184A121F1168C1F3E2
:104060008055116801F03F0115B1B6FBF1F101E097
:10407000B4FBF1F114681268C4F388146143C2F30D
:104080000142521C5200B1FBF2F1016019680F228B
:1040900002EA11110B4A545C0168E14041601C685E
:1040A000072505EA9424145D21FA04F484601B6852
:1040B00005EA5333D25CD140C16070BD083802407C
:1040C0000024F400780000202DE9F0478A4680465D
:1040D000012190B091460846FFF772FF01214C0480
:1040E0002046FFF779FF01212046FFF781FF0121DC
:1040F0002046FFF77DFF01214805FFF761FF3E4D98
:10410000072203212846FEF78BFE02218DF81410AA
:1041100000248DF8164008208DF8151004908DF8B5
:10412000174004A92846FEF73FFE344F384600F0FA
:104130004FFC2E1532480090ADF80440ADF80860F1
:104140000425ADF80640ADF80A50ADF80C406946BC
:10415000384600F0CBFC01224021384600F02FFC0D
:104160001021384600F018FC012240F22441384664
:1041700000F0A3FC0121384600F017FC26208DF842
:1041800000008DF801508DF8024001208DF80300E9
:104190006846FFF743FE1B4D2846FEF727FC7004D8
:1041A0000090381DCDE902840190CDF81090CDE942
:1041B00005468015CDE908404FF44030CDE90A04AA
:1041C00007940C940D94694628460E94FEF7C0FCA3
:1041D000002251462846FEF7A5FC01212846FEF79D
:1041E00097FC00212846FEF7F7FB01212846FEF741
:1041F000F3FB10B0BDE8F08700000240004400402F
:10420000A086010088600240234810B5B0F9001074
:10421000224A0124914219D1B0F90210914215D1DC
:104220008188B1F5257F11D1B0F9061091420DD1E9
:1042300084F31388BFF34F8F19480168194A01F4BA
:10424000E06111430160BFF34F8FFEE7827A164BA6
:104250001148022A5968C07A02D002280CD001E025
:10426000022807D003280DD001280AD1032A08D13B
:10427000042004E0002002E0032A02D10520C3E963
:10428000010110BD032A04D0022AFAD10620586089
:1042900010BDC3E9014110BD080400206CFDFFFF03
:1042A0000CED00E00400FA0560000020F0B390ED92
:1042B000102A80ED112A90ED0F2A80ED102AC0ED12
:1042C000060A80ED070A30EEC00A80ED0F0AD0ED35
:1042D000010A60EE802AC0ED092AD0ED0A0A90EDAD
:1042E000023A43EE000A30EE420AC0ED0A0A90EDAF
:1042F0000D3A80ED0E3A90ED0C3A80ED0D3A80EDDE
:104300000C0AB7EE000A90ED122A30EE610A20EE98
:10431000020A90ED032A22EE011A01EE210A80ED35
:104320000B0A80ED120A90ED051A00E028E0F4EE89
:10433000C10AF1EE10FA06DCB1EE411AF4EEC10A40
:10434000F1EE10FA01D280ED0A1AD0ED0A0A72EEEF
:10435000A00A30EE800A80ED080AD0ED040AB4EE1F
:10436000E00AF1EE10FA06DCF1EE600AB4EEE00AC3
:10437000F1EE10FA01D2C0ED080A90ED080A70477C
:104380009FED010A7047000000000000F0B5002812
:1043900055D0002953D00278437842EA0322C2F371
:1043A0000A030B8042788478D20842EA4412C2F3AE
:1043B0000A024A808478C578A40944EA850405790C
:1043C00044EA8524C4F30A048C80057946796D0893
:1043D00045EAC615C5F30A05CD804679C6F3011630
:1043E0008E724679B609CE728679C77946EA072673
:1043F0008E81067A477A46EA0726CE81867AC77A80
:1044000046EA07260E82067B8E74467BCE74867B38
:10441000C77B46EA07268E82067C407CA3F5806334
:104420000B80A2F580624A80A4F5806446EA0020F1
:104430008C80A5F58065CD80A0F580600881F0BDF9
:1044400070B5012188B00846FFF7BAFD01210D03C0
:104450002846FFF7D9FD02218DF818100024E0202E
:104460008DF81A4005908DF819100120214E8DF815
:104470001B0005A93046FEF797FC05221146304681
:10448000FEF7CEFC052206213046FEF7C9FC0522C8
:1044900007213046FEF7C4FC01212846FFF7C0FD86
:1044A00000212846FFF7BCFD134D0021284600F0EF
:1044B0003FF8ADF800404FF48270ADF80200ADF85F
:1044C00008406815ADF80A001020ADF80C00072070
:1044D000ADF80440ADF81000ADF80640ADF80E4060
:1044E0006946284600F039F80121284600F020F8F6
:1044F00008B070BD000002400030014070B50B4CA8
:1045000005460221204600F01DF80028F9D0294672
:10451000204600F020F80121204600F013F8002882
:10452000F9D0204600F015F8C0B270BD003001404F
:104530000029018802D041F0400101E021F0400152
:10454000018070470246002012890A4200D00120F3
:104550007047808970478181704730B502884C88E8
:1045600002F441530A88CD8822438C882C4322438D
:104570000C8922434C8922438C892243CC892243D3
:104580001A430280828B22F400628283098A0182AC
:1045900030BD00000CB50022274900920192086846
:1045A00040F4803008604FF4A043086800F4003005
:1045B00001900098401C0090019810B90098984212
:1045C000F3D10868800334D5012001901A484030A7
:1045D000026842F0805202601848026842F4404289
:1045E00002601548083002680260026842F4004226
:1045F0000260026842F4A0520260031F104A1A606F
:104600000A6842F080720A600A689201FCD50D497E
:1046100040F205720A60016821F00301016001683F
:1046200041F0020101600168C1F381010229FAD160
:104630000CBD01920CBD000000380240007000402B
:1046400008544007003C02404FF0E021042808696C
:1046500003D020F004000861704740F00400FAE73E
:1046600010B505F01BFC012803D0BDE8104005F093
:1046700009B910BD124810B5016841F4700101601C
:104680001048016841F0010101600E4A0021083222
:10469000116002680C4B1A400260031D0B4A1A603D
:1046A000026822F48022026006480C300160FFF7A5
:1046B00071FF03494FF000608039086010BD0000B1
:1046C00088ED00E000380240FFFFF6FE10300024C5
:1046D00010B5054C0121204600F05DF82046BDE8EC
:1046E0001040012100F04AB80004004010B50A4C07
:1046F0000121204600F04FF8012807D10749D1E9F0
:104700000020521C40F10000C1E900202046BDE815
:104710001040012100F032B8000C004028000020B9
:104720007FB50C46054601210820FFF755FCADF882
:10473000004001950024104DADF80240ADF808404E
:104740006946284600F03CF801221146284600F050
:104750002EF80121284600F014F832208DF80C00C4
:1047600006208DF80D008DF80E4001208DF80F0009
:1047700003A8FFF753FB7FBD000C0040C943018233
:1047800070470029018802D041F0010101E021F0C9
:1047900001010180704702460020138A92890B4272
:1047A00002EA010202D0002A00D001207047002A4C
:1047B000828901D00A4300E08A4382817047000069
:1047C00030B50288164C174DA0420DD0A8420BD030
:1047D000B0F1804F08D0144B984205D0134B98424B
:1047E00002D0134B984203D122F070034A881A4337
:1047F000104B984206D0104B984203D022F44073DD
:104800000A891A4302804A68C2620A880285A04265
:1048100001D0A84201D1897A01860121818230BD6F
:104820000000014000040140000400400008004076
:10483000000C004000100040001400407CB5154CF6
:1048400040F225552946204600F018F990B1294636
:10485000204600F0A4F82088A088204600F09CF9AB
:104860008DF800000C48002301AA6946406805F055
:1048700035FA7CBD40F22531204600F0FFF80028D3
:10488000F7D00821204600F087F8204600F084F990
:104890007CBD000000500040700000202DE9F04772
:1048A000384C40F22551204600F0E8F820B120466F
:1048B000BDE8F04700F070B940F22449494620466F
:1048C00000F0DCF800285AD0A046204600F064F939
:1048D0002D4E3046FEF734F92B4C2C4D883C2C4F96
:1048E00000284FF0000130461CD0FEF775F8304626
:1048F000FEF723F9C0F12400288024213046FEF77A
:1049000051F954F8880F20F40020206039463046D1
:10491000FEF74CF801213046FEF75EF82888122891
:1049200020D026E0FEF758F83046FEF706F9C0F131
:104930002400288024213046FEF734F954F8880FEB
:1049400040F40020206039463046FEF72FF8012160
:104950003046FEF741F8288812280AD10D4901F1A6
:10496000160002E00B4901F13A00FFF70FFDFFF7D7
:104970004BFC49464046BDE8F04700F010B8BDE8A2
:10498000F087000000440040886002406000002082
:104990003000002008040020C943018070470A0A43
:1049A00001219140C943018070470029818902D0CB
:1049B00041F4005101E021F4005181817047002A47
:1049C000828A01D00A4300E08A4382827047000055
:1049D000224910B5884206D101211020FFF720FBA3
:1049E0000021102020E01E49884202D101214C0400
:1049F00029E01C49884202D101218C0423E01A4994
:104A0000884202D10121CC041DE01849884202D11C
:104A100001210C0517E01649884209D10121202007
:104A2000FFF7FEFA00212020BDE81040FFF7F8BA9A
:104A30001049884202D101218C0704E00E498842C6
:104A40000AD1012144052046FFF7D2FA2046BDE8ED
:104A500010400021FFF7CCBA10BD0000001001404B
:104A60000044004000480040004C0040005000401E
:104A70000014014000780040007C004070B501F057
:104A80001F0501260024C1F3421306FA05F2012B8B
:104A90000FD0022B0FD0838A4FEA112100881342D6
:104AA00006FA01F600EA060001D000B10124204612
:104AB00070BD8389F0E7038AEEE710B5C1F34213B6
:104AC00001F01F040121A140012B07D0022B07D0C8
:104AD0001430002A026805D00A4304E00C30F8E7DD
:104AE0001030F6E78A43026010BD00007FB504462F
:104AF000008A0D46C98820F4405001432182A089D4
:104B000041F20C618843A9882A8911436A890243CA
:104B10001143A181A08A20F44071A8890843A08292
:104B20006846FFF789FA1A48844202D0194884423D
:104B300001D1039800E00298A189090400EBC001AB
:104B400001EB0010296801D5490000E08900B0FBA5
:104B5000F1F06422B0FBF2F109010B096FF01805C6
:104B60006B4300EB8300A3891D044FF0320306D58D
:104B700003EBC000B0FBF2F000F0070005E003EB30
:104B80000010B0FBF2F000F00F00084320817FBD61
:104B900000100140001401408088C0F308007047F5
:104BA000FEE700000FB4054B10B503A9044A0298B4
:104BB00001F0F0FA10BC5DF814FB0000218300083E
:104BC0005C03002003B401984100009850EAC12022
:104BD00018BF04204A0D18BF40F0010040F2FF72D8
:104BE000B2EB515F08BF40F00200012808BF05206A
:104BF00002B070474100080218BF04200A0E18BF17
:104C000040F001004FF07F4232EA010108BF40F05E
:104C10000200012808BF05207047000000000000C6
:104C200070B5C1482DED020B2DED0E8B82B0119D9C
:104C300025F000449FEDBEDB9FEDBFEB84423EDBE1
:104C4000A4F140511098A1F17F6108430FD0BC48F6
:104C5000844202DC28D1109830B39DED100B02B0D5
:104C6000BDEC0E8B02B0BDE8704001F03DBA9DED89
:104C7000100B53EC1D2B51EC100BFCF70CF99DEDB8
:104C8000100B41EC180B53EC1E2B51EC100BFCF7E6
:104C900002F953EC182BFCF757F841EC100B02B05B
:104CA000BDEC0E8B02B070BD012001F06DFA02B0B8
:104CB000BDEC0E8B02B0BDE8704001F029BAA148EE
:104CC0009FEDA18B844256DA9DED100BB4F1795F14
:104CD0000ADA51EC100BFFF775FF042808BF01F04A
:104CE00027FA9DED100BDAE753EC102B51EC100B6B
:104CF000FCF7D1F841EC190B95480621B0EE490AB2
:104D0000F0EE690A784401F0DBF853EC192B51EC12
:104D1000100BFCF7C0F841EC1A0B8E48B0EE490AB4
:104D2000F0EE690A0421784401F0CAF853EC192B1B
:104D300051EC100BFCF7AFF853EC182BFCF704F810
:104D400041EC100B51EC1A0B53EC102BFCF715F93E
:104D5000CDE900019DED000B53EC102B9DED100BE8
:104D600051EC100BFCF797F89DED101B53EC112B39
:104D7000FBF7EAFFD2E09DED100B51EC100B03F0B6
:104D80009FFA53EC182BFCF783F89FED730BCDE9DA
:104D9000000153EC102B9DED000B51EC100BFCF7B8
:104DA0007AF841EC190B6E480621B0EE490AF0EE94
:104DB000690A784401F084F853EC192B51EC100B7C
:104DC000FCF769F841EC1B0B6648B0EE490AF0EEBF
:104DD000690A0421784401F073F853EC192B51EC63
:104DE000100BFCF758F853EC182BFBF7ADFF41EC18
:104DF0001C0B51EC190B04F04DF841EC180B5A4800
:104E00009FED5BABA04222DC53EC1C2B51EC1B0B47
:104E1000FCF7B3F8CDE900019DED000B51EC180B48
:104E200053EC102BFCF737F853EC182BFBF78CFFE7
:104E300053EC1A2BFCF72FF853EC1D2BFCF725F83D
:104E400053EC1E2BFCF724F841EC100B5FE08DEDCA
:104E5000008B002000909DED000B51EC180B53ECE3
:104E6000102BFBF771FF9DED000B41EC1E0B53EC7B
:104E7000102B51EC100BFCF70EF853EC192BFCF730
:104E800007F853EC1E2BFCF778F841EC190B53ECA8
:104E90001C2B51EC1B0BFCF770F841EC1B0B53EC7B
:104EA0001A2B51EC190BFBF7F6FF53EC1D2BFBF7FC
:104EB000EFFF41EC190B53EC1A2B51EC180BFBF7DD
:104EC000EAFF53EC1B2BFBF7E6FF53EC192BFBF728
:104ED000DCFF9DED000B41EC180B53EC1A2B51EC51
:104EE000100BFBF7D8FF9FED249B53EC192BFBF71E
:104EF000CFFF41EC100B51EC180B53EC102BFBF7D0
:104F0000C4FF53EC192BFBF7C3FF41EC100B002D32
:104F10003FF7C5AE51EC100B81F0004141EC100B96
:104F2000BDE60000000000000000F03F00000000AF
:104F3000075C143326A6913C182D4454FB21F93FFD
:104F40000000F07F0000E03F000000000000F03FA4
:104F5000985F0000A65F0000000000000000E03F36
:104F6000EA5E0000F85E00003333EF3F000000000F
:104F70000000000000000040182D4454FB21E93FD0
:104F800070B59B482DED020B2DED068B079D25F08E
:104F90000044A04218DC9748844202DC0AD10698FB
:104FA00040B19DED060BBDEC068B02B0BDE8704034
:104FB00001F09AB8002DCCBF9FED8F0B9FED900BA9
:104FC000BDEC068B02B070BD8F48A04215DD8F4846
:104FD000A042D8BF4FF0FF3458DD9DED060B51ECD9
:104FE000100BFFF7EFFD042808BF01F0A1F89DEDBD
:104FF000060BBDEC068B02B070BD9DED060B51ECAF
:10500000100B03F05DF9CDE9060181489FED828B1D
:10501000A0423CDD8248A0421FDD00249FED82AB10
:105020009DED060B53EC1A2B51EC100BFBF78CFE8D
:105030009DED060B41EC190B53EC1A2B51EC100BA8
:10504000FBF729FF53EC182BFBF71FFF53EC192B31
:10505000FBF793FFCDE9060149E09DED060B012426
:1050600053EC182B51EC100BFBF76EFE9DED060B6D
:1050700041EC190B53EC182B51EC100BFBF705FF0F
:1050800053EC192BFBF779FFCDE906012FE06848B7
:10509000A0421FDD02249FED689B9DED060B53ECA3
:1050A000192B51EC100BFBF7F6FE53EC182BFBF70A
:1050B0004BFE9DED060B41EC180B53EC192B51ECFC
:1050C000100BFBF7E2FE53EC182BFBF756FFCDE974
:1050D00006010CE09DED060B032453EC102B9FED15
:1050E000580B51EC100BFBF748FFCDE906019DED85
:1050F000060B53EC102B51EC100BFBF7CCFE41ECE4
:10510000180B53EC182BFBF7C6FE41EC190B4E485D
:105110000621B0EE490AF0EE690A784400F0D0FEAC
:1051200053EC182B51EC100BFBF7B5FE41EC180BB0
:105130004648B0EE490AF0EE690A0521784400F0CD
:10514000BFFE53EC192B51EC100BFBF7A4FE41EC06
:10515000100B51EC180B53EC102B002C0EDAFBF754
:10516000F3FD9DED061B53EC112BFBF794FE9DED1B
:10517000061B53EC112BFBF78BFE35E0FBF7E4FD30
:105180009DED061B53EC112BFBF785FE41EC100B3C
:105190002F48784400EBC40090ED001B51EC100B3D
:1051A00053EC112BFBF771FE9DED061B53EC112BFD
:1051B000FBF76BFE41EC100B2648784400EBC40073
:1051C00090ED001B51EC100B53EC112BFBF760FE24
:1051D00041EC100B002DA2BFBDEC068B02B070BDE0
:1051E00051EC100B81F0004141EC100B01E7000085
:1051F000000010440000F07F182D4454FB21F93FBB
:10520000182D4454FB21F9BF0000DC3F0000203E74
:105210000000F33F00000000000000000000F03F2D
:105220000000E63F00000000000000000000004019
:105230000080034000000000000000000000F83F74
:10524000000000000000F0BF3A5C0000F05B0000CE
:105250007A5B0000325B000070B56F4E2DED040BE1
:105260002DED048B82B0DDF824C0DDE907235C421C
:105270002CF000411C4341EAD474069D22F000400A
:10528000B44205D86C422C4340EAD474B4420BD9E2
:105290009DED081B9DED060B02B0BDEC048B04B028
:1052A000BDE8704000F02ABFACF14054A4F17F6427
:1052B0001C430BD0022404EAAC7444EAD2740543C4
:1052C0009FED578B9FED582B07D015E09DED060BFA
:1052D00051EC100B01F00AF942E0002C11BF012C37
:1052E0009DED060B02B0BDEC048B04BF04B070BD95
:1052F000022C38D0032C3BD00B439FED4D1B9FED70
:105300004E0B0AD0B14218D1B04209D121F08041F0
:1053100020F08040099107900FE0002A15DA10E094
:10532000474B7B44002C08BF93ED000B0DD0012CA4
:1053300010D0022C17D0032C1AD0B0421DD1002A55
:1053400003DAB0EE410AF0EE610A02B0BDEC048B64
:1053500004B070BD93ED000B51EC100B81F00041D7
:1053600041EC100BF1E7B0EE480AF0EE680AECE70A
:10537000B0EE420AF0EE620AE7E7401A00159FED30
:10538000329B3C28C8BF8DED000B17DCBCF1000F31
:10539000BCBF10F13C0F8DED009B0FDB9DED080BAA
:1053A00053EC102B9DED060B51EC100BFBF7E5FDBC
:1053B00002F086FF01F09AF8CDE90001B4B1012CAA
:1053C00010D0022C9FED220B53EC102B9DED000B07
:1053D00051EC100B19D0FBF758FD53EC182BFBF7D1
:1053E00054FDBDE7019880F0004001909DED000B59
:1053F00053EC192B51EC100BFBF76EFE04BF02208F
:1054000000F0C2FE9DED000B9FE7FBF73EFD53EC65
:10541000182BFBF73DFDA3E70000F07F0000000024
:10542000182D4454FB210940182D4454FB2109C078
:10543000182D4454FB21F9BF182D4454FB21F93F8A
:10544000925A000000000000000000000000000070
:10545000075C143326A6A13C70B54FF068422DEDD1
:10546000048BF0EE408A18EE900AB0EE608A18EED7
:10547000101A02EB4003B3F1654F3CBF02EB41024F
:10548000B2F1654F7DD200BFC0F3C753C1F3C7521D
:105490009A1A1B2A09DD10F0004F14BF9FED830AF2
:1054A0009FED830ABDEC048B70BD12F11A0F36DA42
:1054B00011F0004F09D010F0004F0CBF9FED7D0A96
:1054C0009FED7D0ABDEC048B70BD88EE889A19EEC5
:1054D000100AFFF78FFB042808BF00F03DFE18EE0E
:1054E000900AFFF787FB054618EE100AFFF782FBCC
:1054F000044619EE100AFFF77DFB042D18BF052D99
:1055000008D1042C18BF052C04D1002804BF0220A8
:1055100000F03AFEB0EE490ABDEC048B70BD4200CB
:10552000B2EB410F3AD910F0004F19BFDFED630A1B
:105530009FED630ADFED630A9FED630AB0EE481A40
:105540000A46B1EE688A80F00041F0EE418A1046CA
:105550000A1A5200B2F1807F34D2484010F0004F56
:10556000DFED5A1A9FED5A2A1DBFBEEE001A70EEEB
:10557000E10A30EE420AB6EE001A08BF70EEA10A48
:1055800000E040E008BF30EE020AB0EE682A01EE0B
:10559000482A08EE818AC2EE081A15E011F0004F81
:1055A00004BF9FED4C0AF0EE400AD1D010F0004F3E
:1055B00019BFDFED490A9FED490ADFED490A9FED6A
:1055C000490AC5E7C8EE881A21EEA11A9FED462ABE
:1055D000DFED462A41EE022A9FED452A01EE222AFE
:1055E000DFED442A41EE022A9FED432ABDEC048BF5
:1055F00001EE222A21EE811A01EE020A30EE210A82
:1056000030EE200A70BD4FF07F42B2EB400F28BF52
:10561000B2EB410F09D2F0EE480AB0EE680ABDECD9
:10562000048BBDE8704000F093BD40EA01035B00CD
:1056300008BF41F0FF410BD0B2EB400F08BFB2EB07
:10564000410F08D120F0804008EE900A21F08041FF
:1056500008EE101A18E7B2EB400F12BF5FEA4103E1
:1056600040F0FF4001F000413FF40EAFB2EB410FBC
:1056700012BF5FEA400200F0004041F0FF413FF4FA
:1056800003AF4A0092EA40033FF5FEAE002AACBFEA
:105690009FED1A0A9FED1A0A68EE808A28EE008AAA
:1056A00018EE900A18EE101AEEE60000DB0FC9BFE4
:1056B000DB0FC93FDB0F4940DB0F49C00000C9BF0A
:1056C00022AAFDB90000C93F22AAFD390060ED3EC3
:1056D000C30ACE3700000000000049C022AA7DBAEC
:1056E0000000494022AA7D3A2DAD65BD8FB8D53D59
:1056F0000FB511BE61C84C3EA8AAAABE0000804FDB
:105700000000802F0000000010B52F499FED2C1BDA
:105710002DED020B84B0059820F000408842D8BFE0
:105720009DED040B2DDD2949884209D1049840B92B
:105730004FF0010000F028FD00F0EAFC06B010BDBB
:1057400005DB9DED040B00F0CFFC06B010BD6846F4
:105750009DED040B00F0E0F810F0030004BF9DED98
:10576000021B9DED000B0CD001280ED09DED021BFD
:105770009DED000B022817D0012000F01DFC06B0A3
:1057800010BD00F0E5FA06B010BD9DED021B9DEDC9
:10579000000B012000F010FC51EC100B81F00041D7
:1057A00006B041EC100B10BD00F0D2FA51EC100B1A
:1057B00081F0004106B041EC100B10BD000000006C
:1057C0000000000000000000FB21E93F0000F07F26
:1057D00010B52F499FED2C1B2DED020B84B00598C1
:1057E00020F000408842DCBF00209DED040B32DD3C
:1057F0002849884209D1049840B94FF0010000F0CF
:10580000C3FC00F085FC06B010BD05DB9DED040B6C
:1058100000F06AFC06B010BD68469DED040B00F078
:105820007BF810F0030011D0012818D09DED021B69
:105830009DED000B02281AD000F08AFA51EC100BF3
:1058400081F0004106B041EC100B10BD9DED021B34
:105850009DED000B012000F0AFFB06B010BD9DEDEB
:10586000021B9DED000B00F073FA06B010BD012085
:1058700000F0A2FB51EC100B81F0004106B041ECAE
:10588000100B10BD00000000000000000000000030
:10589000FB21E93F0000F07F00B52DED048BB0EE59
:1058A000409AF0EE609A83B051EC190BFBF72BFD98
:1058B00041EC180B18EE100A18EE901A8DED008BC3
:1058C000002818BF0120084320F00040C0F17F608D
:1058D00000F1E040C00F14D019EE101A19EE900A32
:1058E0008DED009B002918BF0121084320F00040E6
:1058F000C0F17F6000F1E040C00F04BF012000F064
:1059000043FCB0EE480A03B0F0EE680ABDEC048B2D
:1059100000BD0000000000002DE9F14F04462DED10
:10592000020B2DED088B8AB09FEDE70B80ED020B8B
:10593000139EE74826F0004585420ADC9DED120BD8
:10594000002084ED000B0AB0BDEC088B03B0BDE86D
:10595000F08FE0489FEDE0AB9FEDE1BBA84247DD53
:10596000E14F9FEDE39B9FEDE48B9DED120B53EC1C
:105970001A2B51EC100B002E1CDDFBF786FA41ECC4
:10598000100BBD4208D053EC1B2B51EC100BFBF756
:105990007CFAC4E900010BE053EC192B51EC100B1D
:1059A000FBF773FA53EC182BFBF76FFAC4E900010D
:1059B0000120C8E7FBF7C8F941EC100BBD4208D045
:1059C00053EC1B2B51EC100BFBF7BEF9C4E90001A3
:1059D0000BE053EC192B51EC100BFBF7B5F953EC22
:1059E000182BFBF7B1F9C4E900014FF0FF30AAE72B
:1059F000C348A84279DB9DED120B51EC100B02F06D
:105A00005FFC41EC180B9FEDC00B53EC102BFBF728
:105A100042FA9FEDBF1B53EC112BFBF795F9FBF7F7
:105A2000E5FC0746FBF726FB41EC190B53EC1A2B60
:105A3000FBF731FA53EC182BFBF72AFA41EC180B61
:105A400053EC1B2B51EC190BFBF725FADFF8C8A21E
:105A500041EC100B4FEA15580125FA4453EC102B7A
:105A600051EC180BFBF711FA032DC4E900013DD0EE
:105A7000C1F30A5005EB4511A8EB00001139814232
:105A800034DA0AEB051BB0EE48AA9BED000BF0EEF2
:105A900068AA53EC102B51EC190BFBF7FCF941EC05
:105AA0001B0B51EC1A0B53EC1B2BFBF7EEF941ECE3
:105AB000180B51EC1A0B53EC182BFBF7E6F953ECCF
:105AC0001B2BFBF7E2F99BED020B41EC1A0B53EC9D
:105AD000102B51EC190BFBF7DEF953EC1A2BFBF7EB
