:020000040800F2
:1000000030BF012059020008B34400081936000827
:10001000B1440008C1210008EB5D000800000000A9
:10002000000000000000000000000000A101000826
:100030008532000800000000F5010008054D0008A9
:1000400073020008730200087302000873020008BC
:1000500073020008730200087302000873020008AC
:100060007302000873020008873200087302000858
:10007000730200087302000873020008730200088C
:10008000730200087302000873020008730200087C
:10009000C1220008730200087302000873020008FE
:1000A000730200087302000873020008730200085C
:1000B00073020008754D00087302000873020008FF
:1000C000730200087302000873020008730200083C
:1000D0007302000873020008414F00087302000811
:1000E000730200087302000873020008730200081C
:1000F000730200087302000873020008730200080C
:100100007302000873020008914D00087302000892
:1001100073020008E14E0008730200087302000831
:1001200073020008730200087302000873020008DB
:1001300073020008730200087302000873020008CB
:100140007302000849250008730200082D450008C5
:1001500073020008730200087302000873020008AB
:10016000730200087302000873020008730200089B
:10017000730200087302000873020008730200088B
:100180007302000873020008DFF810D001F056F97E
:10019000004800476D990008AFF3008030BF012090
:1001A0002A4B19680868B0E8F04F80F30988BFF35C
:1001B0006F8F4FF0000080F311887047000000003F
:1001C00006480068006880F3088862B661B6BFF32D
:1001D0004F8FBFF36F8F00DF00BF00BF08ED00E05F
:1001E000DFF80C00016841F470010160704700BF46
:1001F00088ED00E0EFF30980BFF36F8F134B1A68AF
:100200001EF0100F08BF20ED108A20E9F04F10609B
:1002100008B44FF0500080F31188BFF34F8FBFF345
:100220006F8F0AF067FD4FF0000080F3118808BC63
:1002300019680868B0E8F04F1EF0100F08BFB0EC66
:10024000108A80F30988BFF36F8F70477000002019
:10025000EFF30580704700000648804706480047D6
:10026000FEE7FEE7FEE7FEE7FEE7FEE7FEE7FEE766
:10027000FEE7FEE7194D0008890100089FED1A1AF4
:10028000F5EE000A40EE010ABDEEE00AF5EEC00A06
:1002900010EE100AF1EE10FA38BF401E00EE100A00
:1002A0001349F7EE001AB8EEC00A30EEC00ADFEDCF
:1002B0000F0A20EE200AFCEEC00A10EE900AC0F3EE
:1002C000080000EE900A01EB8000F8EE600A90ED65
:1002D000011A70EE600A90ED000A71EEE01A21EE4C
:1002E000800A00EE810A704783F9223E0000004434
:1002F00098BA0008DFED190AB5EEC00A60EE200AD0
:10030000BDEEE01A11EE100AF1EE10FA38BF401EF1
:1003100000EE100A1349F7EE001AB8EEC00A30EEEC
:10032000C00ADFED0F0A60EE200ABCEEE00A10EE14
:10033000100AC0F3080000EE100A01EB8000B8EECE
:10034000400A90ED011A70EEC00A90ED000A71EEBD
:10035000E01A21EE800A00EE810A704783F9223EFE
:100360000000004498BA000870B405880E884468FC
:10037000D1F804C05368B54208D140884988884202
:1003800001BF11888D425188884203D070BC6FF044
:100390000200704705FB00F1880827D094ED001A91
:1003A000DCED000A94ED010ADCED011A31EE201AB1
:1003B000D4ED020A70EE211A9CED020A83ED001AB8
:1003C000C3ED011A94ED031ADCED031A30EE800A36
:1003D000401E71EE210A83ED020A04F11004C3ED00
:1003E000030A03F110030CF1100CD7D111F0030034
:1003F00030D0B0F1004F30D200282BDD211F1B1F61
:10040000ACF1040210F0010F0AD091ED010AD2ED17
:10041000010A091D121D30EE200A83ED010A1B1D81
:10042000400817D091ED010AD2ED010A401E30EECE
:10043000200A83ED010A91ED020AD2ED020A01F1D0
:10044000080102F1080230EE200A83ED020A03F1EE
:100450000803E7D170BC00207047B4EC010A401ECD
:10046000FCEC010A30EE200AA3EC010AF5D1F1E719
:1004700001804280436070472DE9F34F84B00498B7
:1004800040680090486801900498B0F800E0458802
:10049000DFEDFE0A00200290B0EE600AAE4506D104
:1004A00008884988884204BF7146864504D06FF0A9
:1004B000020006B0BDE8F08F01985FEA010C18BF9A
:1004C000B7EE001A3DD000BFBEEB0C0117D0B1F162
:1004D000004F80F01F82002911DD021F11F0010F73
:1004E0001CBFC2ED010A121D4B1006D0C2ED010A5D
:1004F000C2ED020A08325B1EF8D100EB8100BCF1AC
:100500000102A0EC011A19D0B2F1004F80F008826C
:10051000002A13DD031F12F0010F1CBFC3ED010AF7
:100520001B1D511008D000BFC3ED010AC3ED020A24
:10053000491E03F10803F7D100EB8200BCF1010C66
:10054000C2D14FF000080395002D14BFB0EE602A11
:10055000002000F0BF8100BF009908FB05F001EB0F
:10056000800B0199DBED002A01EB80000346F0EEE1
:10057000421AC64552D9AEEB0802ABEB850112F028
:10058000010F17D001EB850191ED000AB5EEC00A0D
:10059000F1EE10FA07DDB4EEE10AF1EE10FA09DD32
:1005A000F0EE401A06E0B1EE400AF4EEC01AF1EEA9
:1005B00010FAF5D3521031D001EB850C9CED000AF6
:1005C000B5EEC00AF1EE10FA05DDB4EEE10AF1EE87
:1005D00010FA09DD06E0B1EE400AF4EEC01AF1EEC1
:1005E00010FA01D2F0EE401A01EBC50191ED000ABC
:1005F000B5EEC00AF1EE10FA05DDB4EEE10AF1EE57
:1006000010FA09DD06E0B1EE400AF4EEC01AF1EE90
:1006100010FA01D2F0EE401A521ECDD1F5EEC01AFA
:10062000F1EE10FA00F07381F5EEC02A0126F1EE2A
:1006300010FA0099D4BFB1EE620AB0EE620AB4EECD
:10064000610AF1EE10FA1CBFAEEB0802B2F1010C28
:1006500047D005FB08F201EB820292ED001A00BFC1
:10066000B0EE410A05FB06F4B5EEC00A00EB8404C7
:10067000F1EE10FACCBFF0EE400AF1EE400AF4EED3
:10068000610AF1EE10FA28D1B5EB080C11D0BCF1DB
:10069000004F7DD2BCF1000F0BDD00BF92ED000AD0
:1006A000D1ED000ABCF1010CE2EC010AA1EC010A57
:1006B000F4D129000ED0B1F1004F6AD2002909DD32
:1006C00094ED000AD0ED000A491EE4EC010AA0EC0A
:1006D000010AF5D1012002900BE0761CBCF1010C5F
:1006E000BED10298012804D0F5EEC02AF1EE10FA2E
:1006F0007ED09BED000AB5EB08009A4659460646A7
:1007000022D0B0F1004F74D200281DDD091F10F077
:10071000010F06D0F0EE400A80EEA01A81ED011A1A
:10072000091D401010D000BFD1ED010A401E80EE1F
:10073000801A81ED011A91ED021AC1EE000AC1ED95
:10074000020A01F10801EFD1280026D0B0F1004FD4
:100750007ED2002821DDAAF1040110F0010F06D09D
:10076000D1ED010A80EE801A81ED011A091D4010B9
:1007700013D000BFD1ED010A401E80EE801A81ED3A
:10078000011AD1ED020A80EE801A81ED021A01E011
:10079000CBE0D6E001F10801ECD1DDE900124FF029
:1007A00000095FEA0E0773D0C14504BF01EB860163
:1007B00002EB850274D091ED000ADC46504633000E
:1007C00035D01C46B6F1004F7ED2002C2FDD0B1F1A
:1007D000ABF1040C16F0010F0FD0F0EE400ADCED87
:1007E000011AB0EE601A00EEE11A83ED011A01E081
:1007F0008DE0B1E01B1D0CF1040C741015D000BF8E
:10080000D3ED010A9CED011A40EE410AC3ED010A45
:10081000D3ED020A9CED021A0CF1080C40EE410ADD
:10082000C3ED020A0833641EEAD101EB86012B00F6
:1008300036D0B3F1004F72D2002B31DDA2F1040C9F
:10084000AAF1040013F0010F0CD0DCED010A00E066
:100850008BE090ED011A001D40EE410ACCED010A3B
:100860000CF1040C5C1019D0DCED010A90ED011ABA
:1008700040EE410ACCED010ADCED020A90ED021ACD
:10088000083040EE410ACCED020A03E0000000000F
:100890000DE005E0641E0CF1080CE5D102EB8302CB
:1008A00001EB88017F1E09F101097FF47DAF0098FB
:1008B00008F10108001D00900398401E03907FF48A
:1008C0004BAE0299012900E058E004BF06B0BDE834
:1008D000F08F00BFB5EEC00AF1EE10FA7FF4E9AD7B
:1008E00004990EFB05F3002B4A684FF000010BD969
:1008F00002EB810C9CED000AB5EEC00AF1EE10FA95
:1009000002D1491C8B42F3D88B427FF4D2AD6FF0F9
:100910000400CEE5E0EC010A491EFBD1EFE538E02A
:10092000E0EC010A521EFBD108E692ED000AD1ED7F
:10093000000ABCF1010CE2EC010AA1EC010AF4D1BD
:10094000B7E694ED000AD0ED000A491EE4EC010A76
:10095000A0EC010AF5D1BDE6D1ED000A401E80EE03
:10096000801AA1EC011AF7D1EEE6D3ED000A401E81
:1009700080EE801AA3EC011AF7D10EE7BCEC011A45
:10098000D1ED000A5B1E40EE410AE1EC010AF5D10F
:100990004DE7B0EC011AD2ED000A5B1E40EE410AB1
:1009A000E2EC010AF5D17BE72DE9F04F82B0466811
:1009B00053680193058847884B8800200090088879
:1009C000874201BFB2F800C06545528893421EBFFE
:1009D0006FF0020002B0BDE8F08F9FED412A4FEAB0
:1009E000970EC7F3400B00BFDDE9000202EB800A5F
:1009F0004A6898464FF00009B0EE420AB4465FEAF2
:100A00000E0025D092ED001ADCED001A02EB8302F5
:100A1000DCED010A01EE810A92ED001A02EB83027D
:100A2000401ED2ED001A02EB830200EE810A9CED1B
:100A3000021ADCED030A00040CF1100C000C01EEAC
:100A4000210A92ED001A02EB830200EE810AD9D14D
:100A500017F0030026D0ACF10404A2EB830210F0DF
:100A6000010F08D002EB8302D4ED010A92ED001AC7
:100A7000241D00EE810A5FEA0B0013D002EB830C09
:100A8000D4ED010A9CED001A02EBC302401E00EEF9
:100A9000810AD4ED020A92ED001A04F1080400EE76
:100AA000810AEBD109F10100AAEC010A1FFA80F9D1
:100AB000486800EB8902A8F101001FFA80F8B8F13C
:100AC000000F99D1009806EB8706184480B2009079
:100AD000681E05042D0C87D102B00020BDE8F08F00
:100AE0000000000070B405880E884468D1F804C086
:100AF0005368B54208D140884988884201BF1188AF
:100B00008D425188884203D070BC6FF0020070475C
:100B100005FB00F1880827D094ED001ADCED000AEF
:100B200094ED010ADCED011A31EE601AD4ED020AEF
:100B300070EE611A9CED020A83ED001AC3ED011AF2
:100B400094ED031ADCED031A30EEC00A401E71EE7C
:100B5000610A83ED020A04F11004C3ED030A03F1F4
:100B600010030CF1100CD7D111F0030030D0B0F10C
:100B7000004F30D200282BDD211F1B1FACF10402D7
:100B800010F0010F0AD091ED010AD2ED010A091D02
:100B9000121D30EE600A83ED010A1B1D400817D0BC
:100BA00091ED010AD2ED010A401E30EE600A83ED9C
:100BB000010A91ED020AD2ED020A01F1080102F1E7
:100BC000080230EE600A83ED020A03F10803E7D160
:100BD00070BC00207047B4EC010A401EFCEC010A16
:100BE00030EE600AA3EC010AF5D1F1E72DE9F04FF0
:100BF00002884768B0F802804888D1F8049082B033
:100C00004FF0000A1646824207BF098888456FF0F8
:100C1000020002B018BFBDE8F08F4FEA980B02EB5C
:100C200042000190C8F34000CDF8000009EB8A01B2
:100C3000BBF1000F33D0019801EB820C01EB800473
:100C40003B46E64601EBC2054FEA0B0093ED000A76
:100C5000401E81ED000A93ED010A01EB02118CEDBB
:100C6000000A93ED020A0CEB021C85ED000A93EDDD
:100C7000030A05EB021584ED000A04EB021403F1EC
:100C80001003E3D10EEB820000EB820000EB820147
:100C9000ABF10100504307EB0B1701EB001118F00B
:100CA000030C21D03B1FA1EB82011CF0010F06D0E9
:100CB00093ED010A01EB82011B1D81ED000A0098F2
:100CC00080B100BF93ED010A01EB820401EBC20188
:100CD00084ED000A93ED020A401E81ED000A03F143
:100CE0000803EFD107EB8C070AF101001FFA80FA25
:100CF000701E0604360C99D102B00020BDE8F08FBA
:100D000040EA01039B0703D009E008C9121F08C08D
:100D1000042AFAD203E011F8013B00F8013B521E0D
:100D2000F9D27047D2B201E000F8012B491EFBD284
:100D300070470022F6E710B513460A4604461946E6
:100D4000FFF7F0FF204610BD2DE9FE4F804681EAF7
:100D50000300C00F0C46009021F0004123F0004535
:100D6000B8EB0200A94105D24046214690461C46F8
:100D70000B46024623F00040104347D0270DC7F32F
:100D80000A00C3F30A510290401A019040286BDA1E
:100D9000C3F3130040F4801B0098924620B1002357
:100DA000D2EB030A63EB0B0B01985946C0F14002EA
:100DB000504600F024FA06460D4650465946019A20
:100DC00000F02CFA10EB08006141002487EA115270
:100DD00084EAE7731A4340D0009A62B3019A012A69
:100DE0004FEA075215DC001B61EB02014FF0004295
:100DF00002EA0752CDE90042001C41F5801132465B
:100E00002B4600F063FA03B0BDE8F08F4046214660
:100E1000F9E7001B61EB0201001C41F5801300188B
:100E20005B412018A2F5001747EB030140EAD5709B
:100E3000B6196D4111E06D084FEA360645EAC075F6
:100E40004FEA0752001B61EB0201001C41F58011C3
:100E500049084FEA30000019514132462B4603B091
:100E6000BDE8F04F00F023BA0098012240000023B3
:100E7000D0EB020263EBE073009821464FEAE07486
:100E8000B8EB000061EB0401E9E783F000435BE7A6
:100E900081F0004158E72DE9FE4F81EA030404F098
:100EA000004421F0004100944FF0000B23F0004378
:100EB00050EA01045ED052EA03045BD0C3F30A5443
:100EC000C1F30A552C44A4F2F3340194A0FB02545C
:100ED000C1F3130141F48011C3F3130343F48013EE
:100EE00001FB024400FB034E840A970A44EA815442
:100EF00047EA8357A4FB076802958D0A05FB07851F
:100F00004FEA932C04FB0C542705029D4FEA065828
:100F100047EA1637B5EB08056EEB070C870E920E05
:100F200047EA811742EA8312A7FB0201B6EB0B01E5
:100F300064EB00042B0D43EA0C335E1844EB1C50A9
:100F4000DA465146E7FB0201C5F313044FEA0B33BF
:100F500043EA14534FEA0432019C43EA0603A4F126
:100F60000C040294009CCDE900B400F0AFF903B08A
:100F7000BDE8F08F00200146F9E72DE9F04D81EA48
:100F8000030404F0004B21F0004514464FF0000A22
:100F900023F0004150EA050220D054EA01021DD09E
:100FA000C5F30A570246C5F31303C1F31300C1F397
:100FB0000A5640F4801543F48013A7EB0608101B73
:100FC000D64608F2FD3873EB050002D308F101089C
:100FD00001E092185B41B8F1000F03DA00200146EE
:100FE000BDE8F08D00204FF48011064684460EE0E7
:100FF000171B73EB050705D3121B63EB05030643B1
:101000004CEA010C49084FEA300092185B4150EA63
:101010000107EDD152EA030012D082EA040083EA0C
:101020000501084305D0101BAB4106D20122002365
:1010300006E000224FF0004302E06FF0010253107F
:101040001AEB06004CEB085110EB0A0041EB0B01C8
:10105000BDE8F04D00F02BB930B4044696230800EB
:10106000214604D0B62330BC002200F0F2B820465E
:101070000021F8E70EB5C10F80EAE0700844CA0706
:10108000002140F233438DE80E000A460B4600F083
:101090001DF903B000BD0EB540F2334102910021AD
:1010A000CDE900110A460B4600F010F903B000BD6F
:1010B00000F0004230F000400AD0C10D01F560712F
:1010C000C0F3160042EA0151C208400711437047BD
:1010D000002001467047000030B5041E71F1000485
:1010E00004DB4FF00044404264EB0101141E73F135
:1010F000000405DB1C464FF00043524263EB04033F
:101100008B4208BF824230BD30B5041E71F100042D
:1011100004DB4FF00044404264EB0101141E73F104
:10112000000405DB1C464FF00043524263EB04030E
:10113000994208BF904230BD01F0004330B421F025
:10114000004150EA010206D00A0DA2F56072C1F317
:101150001301002A02DC30BC00207047440F44EA2F
:10116000C104C100E01830BC00EBC25000F068B808
:1011700030B50B46014600202022012409E021FA67
:1011800002F59D4205D303FA02F5491B04FA02F564
:101190002844151EA2F10102F1DC30BD2DE9F05FFB
:1011A0000546002092469B468846064681464024D6
:1011B0001BE0284641464746224600F051F9534677
:1011C0005A46C01A914110D311461846224600F0E3
:1011D00016F82D1A67EB01084F4622460120002120
:1011E00000F00DF817EB00094E41201EA4F1010498
:1011F000DFDC484631462A464346BDE8F09F202AB8
:1012000004DB203A00FA02F1002070479140C2F15D
:10121000200320FA03F3194390407047202A06DB8D
:10122000CB17203A41FA02F043EAE07306E041FAB4
:1012300002F3D040C2F120029140084319467047A2
:101240000029A8BF7047401C490008BF20F00100DA
:10125000704710B4B0FA80FC00FA0CF050EA0104B8
:1012600004BF10BC704749B1CCF1200421FA04F44A
:1012700011FA0CF118BF012121430843A3EB0C0123
:10128000CB1D4FEA00614FEA102042BF002010BC86
:10129000704700EBC35010440029A4BF10BC704736
:1012A000401C490008BF20F0010010BC704710B579
:1012B000141E73F1000408DA401C41F10001921879
:1012C0005B411A4301D120F0010010BD2DE9F04D22
:1012D00092469B4611B1B1FA81F202E0B0FA80F277
:1012E00020329046FFF78BFF04460F4640EA0A0083
:1012F00041EA0B0153465A46084313D0114653EABC
:10130000010019D0C8F14002504600F0A9F8054686
:101310000E46504659464246FFF771FF084305D036
:10132000012004E020463946BDE8F08D0020054349
:1013300046EAE0762C4337430A986305E40AA0EBBB
:1013400008000022FD0A44EA47540A3002D5002072
:101350000146E9E7010510196941DDE90845001971
:101360006941BDE8F04DA2E72DE9F04D00231A4692
:101370001B1A8A4103DB00200146BDE8F08DC1F352
:101380000A52C1F3130141F480154FF0000BD1074D
:1013900002D100186D41521E0027044640F2FF1191
:1013A000384601EB620A3E468046024600204FF472
:1013B000801100F055F8C2197141BB1846EB0100CD
:1013C000B4EB030C75EB000C04D3E41A65EB0005D9
:1013D00017460E46241908F101006D418046342855
:1013E000E3DDF91946EB0600091BA84103D24FF0D3
:1013F000FF32134601E0002213461BEB070046EBC9
:101400000A51BDE8F04DFFF752BFC1F30A52C1F3D4
:10141000130140F2FF3341F480119A4202DA0020B6
:101420000146704740F233439A42A2F2334202DC53
:10143000524200F015B8FFF7E2BE0000064C074D1F
:1014400006E0E06840F0010394E807009847103494
:10145000AC42F6D3FEF79CFEB0C40008D0C400082E
:10146000202A04DB203A21FA02F00021704721FAF9
:1014700002F3D040C2F12002914008431946704760
:1014800070B5C1F30A5201F000450024C1F3130105
:1014900040F2FF3341F480119A4201DA002070BD1E
:1014A00040F233439A42A2F2334203DC5242FFF746
:1014B000D7FF00E090402C43F1D0404270BD70B5A2
:1014C0008C1810F8015B15F0070301D110F8013BEF
:1014D0002A1106D110F8012B03E010F8016B01F876
:1014E000016B5B1EF9D12B0705D40023521E0DD4CE
:1014F00001F8013BFAE710F8013BCB1A921C03E01C
:1015000013F8015B01F8015B521EF9D5A142D8D353
:10151000002070BD30B52DED068BC9B09FED7A8AE5
:101520007A4D0024B0EE489AF0EE488ADFED789AC2
:10153000B0EE00AADFED77AA2A1DA91C734802F0BD
:1015400001FCB5F9000048AA00EE100A47A9B8EE60
:10155000C00A20EE290A20EE0A0A20EE2A0A8DEDA2
:10156000460AB5F9020000EE100AB8EEC00A20EEF5
:10157000290A20EE0A0A20EE2A0A8DED470AB5F95B
:10158000040000EE100A46A8B8EEC00A20EE290AB0
:1015900020EE0A0A20EE2A0A8DED480A06F03CFCED
:1015A0009DED460A032039EE009A9DED470A78EE3C
:1015B000808A9DED480A38EE008A08F029FA641CFA
:1015C000E4B2642CB8D3DFED541A89EE210A88EE18
:1015D000A11A8DED460A20EE000AC8EE210A8DED13
:1015E000471A01EE010ACDED480A00EEA00A08F004
:1015F0001BFA9DED461AC1EE000A10EE900AFFF7A5
:1016000057FD41EC100B04F02FFC9FED44AB51EC67
:10161000100B53EC1A2BFFF73EFC9DED480A41ECF2
:10162000180BB1EE400A10EE100AFFF741FD9DEDD8
:10163000470A41EC190BB1EE400A10EE100AFFF711
:1016400037FD41EC100BB0EE491AF0EE691A04F0C8
:1016500027FF53EC1A2B51EC100BFFF71CFC9FEDEE
:10166000311B53EC112BFFF710FC41EC100B9FEDDD
:101670002F2BB0EE481AF0EE681A34A800F0F8FBF1
:10168000482234A922A8FFF73BFB402224A9684640
:10169000FFF736FBDDE9222334A802F0DBFE482207
:1016A00034A910A8FFF72CFB382214A96846FFF7CD
:1016B00027FB10AC94E80F0002F0D4FCB0EE41AA76
:1016C000F0EE61AAB0EE429AF0EE629AB0EE438A72
:1016D000F0EE638A51EC100BFFF72EFD154C2060E5
:1016E00051EC1A0BFFF728FD606051EC190BFFF766
:1016F00023FDA06051EC180BFFF71EFDE06049B020
:10170000BDEC068B30BD00000000000068A7012082
:10171000000000380AE81C410000C8420000000038
:10172000DCA54C4000000000008066400000000086
:1017300000000000F80100203EB5224C221DA11C33
:10174000204602F0FFFAB4F900006A4600EE100AE3
:1017500001A9F8EEC00A9FED1C0A20EE801AF0EEF7
:10176000000A61EE201A9FED191A61EE811ACDED83
:10177000021AB4F9020001EE900AF8EEE11A61EEE5
:10178000801A61EEA01A61EE811ACDED011AB4F94A
:10179000040001EE900A02A8F8EEE11A21EE800A98
:1017A00020EE200A20EE010A8DED000A06F034FB3F
:1017B0009DED001ADDED010A9DED020A00F0F4FA3C
:1017C0003EBD000068A70120000000380AE81C4167
:1017D00030B52DED108B89B0FE4CFF48D4ED001ACA
:1017E00021EEA10A8DED020A94ED011AD4ED020A50
:1017F00094ED030A61EE81DA21EEA0DA61EE801A3F
:1018000020EEA0CA60EE80BACDED011A61EE011A99
:1018100061EE00CA20EE00BACDED031A61EE201A87
:10182000CDED001AD0ED040ACDED080AD0ED050A81
:10183000CDED070A90ED061A8DED061AD0ED00EAFF
:1018400090ED01AAD0ED02AA90ED07EAD0ED089A3A
:1018500090ED099A01F07EFE84ED100B94ED0E0BD5
:1018600053EC102B94ED100B51EC100BFFF70DFB0C
:10187000FFF762FC00EE900A9FEDD81A80EE810A15
:1018800010EE100AFFF714FC94ED100B41EC180B4E
:1018900084ED0E0B2EEEAE0A0AEE0A0A0AEEAA0A32
:1018A00008F04EF86EEE800A6AEE80FACDED050A79
:1018B0006AEE000A2EEE0E0ACDED040A09EEA90A20
:1018C00009EE090A08F03CF82EEE00EA69EE80EA1B
:1018D00029EE00FADDED080A9FEDC10A9DED061A1A
:1018E00060EE801ADDED070A21EE001A60EE800A34
:1018F0009FEDBC0ABC4821EE80AA20EE809A61EEE2
:10190000009AB0EECA0A10EE101A9FEDB80A814292
:1019100001DAB0EE40AAF0EEC90A10EE901A814248
:1019200001DAB0EE409AF0EEE90A10EE901A814228
:1019300001DAF0EE409AF6EE002AF0EE00AA32EE5E
:10194000CC0A6EEE2A0A6EEEAA1A30EE4B0A8DED24
:10195000070A20EE802A9DED000A9DED011A70EE27
:10196000413A2FEE2A1A3CEE8D0ACDED063A01EEF1
:10197000A32A9DED013A7CEECD3A01EE002A9DEDC1
:10198000000A30EE030A9DED033ACDED013A72EE06
:10199000C32A20EE800A60EEA30A32EECB3A72EE42
:1019A000CC3A01EE830A3BEEED3ACDED083A01EE7A
:1019B000030A3BEEAD3A41EE830A41EE230ACDED38
:1019C000000A62EE020A40EE000A10EE900AFFF7EB
:1019D0006FFB41EC100B05F083F851EC100BFFF797
:1019E000ABFB9DED021ADDED032A00EE100ADDEDE2
:1019F000000A31EE621ADDED013A20EEAA3A3DEE20
:101A0000AB4A31EE4C1A63EEAA1A24EE2A2A71EE82
:101A10000B2A20EE2A1A9DED070A21EE000A03EE9A
:101A2000230ADDED063A61EE230A7DEE2C3A43EE01
:101A3000040A21EE231ADDED083A03EE231A9DED88
:101A4000043A23EE223A6EEE813A0FEEC23A4FEE9E
:101A5000603A6EEE200A4EEEC00A33EE23BA2FEE45
:101A6000A13ADDED053A03EEE23A6FEE002A2AEEE6
:101A70000A0A23EE822A4EEE412A09EE090A9DED5A
:101A8000041A01EE612A73EE22BA09EEA90A32EEB7
:101A900020CA10EE100AFFF70BFB41EC100B05F00B
:101AA0001FF851EC100BFFF747FB5149884210DA41
:101AB00004F11C000BEE2AAA90EC030A0BEEAA9A82
:101AC0004CEE2A9A3AEE00AA39EE209A79EE819AE3
:101AD00005E03AEE0BAA39EE2B9A79EE8C9AD4ED0A
:101AE00001DA94ED02DAD4ED03BA2DEECA0A0DEE56
:101AF000490A0BEEE90A10EE100AFFF7D9FA53EC87
:101B0000182BFFF7C8F994ED00BA41EC1C0B1BEE43
:101B1000100AFFF7CDFA53EC1C2BFFF715F9FFF76E
:101B20000BFB2BEE0A0A0EEE100A0DEE290A0BEE45
:101B3000C90A10EE100AFFF7BBFA53EC182BFFF797
:101B4000AAF941EC1C0B1DEE900AFFF7B1FA53EC19
:101B50001C2BFFF7F9F8FFF7EFFA2BEE090A0EEE50
:101B6000900A0DEEE90A0BEE8A0A10EE100AFFF752
:101B70009FFA53EC182BFFF78EF941EC1C0B1DEE6E
:101B8000100AFFF795FA53EC1C2BFFF7DDF8FFF76F
:101B9000D3FA2BEE290A0CEE100A0DEE890A0DEE8F
:101BA0004A0A10EE100AFFF783FA53EC182BFFF7DE
:101BB00072F941EC180B1BEE900AFFF779FA53EC1F
:101BC000182BFFF7C1F8FFF7B7FA08EE100A2EEE50
:101BD0000E0A0FE0F801002040A701200000FA449F
:101BE000F8C1F93C35FA8E3CA69B443B000000004E
:101BF0009CC4A03E0EEEAE0A0CEE0C0A08EE080ADB
:101C000007F09EFE6EEE00BA6EEE80CA6CEE008AA1
:101C1000C4ED00BA28EE008AC4ED01CAC4ED028A00
:101C200084ED038A94ED0B0AB8EE00AA84ED0A0A4B
:101C300028EE8A0A68EE2A0AB7EE00BA20EE280AD1
:101C400000EEC80A30EE0B0A10EE100AFFF730FA69
:101C50002CEEAA0A6BEEAA0A41EC190B20EE280A18
:101C600000EE880A10EE100AFFF722FA41EC100B82
:101C7000B0EE491AF0EE691A04F012FC9FED438BA6
:101C800051EC100B53EC182BFFF705F9FFF754FA42
:101C9000E06294ED010AD4ED030A94ED021A20EEFD
:101CA0000A0A20EE200AD4ED000A60EEAA0A00EE2D
:101CB000810A10EE100AFFF7FBF941EC100B04F05B
:101CC000D3F853EC182B51EC100BFFF7E4F8FFF7A7
:101CD00033FA304DA86094ED019A29EE0A0A60EEBD
:101CE000090A94ED020A60EE2A9A49EEC00A30EE23
:101CF0008B0A10EE100AFFF7DBF994ED030AD4ED1E
:101D0000000A41EC180B29EE800A60EEAA0A00EEE8
:101D1000890A10EE100AFFF7CBF941EC100BB0EE78
:101D2000481AF0EE681A04F0BBFB9FED1B1B51EC48
:101D3000100B53EC112BFFF7AEF8FFF7FDF9E8603D
:101D4000D4ED0B0A94ED0A0A154930EEC00A10EEE4
:101D5000100A884202DB206B401E06E010EE100ADB
:101D600010498842206B01D3401C20634FF4B471AA
:101D7000484300EE100AB8EEC00A30EE200A85EDA6
:101D8000040A09B0BDEC108B30BD0000000000005B
:101D9000DCA54CC0B8A7012000000000DCA54C4029
:101DA0000000A5430000A5C3014880EC030A70476A
:101DB00040A7012070B52A4D00242DED068BB0EE12
:101DC00000AA9FED268ADFED279ADFED27AAB0EE65
:101DD000489AF0EE488A2A1DA91C214801F0B2FF5A
:101DE000B5F9000000EE100AB5F90200B8EEC00A1D
:101DF00020EE290A20EE0A0A00EE2A9A00EE100AC6
:101E0000B5F90400B8EEC00A20EE290A20EE0A0A4D
:101E100040EE2A8A00EE100A0320B8EEC00A20EE37
:101E2000290A20EE0A0A00EE2A8A07F0F1FD641C56
:101E3000E4B2C82CCFD30A489FED0C0A2830C9EE73
:101E4000000AC0ED000AC8EE800AC0ED010AC8EE23
:101E5000000AC0ED020ABDEC068B70BD0000000058
:101E600068A70120000000380AE81C410000C842B1
:101E700010B504462DED0C8B92B0B0EE409AF0EE0A
:101E8000609AB0EE41AAF0EE61AA9FEDCB8B51ECC7
:101E9000120B53EC182BFEF7FEFF41EC1B0B53EC1F
:101EA000182B51EC1A0BFEF7F6FF41EC1A0B53EC12
:101EB000182B51EC190BFEF7EEFF41EC190BB0EEAD
:101EC0004B0AF0EE6B0A04F043FDB0EE408AF0EEF0
:101ED000608AB0EE4A0AF0EE6A0A04F039FD53EC6B
:101EE000182B51EC100BFEF7D6FFB0EE4B0AF0EEBC
:101EF0006B0ACDE9000104F08FFDB0EE408AF0EEF0
:101F0000608AB0EE490AF0EE690A04F021FD53EC54
:101F1000182B51EC100BFEF7BEFF41EC1D0BB0EE81
:101F20004B0AF0EE6B0A04F013FDB0EE40CAF0EE7F
:101F300060CAB0EE4A0AF0EE6A0A04F06DFDB0EE37
:101F4000408AF0EE608AB0EE490AF0EE690A04F0C9
:101F500063FD53EC182B51EC100BFEF79CFF53EC78
:101F60001C2BFEF798FF53EC1D2BFEF78EFFB0EEF7
:101F70004B0AF0EE6B0ACDE9020104F04DFDB0EE24
:101F8000408AF0EE608AB0EE490AF0EE690A04F089
:101F900043FD53EC182B51EC100BFEF77CFF41EC8A
:101FA0001D0BB0EE4B0AF0EE6B0A04F0D1FCB0EE64
:101FB00040CAF0EE60CAB0EE4A0AF0EE6A0A04F0D7
:101FC0002BFDB0EE408AF0EE608AB0EE490AF0EEEA
:101FD000690A04F0BDFC53EC182B51EC100BFEF712
:101FE0005AFF53EC1C2BFEF756FF53EC1D2BFEF74C
:101FF000ABFEB0EE4B0AF0EE6B0ACDE9040104F043
:102000000BFDB0EE408AF0EE608AB0EE4A0AF0EEC8
:102010006A0A04F09DFC53EC182B51EC100BFEF7F0
:102020003AFFB0EE4B0AF0EE6B0ACDE9060104F080
:102030008FFCB0EE408AF0EE608AB0EE490AF0EE16
:10204000690A04F085FC53EC182B51EC100BFEF7D9
:1020500022FF41EC1D0BB0EE4B0AF0EE6B0A04F0D0
:10206000DBFCB0EE40CAF0EE60CAB0EE4A0AF0EE19
:102070006A0A04F0D1FCB0EE408AF0EE608AB0EE5D
:10208000490AF0EE690A04F0C7FC53EC182B51EC36
:10209000100BFEF700FF53EC1C2BFEF7FCFE53EC7D
:1020A0001D2BFEF751FEB0EE4B0AF0EE6B0ACDE9A8
:1020B000080104F04DFCB0EE408AF0EE608AB0EE0C
:1020C000490AF0EE690A04F0A7FC53EC182B51EC16
:1020D000100BFEF7E0FE41EC180BB0EE4B0AF0EEF1
:1020E0006B0A04F099FCB0EE40CAF0EE60CAB0EEA4
:1020F0004A0AF0EE6A0A04F08FFCB0EE40BAF0EE45
:1021000060BAB0EE490AF0EE690A04F021FC53EC23
:102110001B2B51EC100BFEF7BEFE53EC1C2BFEF7F5
:10212000BAFE53EC182BFEF7B0FEB0EE4A0AF0EE02
:102130006A0ACDE90A0104F06FFC51EC100B81F042
:102140000041B0EE4A0AF0EE6A0ACDE90C0104F053
:10215000FFFBB0EE408AF0EE608AB0EE490AF0EE86
:10216000690A04F059FC53EC182B51EC100BFEF7E4
:1021700092FEB0EE4A0AF0EE6A0ACDE90E0104F0D2
:10218000E7FBB0EE408AF0EE608AB0EE490AF0EE6E
:10219000690A04F0DDFB53EC182B51EC100BFEF731
:1021A0007AFECDE91001482269462046FEF7A8FDD7
:1021B00012B0BDEC0C8B10BD000000A046DF913FBB
:1021C000FEE700002DE9F04F8BB08A4681461E469F
:1021D000904601210220DDF850B002F043FA0121BF
:1021E000480602F04BFA4FF44070079002208DF839
:1021F000200000248DF8224003208DF821002E4F6E
:1022000001258DF8235007A9384601F019F9092254
:102210000821384601F050F909221146384601F0EC
:102220004BF98DF802B08DF803908DF806408DF8CB
:102230000840ADF800608DF807508DF809501F4E2A
:102240008DF80A408DF804808DF80B408DF805A0BC
:102250006946304600F0B6FA8DF816408DF8174002
:102260008DF81850ADF80C40ADF81040ADF80E40A8
:10227000ADF81240ADF814408DF8195003A800F0E5
:1022800033FA0022E903304600F094FA01220221D9
:10229000304600F08FFA14208DF8240007208DF8C6
:1022A00025008DF826408DF8275009A802F002F984
:1022B0000BB00020BDE8F08F000402400064004035
:1022C00010B586B06A4600212E4800F0EFFA2E4A7B
:1022D0000098A0F11001D060032950D82B4BC0EB1F
:1022E000C0009DF80B1003EB8000A0F5E070090919
:1022F0000160BDF80C10DFED260A49BA41609DF877
:102300000E109FED240A0C019DF80F1044EA1114E1
:1023100084609DF8104001F00F0144EA0121C16082
:102320004068102108F096F9D0680C21C0EBC0007D
:1023300003EB8000DFED180A00ED6C0AA0F5805079
:102340009FED160AD0F8480E08F084F9D0680C21E9
:10235000C0EBC00003EB8000F3EE0E0A00ED6B0A49
:10236000A0F58050BBEE0E0AD0F84C0E08F072F9C2
:10237000D068C0EBC00003EB800000ED6A0A06B035
:1023800010BD00000064004030000020D80900208B
:10239000DA0F4940DA0F49C000003442000034C26D
:1023A00000B585B06946009000208DF808008DF8D2
:1023B000090008208DF80A00FF208DF80C008DF828
:1023C0000D008DF80E008DF810008DF80B008DF8C3
:1023D0000F008DF81100FD208DF81200024800F06A
:1023E000ACFA05B000BD00000064004000B585B047
:1023F0006946009000208DF808008DF8090008203B
:102400008DF80A00FF208DF80C008DF80D008DF876
:102410000E008DF810008DF80B008DF80F008DF870
:102420001100FC208DF81200024800F086FA05B079
:1024300000BD0000006400402DE9F04F8BB08A46DB
:1024400081461E46904601210220DDF850B002F080
:1024500009F901218C06204602F010F901212046DD
:1024600002F018F90021204602F014F960200790CC
:1024700002208DF8200000248DF8224003208DF8E2
:1024800021002F4F01258DF8235007A9384600F071
:10249000D7FF09220521384601F00EF8092206214E
:1024A000384601F009F88DF802B08DF803908DF8E8
:1024B00006408DF80840ADF800608DF807508DF8A3
:1024C0000950204E8DF80A408DF804808DF80B409D
:1024D0008DF805A06946304600F074F90E208DF89D
:1024E00016008DF817408DF81850ADF80C40ADF877
:1024F0001040ADF80E40ADF81240ADF814508DF814
:10250000195003A800F0F0F80022E903304600F06B
:1025100051F901221021304600F04CF941208DF88C
:10252000240008208DF825008DF826408DF82750CE
:1025300009A801F0BFFF0BB00020BDE8F08F00003C
:10254000000402400068004070B5614A0121614802
:1025500000F0ACF95E49604B40F205250868186050
:102560000446A0F20522A84270D036DC584A9728CB
:10257000A2F1B40240D09A284ED0A0F58070413824
:1025800001D0012837D1A4F24110514A586000EB24
:10259000C000243A0B7B02F8103002EB40004B7B6A
:1025A00043718A7B8271CA7B42700A7C82704A7C4A
:1025B000C270897C0171B0F803104181B0F801103C
:1025C0000181B0F8051081814189C289891AB1F56C
:1025D000004F31DB018A491E33E0A2F58072FB3ADD
:1025E0006AD03E48012A6AD0022A04D131F80B2F62
:1025F00002804988418070BD31F80B0F40BA50808D
:10260000488840BA00B25060888840BA1080887903
:102610009060C879D06070BD31F80B0F40BA50821D
:10262000488840BA00B25061888840BA10828879E0
:102630009061C879D06170BD11F5004F02DC018A4C
:10264000491C01824189C18170BDFFE72048C8381B
:102650000288B0F91230D21AB2F5805F02DDC2688A
:10266000521E04E012F5805F02DAC268521CC2609A
:102670000288428231F80B2F52BA02804B885BBA33
:1026800043808B885BBA838089790174C168C1EB10
:1026900041311144816010B24FF41A7107F035F9DD
:1026A00000EE100ADFED0E0A0E48B8EEC00A20EE6A
:1026B000200A80EDA00AC7E7C87A9860C4E731F81D
:1026C0000D2F82804A88C28089880181BCE7000082
:1026D0006C0A00200068004030000020800A0020C2
:1026E0000000343D8CB10120F0B5827A2F4D0121DC
:1026F00091402A6842F001022A602C4E1C36326852
:102700008A433260294A047B294B0C32A4B91468ED
:102710008C4314604488C78844EA0744877A03EBF3
:10272000C707C7F840460488878844EA0744877A81
:1027300003EBC707C7F84446047B012C12D1146889
:102740000C431460847A026803EBC4044FEA3242FB
:10275000C4F84026847A426803EBC4034FEA32424D
:10276000C3F84426114AC37A121D002B136806D001
:102770000B4313600D4A0389143213B104E08B43F9
:10278000F7E713688B4313600389012B02D11368A9
:102790000B431360407B012802D13068084330604E
:1027A000286820F001002860F0BD000000660040AD
:1027B00000600040002A426901D00A4300E08A43D9
:1027C0004261704710B50368002223F002030360E2
:1027D000036843F0010303604FF6FF7300E0521CEF
:1027E0004468E40701D19A42F9D14268D2073ED049
:1027F0008A79012A02683CD022F080020260CA79FC
:10280000012A026838D022F0400202600A7A012AC6
:10281000026834D022F0200202604A7A012A02685B
:1028200030D022F0100202608A7A012A02682CD08D
:1028300022F008020260CA7A012A026828D022F037
:10284000040202608A78CC78920742EA04620C792A
:1028500042EA04424C79098842EA0452491E0A437A
:10286000C261016821F001010160002114E0002033
:1028700010BD42F08002C1E742F04002C5E742F0DD
:102880002002C9E742F01002CDE742F00802D1E78A
:1028900042F00402D5E7491C4268D20701D09942B0
:1028A000F9D14068C007E2D1012010BD10B500EB9E
:1028B0000113D3F8B04114F004041472D3F8B041FA
:1028C00033D0E4085460D3F8B04104F002045472E9
:1028D000D3F8B44104F00F049472D3F8B441240A3D
:1028E000D474D3F8B841D472D3F8B841240A14731D
:1028F000D3F8B841240C5473D3F8B841240E947320
:10290000D3F8BC41D473D3F8BC41240A1474D3F86F
:10291000BC41240C5474D3F8BC311B0E937439B1F0
:10292000016941F02001016110BD640D1460CAE726
:10293000C16841F02001C16010BD30B502460020E1
:1029400093685B0108D49068000101D5012003E081
:102950009068C00044D5022002EB0012D2F880310A
:1029600003F00103C2F880310B7AC3B3D2F880417F
:102970004D681C434B7A43EAC5031C43C2F88041AF
:102980008B7A03F00F038B72D2F8843123F00F039C
:10299000C2F88431D2F884318C7A2343C2F884316E
:1029A000CB7A8C7B0D7B43EA04634C7B240444EAA2
:1029B00005242343C2F88831CB7B8C7C43EA046333
:1029C0004C7C097C240444EA01210B43C2F88C317D
:1029D000D2F8801141F00101C2F8801130BD01E050
:1029E0000420FBE7D2F880314C7A23430C8843EA79
:1029F0004453C2F88031C3E710B586B0322200924A
:102A000000228DF808208DF8092008238DF80C008D
:102A10008DF80A30030A080A8DF811008DF812109B
:102A20008DF80F20094C8DF80D208DF80B308DF8A6
:102A300010208DF80E2069462046FFF77EFF69467C
:102A40002046FFF77AFF06B010BD00000068004086
:102A500005F096FA05F01AFB012007F099FFF9E757
:102A600006F01CF906F04CF9012007F091FFF9E798
:102A70002DE9F04104462DED028B122004EBC0013C
:102A8000401E91ED480B002881ED4A0B91ED000BA3
:102A900081ED020BF2DC94ED000B9FED241B84ED25
:102AA000020B53EC112B51EC100BFEF7F4F9214EF5
:102AB0000125A6F19808C4E94A0104EBC50706EB15
:102AC000C50097ED4A1B90ED000B53EC112B51EC18
:102AD000100BFEF7E0F941EC180B08EBC50097ED81
:102AE000021B90ED000B53EC112B51EC100BFEF779
:102AF000D2F994ED4A1B53EC112BFEF725F953EC58
:102B0000182BFEF7C2F96D1C132DC4E94A01D4DB62
:102B100094ED4A0B84ED920B51EC100BFEF70CFB7D
:102B2000BDEC028B00EE100ABDE8F081BEDC0F1C8C
:102B3000508C063E00BA00080A4610B5090602F09D
:102B40007F0306D503EB830100EBC10101F58E7114
:102B500005E002EB820100EBC10101F55D7100248B
:102B60008C700B70D2094A7002F0FDFF002010BD7E
:102B700070B50D460E0601F07F0404EB840100EBF6
:102B8000C10102D501F58E7101E001F55D71ED091C
:102B90000C704D708A60CB7000D0CC80022B01D1BC
:102BA00000220A7102F0B6FF002070BD10B501F0DE
:102BB0007F0404EB840100EBC101C1F88833C1F844
:102BC00080230023C1F88C3381F8753381F8744376
:102BD000C37801F55D71012B00D10A6114F0FF0F7C
:102BE00003D002F0F1FF002010BD02F025FFFAE74C
:102BF0000069002261F30A12016811430160704705
:102C00000A4610B5090602F07F0306D503EB8301DF
:102C100000EBC10101F58E7105E002EB820100EBD2
:102C2000C10101F55D7101248C700B70D2094A70ED
:102C300002F0B2FF002010BD70B511F07F0404EB6C
:102C4000840100EBC1014FF0010581F81D5181F8AD
:102C50001C41C1F82821C1F82C2101F58E714FF0DB
:102C60000002C1E9053203D002F0AEFF002070BDC2
:102C700002F0E2FEFAE770B5044602F0C0FEE0683A
:102C8000C16821F47055C560204603F055F801462F
:102C9000002003290FD00120A0704020A08025F43F
:102CA000705000F5A050E168C860E1684FF4005032
:102CB0004861012070BDA0704FF40070A08025F421
:102CC000705000F51050EEE72DE9F0410646002463
:102CD00003F053F8074650E0F8074CD03069E1B2F2
:102CE0000369426BCA4006EB810102F00102896967
:102CF00043EAC2128D681540E9071AD00125426BDC
:102D000005FA04F18A43426306EB8400806985601A
:102D10001C48E1B20068426830469047F0780128CC
:102D200007D134B996F81101042802D1304602F0D7
:102D3000DFFE280704D506EB84000825806985603E
:102D4000E80604D506EB84001025806985606806D6
:102D500004D506EB8400402580698560A80704D56A
:102D600006EB8400022580698560280603D521468C
:102D7000304600F017F97F08641C002FACD1012009
:102D8000BDE8F081900300202DE9F04105460024C4
:102D900002F0F9FF0746DFF8988043E0F8073FD0DC
:102DA000E1B2284602F0F5FF0646C00725D005EB44
:102DB00084000126416D8E60E97801290CD1406DB7
:102DC000016904EB840005EBC000C1F31201D0F8E7
:102DD0007C23511AC0F88C13D8F80000E1B20268C5
:102DE00028469047E878012807D134B995F81101B1
:102DF000052802D1284602F07BFEB00704D505EB7A
:102E000084000226406D8660300709D5D8F800009E
:102E100081682846884705EB84010820496D886051
:102E20007F08641C002FB9D10120BDE8F0810000AB
:102E30009003002070B50546C068816921F010013B
:102E40008161E868066A06F00F0000EB800005EB80
:102E5000C004C6F3434004F55D74072821D2DFE8BF
:102E600000F0202004202020150047F6F0700642D4
:102E700017D0C6F30A1632462846E16802F091FFE1
:102E8000E0683044E060A069304409E0082205F2BF
:102E9000CC51284602F085FFA069C6F30A11084408
:102EA000A061E868816941F010018161012070BD75
:102EB00038B5044600208DF8000094F812018DF812
:102EC00000001548006841692046884720698068ED
:102ED000E2684FF400615161A17AD1B1C00718D006
:102EE00094F81501012814D19DF80000032810D191
:102EF000D4F80C01016841F001010160D4F80C0123
:102F0000016841F0030101600448016841F00601D5
:102F10000160012038BD00009003002010ED00E0AA
:102F200070B50446006900250126416821F00101C1
:102F300041602946204602F0DDFE0020FF2206E027
:102F400004EB80018B699A60496D8A60401C61784E
:102F50008142F5D821694FF0FF3088612846216908
:102F600066F30F0066F31F40C861216945F00B004E
:102F70004861216945F00B0008612069016821F46E
:102F8000FE610160204602F0B3FDE1684FF480501D
:102F9000486103480068016920468847012070BDE8
:102FA000900300202DE9F0470E4601EB860100EB6F
:102FB000C1048046D4E94C01401AD4F8241104F528
:102FC0008E74814200D20846C01C08EB860987082F
:102FD000D9F81800816920E0451AA068A84200D2FB
:102FE0000546E81C8708ABB2F2B24046E16802F041
:102FF000E8FEE0682844E060A0692844A061D9F8B0
:10300000181089696269824207D1207801228240C2
:10301000D8F81000436B9343436388B2B84205D994
:10302000D4E90501814201D20028D5D10120BDE8B3
:10303000F0870000074A904201D2074801E00548A6
:103040001038064A8B0001EA020101D5C1607047C1
:103050008160704710640240006002407D0F7D0F68
:103060000029016802D041F0010101E021F00101D5
:10307000016070472DE9F043016821F00101016012
:103080000021016041608160C160016121214161D5
:103090003C493C4A3D251039904202D18D60BDE843
:1030A000F083384A4FF474661832904201D18E6032
:1030B000F5E7344A4FF474173032904201D18F60F3
:1030C000EDE7304A4FF0746C4832904202D1C1F8BB
:1030D00008C0E4E72B4B2C4A6033984201D1CA6008
:1030E000DDE7284C294B7834A04201D1CB60D6E7EC
:1030F000DFF89080264C08F19008404501D1CC6063
:10310000CDE7DFF880804FF03D5908F1A808404531
:1031100002D1C1F80C90C2E71E49DFF87880083967
:10312000404501D10D60BAE71A4D1835A84201D1CA
:103130000E60B4E7174D3035A84201D10F60AEE7FD
:10314000144D4835A84202D1C1F800C0A7E7114D7F
:1031500010496035091FA84201D10A609FE70D4A56
:103160007832904201D10B6099E70A4A903290423E
:1031700001D10C6093E7074AA83290428FD1C1F881
:1031800000908CE7106002403D000020400F0020BE
:1031900000003D20106402400029016802D041F483
:1031A000802101E021F4802101607047002A02683B
:1031B00002D042F4002201E022F400220260016108
:1031C0007047406880B270470146002009680903D3
:1031D00000D501207047000030B50368124ACC6862
:1031E00013400A682243D1E905452C432243CC69A8
:1031F00022430C6A22434C6A22438C6A22434C6B62
:1032000022438C6B22431A430260426922F0070377
:10321000D1E90B2422431A4342610A6942604A6899
:1032200082608968C16030BD3F801CF0416070479A
:1032300000B5024685B00C209FED0F1ADFED0F0A96
:1032400006F036FB002100928DF808108DF8091069
:1032500008228DF80A208DF80B1003918DF81010BC
:10326000010A8DF811108DF8120069460448FFF725
:1032700064FB05B000BD000000005842000058C2C9
:103280000064004070471020AFF3008001490860DF
:1032900070470000143C014001490860704700007D
:1032A0000C3C024070B50646002529B1012927D003
:1032B000022928D04FF4407500F07EF809281ED16D
:1032C000124C206820F44070206020682843206061
:1032D000206820F0F8002060206846F002010843D2
:1032E0002060206840F48030206000F065F821689C
:1032F00021F002012160216821F0F801216070BDF8
:103300004FF48075D8E74FF40075D5E7103C0240C4
:103310000D4909200A68D20301D5012070470A68C7
:10332000D20601D5062070470A68D20501D50220D1
:1033300070470A6812F0EF0F01D007207047096844
:103340008907FBD5082070470C3C02400248016801
:1033500041F0004101607047103C024070B50D46DD
:10336000064600F029F8092811D1094C206820F4FC
:103370004070206020682060206840F001002060DC
:10338000357000F019F8216821F00101216070BD4D
:10339000103C024005480068002805DA034804494B
:1033A0000C3801600349016070470000103C024086
:1033B00023016745AB89EFCD08B509208DF80000E2
:1033C000FFF7A6FF8DF800009DF800000128F7D058
:1033D0009DF8000008BD10B5FFF7DCFFF120FFF7F6
:1033E0005BFF01215820FFF75DFFBDE81040FFF7AC
:1033F000ADBF0000044A0021535C4354491CC9B2CC
:103400003029F9D30020704700000E0870B5064639
:103410000A4DFFF7E0FFFFF7BDFF0024E120FFF7B3
:103420003BFF315D2819FFF799FF641CE4B2302C93
:10343000F4D3FFF78BFF002070BD000000000E08E2
:10344000F0B5002201274FF0030C0B6807FA02F5D4
:103450002B40AB422CD1066853000CFA03F4A64370
:1034600006600E79D0F800E09E4046EA0E0606603F
:103470000E79012E01D0022E12D18668A6438660F5
:103480004E79D0F808E09E4046EA0E06866046680F
:10349000AE43466045688E799640B6B23543456086
:1034A000C568A543C560CC799C40C3681C43C46013
:1034B000521C102AC9D3F0BD4B07DB0E9A40C90835
:1034C00010B500EB8100016A0F249C40A14301620A
:1034D000016A1143016210BD418370470183704747
:1034E0001B4A10B5911E881E00F055FC18480C3878
:1034F000B0F9081000EE101A00F11401B1F908201B
:10350000F8EEC00A00EE102AB0F90A20B0F90C005B
:10351000B8EEC00A30EEC00A00EE902AB1F90A20D7
:10352000B8EEE01A00EE902AF8EEE00A71EE600ABA
:1035300001EE100AB1F90C00BDE81040F8EEC11A16
:1035400001EE100AB8EEC11A31EEC11A00F02CB823
:1035500074A7012010B52DED028B06F085FAFDF75A
:103560009AFD41EC180B4FF0E020416982694069F7
:10357000891A4FF47A725143B1FBF0F0FDF78BFDDD
:103580009FED071B53EC112BFDF785FC53EC182B1B
:10359000FDF7DAFBBDEC028B41EC100B10BD000017
:1035A000FCA9F1D24D62503F10B510EE100A2DED7E
:1035B000028BF0EE418AB0EE608AFDF779FD124C85
:1035C000C4E9000118EE100AFDF772FDC4E9940188
:1035D00018EE900AFDF76CFD224602F5946203C2D4
:1035E0002046FFF745FA094C094884ED040AFFF725
:1035F0003FFA84ED050A0748FFF73AFA84ED060A18
:10360000BDEC028B10BD0000D89F012040A7012017
:1036100028A2012078A40120FEE700002DE9F04750
:103620001A4E1B4C002506F10C0906F10A0806F19A
:1036300008074A464146384600F0ADFBB6F9080097
:10364000216908442061B6F90A0061690844606193
:10365000B6F90C00A1690844A061032006F0D8F96E
:103660006D1CEDB2C82DE4D32169C82091FBF0F2A6
:10367000064914310A81626992FBF0F24A81A2691B
:1036800092FBF0F08881BDE8F087000068A7012078
:10369000F8010020194D2DED028B05F11406A5F15E
:1036A00078049FED178AFEF747F8FFF719FF04F03B
:1036B00065FC304600F0B0FBFEF78AF894ED040A92
:1036C00020EE080ABDEEC00A10EE100A288094ED24
:1036D000050A20EE080ABDEEC00A10EE100A688046
:1036E00094ED060A20EE080ABDEEC00A10EE100A9C
:1036F000A880012007F04CF9D5E70000B8A7012009
:10370000F8C1F93C2DE9FF5FF7EE001AC0ED4E1A43
:10371000044680ED4F0A9FED620A00F1380280ED09
:10372000500AC0ED511AC0ED5E1A80ED5F0A80EDBF
:10373000600AC0ED611AC0ED440A80ED451A00F13F
:10374000300104F16000904607460391FDF72CF923
:1037500004F168010D463846FDF748FA04F15802B5
:1037600004F15001164638460291FDF71DF9B4F8F0
:103770005800A4F8B000B4F86A00A4F8B20004F14C
:10378000B002294630460092FDF70EF9324604F1A8
:1037900090010098FCF7E8FD04F1880104F1800035
:1037A00089460190FDF722FA34F8800F31462086D1
:1037B00034F8260C6086DDE90020FDF7F5F8208E50
:1037C0002087608924F83A0FA21E15464946BA3C64
:1037D0000098FDF7E9F8B4F8B800A4F8A800B4F828
:1037E0009A00A4F8AA0004F1A802174604F198016F
:1037F0002846FCF7B9FD29463846FCF73DFE494608
:103800003046009AFDF7D0F804F1A002934629460D
:103810000098FDF7C9F8B4F88000A4F8C0000127AB
:10382000A4F8C27004F1C002924641460198FDF727
:10383000BBF8B4F84800A4F8C80004F1C802A4F822
:10384000CA709146514604F14800FDF74BF934F82F
:10385000A00F52462084678449465846FDF7A4F8D5
:1038600051464046039AFCF77FFD2088208234F8B9
:103870001E1C6182208334F8460C6083DDE9002140
:103880005846FDF791F82A4631460098FDF78CF826
:10389000029A04B029463046BDE8F05FFDF722B930
:1038A000000000002DE9F047834F044604203880D3
:1038B0000820788021730D4604F1F0001E46A373A2
:1038C00089008046FDF735FA217B4346012204F149
:1038D0003000FCF7CDFD398804F1F80069438046DB
:1038E000FDF727FA217B4346012204F13800FCF75B
:1038F000BFFD398804F5887071438046FDF719FAD9
:10390000A17B4346012204F14800FCF7B1FD398850
:1039100004F58C70694369438046FDF70AFA217B00
:1039200043460A4604F15000FCF7A2FD398804F52D
:103930009470694369438046FDF7FBF9217B434658
:103940000A4604F15800FCF793FD398804F59C7091
:10395000694369438146FDF7ECF9398804F5A470A1
:10396000694369438046FDF7E4F9217B4B460A46EB
:1039700004F16000FCF77CFD217B43460A4604F11C
:103980006800FCF775FD398804F5BC707143694324
:103990008146FDF7CEF9398804F5C4706943714357
:1039A0008046FDF7C6F9227BA17B4B4604F18000DF
:1039B000FCF75EFDA27B217B434604F18800FCF707
:1039C00057FD398804F5CC70694369438046FDF79B
:1039D000B0F9217B43460A4604F19000FCF748FD0C
:1039E000398804F5D470714371438046FDF7A1F91D
:1039F000A17B43460A4604F19800FCF739FD39885B
:103A000004F5DC70694371430546FDF792F9A27B2A
:103A1000217B2B4604F1A000FCF72AFD217B04F555
:103A2000E4730A4604F1A800FCF722FD217B04F5AB
:103A3000EC730A4604F1B000FCF71AFD217B04F593
:103A4000F4730A4604F1B800FCF712FD217B04F57B
:103A5000FC73012204F1C000FCF70AFD217B04F590
:103A60000273012204F1C800FCF702FD9FED130A66
:103A7000DFED140A84ED3C0A84ED3D0A9FED100A47
:103A80009FED111A84ED460A84ED470AC4ED660ADB
:103A9000DFED0E0A84ED6A1AC4ED6B0AC4ED6C0A00
:103AA00084ED6D1A84ED6E0AC4ED6F0AC4ED700AE0
:103AB00084ED710ABDE8F087600300206F12833A3D
:103AC000CDCCCC3D0AD7233CAE47C13F000000001F
:103AD00010B57521012000F0C7F904460A2005F051
:103AE00097FF702C01D0012010BD80226B21012096
:103AF00000F020FA0A2005F08BFF00226B21012044
:103B000000F018FA0A2005F083FF0722682101203F
:103B100000F010FA0A2005F07BFF03226B21012040
:103B200000F008FA0A2005F073FF00226C21012042
:103B300000F000FA0A2005F06BFF00221A21012094
:103B400000F0F8F90A2005F063FF00221921012096
:103B500000F0F0F90A2005F05BFF00221A21012095
:103B600000F0E8F90A2005F053FF10221B21012084
:103B700000F0E0F90A2005F04BFF00221C21012093
:103B800000F0D8F90A2005F043FF01223821104641
:103B900000F0D0F90A2005F03BFF01223721104642
:103BA00000F0C8F90A2005F033FF0D22272101207B
:103BB00000F0C0F90A2005F02BFF0D22672101203B
:103BC00000F0B8F90A2005F023FF0D22272101207B
:103BD00000F0B0F90A2005F01BFF01226B2110460E
:103BE00000F0A8F90A2005F013FF00226C21012043
:103BF00000F0A0F90A2005F00BFF002010BD10B561
:103C00007521022000F030F904460A2005F000FF7B
:103C1000702C01D0012010BD80226B21022000F009
:103C200089F90A2005F0F4FE00226B21022000F041
:103C300081F90A2005F0ECFE07226821022000F03D
:103C400079F90A2005F0E4FE03226B21022000F03E
:103C500071F90A2005F0DCFE00226C21022000F040
:103C600069F90A2005F0D4FE00221A21022000F092
:103C700061F90A2005F0CCFE00221921022000F093
:103C800059F90A2005F0C4FE00221A21022000F092
:103C900051F90A2005F0BCFE10221B21022000F081
:103CA00049F90A2005F0B4FE00221C21022000F090
:103CB00041F90A2005F0ACFE01223821022000F073
:103CC00039F90A2005F0A4FE01223721022000F074
:103CD00031F90A2005F09CFE0D222721022000F078
:103CE00029F90A2005F094FE0D226721022000F038
:103CF00021F90A2005F08CFE0D222721022000F078
:103D000019F90A2005F084FE01226B21022000F03F
:103D100011F90A2005F07CFE00226C21022000F03F
:103D200009F90A2005F074FE002010BD10B500F05E
:103D30004DF9FFF7CDFE18B9FFF761FF002800D05D
:103D4000012010BD2DE9FC4791460F4680466B4689
:103D500006223B21012000F0B5F890B9BDF8000023
:103D60006B4640BA06B2BDF80200062240BA05B260
:103D7000BDF804003B2140BA04B2022000F0A2F8D2
:103D800010B10120BDE8FC87A8F800603D80A9F8CB
:103D900000400020F6E72DE9FC479146884606469C
:103DA0006B4606224321012000F08CF890B9BDF843
:103DB00000006B4640BA07B2BDF80200062240BAC6
:103DC00005B2BDF80400432140BA04B2022000F05D
:103DD00079F810B10120BDE8FC87BDF80210BDF8EC
:103DE000000049BA40BA09B200B2BDF80420394413
:103DF00001EBD171281A491000EBD07052BA318012
:103E0000401012B2A8F80000A01800EBD0704010CB
:103E1000A9F800000020DEE738B504466B46022210
:103E20004121012000F04EF8BDF8000040BA00B278
:103E3000FDF720F99FED081B53EC112BFDF79DF8C2
:103E40009FED071B53EC112BFCF77EFFFDF774F978
:103E50002060002038BD000052B81E85EBDD7440A4
:103E60000000000000002A402DE9F041134D144EDF
:103E70000F460446012802D0022C03D006E0102190
:103E8000284601E010213046FFF726FB47F080006E
:103E900000F086FEFF2000F083FE0746012C02D0D2
:103EA000022C03D006E01021284601E01021304604
:103EB000FFF714FB3846BDE8F0810000000802401F
:103EC000000002402DE9F047DFF86080DFF86090E5
:103ED0001D4614460F460646012802D0022E03D086
:103EE00006E01021404601E010214846FFF7F4FAB1
:103EF00047F0800000F054FE06E0FF2000F050FE86
:103F0000641E05F8010BE4B2002CF6D1012E02D09C
:103F1000022E03D006E01021404601E01021484661
:103F2000FFF7DCFA0020BDE8F0870000000802403F
:103F3000000002402DE9F041124D134E174688460D
:103F40000446012802D0022C03D006E010212846A6
:103F500001E010213046FFF7BFFA404600F020FE96
:103F6000384600F01DFE012C02D0022C03D006E0E2
:103F70001021284601E010213046FFF7AFFA00205B
:103F8000BDE8F08100080240000002401CB501219C
:103F9000022000F067FB01208DF8040000218DF85D
:103FA000061002218DF8051000908DF80700694673
:103FB0000248FFF745FA00F003F81CBD0004024078
:103FC00001210148FFF788BA000402402DE9FC41B5
:103FD0000121072000F046FB0121880300F066FB69
:103FE00001248DF804400025DFF86C8010278DF83F
:103FF0000650032600978DF8056069464046FFF796
:104000001FFA00978DF80440144F8DF806508DF874
:10401000056069463846FFF713FA8DF804408DF8BD
:10402000074000940E4C8DF806508DF805606946E7
:104030002046FFF705FA01212046FFF74DFA00F070
:1040400051FD10214046FFF749FA10213846FFF78D
:1040500045FABDE8FC810000000802400000024073
:10406000000402400FB430B52DED108B85B09DEDEE
:1040700028AB51EC1A0B81F000419DED1A0B0D4657
:104080008DED020B9DED208B45EC100B04469DED54
:104090001EFB9DED24EB9DED1CDB9DED22CB9DEDEC
:1040A00026BB9DED189B53EC182B51EC100BFDF724
:1040B00013F853EC1A2B51EC180B7DD2FDF724F8B2
:1040C00060D245EC104B53EC192B51EC100BFDF763
:1040D00003F860D353EC192B9FEDD40B51EC100B6C
:1040E000FCF7D3FE53EC182BFCF72EFE53EC1A2BE7
:1040F000FCF7CBFE41EC100B02F0F2FC9FEDCD1B68
:1041000051EC100B53EC112BFCF7C5FE41EC110BDD
:1041100053EC1E2B8DED001B51EC1D0BFCF7B5FE77
:104120009DED001B53EC112BFCF727FF9DED020BBF
:1041300041EC180B53EC102B51EC1F0BFCF704FE59
:1041400081F000419DED001B53EC112BFCF715FF96
:1041500041EC190B9FEDB90B9DED001B53EC102B9F
:1041600051EC110BFCF797FE41EC1A0B53EC1C2B96
:1041700051EC1B0B4CE19DED001B53EC112BFCF79C
:10418000FCFEB1E051EC180B81F0004153EC192B0F
:10419000FCF7A2FF4ED29FEDA50B51EC190B53EC8F
:1041A000102BFCF7D1FD53EC182BFCF7CDFD53EC95
:1041B0001A2BFCF7C9FD00E0CFE041EC100B02F038
:1041C0008FFC9FED9C1B51EC100B53EC112BFCF75B
:1041D00062FE41EC110B8DED001B9FED9A0B53EC31
:1041E000102BFCF758FE41EC180B53EC1B2B51EC39
:1041F0001C0BFCF74AFE9DED001B53EC112BFCF74A
:10420000BCFE41EC190B53EC1D2B51EC1E0BFCF7C3
:104210003CFE9DED001B53EC112BFCF7AEFE9DED1B
:10422000020B41EC1A0B53EC1F2B51EC100BFCF75B
:104230002CFEA0E753EC192B9FED7C0B51EC100BDF
:10424000FCF723FE53EC182BFCF71FFE53EC1A2B44
:10425000FCF77AFD41EC100B02F042FC9FED751B60
:1042600051EC100B53EC112BFCF715FE41EC110B2C
:1042700051EC1F0B8DED001B9DED020B53EC102B31
:10428000FCF703FE9DED001B53EC112BFCF775FEB4
:1042900041EC180B53EC1E2B51EC1D0BFCF754FD9D
:1042A00081F000419DED001B53EC112BFCF765FEE6
:1042B00041EC190B53EC1C2B51EC1B0BFCF744FD90
:1042C00081F000419DED001B53EC112BFCF755FED6
:1042D00041EC1A0B9FED590B9DED001B53EC102B7D
:1042E00051EC110BFCF7D7FD41EC1B0B9FED570B6D
:1042F00051EC180B53EC102BFCF7EEFE17D251ECDF
:10430000180B81F0004141EC180B51EC190B81F0B6
:10431000004141EC190B51EC1A0B81F0004141ECCA
:104320001A0B51EC1B0B81F0004141EC1B0B05B04B
:10433000B0EE480AF0EE680AB0EE491AF0EE691ADB
:10434000B0EE4A2AF0EE6A2AB0EE4B3AF0EE6B3A43
:10435000BDEC108B30BC5DF814FBFCF7D5FE5CD2D5
:1043600053EC182B51EC190BFCF7CEFEBFF4B2AE98
:1043700051EC190B9FED2D0B53EC102BFCF7E4FCCB
:1043800053EC182BFCF781FD53EC1A2BFCF77DFD49
:1043900041EC100B02F0A4FB9FED261B51EC100B1F
:1043A00053EC112BFCF777FD41EC110B53EC1C2B5C
:1043B0008DED001B51EC1B0BFCF767FD9DED001B09
:1043C00053EC112BFCF7D9FD9FED1C0B9DED001B51
:1043D00041EC180B53EC102B51EC110BFCF75BFD6F
:1043E0009DED020B41EC190B53EC102B51EC1F0B04
:1043F000FCF7AAFC81F000419DED001B53EC112B52
:10440000FCF7BBFD41EC1A0B53EC1E2B51EC1D0BC2
:10441000FCF79AFC81F00041ADE653EC1A2B51EC0D
:10442000190BFCF771FEA3D304E7000000000000A5
:104430000000F03F0000000000000040000000000D
:104440000000D0BF000000000000D03F00000000CE
:10445000000000000FB4482200B593B069469DEDFE
:10446000160B8DED000B9DED1C0B8DED020B9DEDE4
:10447000220B8DED040B9DED180B8DED060B9DEDC4
:104480001E0B8DED080B9DED240B8DED0A0B9DEDA4
:104490001A0B8DED0C0B9DED200B8DED0E0B9DED94
:1044A000260B8DED100BFCF72BFC13B05DF814FB05
:1044B000FEE7704730B50F23C27801780125FAB1C5
:1044C000144A126801F1E02102F4E062C2F5E062F0
:1044D000C2F30722C2F10404D3404278A240847898
:1044E0001C401443220181F80024007800F01F01D1
:1044F0008D404009800000F1E020C0F8005130BD3F
:1045000001F01F0085404809800000F1E020C0F85C
:10451000805130BD0CED00E00249084302490860BB
:10452000704700000000FA050CED00E0014800F0C3
:10453000EBBF0000B0030020A0B1D0ED101AC0ED19
:10454000111A90ED0F1A80ED101AC0ED060A80EDD9
:10455000070A30EEC00A80ED0F0A017829B101295F
:104560003CD079E09FED3E0A7047D0ED010A60EE45
:10457000801AC0ED091AD0ED0A0A90ED022A42EE27
:10458000000A30EE410AC0ED0A0A90ED0D2A80EDD6
:104590000E2A90ED0C2A80ED0D2A80ED0C0A90ED8C
:1045A000031A21EE000A80ED0B0A80ED120A90ED4D
:1045B000051AF4EEC10AF1EE10FA06DCB1EE411A6A
:1045C000F4EEC10AF1EE10FA01D280ED0A1AD0ED34
:1045D0000A0A71EEA00A30EE800A2BE070EE410A62
:1045E00090ED012A60EE820AC0ED090A90ED022AE0
:1045F00022EE002A80ED0A2AD0ED0D2A70EE820A02
:10460000C0ED0E2AD0ED0C2AC0ED0D2AF0EE002AE6
:1046100001EE620A30EE210A80ED0C0A90ED031AD9
:1046200021EE000A80ED0B0A30EE800AD0ED080A78
:1046300030EE200A80ED080AD0ED040AB4EEE00A5C
:10464000F1EE10FA06DCF1EE600AB4EEE00AF1EEEB
:1046500010FA01D2C0ED080A90ED080A7047000078
:1046600000000000044A0029116801D0014300E065
:10467000814311607047000030380240044A00292D
:10468000116801D0014300E08143116070470000D0
:1046900040380240044A0029116801D0014300E07B
:1046A000814311607047000020380240044A00290D
:1046B000116801D0014300E08143116070470000A0
:1046C00044380240044A0029116801D0014300E047
:1046D00081431160704700002438024070B5204BC0
:1046E0001968204C11F00C0104D06610042903D085
:1046F000082903D004601BE0066019E0184A121F65
:104700001168C1F38055116801F03F0115B1B6FB86
:10471000F1F101E0B4FBF1F114681268C4F38814FC
:104720006143C2F30142521C5200B1FBF2F101603D
:1047300019680F2202EA11110B4A545C0168E1402A
:1047400041601C68072505EA9424145D21FA04F4ED
:1047500084601B6805EA5333D25CD140C16070BDF0
:10476000083802400024F400600000202DE9F047E2
:104770008A468046012190B091460846FFF772FFB5
:1047800001214C042046FFF779FF01212046FFF765
:1047900081FF01212046FFF77DFF01214805FFF73A
:1047A00061FF3E4D072203212846FEF785FE0221C8
:1047B0008DF8141000248DF8164008208DF815107F
:1047C00004908DF8174004A92846FEF739FE344FAF
:1047D000384600F04FFC2E1532480090ADF80440EA
:1047E000ADF808600425ADF80640ADF80A50ADF804
:1047F0000C406946384600F0CBFC01224021384687
:1048000000F02FFC1021384600F018FC012240F285
:104810002441384600F0A3FC0121384600F017FC83
:1048200026208DF800008DF801508DF802400120FF
:104830008DF803006846FFF73DFE1B4D2846FEF746
:1048400019FC70040090381DCDE902840190CDF868
:104850001090CDE905468015CDE908404FF4403071
:10486000CDE90A0407940C940D94694628460E94E9
:10487000FEF7B2FC002251462846FEF797FC0121C4
:104880002846FEF789FC00212846FEF7E9FB0121B6
:104890002846FEF7E5FB10B0BDE8F08700000240B7
:1048A00000440040A086010088600240234810B503
:1048B000B0F90010224A0124914219D1B0F9021036
:1048C000914215D18188B1F5257F11D1B0F906103B
:1048D00091420DD184F31388BFF34F8F19480168BB
:1048E000194A01F4E06111430160BFF34F8FFEE705
:1048F000827A164B1148022A5968C07A02D00228DF
:104900000CD001E0022807D003280DD001280AD1DD
:10491000032A08D1042004E0002002E0032A02D187
:104920000520C3E9010110BD032A04D0022AFAD1EF
:104930000620586010BDC3E9014110BD800A002067
:104940006CFDFFFF0CED00E00400FA0548000020BC
:10495000F0B390ED102A80ED112A90ED0F2A80ED32
:10496000102AC0ED060A80ED070A30EEC00A80ED7D
:104970000F0AD0ED010A60EE802AC0ED092AD0EDC1
:104980000A0A90ED023A43EE000A30EE420AC0ED08
:104990000A0A90ED0D3A80ED0E3A90ED0C3A80ED5A
:1049A0000D3A80ED0C0AB7EE000A90ED122A30EEB7
:1049B000610A20EE020A90ED032A22EE011A01EEAE
:1049C000210A80ED0B0A80ED120A90ED051A00E035
:1049D00028E0F4EEC10AF1EE10FA06DCB1EE411A5D
:1049E000F4EEC10AF1EE10FA01D280ED0A1AD0ED10
:1049F0000A0A72EEA00A30EE800A80ED080AD0EDB5
:104A0000040AB4EEE00AF1EE10FA06DCF1EE600AF8
:104A1000B4EEE00AF1EE10FA01D2C0ED080A90ED12
:104A2000080A70479FED010A70470000000000006F
:104A3000F0B5002855D0002953D00278437842EAD7
:104A40000322C2F30A030B8042788478D20842EA38
:104A50004412C2F30A024A808478C578A40944EA61
:104A60008504057944EA8524C4F30A048C80057919
:104A700046796D0845EAC615C5F30A05CD80467925
:104A8000C6F301168E724679B609CE728679C77959
:104A900046EA07268E81067A477A46EA0726CE81BD
:104AA000867AC77A46EA07260E82067B8E74467B94
:104AB000CE74867BC77B46EA07268E82067C407CC6
:104AC000A3F580630B80A2F580624A80A4F5806420
:104AD00046EA00208C80A5F58065CD80A0F5806039
:104AE0000881F0BD70B5012188B00846FFF7BAFD16
:104AF00001210D032846FFF7D9FD02218DF818107A
:104B00000024E0208DF81A4005908DF8191001203E
:104B1000214E8DF81B0005A93046FEF791FC0522B9
:104B200011463046FEF7C8FC052206213046FEF746
:104B3000C3FC052207213046FEF7BEFC01212846B2
:104B4000FFF7C0FD00212846FFF7BCFD134D0021F3
:104B5000284600F03FF8ADF800404FF48270ADF801
:104B60000200ADF808406815ADF80A001020ADF855
:104B70000C000720ADF80440ADF81000ADF8064079
:104B8000ADF80E406946284600F039F80121284664
:104B900000F020F808B070BD000002400030014075
:104BA00070B50B4C05460221204600F01DF8002888
:104BB000F9D02946204600F020F80121204600F0D7
:104BC00013F80028F9D0204600F015F8C0B270BDE7
:104BD000003001400029018802D041F0400101E08D
:104BE00021F04001018070470246002012890A42EC
:104BF00000D001207047808970478181704730B5AF
:104C000002884C8802F441530A88CD8822438C885C
:104C10002C4322430C8922434C8922438C89224312
:104C2000CC8922431A430280828B22F40062828361
:104C3000098A018230BD00000CB50022274900928C
:104C40000192086840F4803008604FF4A04308687F
:104C500000F4003001900098401C0090019810B9B9
:104C600000989842F3D10868800334D50120019060
:104C70001A484030026842F08052026018480268C8
:104C800042F440420260154808300268026002683F
:104C900042F400420260026842F4A0520260031F24
:104CA000104A1A600A6842F080720A600A6892012B
:104CB000FCD50D4940F205720A60016821F003013C
:104CC0000160016841F0020101600168C1F38101E6
:104CD0000229FAD10CBD01920CBD0000003802403F
:104CE0000070004008544007003C02404FF0E021B3
:104CF0000428086903D020F004000861704740F0E0
:104D00000400FAE710B506F0C9FB012803D0BDE89E
:104D1000104006F0B7B810BD124810B5016841F454
:104D2000700101601048016841F0010101600E4A04
:104D300000210832116002680C4B1A400260031D0A
:104D40000B4A1A60026822F48022026006480C3086
:104D50000160FFF771FF03494FF000608039086080
:104D600010BD000088ED00E000380240FFFFF6FEB5
:104D70001030002410B5054C0121204600F05DF8EC
:104D80002046BDE81040012100F04AB80004004070
:104D900010B50A4C0121204600F04FF8012807D138
:104DA0000749D1E90020521C40F10000C1E9002070
:104DB0002046BDE81040012100F032B8000C004050
:104DC000280000207FB50C46054601210820FFF78A
:104DD00055FCADF8004001950024104DADF802409F
:104DE000ADF808406946284600F03CF8012211461B
:104DF000284600F02EF80121284600F014F8322051
:104E00008DF80C0006208DF80D008DF80E40012065
:104E10008DF80F0003A8FFF74DFB7FBD000C00408D
:104E2000C943018270470029018802D041F0010185
:104E300001E021F001010180704702460020138A41
:104E400092890B4202EA010202D0002A00D001201E
:104E50007047002A828901D00A4300E08A43828198
:104E60007047000030B50288164C174DA0420DD097
:104E7000A8420BD0B0F1804F08D0144B984205D017
:104E8000134B984202D0134B984203D122F0700387
:104E90004A881A43104B984206D0104B984203D0D0
:104EA00022F440730A891A4302804A68C2620A885F
:104EB0000285A04201D0A84201D1897A0186012150
:104EC000818230BD00000140000401400004004028
:104ED00000080040000C004000100040001400409A
:104EE0007CB5154C40F225552946204600F018F9AE
:104EF00090B12946204600F0A4F82088A0882046DA
:104F000000F09CF98DF800000C48002301AA6946C6
:104F1000406806F0E3F97CBD40F22531204600F000
:104F2000FFF80028F7D00821204600F087F8204637
:104F300000F084F97CBD00000050004058000020C3
:104F40002DE9F047384C40F22551204600F0E8F8B2
:104F500020B12046BDE8F04700F070B940F2244986
:104F60004946204600F0DCF800285AD0A0462046EA
:104F700000F064F92D4E3046FEF726F92B4C2C4DEF
:104F8000883C2C4F00284FF0000130461CD0FEF723
:104F900067F83046FEF715F9C0F124002880242177
:104FA0003046FEF743F954F8880F20F400202060C3
:104FB00039463046FEF73EF801213046FEF750F8FC
:104FC0002888122820D026E0FEF74AF83046FEF75F
:104FD000F8F8C0F12400288024213046FEF726F995
:104FE00054F8880F40F40020206039463046FEF720
:104FF00021F801213046FEF733F8288812280AD11B
:105000000D4901F1160002E00B4901F13A00FFF7EA
:105010000FFDFFF74BFC49464046BDE8F04700F066
:1050200010B8BDE8F08700000044004088600240EE
:105030004800002030000020800A0020C943018081
:1050400070470A0A01219140C94301807047002935
:10505000818902D041F4005101E021F400518181A5
:105060007047002A828A01D00A4300E08A43828284
:1050700070470000224910B5884206D10121102056
:10508000FFF720FB0021102020E01E49884202D1BA
:1050900001214C0429E01C49884202D101218C04E1
:1050A00023E01A49884202D10121CC041DE01849AD
:1050B000884202D101210C0517E01649884209D126
:1050C00001212020FFF7FEFA00212020BDE810403A
:1050D000FFF7F8BA1049884202D101218C0704E099
:1050E0000E4988420AD1012144052046FFF7D2FA31
:1050F0002046BDE810400021FFF7CCBA10BD0000EB
:10510000001001400044004000480040004C0040B6
:10511000005000400014014000780040007C004036
:1051200070B501F01F0501260024C1F3421306FAF1
:1051300005F2012B0FD0022B0FD0838A4FEA1121E9
:105140000088134206FA01F600EA060001D000B119
:105150000124204670BD8389F0E7038AEEE710B58D
:10516000C1F3421301F01F040121A140012B07D01C
:10517000022B07D01430002A026805D00A4304E04D
:105180000C30F8E71030F6E78A43026010BD0000EB
:105190007FB50446008A0D46C98820F4405001437B
:1051A0002182A08941F20C618843A9882A89114390
:1051B0006A8902431143A181A08A20F44071A88921
:1051C0000843A0826846FFF789FA1A48844202D051
:1051D0001948844201D1039800E00298A18909048A
:1051E00000EBC00101EB0010296801D5490000E087
:1051F0008900B0FBF1F06422B0FBF2F109010B0968
:105200006FF018056B4300EB8300A3891D044FF07A
:10521000320306D503EBC000B0FBF2F000F007004C
:1052200005E003EB0010B0FBF2F000F00F000843C4
:1052300020817FBD00100140001401408088C0F330
:105240000800704710B5D0F8E42552689047002058
:1052500010BD10B5134600240A462146FDF7A6FCF2
:10526000204610BD10B5134600240A462146FDF71E
:10527000E3FC204610BD10B504468021FDF7C0FCBC
:1052800000212046FDF7BCFC2046BDE8104000F0A0
:105290002FBC70B505460024052085F81101234672
:1052A000224621462846FDF781FC284600F020FCD6
:1052B000204670BD10B5C0F83C210223C0F838214B
:1052C00080F81131134600240A462146FDF7B4FC4C
:1052D000204610BD70B505460024042085F8110154
:1052E0002346224621462846FDF7A6FC284600F024
:1052F000FFFB204670BD000070B5054641B1D5F8F2
:10530000E40542698AB395F81201032846D047E0C4
:1053100095F81101002605F58E74022833D1E16954
:10532000A06881420FD9081AE061E878012803D10A
:10533000D4E902100844E060A08BE16882B22846FC
:10534000FFF790FF1FE0216AB1FBF0F200FB1212A1
:1053500062B981420AD3606A814207D200221146B3
:105360002846FFF77FFF66620DE016E0D5F8E405FA
:10537000C16829B195F81201032801D12846884750
:105380002846FFF786FF95F81601012808D1054841
:1053900000682969486085F8166101E02846904751
:1053A000002070BD9403002070B5054641B1D5F8CA
:1053B000E4058269FAB195F8120103282AD02BE09E
:1053C00095F8110105F55D74032825D1A168E06900
:1053D000884211D9401AE061E878012802D1E068DA
:1053E0000844E060E069884200D3084682B228465B
:1053F000E168FFF72EFF0FE0D5F8E405016929B158
:1054000095F81201032801D1284688472846FFF75E
:1054100061FF01E028469047002070BD38B5044682
:1054200048880D46010A04295AD2DFE801F05902E2
:105430001420D4F8EC15A0780A6869469047014614
:10544000E888402803D094F81201012837D10820B9
:10545000ADF8000037E0D4F8E415A0788A6A694610
:105460009047014602204870C4F8F01527E0C0B20A
:10547000062835D2DFE800F003080D12171CD4F817
:10548000EC15A0784A6817E0D4F8EC15A0788A6883
:1054900012E0D4F8EC15A078CA680DE0D4F8EC1549
:1054A000A0780A6908E0D4F8EC15A0784A6903E00E
:1054B000D4F8EC15A0788A69694690470146BDF892
:1054C000000000280BD0EA88002A08D080B282426F
:1054D00000D90246ADF800202046FFF7EBFE38BDAC
:1054E00029462046FFF7C7FE38BD10B5D0F8E415B1
:1054F000096A8847002010BD10B5D0F8E415496A44
:105500008847002010BD00002DE9F0410646002428
:1055100000F025FC00286AD0304600F029FC051E6A
:1055200066D0280303D53046FDF72EFC04466803F9
:1055300003D53046FDF7C8FB0443A80702D5F16840
:10554000022048612B4F002D16DAB07A28B1D6F828
:105550000C01016821F0030101603069416821F00C
:10556000010141603868816930468847F1684FF031
:105570000040486144F00104280503D53046FDF79A
:1055800097FC0443280708D53868C1683046884727
:10559000F1680820486144F00104E80603D530466C
:1055A000FDF748FC0443E80403D53046FDF7B8FC9A
:1055B0000443A80403D53046FDF75DFB0443E8022D
:1055C00009D53868C16930468847F1684FF48010C2
:1055D000486144F00104A80209D53868016A3046E0
:1055E0008847F1684FF40010486144F001042046F8
:1055F000BDE8F0819003002090F8CC250A7090F867
:10560000CD254A7090F8CE2590F8CF3502EB0322D5
:105610004A8090F8D02590F8D13502EB03228A8099
:1056200090F8D22590F8D33502EB032292B2CA80CB
:105630000121C0F8402180F81111704710B50023F6
:10564000044640221946FDF793FA002340228021A8
:105650002046FDF78DFA012084F81201D4F8E815F0
:10566000A07849688847002010BD10B50446D0F8DE
:10567000E80500698047032084F81201002010BD6E
:1056800010B5D0F8E415C96901B18847002010BDF4
:1056900010B50446D0F8E405026820469047D4F8D7
:1056A000E80580688047002010BD000070B50A46FC
:1056B0001A4D897804462970012905D894F81201F9
:1056C000022807D003280CD02046BDE870401146C0
:1056D000FFF7D1BDA1B184F81011032084F81201A5
:1056E0000BE091B194F81001884209D001462046A0
:1056F000FFF7A8FD297884F810112046FFF7C8FFAE
:105700002046BDE87040FFF7E5BD022084F8120195
:1057100084F810112046FFF795FDF1E7980300206B
:1057200010B504464888012201280FD0022831D143
:10573000888810F0FF0F2DD121694968000A0628DA
:105740001FD2DFE800F01E0B0F13171BC4F818213F
:10575000D4F8E40582682046904716E021F07001F5
:1057600010310EE021F0700120310AE021F07001CB
:10577000303106E021F07001403102E021F070018B
:1057800050310548016084F816212046BDE81040DC
:10579000FFF7A0BD10BD0000940300201CB5044617
:1057A0006946FFF729FF9DF8002012F01F010AD07B
:1057B00001290DD0022910D002F080012046FDF70A
:1057C0001FFA00201CBD6946204600F00BF8F8E7E0
:1057D0006946204600F0E8F8F3E76946204600F005
:1057E00079F8EEE72DE9F0414A78002701260A2AE8
:1057F00042D2DFE802F03B554152410805412A27D9
:10580000FFF70CFE61E004468888C8B9C888B8B9BB
:10581000887800F07F0594F81201032810D084F8EE
:10582000145129462046FDF7E3F92046FFF752FDC3
:105830001DB1022084F8120147E084F8126144E0AF
:10584000204619E0FFF732FF3FE0CA88012A13D152
:1058500090F81221022A02D0032A0DD102E001227F
:105860001B4917E0012200F5887113E090F812211E
:10587000022A04D0032A02D0FFF7FDFC25E01449D8
:105880000839CE60D0F818210AB10322CA60104945
:105890000222091DFFF70EFD17E0FFF741FF14E09C
:1058A000044690F81201022801D00328C8D1488884
:1058B00001280AD10020C4F81801D4F8E405826850
:1058C000204690472046FFF705FD3846BDE8F081A9
:1058D000A003002070B50D460446097968780026BB
:1058E00058B3012816D0032831D194F812010228A8
:1058F0002FD0032827D1688828B921B1802902D068
:105900002046FDF77DF9D4F8E40529468268204653
:1059100090470EE094F8120102281AD0032812D101
:105920006888A0B929B1802903D02046FDF704F981
:10593000E9E72046FFF7CEFC09E094F812010228BF
:1059400007D003280DD029462046FFF794FC3046A7
:1059500070BD0029FBD08029F9D02046FDF750F911
:10596000F5E7104A08064FF000034FF0010508D58F
:1059700001F07F0000EB800004EBC00090F81E01F6
:1059800005E001EB810004EBC00090F8760308B15C
:10599000556000E0536003490222091D2046FFF7CD
:1059A00089FCD4E79803002070B5054690F81201F1
:1059B00000260C4603280DD1207901280AD8D5F8F5
:1059C000E405826828469047E08830B92846FFF70A
:1059D00081FC02E02846FFF74EFC304670BD10B552
:1059E00090F8121180F81311042180F81211D0F8E8
:1059F000E805C0688047002010BD03F033BF10B534
:105A000001690024896883691A68C1F3410129B1D9
:105A1000012903D0022904D0032905D16FF30A021A
:105A200002E06FF30A02D21C1A600069416841F477
:105A300080714160204610BDF0B54B7800254A6961
:105A4000012B14D00B7800EB8304636D1E681B6977
:105A5000E2B38A684A6162F3060323F4C012636DFD
:105A600002F500221A61C278012A32D037E0836938
:105A70001F681C6932B18E68B24208D966F3060409
:105A80004E6106E024F07F0222F4C01203E062F3CC
:105A9000060424F4C01202F500221A61C278012A19
:105AA00005D10C780A6900EB8404A469626147F0AF
:105AB00004421A60C278CAB94A69BAB10A78006960
:105AC00001219140426B0A4342630FE0FFE70A7AEB
:105AD000C1E70B780A6900EB83035B6D5A610978B3
